{
	"Auction.sol": {
		"Auction": {
			"abi": [
				{
					"inputs": [],
					"stateMutability": "nonpayable",
					"type": "constructor"
				},
				{
					"anonymous": false,
					"inputs": [
						{
							"indexed": false,
							"internalType": "uint256",
							"name": "newEndTime",
							"type": "uint256"
						}
					],
					"name": "AuctionExtended",
					"type": "event"
				},
				{
					"anonymous": false,
					"inputs": [
						{
							"indexed": true,
							"internalType": "address",
							"name": "winner",
							"type": "address"
						},
						{
							"indexed": false,
							"internalType": "uint256",
							"name": "amount",
							"type": "uint256"
						}
					],
					"name": "FinalWinner",
					"type": "event"
				},
				{
					"anonymous": false,
					"inputs": [
						{
							"indexed": true,
							"internalType": "address",
							"name": "bidder",
							"type": "address"
						},
						{
							"indexed": false,
							"internalType": "uint256",
							"name": "amount",
							"type": "uint256"
						}
					],
					"name": "NewHighestBid",
					"type": "event"
				},
				{
					"inputs": [],
					"name": "bid",
					"outputs": [],
					"stateMutability": "payable",
					"type": "function"
				},
				{
					"inputs": [],
					"name": "claim",
					"outputs": [],
					"stateMutability": "nonpayable",
					"type": "function"
				},
				{
					"inputs": [],
					"name": "partialClaim",
					"outputs": [],
					"stateMutability": "nonpayable",
					"type": "function"
				},
				{
					"inputs": [],
					"name": "refund",
					"outputs": [],
					"stateMutability": "nonpayable",
					"type": "function"
				},
				{
					"inputs": [],
					"name": "showOffers",
					"outputs": [
						{
							"components": [
								{
									"internalType": "address",
									"name": "bider",
									"type": "address"
								},
								{
									"internalType": "uint256",
									"name": "value",
									"type": "uint256"
								},
								{
									"internalType": "uint256",
									"name": "idOffer",
									"type": "uint256"
								},
								{
									"internalType": "bool",
									"name": "offerReclaimed",
									"type": "bool"
								}
							],
							"internalType": "struct Auction.Biders[]",
							"name": "",
							"type": "tuple[]"
						}
					],
					"stateMutability": "view",
					"type": "function"
				},
				{
					"inputs": [],
					"name": "showWinner",
					"outputs": [
						{
							"components": [
								{
									"internalType": "address",
									"name": "bider",
									"type": "address"
								},
								{
									"internalType": "uint256",
									"name": "value",
									"type": "uint256"
								},
								{
									"internalType": "uint256",
									"name": "idOffer",
									"type": "uint256"
								},
								{
									"internalType": "bool",
									"name": "offerReclaimed",
									"type": "bool"
								}
							],
							"internalType": "struct Auction.Biders",
							"name": "",
							"type": "tuple"
						}
					],
					"stateMutability": "view",
					"type": "function"
				}
			],
			"devdoc": {
				"details": "Implements a bidding auction with refund and claim mechanisms.",
				"kind": "dev",
				"methods": {},
				"title": "Auction",
				"version": 1
			},
			"evm": {
				"assembly": "    /* \"Auction.sol\":163:5408  contract Auction {... */\n  mstore(0x40, 0xc0)\n    /* \"Auction.sol\":1230:1367  constructor() {... */\n  callvalue\n  dup1\n  iszero\n  tag_1\n  jumpi\n  0x00\n  dup1\n  revert\ntag_1:\n  pop\n    /* \"Auction.sol\":1263:1273  msg.sender */\n  caller\n    /* \"Auction.sol\":1255:1273  owner = msg.sender */\n  0xffffffffffffffffffffffffffffffffffffffff\n  and\n  0x80\n  dup2\n  0xffffffffffffffffffffffffffffffffffffffff\n  and\n  dup2\n  mstore\n  pop\n  pop\n    /* \"Auction.sol\":1296:1311  block.timestamp */\n  timestamp\n    /* \"Auction.sol\":1284:1311  startTime = block.timestamp */\n  0xa0\n  dup2\n  dup2\n  mstore\n  pop\n  pop\n    /* \"Auction.sol\":565:571  7 days */\n  0x093a80\n    /* \"Auction.sol\":1332:1341  startTime */\n  mload(0xa0)\n    /* \"Auction.sol\":1332:1359  startTime + AUCTIONDURATION */\n  tag_4\n  swap2\n  swap1\n  tag_5\n  jump\t// in\ntag_4:\n    /* \"Auction.sol\":1322:1329  endTime */\n  0x07\n    /* \"Auction.sol\":1322:1359  endTime = startTime + AUCTIONDURATION */\n  dup2\n  swap1\n  sstore\n  pop\n    /* \"Auction.sol\":163:5408  contract Auction {... */\n  jump(tag_6)\n    /* \"#utility.yul\":7:84   */\ntag_7:\n    /* \"#utility.yul\":44:51   */\n  0x00\n    /* \"#utility.yul\":73:78   */\n  dup2\n    /* \"#utility.yul\":62:78   */\n  swap1\n  pop\n    /* \"#utility.yul\":7:84   */\n  swap2\n  swap1\n  pop\n  jump\t// out\n    /* \"#utility.yul\":90:270   */\ntag_8:\n    /* \"#utility.yul\":138:215   */\n  0x4e487b7100000000000000000000000000000000000000000000000000000000\n    /* \"#utility.yul\":135:136   */\n  0x00\n    /* \"#utility.yul\":128:216   */\n  mstore\n    /* \"#utility.yul\":235:239   */\n  0x11\n    /* \"#utility.yul\":232:233   */\n  0x04\n    /* \"#utility.yul\":225:240   */\n  mstore\n    /* \"#utility.yul\":259:263   */\n  0x24\n    /* \"#utility.yul\":256:257   */\n  0x00\n    /* \"#utility.yul\":249:264   */\n  revert\n    /* \"#utility.yul\":276:467   */\ntag_5:\n    /* \"#utility.yul\":316:319   */\n  0x00\n    /* \"#utility.yul\":335:355   */\n  tag_13\n    /* \"#utility.yul\":353:354   */\n  dup3\n    /* \"#utility.yul\":335:355   */\n  tag_7\n  jump\t// in\ntag_13:\n    /* \"#utility.yul\":330:355   */\n  swap2\n  pop\n    /* \"#utility.yul\":369:389   */\n  tag_14\n    /* \"#utility.yul\":387:388   */\n  dup4\n    /* \"#utility.yul\":369:389   */\n  tag_7\n  jump\t// in\ntag_14:\n    /* \"#utility.yul\":364:389   */\n  swap3\n  pop\n    /* \"#utility.yul\":412:413   */\n  dup3\n    /* \"#utility.yul\":409:410   */\n  dup3\n    /* \"#utility.yul\":405:414   */\n  add\n    /* \"#utility.yul\":398:414   */\n  swap1\n  pop\n    /* \"#utility.yul\":433:436   */\n  dup1\n    /* \"#utility.yul\":430:431   */\n  dup3\n    /* \"#utility.yul\":427:437   */\n  gt\n    /* \"#utility.yul\":424:460   */\n  iszero\n  tag_15\n  jumpi\n    /* \"#utility.yul\":440:458   */\n  tag_16\n  tag_8\n  jump\t// in\ntag_16:\n    /* \"#utility.yul\":424:460   */\ntag_15:\n    /* \"#utility.yul\":276:467   */\n  swap3\n  swap2\n  pop\n  pop\n  jump\t// out\n    /* \"Auction.sol\":163:5408  contract Auction {... */\ntag_6:\n  mload(0x80)\n  mload(0xa0)\n  codecopy(0x00, dataOffset(sub_0), dataSize(sub_0))\n  0x00\n  assignImmutable(\"0xd4d1a59767271eefdc7830a772b9732a11d503531d972ab8c981a6b1c0e666e5\")\n  0x00\n  assignImmutable(\"0x731dc163f73d31d8c68f9917ce4ff967753939f70432973c04fd2c2a48148607\")\n  return(0x00, dataSize(sub_0))\nstop\n\nsub_0: assembly {\n        /* \"Auction.sol\":163:5408  contract Auction {... */\n      mstore(0x40, 0x80)\n      jumpi(tag_1, lt(calldatasize, 0x04))\n      shr(0xe0, calldataload(0x00))\n      dup1\n      0x1998aeef\n      eq\n      tag_2\n      jumpi\n      dup1\n      0x464fcd69\n      eq\n      tag_3\n      jumpi\n      dup1\n      0x4e71d92d\n      eq\n      tag_4\n      jumpi\n      dup1\n      0x534823bf\n      eq\n      tag_5\n      jumpi\n      dup1\n      0x590e1ae3\n      eq\n      tag_6\n      jumpi\n      dup1\n      0xb7e03264\n      eq\n      tag_7\n      jumpi\n    tag_1:\n      0x00\n      dup1\n      revert\n        /* \"Auction.sol\":1873:2694  function bid() external payable isActive {... */\n    tag_2:\n      tag_8\n      tag_9\n      jump\t// in\n    tag_8:\n      stop\n        /* \"Auction.sol\":3995:4631  function partialClaim() external isActive {... */\n    tag_3:\n      callvalue\n      dup1\n      iszero\n      tag_10\n      jumpi\n      0x00\n      dup1\n      revert\n    tag_10:\n      pop\n      tag_11\n      tag_12\n      jump\t// in\n    tag_11:\n      stop\n        /* \"Auction.sol\":3597:3905  function claim() external isFinished {... */\n    tag_4:\n      callvalue\n      dup1\n      iszero\n      tag_13\n      jumpi\n      0x00\n      dup1\n      revert\n    tag_13:\n      pop\n      tag_14\n      tag_15\n      jump\t// in\n    tag_14:\n      stop\n        /* \"Auction.sol\":4848:4942  function showOffers() external view returns (Biders[] memory) {... */\n    tag_5:\n      callvalue\n      dup1\n      iszero\n      tag_16\n      jumpi\n      0x00\n      dup1\n      revert\n    tag_16:\n      pop\n      tag_17\n      tag_18\n      jump\t// in\n    tag_17:\n      mload(0x40)\n      tag_19\n      swap2\n      swap1\n      tag_20\n      jump\t// in\n    tag_19:\n      mload(0x40)\n      dup1\n      swap2\n      sub\n      swap1\n      return\n        /* \"Auction.sol\":2794:3534  function refund() external onlyOwner isFinished {... */\n    tag_6:\n      callvalue\n      dup1\n      iszero\n      tag_21\n      jumpi\n      0x00\n      dup1\n      revert\n    tag_21:\n      pop\n      tag_22\n      tag_23\n      jump\t// in\n    tag_22:\n      stop\n        /* \"Auction.sol\":4701:4793  function showWinner() external view returns (Biders memory) {... */\n    tag_7:\n      callvalue\n      dup1\n      iszero\n      tag_24\n      jumpi\n      0x00\n      dup1\n      revert\n    tag_24:\n      pop\n      tag_25\n      tag_26\n      jump\t// in\n    tag_25:\n      mload(0x40)\n      tag_27\n      swap2\n      swap1\n      tag_28\n      jump\t// in\n    tag_27:\n      mload(0x40)\n      dup1\n      swap2\n      sub\n      swap1\n      return\n        /* \"Auction.sol\":1873:2694  function bid() external payable isActive {... */\n    tag_9:\n        /* \"Auction.sol\":1464:1471  endTime */\n      sload(0x07)\n        /* \"Auction.sol\":1446:1461  block.timestamp */\n      timestamp\n        /* \"Auction.sol\":1446:1471  block.timestamp < endTime */\n      lt\n        /* \"Auction.sol\":1438:1488  require(block.timestamp < endTime, \"Bid finished\") */\n      tag_30\n      jumpi\n      mload(0x40)\n      0x08c379a000000000000000000000000000000000000000000000000000000000\n      dup2\n      mstore\n      0x04\n      add\n      tag_31\n      swap1\n      tag_32\n      jump\t// in\n    tag_31:\n      mload(0x40)\n      dup1\n      swap2\n      sub\n      swap1\n      revert\n    tag_30:\n        /* \"Auction.sol\":1945:1946  0 */\n      0x00\n        /* \"Auction.sol\":1933:1942  msg.value */\n      callvalue\n        /* \"Auction.sol\":1933:1946  msg.value > 0 */\n      gt\n        /* \"Auction.sol\":1925:1980  require(msg.value > 0, \"Bid must be greater than zero\") */\n      tag_34\n      jumpi\n      mload(0x40)\n      0x08c379a000000000000000000000000000000000000000000000000000000000\n      dup2\n      mstore\n      0x04\n      add\n      tag_35\n      swap1\n      tag_36\n      jump\t// in\n    tag_35:\n      mload(0x40)\n      dup1\n      swap2\n      sub\n      swap1\n      revert\n    tag_34:\n        /* \"Auction.sol\":2022:2023  0 */\n      0x00\n        /* \"Auction.sol\":2000:2024  msg.sender != address(0) */\n      0xffffffffffffffffffffffffffffffffffffffff\n      and\n        /* \"Auction.sol\":2000:2010  msg.sender */\n      caller\n        /* \"Auction.sol\":2000:2024  msg.sender != address(0) */\n      0xffffffffffffffffffffffffffffffffffffffff\n      and\n      sub\n        /* \"Auction.sol\":1992:2051  require(msg.sender != address(0), \"Invalid sender address\") */\n      tag_37\n      jumpi\n      mload(0x40)\n      0x08c379a000000000000000000000000000000000000000000000000000000000\n      dup2\n      mstore\n      0x04\n      add\n      tag_38\n      swap1\n      tag_39\n      jump\t// in\n    tag_38:\n      mload(0x40)\n      dup1\n      swap2\n      sub\n      swap1\n      revert\n    tag_37:\n        /* \"Auction.sol\":2065:2078  uint256 value */\n      0x00\n        /* \"Auction.sol\":2081:2090  msg.value */\n      callvalue\n        /* \"Auction.sol\":2065:2090  uint256 value = msg.value */\n      swap1\n      pop\n        /* \"Auction.sol\":2101:2115  address sender */\n      0x00\n        /* \"Auction.sol\":2118:2128  msg.sender */\n      caller\n        /* \"Auction.sol\":2101:2128  address sender = msg.sender */\n      swap1\n      pop\n        /* \"Auction.sol\":2139:2159  uint256 offerWinning */\n      0x00\n        /* \"Auction.sol\":2162:2187  _checkOffer(winner.value) */\n      tag_40\n        /* \"Auction.sol\":2174:2180  winner */\n      0x00\n        /* \"Auction.sol\":2174:2186  winner.value */\n      0x01\n      add\n      sload\n        /* \"Auction.sol\":2162:2173  _checkOffer */\n      tag_41\n        /* \"Auction.sol\":2162:2187  _checkOffer(winner.value) */\n      jump\t// in\n    tag_40:\n        /* \"Auction.sol\":2139:2187  uint256 offerWinning = _checkOffer(winner.value) */\n      swap1\n      pop\n        /* \"Auction.sol\":2212:2224  offerWinning */\n      dup1\n        /* \"Auction.sol\":2204:2209  value */\n      dup4\n        /* \"Auction.sol\":2204:2224  value > offerWinning */\n      gt\n        /* \"Auction.sol\":2200:2675  if (value > offerWinning) {... */\n      iszero\n      tag_42\n      jumpi\n        /* \"Auction.sol\":2241:2249  numOffer */\n      0x08\n        /* \"Auction.sol\":2241:2257  numOffer[sender] */\n      0x00\n        /* \"Auction.sol\":2250:2256  sender */\n      dup4\n        /* \"Auction.sol\":2241:2257  numOffer[sender] */\n      0xffffffffffffffffffffffffffffffffffffffff\n      and\n      0xffffffffffffffffffffffffffffffffffffffff\n      and\n      dup2\n      mstore\n      0x20\n      add\n      swap1\n      dup2\n      mstore\n      0x20\n      add\n      0x00\n      keccak256\n      0x00\n        /* \"Auction.sol\":2241:2259  numOffer[sender]++ */\n      dup2\n      sload\n      dup1\n      swap3\n      swap2\n      swap1\n      tag_43\n      swap1\n      tag_44\n      jump\t// in\n    tag_43:\n      swap2\n      swap1\n      pop\n      sstore\n      pop\n        /* \"Auction.sol\":2289:2294  value */\n      dup3\n        /* \"Auction.sol\":2274:2280  winner */\n      0x00\n        /* \"Auction.sol\":2274:2286  winner.value */\n      0x01\n      add\n        /* \"Auction.sol\":2274:2294  winner.value = value */\n      dup2\n      swap1\n      sstore\n      pop\n        /* \"Auction.sol\":2324:2330  sender */\n      dup2\n        /* \"Auction.sol\":2309:2315  winner */\n      0x00\n        /* \"Auction.sol\":2309:2321  winner.bider */\n      dup1\n      add\n      0x00\n        /* \"Auction.sol\":2309:2330  winner.bider = sender */\n      0x0100\n      exp\n      dup2\n      sload\n      dup2\n      0xffffffffffffffffffffffffffffffffffffffff\n      mul\n      not\n      and\n      swap1\n      dup4\n      0xffffffffffffffffffffffffffffffffffffffff\n      and\n      mul\n      or\n      swap1\n      sstore\n      pop\n        /* \"Auction.sol\":2347:2353  biders */\n      0x04\n        /* \"Auction.sol\":2359:2405  Biders(sender, value, numOffer[sender], false) */\n      mload(0x40)\n      dup1\n      0x80\n      add\n      0x40\n      mstore\n      dup1\n        /* \"Auction.sol\":2366:2372  sender */\n      dup5\n        /* \"Auction.sol\":2359:2405  Biders(sender, value, numOffer[sender], false) */\n      0xffffffffffffffffffffffffffffffffffffffff\n      and\n      dup2\n      mstore\n      0x20\n      add\n        /* \"Auction.sol\":2374:2379  value */\n      dup6\n        /* \"Auction.sol\":2359:2405  Biders(sender, value, numOffer[sender], false) */\n      dup2\n      mstore\n      0x20\n      add\n        /* \"Auction.sol\":2381:2389  numOffer */\n      0x08\n        /* \"Auction.sol\":2381:2397  numOffer[sender] */\n      0x00\n        /* \"Auction.sol\":2390:2396  sender */\n      dup7\n        /* \"Auction.sol\":2381:2397  numOffer[sender] */\n      0xffffffffffffffffffffffffffffffffffffffff\n      and\n      0xffffffffffffffffffffffffffffffffffffffff\n      and\n      dup2\n      mstore\n      0x20\n      add\n      swap1\n      dup2\n      mstore\n      0x20\n      add\n      0x00\n      keccak256\n      sload\n        /* \"Auction.sol\":2359:2405  Biders(sender, value, numOffer[sender], false) */\n      dup2\n      mstore\n      0x20\n      add\n        /* \"Auction.sol\":2399:2404  false */\n      0x00\n        /* \"Auction.sol\":2359:2405  Biders(sender, value, numOffer[sender], false) */\n      iszero\n      iszero\n      dup2\n      mstore\n      pop\n        /* \"Auction.sol\":2347:2406  biders.push(Biders(sender, value, numOffer[sender], false)) */\n      swap1\n      dup1\n      0x01\n      dup2\n      sload\n      add\n      dup1\n      dup3\n      sstore\n      dup1\n      swap2\n      pop\n      pop\n      0x01\n      swap1\n      sub\n      swap1\n      0x00\n      mstore\n      keccak256(0x00, 0x20)\n      swap1\n      0x04\n      mul\n      add\n      0x00\n      swap1\n      swap2\n      swap1\n      swap2\n      swap1\n      swap2\n      pop\n      0x00\n      dup3\n      add\n      mload\n      dup2\n      0x00\n      add\n      exp(0x0100, 0x00)\n      dup2\n      sload\n      dup2\n      0xffffffffffffffffffffffffffffffffffffffff\n      mul\n      not\n      and\n      swap1\n      dup4\n      0xffffffffffffffffffffffffffffffffffffffff\n      and\n      mul\n      or\n      swap1\n      sstore\n      pop\n      0x20\n      dup3\n      add\n      mload\n      dup2\n      0x01\n      add\n      sstore\n      0x40\n      dup3\n      add\n      mload\n      dup2\n      0x02\n      add\n      sstore\n      0x60\n      dup3\n      add\n      mload\n      dup2\n      0x03\n      add\n      exp(0x0100, 0x00)\n      dup2\n      sload\n      dup2\n      0xff\n      mul\n      not\n      and\n      swap1\n      dup4\n      iszero\n      iszero\n      mul\n      or\n      swap1\n      sstore\n      pop\n      pop\n      pop\n        /* \"Auction.sol\":2442:2448  sender */\n      dup2\n        /* \"Auction.sol\":2428:2456  NewHighestBid(sender, value) */\n      0xffffffffffffffffffffffffffffffffffffffff\n      and\n      0xdeda60fb6e38f55d4ccab679f50f933d04b1dca8584775216dbdac46f251ca4a\n        /* \"Auction.sol\":2450:2455  value */\n      dup5\n        /* \"Auction.sol\":2428:2456  NewHighestBid(sender, value) */\n      mload(0x40)\n      tag_46\n      swap2\n      swap1\n      tag_47\n      jump\t// in\n    tag_46:\n      mload(0x40)\n      dup1\n      swap2\n      sub\n      swap1\n      log2\n        /* \"Auction.sol\":2474:2490  uint256 timeLeft */\n      0x00\n        /* \"Auction.sol\":2503:2518  block.timestamp */\n      timestamp\n        /* \"Auction.sol\":2493:2500  endTime */\n      sload(0x07)\n        /* \"Auction.sol\":2493:2518  endTime - block.timestamp */\n      tag_48\n      swap2\n      swap1\n      tag_49\n      jump\t// in\n    tag_48:\n        /* \"Auction.sol\":2474:2518  uint256 timeLeft = endTime - block.timestamp */\n      swap1\n      pop\n        /* \"Auction.sol\":777:787  10 minutes */\n      0x0258\n        /* \"Auction.sol\":2537:2545  timeLeft */\n      dup2\n        /* \"Auction.sol\":2537:2563  timeLeft <= TIME_EXTENSION */\n      gt\n        /* \"Auction.sol\":2533:2664  if (timeLeft <= TIME_EXTENSION) {... */\n      tag_50\n      jumpi\n        /* \"Auction.sol\":2595:2603  timeLeft */\n      dup1\n        /* \"Auction.sol\":2584:2591  endTime */\n      0x07\n      0x00\n        /* \"Auction.sol\":2584:2603  endTime += timeLeft */\n      dup3\n      dup3\n      sload\n      tag_51\n      swap2\n      swap1\n      tag_52\n      jump\t// in\n    tag_51:\n      swap3\n      pop\n      pop\n      dup2\n      swap1\n      sstore\n      pop\n        /* \"Auction.sol\":2627:2651  AuctionExtended(endTime) */\n      0xc2b459809119087ca9d2bc10dea53a51b7d848b1a11075db037bdca58292c3e8\n        /* \"Auction.sol\":2643:2650  endTime */\n      sload(0x07)\n        /* \"Auction.sol\":2627:2651  AuctionExtended(endTime) */\n      mload(0x40)\n      tag_53\n      swap2\n      swap1\n      tag_47\n      jump\t// in\n    tag_53:\n      mload(0x40)\n      dup1\n      swap2\n      sub\n      swap1\n      log1\n        /* \"Auction.sol\":2533:2664  if (timeLeft <= TIME_EXTENSION) {... */\n    tag_50:\n        /* \"Auction.sol\":2226:2675  {... */\n      pop\n        /* \"Auction.sol\":2200:2675  if (value > offerWinning) {... */\n    tag_42:\n        /* \"Auction.sol\":1914:2694  {... */\n      pop\n      pop\n      pop\n        /* \"Auction.sol\":1873:2694  function bid() external payable isActive {... */\n      jump\t// out\n        /* \"Auction.sol\":3995:4631  function partialClaim() external isActive {... */\n    tag_12:\n        /* \"Auction.sol\":1464:1471  endTime */\n      sload(0x07)\n        /* \"Auction.sol\":1446:1461  block.timestamp */\n      timestamp\n        /* \"Auction.sol\":1446:1471  block.timestamp < endTime */\n      lt\n        /* \"Auction.sol\":1438:1488  require(block.timestamp < endTime, \"Bid finished\") */\n      tag_55\n      jumpi\n      mload(0x40)\n      0x08c379a000000000000000000000000000000000000000000000000000000000\n      dup2\n      mstore\n      0x04\n      add\n      tag_56\n      swap1\n      tag_32\n      jump\t// in\n    tag_56:\n      mload(0x40)\n      dup1\n      swap2\n      sub\n      swap1\n      revert\n    tag_55:\n        /* \"Auction.sol\":4048:4068  uint256 bidersLength */\n      0x00\n        /* \"Auction.sol\":4071:4077  biders */\n      0x04\n        /* \"Auction.sol\":4071:4084  biders.length */\n      dup1\n      sload\n      swap1\n      pop\n        /* \"Auction.sol\":4048:4084  uint256 bidersLength = biders.length */\n      swap1\n      pop\n        /* \"Auction.sol\":4100:4109  uint256 i */\n      0x00\n        /* \"Auction.sol\":4095:4433  for (uint256 i = 0; i < bidersLength; i++) {... */\n    tag_58:\n        /* \"Auction.sol\":4119:4131  bidersLength */\n      dup2\n        /* \"Auction.sol\":4115:4116  i */\n      dup2\n        /* \"Auction.sol\":4115:4131  i < bidersLength */\n      lt\n        /* \"Auction.sol\":4095:4433  for (uint256 i = 0; i < bidersLength; i++) {... */\n      iszero\n      tag_59\n      jumpi\n        /* \"Auction.sol\":4173:4179  biders */\n      0x04\n        /* \"Auction.sol\":4180:4181  i */\n      dup2\n        /* \"Auction.sol\":4173:4182  biders[i] */\n      dup2\n      sload\n      dup2\n      lt\n      tag_61\n      jumpi\n      tag_62\n      tag_63\n      jump\t// in\n    tag_62:\n    tag_61:\n      swap1\n      0x00\n      mstore\n      keccak256(0x00, 0x20)\n      swap1\n      0x04\n      mul\n      add\n        /* \"Auction.sol\":4173:4188  biders[i].bider */\n      0x00\n      add\n      0x00\n      swap1\n      sload\n      swap1\n      0x0100\n      exp\n      swap1\n      div\n      0xffffffffffffffffffffffffffffffffffffffff\n      and\n        /* \"Auction.sol\":4157:4188  winner.bider == biders[i].bider */\n      0xffffffffffffffffffffffffffffffffffffffff\n      and\n        /* \"Auction.sol\":4157:4163  winner */\n      0x00\n        /* \"Auction.sol\":4157:4169  winner.bider */\n      dup1\n      add\n      0x00\n      swap1\n      sload\n      swap1\n      0x0100\n      exp\n      swap1\n      div\n      0xffffffffffffffffffffffffffffffffffffffff\n      and\n        /* \"Auction.sol\":4157:4188  winner.bider == biders[i].bider */\n      0xffffffffffffffffffffffffffffffffffffffff\n      and\n      eq\n        /* \"Auction.sol\":4157:4223  winner.bider == biders[i].bider && winner.value == biders[i].value */\n      dup1\n      iszero\n      tag_65\n      jumpi\n      pop\n        /* \"Auction.sol\":4208:4214  biders */\n      0x04\n        /* \"Auction.sol\":4215:4216  i */\n      dup2\n        /* \"Auction.sol\":4208:4217  biders[i] */\n      dup2\n      sload\n      dup2\n      lt\n      tag_66\n      jumpi\n      tag_67\n      tag_63\n      jump\t// in\n    tag_67:\n    tag_66:\n      swap1\n      0x00\n      mstore\n      keccak256(0x00, 0x20)\n      swap1\n      0x04\n      mul\n      add\n        /* \"Auction.sol\":4208:4223  biders[i].value */\n      0x01\n      add\n      sload\n        /* \"Auction.sol\":4192:4198  winner */\n      0x00\n        /* \"Auction.sol\":4192:4204  winner.value */\n      0x01\n      add\n      sload\n        /* \"Auction.sol\":4192:4223  winner.value == biders[i].value */\n      eq\n        /* \"Auction.sol\":4157:4223  winner.bider == biders[i].bider && winner.value == biders[i].value */\n    tag_65:\n        /* \"Auction.sol\":4244:4252  continue */\n      tag_60\n        /* \"Auction.sol\":4153:4422  if (winner.bider == biders[i].bider && winner.value == biders[i].value) {... */\n      jumpi\n        /* \"Auction.sol\":4279:4285  biders */\n      0x04\n        /* \"Auction.sol\":4286:4287  i */\n      dup2\n        /* \"Auction.sol\":4279:4288  biders[i] */\n      dup2\n      sload\n      dup2\n      lt\n      tag_71\n      jumpi\n      tag_72\n      tag_63\n      jump\t// in\n    tag_72:\n    tag_71:\n      swap1\n      0x00\n      mstore\n      keccak256(0x00, 0x20)\n      swap1\n      0x04\n      mul\n      add\n        /* \"Auction.sol\":4279:4303  biders[i].offerReclaimed */\n      0x03\n      add\n      0x00\n      swap1\n      sload\n      swap1\n      0x0100\n      exp\n      swap1\n      div\n      0xff\n      and\n        /* \"Auction.sol\":4274:4422  if (!biders[i].offerReclaimed) {... */\n      tag_74\n      jumpi\n        /* \"Auction.sol\":4351:4355  true */\n      0x01\n        /* \"Auction.sol\":4324:4330  biders */\n      0x04\n        /* \"Auction.sol\":4331:4332  i */\n      dup3\n        /* \"Auction.sol\":4324:4333  biders[i] */\n      dup2\n      sload\n      dup2\n      lt\n      tag_75\n      jumpi\n      tag_76\n      tag_63\n      jump\t// in\n    tag_76:\n    tag_75:\n      swap1\n      0x00\n      mstore\n      keccak256(0x00, 0x20)\n      swap1\n      0x04\n      mul\n      add\n        /* \"Auction.sol\":4324:4348  biders[i].offerReclaimed */\n      0x03\n      add\n      0x00\n        /* \"Auction.sol\":4324:4355  biders[i].offerReclaimed = true */\n      0x0100\n      exp\n      dup2\n      sload\n      dup2\n      0xff\n      mul\n      not\n      and\n      swap1\n      dup4\n      iszero\n      iszero\n      mul\n      or\n      swap1\n      sstore\n      pop\n        /* \"Auction.sol\":4391:4397  biders */\n      0x04\n        /* \"Auction.sol\":4398:4399  i */\n      dup2\n        /* \"Auction.sol\":4391:4400  biders[i] */\n      dup2\n      sload\n      dup2\n      lt\n      tag_78\n      jumpi\n      tag_79\n      tag_63\n      jump\t// in\n    tag_79:\n    tag_78:\n      swap1\n      0x00\n      mstore\n      keccak256(0x00, 0x20)\n      swap1\n      0x04\n      mul\n      add\n        /* \"Auction.sol\":4391:4406  biders[i].value */\n      0x01\n      add\n      sload\n        /* \"Auction.sol\":4374:4387  partialClaims */\n      0x06\n      0x00\n        /* \"Auction.sol\":4374:4406  partialClaims += biders[i].value */\n      dup3\n      dup3\n      sload\n      tag_81\n      swap2\n      swap1\n      tag_52\n      jump\t// in\n    tag_81:\n      swap3\n      pop\n      pop\n      dup2\n      swap1\n      sstore\n      pop\n        /* \"Auction.sol\":4274:4422  if (!biders[i].offerReclaimed) {... */\n    tag_74:\n        /* \"Auction.sol\":4095:4433  for (uint256 i = 0; i < bidersLength; i++) {... */\n    tag_60:\n        /* \"Auction.sol\":4133:4136  i++ */\n      dup1\n      dup1\n      tag_82\n      swap1\n      tag_44\n      jump\t// in\n    tag_82:\n      swap2\n      pop\n      pop\n        /* \"Auction.sol\":4095:4433  for (uint256 i = 0; i < bidersLength; i++) {... */\n      jump(tag_58)\n    tag_59:\n      pop\n        /* \"Auction.sol\":4445:4459  uint256 amount */\n      0x00\n        /* \"Auction.sol\":4462:4475  partialClaims */\n      sload(0x06)\n        /* \"Auction.sol\":4445:4475  uint256 amount = partialClaims */\n      swap1\n      pop\n        /* \"Auction.sol\":4502:4503  0 */\n      0x00\n        /* \"Auction.sol\":4486:4499  partialClaims */\n      0x06\n        /* \"Auction.sol\":4486:4503  partialClaims = 0 */\n      dup2\n      swap1\n      sstore\n      pop\n        /* \"Auction.sol\":4516:4528  bool success */\n      0x00\n        /* \"Auction.sol\":4542:4552  msg.sender */\n      caller\n        /* \"Auction.sol\":4534:4558  payable(msg.sender).call */\n      0xffffffffffffffffffffffffffffffffffffffff\n      and\n        /* \"Auction.sol\":4566:4572  amount */\n      dup3\n        /* \"Auction.sol\":4534:4577  payable(msg.sender).call{value: amount}(\"\") */\n      mload(0x40)\n      tag_83\n      swap1\n      tag_84\n      jump\t// in\n    tag_83:\n      0x00\n      mload(0x40)\n      dup1\n      dup4\n      sub\n      dup2\n      dup6\n      dup8\n      gas\n      call\n      swap3\n      pop\n      pop\n      pop\n      returndatasize\n      dup1\n      0x00\n      dup2\n      eq\n      tag_87\n      jumpi\n      mload(0x40)\n      swap2\n      pop\n      and(add(returndatasize, 0x3f), not(0x1f))\n      dup3\n      add\n      0x40\n      mstore\n      returndatasize\n      dup3\n      mstore\n      returndatasize\n      0x00\n      0x20\n      dup5\n      add\n      returndatacopy\n      jump(tag_86)\n    tag_87:\n      0x60\n      swap2\n      pop\n    tag_86:\n      pop\n        /* \"Auction.sol\":4515:4577  (bool success, ) = payable(msg.sender).call{value: amount}(\"\") */\n      pop\n      swap1\n      pop\n        /* \"Auction.sol\":4596:4603  success */\n      dup1\n        /* \"Auction.sol\":4588:4623  require(success, \"Transfer Failed\") */\n      tag_88\n      jumpi\n      mload(0x40)\n      0x08c379a000000000000000000000000000000000000000000000000000000000\n      dup2\n      mstore\n      0x04\n      add\n      tag_89\n      swap1\n      tag_90\n      jump\t// in\n    tag_89:\n      mload(0x40)\n      dup1\n      swap2\n      sub\n      swap1\n      revert\n    tag_88:\n        /* \"Auction.sol\":4037:4631  {... */\n      pop\n      pop\n      pop\n        /* \"Auction.sol\":3995:4631  function partialClaim() external isActive {... */\n      jump\t// out\n        /* \"Auction.sol\":3597:3905  function claim() external isFinished {... */\n    tag_15:\n        /* \"Auction.sol\":1575:1582  endTime */\n      sload(0x07)\n        /* \"Auction.sol\":1557:1572  block.timestamp */\n      timestamp\n        /* \"Auction.sol\":1557:1582  block.timestamp > endTime */\n      gt\n        /* \"Auction.sol\":1549:1607  require(block.timestamp > endTime, \"Bid not finished yet\") */\n      tag_92\n      jumpi\n      mload(0x40)\n      0x08c379a000000000000000000000000000000000000000000000000000000000\n      dup2\n      mstore\n      0x04\n      add\n      tag_93\n      swap1\n      tag_94\n      jump\t// in\n    tag_93:\n      mload(0x40)\n      dup1\n      swap2\n      sub\n      swap1\n      revert\n    tag_92:\n        /* \"Auction.sol\":3674:3675  0 */\n      0x00\n        /* \"Auction.sol\":3653:3659  claims */\n      0x09\n        /* \"Auction.sol\":3653:3671  claims[msg.sender] */\n      0x00\n        /* \"Auction.sol\":3660:3670  msg.sender */\n      caller\n        /* \"Auction.sol\":3653:3671  claims[msg.sender] */\n      0xffffffffffffffffffffffffffffffffffffffff\n      and\n      0xffffffffffffffffffffffffffffffffffffffff\n      and\n      dup2\n      mstore\n      0x20\n      add\n      swap1\n      dup2\n      mstore\n      0x20\n      add\n      0x00\n      keccak256\n      sload\n        /* \"Auction.sol\":3653:3675  claims[msg.sender] > 0 */\n      gt\n        /* \"Auction.sol\":3645:3697  require(claims[msg.sender] > 0, \"No funds to claim\") */\n      tag_96\n      jumpi\n      mload(0x40)\n      0x08c379a000000000000000000000000000000000000000000000000000000000\n      dup2\n      mstore\n      0x04\n      add\n      tag_97\n      swap1\n      tag_98\n      jump\t// in\n    tag_97:\n      mload(0x40)\n      dup1\n      swap2\n      sub\n      swap1\n      revert\n    tag_96:\n        /* \"Auction.sol\":3709:3723  uint256 amount */\n      0x00\n        /* \"Auction.sol\":3726:3732  claims */\n      0x09\n        /* \"Auction.sol\":3726:3744  claims[msg.sender] */\n      0x00\n        /* \"Auction.sol\":3733:3743  msg.sender */\n      caller\n        /* \"Auction.sol\":3726:3744  claims[msg.sender] */\n      0xffffffffffffffffffffffffffffffffffffffff\n      and\n      0xffffffffffffffffffffffffffffffffffffffff\n      and\n      dup2\n      mstore\n      0x20\n      add\n      swap1\n      dup2\n      mstore\n      0x20\n      add\n      0x00\n      keccak256\n      sload\n        /* \"Auction.sol\":3709:3744  uint256 amount = claims[msg.sender] */\n      swap1\n      pop\n        /* \"Auction.sol\":3776:3777  0 */\n      0x00\n        /* \"Auction.sol\":3755:3761  claims */\n      0x09\n        /* \"Auction.sol\":3755:3773  claims[msg.sender] */\n      0x00\n        /* \"Auction.sol\":3762:3772  msg.sender */\n      caller\n        /* \"Auction.sol\":3755:3773  claims[msg.sender] */\n      0xffffffffffffffffffffffffffffffffffffffff\n      and\n      0xffffffffffffffffffffffffffffffffffffffff\n      and\n      dup2\n      mstore\n      0x20\n      add\n      swap1\n      dup2\n      mstore\n      0x20\n      add\n      0x00\n      keccak256\n        /* \"Auction.sol\":3755:3777  claims[msg.sender] = 0 */\n      dup2\n      swap1\n      sstore\n      pop\n        /* \"Auction.sol\":3790:3802  bool success */\n      0x00\n        /* \"Auction.sol\":3816:3826  msg.sender */\n      caller\n        /* \"Auction.sol\":3808:3832  payable(msg.sender).call */\n      0xffffffffffffffffffffffffffffffffffffffff\n      and\n        /* \"Auction.sol\":3840:3846  amount */\n      dup3\n        /* \"Auction.sol\":3808:3851  payable(msg.sender).call{value: amount}(\"\") */\n      mload(0x40)\n      tag_99\n      swap1\n      tag_84\n      jump\t// in\n    tag_99:\n      0x00\n      mload(0x40)\n      dup1\n      dup4\n      sub\n      dup2\n      dup6\n      dup8\n      gas\n      call\n      swap3\n      pop\n      pop\n      pop\n      returndatasize\n      dup1\n      0x00\n      dup2\n      eq\n      tag_102\n      jumpi\n      mload(0x40)\n      swap2\n      pop\n      and(add(returndatasize, 0x3f), not(0x1f))\n      dup3\n      add\n      0x40\n      mstore\n      returndatasize\n      dup3\n      mstore\n      returndatasize\n      0x00\n      0x20\n      dup5\n      add\n      returndatacopy\n      jump(tag_101)\n    tag_102:\n      0x60\n      swap2\n      pop\n    tag_101:\n      pop\n        /* \"Auction.sol\":3789:3851  (bool success, ) = payable(msg.sender).call{value: amount}(\"\") */\n      pop\n      swap1\n      pop\n        /* \"Auction.sol\":3870:3877  success */\n      dup1\n        /* \"Auction.sol\":3862:3897  require(success, \"Transfer Failed\") */\n      tag_103\n      jumpi\n      mload(0x40)\n      0x08c379a000000000000000000000000000000000000000000000000000000000\n      dup2\n      mstore\n      0x04\n      add\n      tag_104\n      swap1\n      tag_90\n      jump\t// in\n    tag_104:\n      mload(0x40)\n      dup1\n      swap2\n      sub\n      swap1\n      revert\n    tag_103:\n        /* \"Auction.sol\":3634:3905  {... */\n      pop\n      pop\n        /* \"Auction.sol\":3597:3905  function claim() external isFinished {... */\n      jump\t// out\n        /* \"Auction.sol\":4848:4942  function showOffers() external view returns (Biders[] memory) {... */\n    tag_18:\n        /* \"Auction.sol\":4893:4908  Biders[] memory */\n      0x60\n        /* \"Auction.sol\":4928:4934  biders */\n      0x04\n        /* \"Auction.sol\":4921:4934  return biders */\n      dup1\n      sload\n      dup1\n      0x20\n      mul\n      0x20\n      add\n      mload(0x40)\n      swap1\n      dup2\n      add\n      0x40\n      mstore\n      dup1\n      swap3\n      swap2\n      swap1\n      dup2\n      dup2\n      mstore\n      0x20\n      add\n      0x00\n      swap1\n    tag_106:\n      dup3\n      dup3\n      lt\n      iszero\n      tag_107\n      jumpi\n      dup4\n      dup3\n      swap1\n      0x00\n      mstore\n      keccak256(0x00, 0x20)\n      swap1\n      0x04\n      mul\n      add\n      mload(0x40)\n      dup1\n      0x80\n      add\n      0x40\n      mstore\n      swap1\n      dup2\n      0x00\n      dup3\n      add\n      0x00\n      swap1\n      sload\n      swap1\n      0x0100\n      exp\n      swap1\n      div\n      0xffffffffffffffffffffffffffffffffffffffff\n      and\n      0xffffffffffffffffffffffffffffffffffffffff\n      and\n      0xffffffffffffffffffffffffffffffffffffffff\n      and\n      dup2\n      mstore\n      0x20\n      add\n      0x01\n      dup3\n      add\n      sload\n      dup2\n      mstore\n      0x20\n      add\n      0x02\n      dup3\n      add\n      sload\n      dup2\n      mstore\n      0x20\n      add\n      0x03\n      dup3\n      add\n      0x00\n      swap1\n      sload\n      swap1\n      0x0100\n      exp\n      swap1\n      div\n      0xff\n      and\n      iszero\n      iszero\n      iszero\n      iszero\n      dup2\n      mstore\n      pop\n      pop\n      dup2\n      mstore\n      0x20\n      add\n      swap1\n      0x01\n      add\n      swap1\n      jump(tag_106)\n    tag_107:\n      pop\n      pop\n      pop\n      pop\n      swap1\n      pop\n        /* \"Auction.sol\":4848:4942  function showOffers() external view returns (Biders[] memory) {... */\n      swap1\n      jump\t// out\n        /* \"Auction.sol\":2794:3534  function refund() external onlyOwner isFinished {... */\n    tag_23:\n        /* \"Auction.sol\":1684:1694  msg.sender */\n      caller\n        /* \"Auction.sol\":1675:1694  owner == msg.sender */\n      0xffffffffffffffffffffffffffffffffffffffff\n      and\n        /* \"Auction.sol\":1675:1680  owner */\n      immutable(\"0x731dc163f73d31d8c68f9917ce4ff967753939f70432973c04fd2c2a48148607\")\n        /* \"Auction.sol\":1675:1694  owner == msg.sender */\n      0xffffffffffffffffffffffffffffffffffffffff\n      and\n      eq\n        /* \"Auction.sol\":1667:1735  require(owner == msg.sender, \"Only the owner can run this function\") */\n      tag_110\n      jumpi\n      mload(0x40)\n      0x08c379a000000000000000000000000000000000000000000000000000000000\n      dup2\n      mstore\n      0x04\n      add\n      tag_111\n      swap1\n      tag_112\n      jump\t// in\n    tag_111:\n      mload(0x40)\n      dup1\n      swap2\n      sub\n      swap1\n      revert\n    tag_110:\n        /* \"Auction.sol\":1575:1582  endTime */\n      sload(0x07)\n        /* \"Auction.sol\":1557:1572  block.timestamp */\n      timestamp\n        /* \"Auction.sol\":1557:1582  block.timestamp > endTime */\n      gt\n        /* \"Auction.sol\":1549:1607  require(block.timestamp > endTime, \"Bid not finished yet\") */\n      tag_114\n      jumpi\n      mload(0x40)\n      0x08c379a000000000000000000000000000000000000000000000000000000000\n      dup2\n      mstore\n      0x04\n      add\n      tag_115\n      swap1\n      tag_94\n      jump\t// in\n    tag_115:\n      mload(0x40)\n      dup1\n      swap2\n      sub\n      swap1\n      revert\n    tag_114:\n        /* \"Auction.sol\":2853:2873  uint256 lengthOffers */\n      0x00\n        /* \"Auction.sol\":2876:2882  biders */\n      0x04\n        /* \"Auction.sol\":2876:2889  biders.length */\n      dup1\n      sload\n      swap1\n      pop\n        /* \"Auction.sol\":2853:2889  uint256 lengthOffers = biders.length */\n      swap1\n      pop\n        /* \"Auction.sol\":2907:2916  uint256 i */\n      0x00\n        /* \"Auction.sol\":2902:3351  for (uint256 i = 0; i < lengthOffers; i++) {... */\n    tag_117:\n        /* \"Auction.sol\":2926:2938  lengthOffers */\n      dup2\n        /* \"Auction.sol\":2922:2923  i */\n      dup2\n        /* \"Auction.sol\":2922:2938  i < lengthOffers */\n      lt\n        /* \"Auction.sol\":2902:3351  for (uint256 i = 0; i < lengthOffers; i++) {... */\n      iszero\n      tag_118\n      jumpi\n        /* \"Auction.sol\":2980:2986  biders */\n      0x04\n        /* \"Auction.sol\":2987:2988  i */\n      dup2\n        /* \"Auction.sol\":2980:2989  biders[i] */\n      dup2\n      sload\n      dup2\n      lt\n      tag_120\n      jumpi\n      tag_121\n      tag_63\n      jump\t// in\n    tag_121:\n    tag_120:\n      swap1\n      0x00\n      mstore\n      keccak256(0x00, 0x20)\n      swap1\n      0x04\n      mul\n      add\n        /* \"Auction.sol\":2980:2995  biders[i].bider */\n      0x00\n      add\n      0x00\n      swap1\n      sload\n      swap1\n      0x0100\n      exp\n      swap1\n      div\n      0xffffffffffffffffffffffffffffffffffffffff\n      and\n        /* \"Auction.sol\":2964:2995  winner.bider == biders[i].bider */\n      0xffffffffffffffffffffffffffffffffffffffff\n      and\n        /* \"Auction.sol\":2964:2970  winner */\n      0x00\n        /* \"Auction.sol\":2964:2976  winner.bider */\n      dup1\n      add\n      0x00\n      swap1\n      sload\n      swap1\n      0x0100\n      exp\n      swap1\n      div\n      0xffffffffffffffffffffffffffffffffffffffff\n      and\n        /* \"Auction.sol\":2964:2995  winner.bider == biders[i].bider */\n      0xffffffffffffffffffffffffffffffffffffffff\n      and\n      eq\n        /* \"Auction.sol\":2964:3030  winner.bider == biders[i].bider && winner.value == biders[i].value */\n      dup1\n      iszero\n      tag_123\n      jumpi\n      pop\n        /* \"Auction.sol\":3015:3021  biders */\n      0x04\n        /* \"Auction.sol\":3022:3023  i */\n      dup2\n        /* \"Auction.sol\":3015:3024  biders[i] */\n      dup2\n      sload\n      dup2\n      lt\n      tag_124\n      jumpi\n      tag_125\n      tag_63\n      jump\t// in\n    tag_125:\n    tag_124:\n      swap1\n      0x00\n      mstore\n      keccak256(0x00, 0x20)\n      swap1\n      0x04\n      mul\n      add\n        /* \"Auction.sol\":3015:3030  biders[i].value */\n      0x01\n      add\n      sload\n        /* \"Auction.sol\":2999:3005  winner */\n      0x00\n        /* \"Auction.sol\":2999:3011  winner.value */\n      0x01\n      add\n      sload\n        /* \"Auction.sol\":2999:3030  winner.value == biders[i].value */\n      eq\n        /* \"Auction.sol\":2964:3030  winner.bider == biders[i].bider && winner.value == biders[i].value */\n    tag_123:\n        /* \"Auction.sol\":2960:3340  if (winner.bider == biders[i].bider && winner.value == biders[i].value) {... */\n      iszero\n      tag_127\n      jumpi\n        /* \"Auction.sol\":3063:3089  _checkFee(biders[i].value) */\n      tag_128\n        /* \"Auction.sol\":3073:3079  biders */\n      0x04\n        /* \"Auction.sol\":3080:3081  i */\n      dup3\n        /* \"Auction.sol\":3073:3082  biders[i] */\n      dup2\n      sload\n      dup2\n      lt\n      tag_129\n      jumpi\n      tag_130\n      tag_63\n      jump\t// in\n    tag_130:\n    tag_129:\n      swap1\n      0x00\n      mstore\n      keccak256(0x00, 0x20)\n      swap1\n      0x04\n      mul\n      add\n        /* \"Auction.sol\":3073:3088  biders[i].value */\n      0x01\n      add\n      sload\n        /* \"Auction.sol\":3063:3072  _checkFee */\n      tag_132\n        /* \"Auction.sol\":3063:3089  _checkFee(biders[i].value) */\n      jump\t// in\n    tag_128:\n        /* \"Auction.sol\":3051:3059  feeOwner */\n      0x05\n      0x00\n        /* \"Auction.sol\":3051:3089  feeOwner += _checkFee(biders[i].value) */\n      dup3\n      dup3\n      sload\n      tag_133\n      swap2\n      swap1\n      tag_52\n      jump\t// in\n    tag_133:\n      swap3\n      pop\n      pop\n      dup2\n      swap1\n      sstore\n      pop\n        /* \"Auction.sol\":2960:3340  if (winner.bider == biders[i].bider && winner.value == biders[i].value) {... */\n      jump(tag_134)\n    tag_127:\n        /* \"Auction.sol\":3116:3122  biders */\n      0x04\n        /* \"Auction.sol\":3123:3124  i */\n      dup2\n        /* \"Auction.sol\":3116:3125  biders[i] */\n      dup2\n      sload\n      dup2\n      lt\n      tag_135\n      jumpi\n      tag_136\n      tag_63\n      jump\t// in\n    tag_136:\n    tag_135:\n      swap1\n      0x00\n      mstore\n      keccak256(0x00, 0x20)\n      swap1\n      0x04\n      mul\n      add\n        /* \"Auction.sol\":3116:3140  biders[i].offerReclaimed */\n      0x03\n      add\n      0x00\n      swap1\n      sload\n      swap1\n      0x0100\n      exp\n      swap1\n      div\n      0xff\n      and\n        /* \"Auction.sol\":3111:3340  if (!biders[i].offerReclaimed) {... */\n      tag_138\n      jumpi\n        /* \"Auction.sol\":3173:3199  _checkFee(biders[i].value) */\n      tag_139\n        /* \"Auction.sol\":3183:3189  biders */\n      0x04\n        /* \"Auction.sol\":3190:3191  i */\n      dup3\n        /* \"Auction.sol\":3183:3192  biders[i] */\n      dup2\n      sload\n      dup2\n      lt\n      tag_140\n      jumpi\n      tag_141\n      tag_63\n      jump\t// in\n    tag_141:\n    tag_140:\n      swap1\n      0x00\n      mstore\n      keccak256(0x00, 0x20)\n      swap1\n      0x04\n      mul\n      add\n        /* \"Auction.sol\":3183:3198  biders[i].value */\n      0x01\n      add\n      sload\n        /* \"Auction.sol\":3173:3182  _checkFee */\n      tag_132\n        /* \"Auction.sol\":3173:3199  _checkFee(biders[i].value) */\n      jump\t// in\n    tag_139:\n        /* \"Auction.sol\":3161:3169  feeOwner */\n      0x05\n      0x00\n        /* \"Auction.sol\":3161:3199  feeOwner += _checkFee(biders[i].value) */\n      dup3\n      dup3\n      sload\n      tag_143\n      swap2\n      swap1\n      tag_52\n      jump\t// in\n    tag_143:\n      swap3\n      pop\n      pop\n      dup2\n      swap1\n      sstore\n      pop\n        /* \"Auction.sol\":3237:3263  _checkFee(biders[i].value) */\n      tag_144\n        /* \"Auction.sol\":3247:3253  biders */\n      0x04\n        /* \"Auction.sol\":3254:3255  i */\n      dup3\n        /* \"Auction.sol\":3247:3256  biders[i] */\n      dup2\n      sload\n      dup2\n      lt\n      tag_145\n      jumpi\n      tag_146\n      tag_63\n      jump\t// in\n    tag_146:\n    tag_145:\n      swap1\n      0x00\n      mstore\n      keccak256(0x00, 0x20)\n      swap1\n      0x04\n      mul\n      add\n        /* \"Auction.sol\":3247:3262  biders[i].value */\n      0x01\n      add\n      sload\n        /* \"Auction.sol\":3237:3246  _checkFee */\n      tag_132\n        /* \"Auction.sol\":3237:3263  _checkFee(biders[i].value) */\n      jump\t// in\n    tag_144:\n        /* \"Auction.sol\":3218:3224  biders */\n      0x04\n        /* \"Auction.sol\":3225:3226  i */\n      dup3\n        /* \"Auction.sol\":3218:3227  biders[i] */\n      dup2\n      sload\n      dup2\n      lt\n      tag_148\n      jumpi\n      tag_149\n      tag_63\n      jump\t// in\n    tag_149:\n    tag_148:\n      swap1\n      0x00\n      mstore\n      keccak256(0x00, 0x20)\n      swap1\n      0x04\n      mul\n      add\n        /* \"Auction.sol\":3218:3233  biders[i].value */\n      0x01\n      add\n      0x00\n        /* \"Auction.sol\":3218:3263  biders[i].value -= _checkFee(biders[i].value) */\n      dup3\n      dup3\n      sload\n      tag_151\n      swap2\n      swap1\n      tag_49\n      jump\t// in\n    tag_151:\n      swap3\n      pop\n      pop\n      dup2\n      swap1\n      sstore\n      pop\n        /* \"Auction.sol\":3309:3315  biders */\n      0x04\n        /* \"Auction.sol\":3316:3317  i */\n      dup2\n        /* \"Auction.sol\":3309:3318  biders[i] */\n      dup2\n      sload\n      dup2\n      lt\n      tag_152\n      jumpi\n      tag_153\n      tag_63\n      jump\t// in\n    tag_153:\n    tag_152:\n      swap1\n      0x00\n      mstore\n      keccak256(0x00, 0x20)\n      swap1\n      0x04\n      mul\n      add\n        /* \"Auction.sol\":3309:3324  biders[i].value */\n      0x01\n      add\n      sload\n        /* \"Auction.sol\":3282:3288  claims */\n      0x09\n        /* \"Auction.sol\":3282:3305  claims[biders[i].bider] */\n      0x00\n        /* \"Auction.sol\":3289:3295  biders */\n      0x04\n        /* \"Auction.sol\":3296:3297  i */\n      dup5\n        /* \"Auction.sol\":3289:3298  biders[i] */\n      dup2\n      sload\n      dup2\n      lt\n      tag_155\n      jumpi\n      tag_156\n      tag_63\n      jump\t// in\n    tag_156:\n    tag_155:\n      swap1\n      0x00\n      mstore\n      keccak256(0x00, 0x20)\n      swap1\n      0x04\n      mul\n      add\n        /* \"Auction.sol\":3289:3304  biders[i].bider */\n      0x00\n      add\n      0x00\n      swap1\n      sload\n      swap1\n      0x0100\n      exp\n      swap1\n      div\n      0xffffffffffffffffffffffffffffffffffffffff\n      and\n        /* \"Auction.sol\":3282:3305  claims[biders[i].bider] */\n      0xffffffffffffffffffffffffffffffffffffffff\n      and\n      0xffffffffffffffffffffffffffffffffffffffff\n      and\n      dup2\n      mstore\n      0x20\n      add\n      swap1\n      dup2\n      mstore\n      0x20\n      add\n      0x00\n      keccak256\n      0x00\n        /* \"Auction.sol\":3282:3324  claims[biders[i].bider] += biders[i].value */\n      dup3\n      dup3\n      sload\n      tag_158\n      swap2\n      swap1\n      tag_52\n      jump\t// in\n    tag_158:\n      swap3\n      pop\n      pop\n      dup2\n      swap1\n      sstore\n      pop\n        /* \"Auction.sol\":3111:3340  if (!biders[i].offerReclaimed) {... */\n    tag_138:\n        /* \"Auction.sol\":2960:3340  if (winner.bider == biders[i].bider && winner.value == biders[i].value) {... */\n    tag_134:\n        /* \"Auction.sol\":2940:2943  i++ */\n      dup1\n      dup1\n      tag_159\n      swap1\n      tag_44\n      jump\t// in\n    tag_159:\n      swap2\n      pop\n      pop\n        /* \"Auction.sol\":2902:3351  for (uint256 i = 0; i < lengthOffers; i++) {... */\n      jump(tag_117)\n    tag_118:\n      pop\n        /* \"Auction.sol\":3364:3376  bool success */\n      0x00\n        /* \"Auction.sol\":3390:3395  owner */\n      immutable(\"0x731dc163f73d31d8c68f9917ce4ff967753939f70432973c04fd2c2a48148607\")\n        /* \"Auction.sol\":3382:3401  payable(owner).call */\n      0xffffffffffffffffffffffffffffffffffffffff\n      and\n        /* \"Auction.sol\":3409:3417  feeOwner */\n      sload(0x05)\n        /* \"Auction.sol\":3382:3422  payable(owner).call{value: feeOwner}(\"\") */\n      mload(0x40)\n      tag_160\n      swap1\n      tag_84\n      jump\t// in\n    tag_160:\n      0x00\n      mload(0x40)\n      dup1\n      dup4\n      sub\n      dup2\n      dup6\n      dup8\n      gas\n      call\n      swap3\n      pop\n      pop\n      pop\n      returndatasize\n      dup1\n      0x00\n      dup2\n      eq\n      tag_163\n      jumpi\n      mload(0x40)\n      swap2\n      pop\n      and(add(returndatasize, 0x3f), not(0x1f))\n      dup3\n      add\n      0x40\n      mstore\n      returndatasize\n      dup3\n      mstore\n      returndatasize\n      0x00\n      0x20\n      dup5\n      add\n      returndatacopy\n      jump(tag_162)\n    tag_163:\n      0x60\n      swap2\n      pop\n    tag_162:\n      pop\n        /* \"Auction.sol\":3363:3422  (bool success, ) = payable(owner).call{value: feeOwner}(\"\") */\n      pop\n      swap1\n      pop\n        /* \"Auction.sol\":3441:3448  success */\n      dup1\n        /* \"Auction.sol\":3433:3468  require(success, \"Transfer Failed\") */\n      tag_164\n      jumpi\n      mload(0x40)\n      0x08c379a000000000000000000000000000000000000000000000000000000000\n      dup2\n      mstore\n      0x04\n      add\n      tag_165\n      swap1\n      tag_90\n      jump\t// in\n    tag_165:\n      mload(0x40)\n      dup1\n      swap2\n      sub\n      swap1\n      revert\n    tag_164:\n        /* \"Auction.sol\":3498:3504  winner */\n      0x00\n        /* \"Auction.sol\":3498:3510  winner.bider */\n      dup1\n      add\n      0x00\n      swap1\n      sload\n      swap1\n      0x0100\n      exp\n      swap1\n      div\n      0xffffffffffffffffffffffffffffffffffffffff\n      and\n        /* \"Auction.sol\":3486:3525  FinalWinner(winner.bider, winner.value) */\n      0xffffffffffffffffffffffffffffffffffffffff\n      and\n      0x7a0ca0f54eafb83c8787175794658805fdf3cd42ef7b6d675aa3e3c06ae34758\n        /* \"Auction.sol\":3512:3518  winner */\n      0x00\n        /* \"Auction.sol\":3512:3524  winner.value */\n      0x01\n      add\n      sload\n        /* \"Auction.sol\":3486:3525  FinalWinner(winner.bider, winner.value) */\n      mload(0x40)\n      tag_166\n      swap2\n      swap1\n      tag_47\n      jump\t// in\n    tag_166:\n      mload(0x40)\n      dup1\n      swap2\n      sub\n      swap1\n      log2\n        /* \"Auction.sol\":2842:3534  {... */\n      pop\n      pop\n        /* \"Auction.sol\":2794:3534  function refund() external onlyOwner isFinished {... */\n      jump\t// out\n        /* \"Auction.sol\":4701:4793  function showWinner() external view returns (Biders memory) {... */\n    tag_26:\n        /* \"Auction.sol\":4746:4759  Biders memory */\n      tag_167\n      tag_168\n      jump\t// in\n    tag_167:\n        /* \"Auction.sol\":4779:4785  winner */\n      0x00\n        /* \"Auction.sol\":4772:4785  return winner */\n      mload(0x40)\n      dup1\n      0x80\n      add\n      0x40\n      mstore\n      swap1\n      dup2\n      0x00\n      dup3\n      add\n      0x00\n      swap1\n      sload\n      swap1\n      0x0100\n      exp\n      swap1\n      div\n      0xffffffffffffffffffffffffffffffffffffffff\n      and\n      0xffffffffffffffffffffffffffffffffffffffff\n      and\n      0xffffffffffffffffffffffffffffffffffffffff\n      and\n      dup2\n      mstore\n      0x20\n      add\n      0x01\n      dup3\n      add\n      sload\n      dup2\n      mstore\n      0x20\n      add\n      0x02\n      dup3\n      add\n      sload\n      dup2\n      mstore\n      0x20\n      add\n      0x03\n      dup3\n      add\n      0x00\n      swap1\n      sload\n      swap1\n      0x0100\n      exp\n      swap1\n      div\n      0xff\n      and\n      iszero\n      iszero\n      iszero\n      iszero\n      dup2\n      mstore\n      pop\n      pop\n      swap1\n      pop\n        /* \"Auction.sol\":4701:4793  function showWinner() external view returns (Biders memory) {... */\n      swap1\n      jump\t// out\n        /* \"Auction.sol\":5053:5221  function _checkOffer(uint256 lastOffer) private pure returns (uint256 offerChecked) {... */\n    tag_41:\n        /* \"Auction.sol\":5115:5135  uint256 offerChecked */\n      0x00\n        /* \"Auction.sol\":725:728  100 */\n      0x64\n        /* \"Auction.sol\":632:635  105 */\n      0x69\n        /* \"Auction.sol\":5164:5173  lastOffer */\n      dup4\n        /* \"Auction.sol\":5164:5201  lastOffer * MIN_BID_INCREMENT_PERCENT */\n      tag_171\n      swap2\n      swap1\n      tag_172\n      jump\t// in\n    tag_171:\n        /* \"Auction.sol\":5163:5213  (lastOffer * MIN_BID_INCREMENT_PERCENT) / REFACTOR */\n      tag_173\n      swap2\n      swap1\n      tag_174\n      jump\t// in\n    tag_173:\n        /* \"Auction.sol\":5148:5213  offerChecked = (lastOffer * MIN_BID_INCREMENT_PERCENT) / REFACTOR */\n      swap1\n      pop\n        /* \"Auction.sol\":5053:5221  function _checkOffer(uint256 lastOffer) private pure returns (uint256 offerChecked) {... */\n      swap2\n      swap1\n      pop\n      jump\t// out\n        /* \"Auction.sol\":5269:5405  function _checkFee(uint256 biderValue) private pure returns (uint256 fee) {... */\n    tag_132:\n        /* \"Auction.sol\":5330:5341  uint256 fee */\n      0x00\n        /* \"Auction.sol\":725:728  100 */\n      0x64\n        /* \"Auction.sol\":681:682  2 */\n      0x02\n        /* \"Auction.sol\":5361:5371  biderValue */\n      dup4\n        /* \"Auction.sol\":5361:5385  biderValue * FEE_PERCENT */\n      tag_176\n      swap2\n      swap1\n      tag_172\n      jump\t// in\n    tag_176:\n        /* \"Auction.sol\":5360:5397  (biderValue * FEE_PERCENT) / REFACTOR */\n      tag_177\n      swap2\n      swap1\n      tag_174\n      jump\t// in\n    tag_177:\n        /* \"Auction.sol\":5354:5397  fee = (biderValue * FEE_PERCENT) / REFACTOR */\n      swap1\n      pop\n        /* \"Auction.sol\":5269:5405  function _checkFee(uint256 biderValue) private pure returns (uint256 fee) {... */\n      swap2\n      swap1\n      pop\n      jump\t// out\n    tag_168:\n      mload(0x40)\n      dup1\n      0x80\n      add\n      0x40\n      mstore\n      dup1\n      and(0xffffffffffffffffffffffffffffffffffffffff, 0x00)\n      dup2\n      mstore\n      0x20\n      add\n      0x00\n      dup2\n      mstore\n      0x20\n      add\n      0x00\n      dup2\n      mstore\n      0x20\n      add\n      iszero(iszero(0x00))\n      dup2\n      mstore\n      pop\n      swap1\n      jump\t// out\n        /* \"#utility.yul\":7:143   */\n    tag_178:\n        /* \"#utility.yul\":96:102   */\n      0x00\n        /* \"#utility.yul\":130:135   */\n      dup2\n        /* \"#utility.yul\":124:136   */\n      mload\n        /* \"#utility.yul\":114:136   */\n      swap1\n      pop\n        /* \"#utility.yul\":7:143   */\n      swap2\n      swap1\n      pop\n      jump\t// out\n        /* \"#utility.yul\":149:355   */\n    tag_179:\n        /* \"#utility.yul\":270:281   */\n      0x00\n        /* \"#utility.yul\":304:310   */\n      dup3\n        /* \"#utility.yul\":299:302   */\n      dup3\n        /* \"#utility.yul\":292:311   */\n      mstore\n        /* \"#utility.yul\":344:348   */\n      0x20\n        /* \"#utility.yul\":339:342   */\n      dup3\n        /* \"#utility.yul\":335:349   */\n      add\n        /* \"#utility.yul\":320:349   */\n      swap1\n      pop\n        /* \"#utility.yul\":149:355   */\n      swap3\n      swap2\n      pop\n      pop\n      jump\t// out\n        /* \"#utility.yul\":361:515   */\n    tag_180:\n        /* \"#utility.yul\":450:454   */\n      0x00\n        /* \"#utility.yul\":473:476   */\n      dup2\n        /* \"#utility.yul\":465:476   */\n      swap1\n      pop\n        /* \"#utility.yul\":503:507   */\n      0x20\n        /* \"#utility.yul\":498:501   */\n      dup3\n        /* \"#utility.yul\":494:508   */\n      add\n        /* \"#utility.yul\":486:508   */\n      swap1\n      pop\n        /* \"#utility.yul\":361:515   */\n      swap2\n      swap1\n      pop\n      jump\t// out\n        /* \"#utility.yul\":521:647   */\n    tag_181:\n        /* \"#utility.yul\":558:565   */\n      0x00\n        /* \"#utility.yul\":598:640   */\n      0xffffffffffffffffffffffffffffffffffffffff\n        /* \"#utility.yul\":591:596   */\n      dup3\n        /* \"#utility.yul\":587:641   */\n      and\n        /* \"#utility.yul\":576:641   */\n      swap1\n      pop\n        /* \"#utility.yul\":521:647   */\n      swap2\n      swap1\n      pop\n      jump\t// out\n        /* \"#utility.yul\":653:749   */\n    tag_182:\n        /* \"#utility.yul\":690:697   */\n      0x00\n        /* \"#utility.yul\":719:743   */\n      tag_220\n        /* \"#utility.yul\":737:742   */\n      dup3\n        /* \"#utility.yul\":719:743   */\n      tag_181\n      jump\t// in\n    tag_220:\n        /* \"#utility.yul\":708:743   */\n      swap1\n      pop\n        /* \"#utility.yul\":653:749   */\n      swap2\n      swap1\n      pop\n      jump\t// out\n        /* \"#utility.yul\":755:863   */\n    tag_183:\n        /* \"#utility.yul\":832:856   */\n      tag_222\n        /* \"#utility.yul\":850:855   */\n      dup2\n        /* \"#utility.yul\":832:856   */\n      tag_182\n      jump\t// in\n    tag_222:\n        /* \"#utility.yul\":827:830   */\n      dup3\n        /* \"#utility.yul\":820:857   */\n      mstore\n        /* \"#utility.yul\":755:863   */\n      pop\n      pop\n      jump\t// out\n        /* \"#utility.yul\":869:946   */\n    tag_184:\n        /* \"#utility.yul\":906:913   */\n      0x00\n        /* \"#utility.yul\":935:940   */\n      dup2\n        /* \"#utility.yul\":924:940   */\n      swap1\n      pop\n        /* \"#utility.yul\":869:946   */\n      swap2\n      swap1\n      pop\n      jump\t// out\n        /* \"#utility.yul\":952:1060   */\n    tag_185:\n        /* \"#utility.yul\":1029:1053   */\n      tag_225\n        /* \"#utility.yul\":1047:1052   */\n      dup2\n        /* \"#utility.yul\":1029:1053   */\n      tag_184\n      jump\t// in\n    tag_225:\n        /* \"#utility.yul\":1024:1027   */\n      dup3\n        /* \"#utility.yul\":1017:1054   */\n      mstore\n        /* \"#utility.yul\":952:1060   */\n      pop\n      pop\n      jump\t// out\n        /* \"#utility.yul\":1066:1156   */\n    tag_186:\n        /* \"#utility.yul\":1100:1107   */\n      0x00\n        /* \"#utility.yul\":1143:1148   */\n      dup2\n        /* \"#utility.yul\":1136:1149   */\n      iszero\n        /* \"#utility.yul\":1129:1150   */\n      iszero\n        /* \"#utility.yul\":1118:1150   */\n      swap1\n      pop\n        /* \"#utility.yul\":1066:1156   */\n      swap2\n      swap1\n      pop\n      jump\t// out\n        /* \"#utility.yul\":1162:1261   */\n    tag_187:\n        /* \"#utility.yul\":1233:1254   */\n      tag_228\n        /* \"#utility.yul\":1248:1253   */\n      dup2\n        /* \"#utility.yul\":1233:1254   */\n      tag_186\n      jump\t// in\n    tag_228:\n        /* \"#utility.yul\":1228:1231   */\n      dup3\n        /* \"#utility.yul\":1221:1255   */\n      mstore\n        /* \"#utility.yul\":1162:1261   */\n      pop\n      pop\n      jump\t// out\n        /* \"#utility.yul\":1321:2169   */\n    tag_188:\n        /* \"#utility.yul\":1452:1456   */\n      0x80\n        /* \"#utility.yul\":1447:1450   */\n      dup3\n        /* \"#utility.yul\":1443:1457   */\n      add\n        /* \"#utility.yul\":1540:1544   */\n      0x00\n        /* \"#utility.yul\":1533:1538   */\n      dup3\n        /* \"#utility.yul\":1529:1545   */\n      add\n        /* \"#utility.yul\":1523:1546   */\n      mload\n        /* \"#utility.yul\":1559:1622   */\n      tag_230\n        /* \"#utility.yul\":1616:1620   */\n      0x00\n        /* \"#utility.yul\":1611:1614   */\n      dup6\n        /* \"#utility.yul\":1607:1621   */\n      add\n        /* \"#utility.yul\":1593:1605   */\n      dup3\n        /* \"#utility.yul\":1559:1622   */\n      tag_183\n      jump\t// in\n    tag_230:\n        /* \"#utility.yul\":1467:1632   */\n      pop\n        /* \"#utility.yul\":1715:1719   */\n      0x20\n        /* \"#utility.yul\":1708:1713   */\n      dup3\n        /* \"#utility.yul\":1704:1720   */\n      add\n        /* \"#utility.yul\":1698:1721   */\n      mload\n        /* \"#utility.yul\":1734:1797   */\n      tag_231\n        /* \"#utility.yul\":1791:1795   */\n      0x20\n        /* \"#utility.yul\":1786:1789   */\n      dup6\n        /* \"#utility.yul\":1782:1796   */\n      add\n        /* \"#utility.yul\":1768:1780   */\n      dup3\n        /* \"#utility.yul\":1734:1797   */\n      tag_185\n      jump\t// in\n    tag_231:\n        /* \"#utility.yul\":1642:1807   */\n      pop\n        /* \"#utility.yul\":1892:1896   */\n      0x40\n        /* \"#utility.yul\":1885:1890   */\n      dup3\n        /* \"#utility.yul\":1881:1897   */\n      add\n        /* \"#utility.yul\":1875:1898   */\n      mload\n        /* \"#utility.yul\":1911:1974   */\n      tag_232\n        /* \"#utility.yul\":1968:1972   */\n      0x40\n        /* \"#utility.yul\":1963:1966   */\n      dup6\n        /* \"#utility.yul\":1959:1973   */\n      add\n        /* \"#utility.yul\":1945:1957   */\n      dup3\n        /* \"#utility.yul\":1911:1974   */\n      tag_185\n      jump\t// in\n    tag_232:\n        /* \"#utility.yul\":1817:1984   */\n      pop\n        /* \"#utility.yul\":2076:2080   */\n      0x60\n        /* \"#utility.yul\":2069:2074   */\n      dup3\n        /* \"#utility.yul\":2065:2081   */\n      add\n        /* \"#utility.yul\":2059:2082   */\n      mload\n        /* \"#utility.yul\":2095:2152   */\n      tag_233\n        /* \"#utility.yul\":2146:2150   */\n      0x60\n        /* \"#utility.yul\":2141:2144   */\n      dup6\n        /* \"#utility.yul\":2137:2151   */\n      add\n        /* \"#utility.yul\":2123:2135   */\n      dup3\n        /* \"#utility.yul\":2095:2152   */\n      tag_187\n      jump\t// in\n    tag_233:\n        /* \"#utility.yul\":1994:2162   */\n      pop\n        /* \"#utility.yul\":1421:2169   */\n      pop\n        /* \"#utility.yul\":1321:2169   */\n      pop\n      pop\n      jump\t// out\n        /* \"#utility.yul\":2175:2442   */\n    tag_189:\n        /* \"#utility.yul\":2288:2298   */\n      0x00\n        /* \"#utility.yul\":2309:2399   */\n      tag_235\n        /* \"#utility.yul\":2395:2398   */\n      dup4\n        /* \"#utility.yul\":2387:2393   */\n      dup4\n        /* \"#utility.yul\":2309:2399   */\n      tag_188\n      jump\t// in\n    tag_235:\n        /* \"#utility.yul\":2431:2435   */\n      0x80\n        /* \"#utility.yul\":2426:2429   */\n      dup4\n        /* \"#utility.yul\":2422:2436   */\n      add\n        /* \"#utility.yul\":2408:2436   */\n      swap1\n      pop\n        /* \"#utility.yul\":2175:2442   */\n      swap3\n      swap2\n      pop\n      pop\n      jump\t// out\n        /* \"#utility.yul\":2448:2583   */\n    tag_190:\n        /* \"#utility.yul\":2540:2544   */\n      0x00\n        /* \"#utility.yul\":2572:2576   */\n      0x20\n        /* \"#utility.yul\":2567:2570   */\n      dup3\n        /* \"#utility.yul\":2563:2577   */\n      add\n        /* \"#utility.yul\":2555:2577   */\n      swap1\n      pop\n        /* \"#utility.yul\":2448:2583   */\n      swap2\n      swap1\n      pop\n      jump\t// out\n        /* \"#utility.yul\":2647:3555   */\n    tag_191:\n        /* \"#utility.yul\":2810:2813   */\n      0x00\n        /* \"#utility.yul\":2839:2915   */\n      tag_238\n        /* \"#utility.yul\":2909:2914   */\n      dup3\n        /* \"#utility.yul\":2839:2915   */\n      tag_178\n      jump\t// in\n    tag_238:\n        /* \"#utility.yul\":2931:3039   */\n      tag_239\n        /* \"#utility.yul\":3032:3038   */\n      dup2\n        /* \"#utility.yul\":3027:3030   */\n      dup6\n        /* \"#utility.yul\":2931:3039   */\n      tag_179\n      jump\t// in\n    tag_239:\n        /* \"#utility.yul\":2924:3039   */\n      swap4\n      pop\n        /* \"#utility.yul\":3063:3141   */\n      tag_240\n        /* \"#utility.yul\":3135:3140   */\n      dup4\n        /* \"#utility.yul\":3063:3141   */\n      tag_180\n      jump\t// in\n    tag_240:\n        /* \"#utility.yul\":3164:3171   */\n      dup1\n        /* \"#utility.yul\":3195:3196   */\n      0x00\n        /* \"#utility.yul\":3180:3530   */\n    tag_241:\n        /* \"#utility.yul\":3205:3211   */\n      dup4\n        /* \"#utility.yul\":3202:3203   */\n      dup2\n        /* \"#utility.yul\":3199:3212   */\n      lt\n        /* \"#utility.yul\":3180:3530   */\n      iszero\n      tag_243\n      jumpi\n        /* \"#utility.yul\":3281:3287   */\n      dup2\n        /* \"#utility.yul\":3275:3288   */\n      mload\n        /* \"#utility.yul\":3308:3415   */\n      tag_244\n        /* \"#utility.yul\":3411:3414   */\n      dup9\n        /* \"#utility.yul\":3396:3409   */\n      dup3\n        /* \"#utility.yul\":3308:3415   */\n      tag_189\n      jump\t// in\n    tag_244:\n        /* \"#utility.yul\":3301:3415   */\n      swap8\n      pop\n        /* \"#utility.yul\":3438:3520   */\n      tag_245\n        /* \"#utility.yul\":3513:3519   */\n      dup4\n        /* \"#utility.yul\":3438:3520   */\n      tag_190\n      jump\t// in\n    tag_245:\n        /* \"#utility.yul\":3428:3520   */\n      swap3\n      pop\n        /* \"#utility.yul\":3240:3530   */\n      pop\n        /* \"#utility.yul\":3227:3228   */\n      0x01\n        /* \"#utility.yul\":3224:3225   */\n      dup2\n        /* \"#utility.yul\":3220:3229   */\n      add\n        /* \"#utility.yul\":3215:3229   */\n      swap1\n      pop\n        /* \"#utility.yul\":3180:3530   */\n      jump(tag_241)\n    tag_243:\n        /* \"#utility.yul\":3184:3198   */\n      pop\n        /* \"#utility.yul\":3546:3549   */\n      dup6\n        /* \"#utility.yul\":3539:3549   */\n      swap4\n      pop\n        /* \"#utility.yul\":2815:3555   */\n      pop\n      pop\n      pop\n        /* \"#utility.yul\":2647:3555   */\n      swap3\n      swap2\n      pop\n      pop\n      jump\t// out\n        /* \"#utility.yul\":3561:4022   */\n    tag_20:\n        /* \"#utility.yul\":3748:3752   */\n      0x00\n        /* \"#utility.yul\":3786:3788   */\n      0x20\n        /* \"#utility.yul\":3775:3784   */\n      dup3\n        /* \"#utility.yul\":3771:3789   */\n      add\n        /* \"#utility.yul\":3763:3789   */\n      swap1\n      pop\n        /* \"#utility.yul\":3835:3844   */\n      dup2\n        /* \"#utility.yul\":3829:3833   */\n      dup2\n        /* \"#utility.yul\":3825:3845   */\n      sub\n        /* \"#utility.yul\":3821:3822   */\n      0x00\n        /* \"#utility.yul\":3810:3819   */\n      dup4\n        /* \"#utility.yul\":3806:3823   */\n      add\n        /* \"#utility.yul\":3799:3846   */\n      mstore\n        /* \"#utility.yul\":3863:4015   */\n      tag_247\n        /* \"#utility.yul\":4010:4014   */\n      dup2\n        /* \"#utility.yul\":4001:4007   */\n      dup5\n        /* \"#utility.yul\":3863:4015   */\n      tag_191\n      jump\t// in\n    tag_247:\n        /* \"#utility.yul\":3855:4015   */\n      swap1\n      pop\n        /* \"#utility.yul\":3561:4022   */\n      swap3\n      swap2\n      pop\n      pop\n      jump\t// out\n        /* \"#utility.yul\":4082:4940   */\n    tag_192:\n        /* \"#utility.yul\":4223:4227   */\n      0x80\n        /* \"#utility.yul\":4218:4221   */\n      dup3\n        /* \"#utility.yul\":4214:4228   */\n      add\n        /* \"#utility.yul\":4311:4315   */\n      0x00\n        /* \"#utility.yul\":4304:4309   */\n      dup3\n        /* \"#utility.yul\":4300:4316   */\n      add\n        /* \"#utility.yul\":4294:4317   */\n      mload\n        /* \"#utility.yul\":4330:4393   */\n      tag_249\n        /* \"#utility.yul\":4387:4391   */\n      0x00\n        /* \"#utility.yul\":4382:4385   */\n      dup6\n        /* \"#utility.yul\":4378:4392   */\n      add\n        /* \"#utility.yul\":4364:4376   */\n      dup3\n        /* \"#utility.yul\":4330:4393   */\n      tag_183\n      jump\t// in\n    tag_249:\n        /* \"#utility.yul\":4238:4403   */\n      pop\n        /* \"#utility.yul\":4486:4490   */\n      0x20\n        /* \"#utility.yul\":4479:4484   */\n      dup3\n        /* \"#utility.yul\":4475:4491   */\n      add\n        /* \"#utility.yul\":4469:4492   */\n      mload\n        /* \"#utility.yul\":4505:4568   */\n      tag_250\n        /* \"#utility.yul\":4562:4566   */\n      0x20\n        /* \"#utility.yul\":4557:4560   */\n      dup6\n        /* \"#utility.yul\":4553:4567   */\n      add\n        /* \"#utility.yul\":4539:4551   */\n      dup3\n        /* \"#utility.yul\":4505:4568   */\n      tag_185\n      jump\t// in\n    tag_250:\n        /* \"#utility.yul\":4413:4578   */\n      pop\n        /* \"#utility.yul\":4663:4667   */\n      0x40\n        /* \"#utility.yul\":4656:4661   */\n      dup3\n        /* \"#utility.yul\":4652:4668   */\n      add\n        /* \"#utility.yul\":4646:4669   */\n      mload\n        /* \"#utility.yul\":4682:4745   */\n      tag_251\n        /* \"#utility.yul\":4739:4743   */\n      0x40\n        /* \"#utility.yul\":4734:4737   */\n      dup6\n        /* \"#utility.yul\":4730:4744   */\n      add\n        /* \"#utility.yul\":4716:4728   */\n      dup3\n        /* \"#utility.yul\":4682:4745   */\n      tag_185\n      jump\t// in\n    tag_251:\n        /* \"#utility.yul\":4588:4755   */\n      pop\n        /* \"#utility.yul\":4847:4851   */\n      0x60\n        /* \"#utility.yul\":4840:4845   */\n      dup3\n        /* \"#utility.yul\":4836:4852   */\n      add\n        /* \"#utility.yul\":4830:4853   */\n      mload\n        /* \"#utility.yul\":4866:4923   */\n      tag_252\n        /* \"#utility.yul\":4917:4921   */\n      0x60\n        /* \"#utility.yul\":4912:4915   */\n      dup6\n        /* \"#utility.yul\":4908:4922   */\n      add\n        /* \"#utility.yul\":4894:4906   */\n      dup3\n        /* \"#utility.yul\":4866:4923   */\n      tag_187\n      jump\t// in\n    tag_252:\n        /* \"#utility.yul\":4765:4933   */\n      pop\n        /* \"#utility.yul\":4192:4940   */\n      pop\n        /* \"#utility.yul\":4082:4940   */\n      pop\n      pop\n      jump\t// out\n        /* \"#utility.yul\":4946:5257   */\n    tag_28:\n        /* \"#utility.yul\":5083:5087   */\n      0x00\n        /* \"#utility.yul\":5121:5124   */\n      0x80\n        /* \"#utility.yul\":5110:5119   */\n      dup3\n        /* \"#utility.yul\":5106:5125   */\n      add\n        /* \"#utility.yul\":5098:5125   */\n      swap1\n      pop\n        /* \"#utility.yul\":5135:5250   */\n      tag_254\n        /* \"#utility.yul\":5247:5248   */\n      0x00\n        /* \"#utility.yul\":5236:5245   */\n      dup4\n        /* \"#utility.yul\":5232:5249   */\n      add\n        /* \"#utility.yul\":5223:5229   */\n      dup5\n        /* \"#utility.yul\":5135:5250   */\n      tag_192\n      jump\t// in\n    tag_254:\n        /* \"#utility.yul\":4946:5257   */\n      swap3\n      swap2\n      pop\n      pop\n      jump\t// out\n        /* \"#utility.yul\":5263:5432   */\n    tag_193:\n        /* \"#utility.yul\":5347:5358   */\n      0x00\n        /* \"#utility.yul\":5381:5387   */\n      dup3\n        /* \"#utility.yul\":5376:5379   */\n      dup3\n        /* \"#utility.yul\":5369:5388   */\n      mstore\n        /* \"#utility.yul\":5421:5425   */\n      0x20\n        /* \"#utility.yul\":5416:5419   */\n      dup3\n        /* \"#utility.yul\":5412:5426   */\n      add\n        /* \"#utility.yul\":5397:5426   */\n      swap1\n      pop\n        /* \"#utility.yul\":5263:5432   */\n      swap3\n      swap2\n      pop\n      pop\n      jump\t// out\n        /* \"#utility.yul\":5438:5600   */\n    tag_194:\n        /* \"#utility.yul\":5578:5592   */\n      0x4269642066696e69736865640000000000000000000000000000000000000000\n        /* \"#utility.yul\":5574:5575   */\n      0x00\n        /* \"#utility.yul\":5566:5572   */\n      dup3\n        /* \"#utility.yul\":5562:5576   */\n      add\n        /* \"#utility.yul\":5555:5593   */\n      mstore\n        /* \"#utility.yul\":5438:5600   */\n      pop\n      jump\t// out\n        /* \"#utility.yul\":5606:5972   */\n    tag_195:\n        /* \"#utility.yul\":5748:5751   */\n      0x00\n        /* \"#utility.yul\":5769:5836   */\n      tag_258\n        /* \"#utility.yul\":5833:5835   */\n      0x0c\n        /* \"#utility.yul\":5828:5831   */\n      dup4\n        /* \"#utility.yul\":5769:5836   */\n      tag_193\n      jump\t// in\n    tag_258:\n        /* \"#utility.yul\":5762:5836   */\n      swap2\n      pop\n        /* \"#utility.yul\":5845:5938   */\n      tag_259\n        /* \"#utility.yul\":5934:5937   */\n      dup3\n        /* \"#utility.yul\":5845:5938   */\n      tag_194\n      jump\t// in\n    tag_259:\n        /* \"#utility.yul\":5963:5965   */\n      0x20\n        /* \"#utility.yul\":5958:5961   */\n      dup3\n        /* \"#utility.yul\":5954:5966   */\n      add\n        /* \"#utility.yul\":5947:5966   */\n      swap1\n      pop\n        /* \"#utility.yul\":5606:5972   */\n      swap2\n      swap1\n      pop\n      jump\t// out\n        /* \"#utility.yul\":5978:6397   */\n    tag_32:\n        /* \"#utility.yul\":6144:6148   */\n      0x00\n        /* \"#utility.yul\":6182:6184   */\n      0x20\n        /* \"#utility.yul\":6171:6180   */\n      dup3\n        /* \"#utility.yul\":6167:6185   */\n      add\n        /* \"#utility.yul\":6159:6185   */\n      swap1\n      pop\n        /* \"#utility.yul\":6231:6240   */\n      dup2\n        /* \"#utility.yul\":6225:6229   */\n      dup2\n        /* \"#utility.yul\":6221:6241   */\n      sub\n        /* \"#utility.yul\":6217:6218   */\n      0x00\n        /* \"#utility.yul\":6206:6215   */\n      dup4\n        /* \"#utility.yul\":6202:6219   */\n      add\n        /* \"#utility.yul\":6195:6242   */\n      mstore\n        /* \"#utility.yul\":6259:6390   */\n      tag_261\n        /* \"#utility.yul\":6385:6389   */\n      dup2\n        /* \"#utility.yul\":6259:6390   */\n      tag_195\n      jump\t// in\n    tag_261:\n        /* \"#utility.yul\":6251:6390   */\n      swap1\n      pop\n        /* \"#utility.yul\":5978:6397   */\n      swap2\n      swap1\n      pop\n      jump\t// out\n        /* \"#utility.yul\":6403:6582   */\n    tag_196:\n        /* \"#utility.yul\":6543:6574   */\n      0x426964206d7573742062652067726561746572207468616e207a65726f000000\n        /* \"#utility.yul\":6539:6540   */\n      0x00\n        /* \"#utility.yul\":6531:6537   */\n      dup3\n        /* \"#utility.yul\":6527:6541   */\n      add\n        /* \"#utility.yul\":6520:6575   */\n      mstore\n        /* \"#utility.yul\":6403:6582   */\n      pop\n      jump\t// out\n        /* \"#utility.yul\":6588:6954   */\n    tag_197:\n        /* \"#utility.yul\":6730:6733   */\n      0x00\n        /* \"#utility.yul\":6751:6818   */\n      tag_264\n        /* \"#utility.yul\":6815:6817   */\n      0x1d\n        /* \"#utility.yul\":6810:6813   */\n      dup4\n        /* \"#utility.yul\":6751:6818   */\n      tag_193\n      jump\t// in\n    tag_264:\n        /* \"#utility.yul\":6744:6818   */\n      swap2\n      pop\n        /* \"#utility.yul\":6827:6920   */\n      tag_265\n        /* \"#utility.yul\":6916:6919   */\n      dup3\n        /* \"#utility.yul\":6827:6920   */\n      tag_196\n      jump\t// in\n    tag_265:\n        /* \"#utility.yul\":6945:6947   */\n      0x20\n        /* \"#utility.yul\":6940:6943   */\n      dup3\n        /* \"#utility.yul\":6936:6948   */\n      add\n        /* \"#utility.yul\":6929:6948   */\n      swap1\n      pop\n        /* \"#utility.yul\":6588:6954   */\n      swap2\n      swap1\n      pop\n      jump\t// out\n        /* \"#utility.yul\":6960:7379   */\n    tag_36:\n        /* \"#utility.yul\":7126:7130   */\n      0x00\n        /* \"#utility.yul\":7164:7166   */\n      0x20\n        /* \"#utility.yul\":7153:7162   */\n      dup3\n        /* \"#utility.yul\":7149:7167   */\n      add\n        /* \"#utility.yul\":7141:7167   */\n      swap1\n      pop\n        /* \"#utility.yul\":7213:7222   */\n      dup2\n        /* \"#utility.yul\":7207:7211   */\n      dup2\n        /* \"#utility.yul\":7203:7223   */\n      sub\n        /* \"#utility.yul\":7199:7200   */\n      0x00\n        /* \"#utility.yul\":7188:7197   */\n      dup4\n        /* \"#utility.yul\":7184:7201   */\n      add\n        /* \"#utility.yul\":7177:7224   */\n      mstore\n        /* \"#utility.yul\":7241:7372   */\n      tag_267\n        /* \"#utility.yul\":7367:7371   */\n      dup2\n        /* \"#utility.yul\":7241:7372   */\n      tag_197\n      jump\t// in\n    tag_267:\n        /* \"#utility.yul\":7233:7372   */\n      swap1\n      pop\n        /* \"#utility.yul\":6960:7379   */\n      swap2\n      swap1\n      pop\n      jump\t// out\n        /* \"#utility.yul\":7385:7557   */\n    tag_198:\n        /* \"#utility.yul\":7525:7549   */\n      0x496e76616c69642073656e646572206164647265737300000000000000000000\n        /* \"#utility.yul\":7521:7522   */\n      0x00\n        /* \"#utility.yul\":7513:7519   */\n      dup3\n        /* \"#utility.yul\":7509:7523   */\n      add\n        /* \"#utility.yul\":7502:7550   */\n      mstore\n        /* \"#utility.yul\":7385:7557   */\n      pop\n      jump\t// out\n        /* \"#utility.yul\":7563:7929   */\n    tag_199:\n        /* \"#utility.yul\":7705:7708   */\n      0x00\n        /* \"#utility.yul\":7726:7793   */\n      tag_270\n        /* \"#utility.yul\":7790:7792   */\n      0x16\n        /* \"#utility.yul\":7785:7788   */\n      dup4\n        /* \"#utility.yul\":7726:7793   */\n      tag_193\n      jump\t// in\n    tag_270:\n        /* \"#utility.yul\":7719:7793   */\n      swap2\n      pop\n        /* \"#utility.yul\":7802:7895   */\n      tag_271\n        /* \"#utility.yul\":7891:7894   */\n      dup3\n        /* \"#utility.yul\":7802:7895   */\n      tag_198\n      jump\t// in\n    tag_271:\n        /* \"#utility.yul\":7920:7922   */\n      0x20\n        /* \"#utility.yul\":7915:7918   */\n      dup3\n        /* \"#utility.yul\":7911:7923   */\n      add\n        /* \"#utility.yul\":7904:7923   */\n      swap1\n      pop\n        /* \"#utility.yul\":7563:7929   */\n      swap2\n      swap1\n      pop\n      jump\t// out\n        /* \"#utility.yul\":7935:8354   */\n    tag_39:\n        /* \"#utility.yul\":8101:8105   */\n      0x00\n        /* \"#utility.yul\":8139:8141   */\n      0x20\n        /* \"#utility.yul\":8128:8137   */\n      dup3\n        /* \"#utility.yul\":8124:8142   */\n      add\n        /* \"#utility.yul\":8116:8142   */\n      swap1\n      pop\n        /* \"#utility.yul\":8188:8197   */\n      dup2\n        /* \"#utility.yul\":8182:8186   */\n      dup2\n        /* \"#utility.yul\":8178:8198   */\n      sub\n        /* \"#utility.yul\":8174:8175   */\n      0x00\n        /* \"#utility.yul\":8163:8172   */\n      dup4\n        /* \"#utility.yul\":8159:8176   */\n      add\n        /* \"#utility.yul\":8152:8199   */\n      mstore\n        /* \"#utility.yul\":8216:8347   */\n      tag_273\n        /* \"#utility.yul\":8342:8346   */\n      dup2\n        /* \"#utility.yul\":8216:8347   */\n      tag_199\n      jump\t// in\n    tag_273:\n        /* \"#utility.yul\":8208:8347   */\n      swap1\n      pop\n        /* \"#utility.yul\":7935:8354   */\n      swap2\n      swap1\n      pop\n      jump\t// out\n        /* \"#utility.yul\":8360:8540   */\n    tag_200:\n        /* \"#utility.yul\":8408:8485   */\n      0x4e487b7100000000000000000000000000000000000000000000000000000000\n        /* \"#utility.yul\":8405:8406   */\n      0x00\n        /* \"#utility.yul\":8398:8486   */\n      mstore\n        /* \"#utility.yul\":8505:8509   */\n      0x11\n        /* \"#utility.yul\":8502:8503   */\n      0x04\n        /* \"#utility.yul\":8495:8510   */\n      mstore\n        /* \"#utility.yul\":8529:8533   */\n      0x24\n        /* \"#utility.yul\":8526:8527   */\n      0x00\n        /* \"#utility.yul\":8519:8534   */\n      revert\n        /* \"#utility.yul\":8546:8779   */\n    tag_44:\n        /* \"#utility.yul\":8585:8588   */\n      0x00\n        /* \"#utility.yul\":8608:8632   */\n      tag_276\n        /* \"#utility.yul\":8626:8631   */\n      dup3\n        /* \"#utility.yul\":8608:8632   */\n      tag_184\n      jump\t// in\n    tag_276:\n        /* \"#utility.yul\":8599:8632   */\n      swap2\n      pop\n        /* \"#utility.yul\":8654:8720   */\n      0xffffffffffffffffffffffffffffffffffffffffffffffffffffffffffffffff\n        /* \"#utility.yul\":8647:8652   */\n      dup3\n        /* \"#utility.yul\":8644:8721   */\n      sub\n        /* \"#utility.yul\":8641:8744   */\n      tag_277\n      jumpi\n        /* \"#utility.yul\":8724:8742   */\n      tag_278\n      tag_200\n      jump\t// in\n    tag_278:\n        /* \"#utility.yul\":8641:8744   */\n    tag_277:\n        /* \"#utility.yul\":8771:8772   */\n      0x01\n        /* \"#utility.yul\":8764:8769   */\n      dup3\n        /* \"#utility.yul\":8760:8773   */\n      add\n        /* \"#utility.yul\":8753:8773   */\n      swap1\n      pop\n        /* \"#utility.yul\":8546:8779   */\n      swap2\n      swap1\n      pop\n      jump\t// out\n        /* \"#utility.yul\":8785:8903   */\n    tag_201:\n        /* \"#utility.yul\":8872:8896   */\n      tag_280\n        /* \"#utility.yul\":8890:8895   */\n      dup2\n        /* \"#utility.yul\":8872:8896   */\n      tag_184\n      jump\t// in\n    tag_280:\n        /* \"#utility.yul\":8867:8870   */\n      dup3\n        /* \"#utility.yul\":8860:8897   */\n      mstore\n        /* \"#utility.yul\":8785:8903   */\n      pop\n      pop\n      jump\t// out\n        /* \"#utility.yul\":8909:9131   */\n    tag_47:\n        /* \"#utility.yul\":9002:9006   */\n      0x00\n        /* \"#utility.yul\":9040:9042   */\n      0x20\n        /* \"#utility.yul\":9029:9038   */\n      dup3\n        /* \"#utility.yul\":9025:9043   */\n      add\n        /* \"#utility.yul\":9017:9043   */\n      swap1\n      pop\n        /* \"#utility.yul\":9053:9124   */\n      tag_282\n        /* \"#utility.yul\":9121:9122   */\n      0x00\n        /* \"#utility.yul\":9110:9119   */\n      dup4\n        /* \"#utility.yul\":9106:9123   */\n      add\n        /* \"#utility.yul\":9097:9103   */\n      dup5\n        /* \"#utility.yul\":9053:9124   */\n      tag_201\n      jump\t// in\n    tag_282:\n        /* \"#utility.yul\":8909:9131   */\n      swap3\n      swap2\n      pop\n      pop\n      jump\t// out\n        /* \"#utility.yul\":9137:9331   */\n    tag_49:\n        /* \"#utility.yul\":9177:9181   */\n      0x00\n        /* \"#utility.yul\":9197:9217   */\n      tag_284\n        /* \"#utility.yul\":9215:9216   */\n      dup3\n        /* \"#utility.yul\":9197:9217   */\n      tag_184\n      jump\t// in\n    tag_284:\n        /* \"#utility.yul\":9192:9217   */\n      swap2\n      pop\n        /* \"#utility.yul\":9231:9251   */\n      tag_285\n        /* \"#utility.yul\":9249:9250   */\n      dup4\n        /* \"#utility.yul\":9231:9251   */\n      tag_184\n      jump\t// in\n    tag_285:\n        /* \"#utility.yul\":9226:9251   */\n      swap3\n      pop\n        /* \"#utility.yul\":9275:9276   */\n      dup3\n        /* \"#utility.yul\":9272:9273   */\n      dup3\n        /* \"#utility.yul\":9268:9277   */\n      sub\n        /* \"#utility.yul\":9260:9277   */\n      swap1\n      pop\n        /* \"#utility.yul\":9299:9300   */\n      dup2\n        /* \"#utility.yul\":9293:9297   */\n      dup2\n        /* \"#utility.yul\":9290:9301   */\n      gt\n        /* \"#utility.yul\":9287:9324   */\n      iszero\n      tag_286\n      jumpi\n        /* \"#utility.yul\":9304:9322   */\n      tag_287\n      tag_200\n      jump\t// in\n    tag_287:\n        /* \"#utility.yul\":9287:9324   */\n    tag_286:\n        /* \"#utility.yul\":9137:9331   */\n      swap3\n      swap2\n      pop\n      pop\n      jump\t// out\n        /* \"#utility.yul\":9337:9528   */\n    tag_52:\n        /* \"#utility.yul\":9377:9380   */\n      0x00\n        /* \"#utility.yul\":9396:9416   */\n      tag_289\n        /* \"#utility.yul\":9414:9415   */\n      dup3\n        /* \"#utility.yul\":9396:9416   */\n      tag_184\n      jump\t// in\n    tag_289:\n        /* \"#utility.yul\":9391:9416   */\n      swap2\n      pop\n        /* \"#utility.yul\":9430:9450   */\n      tag_290\n        /* \"#utility.yul\":9448:9449   */\n      dup4\n        /* \"#utility.yul\":9430:9450   */\n      tag_184\n      jump\t// in\n    tag_290:\n        /* \"#utility.yul\":9425:9450   */\n      swap3\n      pop\n        /* \"#utility.yul\":9473:9474   */\n      dup3\n        /* \"#utility.yul\":9470:9471   */\n      dup3\n        /* \"#utility.yul\":9466:9475   */\n      add\n        /* \"#utility.yul\":9459:9475   */\n      swap1\n      pop\n        /* \"#utility.yul\":9494:9497   */\n      dup1\n        /* \"#utility.yul\":9491:9492   */\n      dup3\n        /* \"#utility.yul\":9488:9498   */\n      gt\n        /* \"#utility.yul\":9485:9521   */\n      iszero\n      tag_291\n      jumpi\n        /* \"#utility.yul\":9501:9519   */\n      tag_292\n      tag_200\n      jump\t// in\n    tag_292:\n        /* \"#utility.yul\":9485:9521   */\n    tag_291:\n        /* \"#utility.yul\":9337:9528   */\n      swap3\n      swap2\n      pop\n      pop\n      jump\t// out\n        /* \"#utility.yul\":9534:9714   */\n    tag_63:\n        /* \"#utility.yul\":9582:9659   */\n      0x4e487b7100000000000000000000000000000000000000000000000000000000\n        /* \"#utility.yul\":9579:9580   */\n      0x00\n        /* \"#utility.yul\":9572:9660   */\n      mstore\n        /* \"#utility.yul\":9679:9683   */\n      0x32\n        /* \"#utility.yul\":9676:9677   */\n      0x04\n        /* \"#utility.yul\":9669:9684   */\n      mstore\n        /* \"#utility.yul\":9703:9707   */\n      0x24\n        /* \"#utility.yul\":9700:9701   */\n      0x00\n        /* \"#utility.yul\":9693:9708   */\n      revert\n        /* \"#utility.yul\":9720:9867   */\n    tag_202:\n        /* \"#utility.yul\":9821:9832   */\n      0x00\n        /* \"#utility.yul\":9858:9861   */\n      dup2\n        /* \"#utility.yul\":9843:9861   */\n      swap1\n      pop\n        /* \"#utility.yul\":9720:9867   */\n      swap3\n      swap2\n      pop\n      pop\n      jump\t// out\n        /* \"#utility.yul\":9873:9987   */\n    tag_203:\n      pop\n      jump\t// out\n        /* \"#utility.yul\":9993:10391   */\n    tag_204:\n        /* \"#utility.yul\":10152:10155   */\n      0x00\n        /* \"#utility.yul\":10173:10256   */\n      tag_297\n        /* \"#utility.yul\":10254:10255   */\n      0x00\n        /* \"#utility.yul\":10249:10252   */\n      dup4\n        /* \"#utility.yul\":10173:10256   */\n      tag_202\n      jump\t// in\n    tag_297:\n        /* \"#utility.yul\":10166:10256   */\n      swap2\n      pop\n        /* \"#utility.yul\":10265:10358   */\n      tag_298\n        /* \"#utility.yul\":10354:10357   */\n      dup3\n        /* \"#utility.yul\":10265:10358   */\n      tag_203\n      jump\t// in\n    tag_298:\n        /* \"#utility.yul\":10383:10384   */\n      0x00\n        /* \"#utility.yul\":10378:10381   */\n      dup3\n        /* \"#utility.yul\":10374:10385   */\n      add\n        /* \"#utility.yul\":10367:10385   */\n      swap1\n      pop\n        /* \"#utility.yul\":9993:10391   */\n      swap2\n      swap1\n      pop\n      jump\t// out\n        /* \"#utility.yul\":10397:10776   */\n    tag_84:\n        /* \"#utility.yul\":10581:10584   */\n      0x00\n        /* \"#utility.yul\":10603:10750   */\n      tag_300\n        /* \"#utility.yul\":10746:10749   */\n      dup3\n        /* \"#utility.yul\":10603:10750   */\n      tag_204\n      jump\t// in\n    tag_300:\n        /* \"#utility.yul\":10596:10750   */\n      swap2\n      pop\n        /* \"#utility.yul\":10767:10770   */\n      dup2\n        /* \"#utility.yul\":10760:10770   */\n      swap1\n      pop\n        /* \"#utility.yul\":10397:10776   */\n      swap2\n      swap1\n      pop\n      jump\t// out\n        /* \"#utility.yul\":10782:10947   */\n    tag_205:\n        /* \"#utility.yul\":10922:10939   */\n      0x5472616e73666572204661696c65640000000000000000000000000000000000\n        /* \"#utility.yul\":10918:10919   */\n      0x00\n        /* \"#utility.yul\":10910:10916   */\n      dup3\n        /* \"#utility.yul\":10906:10920   */\n      add\n        /* \"#utility.yul\":10899:10940   */\n      mstore\n        /* \"#utility.yul\":10782:10947   */\n      pop\n      jump\t// out\n        /* \"#utility.yul\":10953:11319   */\n    tag_206:\n        /* \"#utility.yul\":11095:11098   */\n      0x00\n        /* \"#utility.yul\":11116:11183   */\n      tag_303\n        /* \"#utility.yul\":11180:11182   */\n      0x0f\n        /* \"#utility.yul\":11175:11178   */\n      dup4\n        /* \"#utility.yul\":11116:11183   */\n      tag_193\n      jump\t// in\n    tag_303:\n        /* \"#utility.yul\":11109:11183   */\n      swap2\n      pop\n        /* \"#utility.yul\":11192:11285   */\n      tag_304\n        /* \"#utility.yul\":11281:11284   */\n      dup3\n        /* \"#utility.yul\":11192:11285   */\n      tag_205\n      jump\t// in\n    tag_304:\n        /* \"#utility.yul\":11310:11312   */\n      0x20\n        /* \"#utility.yul\":11305:11308   */\n      dup3\n        /* \"#utility.yul\":11301:11313   */\n      add\n        /* \"#utility.yul\":11294:11313   */\n      swap1\n      pop\n        /* \"#utility.yul\":10953:11319   */\n      swap2\n      swap1\n      pop\n      jump\t// out\n        /* \"#utility.yul\":11325:11744   */\n    tag_90:\n        /* \"#utility.yul\":11491:11495   */\n      0x00\n        /* \"#utility.yul\":11529:11531   */\n      0x20\n        /* \"#utility.yul\":11518:11527   */\n      dup3\n        /* \"#utility.yul\":11514:11532   */\n      add\n        /* \"#utility.yul\":11506:11532   */\n      swap1\n      pop\n        /* \"#utility.yul\":11578:11587   */\n      dup2\n        /* \"#utility.yul\":11572:11576   */\n      dup2\n        /* \"#utility.yul\":11568:11588   */\n      sub\n        /* \"#utility.yul\":11564:11565   */\n      0x00\n        /* \"#utility.yul\":11553:11562   */\n      dup4\n        /* \"#utility.yul\":11549:11566   */\n      add\n        /* \"#utility.yul\":11542:11589   */\n      mstore\n        /* \"#utility.yul\":11606:11737   */\n      tag_306\n        /* \"#utility.yul\":11732:11736   */\n      dup2\n        /* \"#utility.yul\":11606:11737   */\n      tag_206\n      jump\t// in\n    tag_306:\n        /* \"#utility.yul\":11598:11737   */\n      swap1\n      pop\n        /* \"#utility.yul\":11325:11744   */\n      swap2\n      swap1\n      pop\n      jump\t// out\n        /* \"#utility.yul\":11750:11920   */\n    tag_207:\n        /* \"#utility.yul\":11890:11912   */\n      0x426964206e6f742066696e697368656420796574000000000000000000000000\n        /* \"#utility.yul\":11886:11887   */\n      0x00\n        /* \"#utility.yul\":11878:11884   */\n      dup3\n        /* \"#utility.yul\":11874:11888   */\n      add\n        /* \"#utility.yul\":11867:11913   */\n      mstore\n        /* \"#utility.yul\":11750:11920   */\n      pop\n      jump\t// out\n        /* \"#utility.yul\":11926:12292   */\n    tag_208:\n        /* \"#utility.yul\":12068:12071   */\n      0x00\n        /* \"#utility.yul\":12089:12156   */\n      tag_309\n        /* \"#utility.yul\":12153:12155   */\n      0x14\n        /* \"#utility.yul\":12148:12151   */\n      dup4\n        /* \"#utility.yul\":12089:12156   */\n      tag_193\n      jump\t// in\n    tag_309:\n        /* \"#utility.yul\":12082:12156   */\n      swap2\n      pop\n        /* \"#utility.yul\":12165:12258   */\n      tag_310\n        /* \"#utility.yul\":12254:12257   */\n      dup3\n        /* \"#utility.yul\":12165:12258   */\n      tag_207\n      jump\t// in\n    tag_310:\n        /* \"#utility.yul\":12283:12285   */\n      0x20\n        /* \"#utility.yul\":12278:12281   */\n      dup3\n        /* \"#utility.yul\":12274:12286   */\n      add\n        /* \"#utility.yul\":12267:12286   */\n      swap1\n      pop\n        /* \"#utility.yul\":11926:12292   */\n      swap2\n      swap1\n      pop\n      jump\t// out\n        /* \"#utility.yul\":12298:12717   */\n    tag_94:\n        /* \"#utility.yul\":12464:12468   */\n      0x00\n        /* \"#utility.yul\":12502:12504   */\n      0x20\n        /* \"#utility.yul\":12491:12500   */\n      dup3\n        /* \"#utility.yul\":12487:12505   */\n      add\n        /* \"#utility.yul\":12479:12505   */\n      swap1\n      pop\n        /* \"#utility.yul\":12551:12560   */\n      dup2\n        /* \"#utility.yul\":12545:12549   */\n      dup2\n        /* \"#utility.yul\":12541:12561   */\n      sub\n        /* \"#utility.yul\":12537:12538   */\n      0x00\n        /* \"#utility.yul\":12526:12535   */\n      dup4\n        /* \"#utility.yul\":12522:12539   */\n      add\n        /* \"#utility.yul\":12515:12562   */\n      mstore\n        /* \"#utility.yul\":12579:12710   */\n      tag_312\n        /* \"#utility.yul\":12705:12709   */\n      dup2\n        /* \"#utility.yul\":12579:12710   */\n      tag_208\n      jump\t// in\n    tag_312:\n        /* \"#utility.yul\":12571:12710   */\n      swap1\n      pop\n        /* \"#utility.yul\":12298:12717   */\n      swap2\n      swap1\n      pop\n      jump\t// out\n        /* \"#utility.yul\":12723:12890   */\n    tag_209:\n        /* \"#utility.yul\":12863:12882   */\n      0x4e6f2066756e647320746f20636c61696d000000000000000000000000000000\n        /* \"#utility.yul\":12859:12860   */\n      0x00\n        /* \"#utility.yul\":12851:12857   */\n      dup3\n        /* \"#utility.yul\":12847:12861   */\n      add\n        /* \"#utility.yul\":12840:12883   */\n      mstore\n        /* \"#utility.yul\":12723:12890   */\n      pop\n      jump\t// out\n        /* \"#utility.yul\":12896:13262   */\n    tag_210:\n        /* \"#utility.yul\":13038:13041   */\n      0x00\n        /* \"#utility.yul\":13059:13126   */\n      tag_315\n        /* \"#utility.yul\":13123:13125   */\n      0x11\n        /* \"#utility.yul\":13118:13121   */\n      dup4\n        /* \"#utility.yul\":13059:13126   */\n      tag_193\n      jump\t// in\n    tag_315:\n        /* \"#utility.yul\":13052:13126   */\n      swap2\n      pop\n        /* \"#utility.yul\":13135:13228   */\n      tag_316\n        /* \"#utility.yul\":13224:13227   */\n      dup3\n        /* \"#utility.yul\":13135:13228   */\n      tag_209\n      jump\t// in\n    tag_316:\n        /* \"#utility.yul\":13253:13255   */\n      0x20\n        /* \"#utility.yul\":13248:13251   */\n      dup3\n        /* \"#utility.yul\":13244:13256   */\n      add\n        /* \"#utility.yul\":13237:13256   */\n      swap1\n      pop\n        /* \"#utility.yul\":12896:13262   */\n      swap2\n      swap1\n      pop\n      jump\t// out\n        /* \"#utility.yul\":13268:13687   */\n    tag_98:\n        /* \"#utility.yul\":13434:13438   */\n      0x00\n        /* \"#utility.yul\":13472:13474   */\n      0x20\n        /* \"#utility.yul\":13461:13470   */\n      dup3\n        /* \"#utility.yul\":13457:13475   */\n      add\n        /* \"#utility.yul\":13449:13475   */\n      swap1\n      pop\n        /* \"#utility.yul\":13521:13530   */\n      dup2\n        /* \"#utility.yul\":13515:13519   */\n      dup2\n        /* \"#utility.yul\":13511:13531   */\n      sub\n        /* \"#utility.yul\":13507:13508   */\n      0x00\n        /* \"#utility.yul\":13496:13505   */\n      dup4\n        /* \"#utility.yul\":13492:13509   */\n      add\n        /* \"#utility.yul\":13485:13532   */\n      mstore\n        /* \"#utility.yul\":13549:13680   */\n      tag_318\n        /* \"#utility.yul\":13675:13679   */\n      dup2\n        /* \"#utility.yul\":13549:13680   */\n      tag_210\n      jump\t// in\n    tag_318:\n        /* \"#utility.yul\":13541:13680   */\n      swap1\n      pop\n        /* \"#utility.yul\":13268:13687   */\n      swap2\n      swap1\n      pop\n      jump\t// out\n        /* \"#utility.yul\":13693:13916   */\n    tag_211:\n        /* \"#utility.yul\":13833:13867   */\n      0x4f6e6c7920746865206f776e65722063616e2072756e20746869732066756e63\n        /* \"#utility.yul\":13829:13830   */\n      0x00\n        /* \"#utility.yul\":13821:13827   */\n      dup3\n        /* \"#utility.yul\":13817:13831   */\n      add\n        /* \"#utility.yul\":13810:13868   */\n      mstore\n        /* \"#utility.yul\":13902:13908   */\n      0x74696f6e00000000000000000000000000000000000000000000000000000000\n        /* \"#utility.yul\":13897:13899   */\n      0x20\n        /* \"#utility.yul\":13889:13895   */\n      dup3\n        /* \"#utility.yul\":13885:13900   */\n      add\n        /* \"#utility.yul\":13878:13909   */\n      mstore\n        /* \"#utility.yul\":13693:13916   */\n      pop\n      jump\t// out\n        /* \"#utility.yul\":13922:14288   */\n    tag_212:\n        /* \"#utility.yul\":14064:14067   */\n      0x00\n        /* \"#utility.yul\":14085:14152   */\n      tag_321\n        /* \"#utility.yul\":14149:14151   */\n      0x24\n        /* \"#utility.yul\":14144:14147   */\n      dup4\n        /* \"#utility.yul\":14085:14152   */\n      tag_193\n      jump\t// in\n    tag_321:\n        /* \"#utility.yul\":14078:14152   */\n      swap2\n      pop\n        /* \"#utility.yul\":14161:14254   */\n      tag_322\n        /* \"#utility.yul\":14250:14253   */\n      dup3\n        /* \"#utility.yul\":14161:14254   */\n      tag_211\n      jump\t// in\n    tag_322:\n        /* \"#utility.yul\":14279:14281   */\n      0x40\n        /* \"#utility.yul\":14274:14277   */\n      dup3\n        /* \"#utility.yul\":14270:14282   */\n      add\n        /* \"#utility.yul\":14263:14282   */\n      swap1\n      pop\n        /* \"#utility.yul\":13922:14288   */\n      swap2\n      swap1\n      pop\n      jump\t// out\n        /* \"#utility.yul\":14294:14713   */\n    tag_112:\n        /* \"#utility.yul\":14460:14464   */\n      0x00\n        /* \"#utility.yul\":14498:14500   */\n      0x20\n        /* \"#utility.yul\":14487:14496   */\n      dup3\n        /* \"#utility.yul\":14483:14501   */\n      add\n        /* \"#utility.yul\":14475:14501   */\n      swap1\n      pop\n        /* \"#utility.yul\":14547:14556   */\n      dup2\n        /* \"#utility.yul\":14541:14545   */\n      dup2\n        /* \"#utility.yul\":14537:14557   */\n      sub\n        /* \"#utility.yul\":14533:14534   */\n      0x00\n        /* \"#utility.yul\":14522:14531   */\n      dup4\n        /* \"#utility.yul\":14518:14535   */\n      add\n        /* \"#utility.yul\":14511:14558   */\n      mstore\n        /* \"#utility.yul\":14575:14706   */\n      tag_324\n        /* \"#utility.yul\":14701:14705   */\n      dup2\n        /* \"#utility.yul\":14575:14706   */\n      tag_212\n      jump\t// in\n    tag_324:\n        /* \"#utility.yul\":14567:14706   */\n      swap1\n      pop\n        /* \"#utility.yul\":14294:14713   */\n      swap2\n      swap1\n      pop\n      jump\t// out\n        /* \"#utility.yul\":14719:15129   */\n    tag_172:\n        /* \"#utility.yul\":14759:14766   */\n      0x00\n        /* \"#utility.yul\":14782:14802   */\n      tag_326\n        /* \"#utility.yul\":14800:14801   */\n      dup3\n        /* \"#utility.yul\":14782:14802   */\n      tag_184\n      jump\t// in\n    tag_326:\n        /* \"#utility.yul\":14777:14802   */\n      swap2\n      pop\n        /* \"#utility.yul\":14816:14836   */\n      tag_327\n        /* \"#utility.yul\":14834:14835   */\n      dup4\n        /* \"#utility.yul\":14816:14836   */\n      tag_184\n      jump\t// in\n    tag_327:\n        /* \"#utility.yul\":14811:14836   */\n      swap3\n      pop\n        /* \"#utility.yul\":14871:14872   */\n      dup3\n        /* \"#utility.yul\":14868:14869   */\n      dup3\n        /* \"#utility.yul\":14864:14873   */\n      mul\n        /* \"#utility.yul\":14893:14923   */\n      tag_328\n        /* \"#utility.yul\":14911:14922   */\n      dup2\n        /* \"#utility.yul\":14893:14923   */\n      tag_184\n      jump\t// in\n    tag_328:\n        /* \"#utility.yul\":14882:14923   */\n      swap2\n      pop\n        /* \"#utility.yul\":15072:15073   */\n      dup3\n        /* \"#utility.yul\":15063:15070   */\n      dup3\n        /* \"#utility.yul\":15059:15074   */\n      div\n        /* \"#utility.yul\":15056:15057   */\n      dup5\n        /* \"#utility.yul\":15053:15075   */\n      eq\n        /* \"#utility.yul\":15033:15034   */\n      dup4\n        /* \"#utility.yul\":15026:15035   */\n      iszero\n        /* \"#utility.yul\":15006:15089   */\n      or\n        /* \"#utility.yul\":14983:15122   */\n      tag_329\n      jumpi\n        /* \"#utility.yul\":15102:15120   */\n      tag_330\n      tag_200\n      jump\t// in\n    tag_330:\n        /* \"#utility.yul\":14983:15122   */\n    tag_329:\n        /* \"#utility.yul\":14767:15129   */\n      pop\n        /* \"#utility.yul\":14719:15129   */\n      swap3\n      swap2\n      pop\n      pop\n      jump\t// out\n        /* \"#utility.yul\":15135:15315   */\n    tag_213:\n        /* \"#utility.yul\":15183:15260   */\n      0x4e487b7100000000000000000000000000000000000000000000000000000000\n        /* \"#utility.yul\":15180:15181   */\n      0x00\n        /* \"#utility.yul\":15173:15261   */\n      mstore\n        /* \"#utility.yul\":15280:15284   */\n      0x12\n        /* \"#utility.yul\":15277:15278   */\n      0x04\n        /* \"#utility.yul\":15270:15285   */\n      mstore\n        /* \"#utility.yul\":15304:15308   */\n      0x24\n        /* \"#utility.yul\":15301:15302   */\n      0x00\n        /* \"#utility.yul\":15294:15309   */\n      revert\n        /* \"#utility.yul\":15321:15506   */\n    tag_174:\n        /* \"#utility.yul\":15361:15362   */\n      0x00\n        /* \"#utility.yul\":15378:15398   */\n      tag_333\n        /* \"#utility.yul\":15396:15397   */\n      dup3\n        /* \"#utility.yul\":15378:15398   */\n      tag_184\n      jump\t// in\n    tag_333:\n        /* \"#utility.yul\":15373:15398   */\n      swap2\n      pop\n        /* \"#utility.yul\":15412:15432   */\n      tag_334\n        /* \"#utility.yul\":15430:15431   */\n      dup4\n        /* \"#utility.yul\":15412:15432   */\n      tag_184\n      jump\t// in\n    tag_334:\n        /* \"#utility.yul\":15407:15432   */\n      swap3\n      pop\n        /* \"#utility.yul\":15451:15452   */\n      dup3\n        /* \"#utility.yul\":15441:15476   */\n      tag_335\n      jumpi\n        /* \"#utility.yul\":15456:15474   */\n      tag_336\n      tag_213\n      jump\t// in\n    tag_336:\n        /* \"#utility.yul\":15441:15476   */\n    tag_335:\n        /* \"#utility.yul\":15498:15499   */\n      dup3\n        /* \"#utility.yul\":15495:15496   */\n      dup3\n        /* \"#utility.yul\":15491:15500   */\n      div\n        /* \"#utility.yul\":15486:15500   */\n      swap1\n      pop\n        /* \"#utility.yul\":15321:15506   */\n      swap3\n      swap2\n      pop\n      pop\n      jump\t// out\n\n    auxdata: 0xa2646970667358221220b27fc417ec6060e8c0d3f56807e058af022ca3b42583218ed9af7316f29a457a64736f6c63430008120033\n}\n",
				"bytecode": {
					"linkReferences": {},
					"object": "60c06040523480156200001157600080fd5b503373ffffffffffffffffffffffffffffffffffffffff1660808173ffffffffffffffffffffffffffffffffffffffff16815250504260a0818152505062093a8060a051620000619190620000a6565b600781905550620000e1565b6000819050919050565b7f4e487b7100000000000000000000000000000000000000000000000000000000600052601160045260246000fd5b6000620000b3826200006d565b9150620000c0836200006d565b9250828201905080821115620000db57620000da62000077565b5b92915050565b60805160a0516117ed6200010b6000396000505060008181610a4e0152610df901526117ed6000f3fe6080604052600436106100555760003560e01c80631998aeef1461005a578063464fcd69146100645780634e71d92d1461007b578063534823bf14610092578063590e1ae3146100bd578063b7e03264146100d4575b600080fd5b6100626100ff565b005b34801561007057600080fd5b5061007961049f565b005b34801561008757600080fd5b50610090610752565b005b34801561009e57600080fd5b506100a7610951565b6040516100b491906111da565b60405180910390f35b3480156100c957600080fd5b506100d2610a35565b005b3480156100e057600080fd5b506100e9610f3e565b6040516100f69190611251565b60405180910390f35b6007544210610143576040517f08c379a000000000000000000000000000000000000000000000000000000000815260040161013a906112c9565b60405180910390fd5b60003411610186576040517f08c379a000000000000000000000000000000000000000000000000000000000815260040161017d90611335565b60405180910390fd5b600073ffffffffffffffffffffffffffffffffffffffff163373ffffffffffffffffffffffffffffffffffffffff16036101f5576040517f08c379a00000000000000000000000000000000000000000000000000000000081526004016101ec906113a1565b60405180910390fd5b60003490506000339050600061020f600060010154610fdd565b90508083111561049a57600860008373ffffffffffffffffffffffffffffffffffffffff1673ffffffffffffffffffffffffffffffffffffffff1681526020019081526020016000206000815480929190610269906113f0565b919050555082600060010181905550816000800160006101000a81548173ffffffffffffffffffffffffffffffffffffffff021916908373ffffffffffffffffffffffffffffffffffffffff160217905550600460405180608001604052808473ffffffffffffffffffffffffffffffffffffffff168152602001858152602001600860008673ffffffffffffffffffffffffffffffffffffffff1673ffffffffffffffffffffffffffffffffffffffff16815260200190815260200160002054815260200160001515815250908060018154018082558091505060019003906000526020600020906004020160009091909190915060008201518160000160006101000a81548173ffffffffffffffffffffffffffffffffffffffff021916908373ffffffffffffffffffffffffffffffffffffffff160217905550602082015181600101556040820151816002015560608201518160030160006101000a81548160ff02191690831515021790555050508173ffffffffffffffffffffffffffffffffffffffff167fdeda60fb6e38f55d4ccab679f50f933d04b1dca8584775216dbdac46f251ca4a846040516104229190611447565b60405180910390a260004260075461043a9190611462565b905061025881116104985780600760008282546104579190611496565b925050819055507fc2b459809119087ca9d2bc10dea53a51b7d848b1a11075db037bdca58292c3e860075460405161048f9190611447565b60405180910390a15b505b505050565b60075442106104e3576040517f08c379a00000000000000000000000000000000000000000000000000000000081526004016104da906112c9565b60405180910390fd5b6000600480549050905060005b81811015610691576004818154811061050c5761050b6114ca565b5b906000526020600020906004020160000160009054906101000a900473ffffffffffffffffffffffffffffffffffffffff1673ffffffffffffffffffffffffffffffffffffffff166000800160009054906101000a900473ffffffffffffffffffffffffffffffffffffffff1673ffffffffffffffffffffffffffffffffffffffff161480156105c55750600481815481106105ab576105aa6114ca565b5b906000526020600020906004020160010154600060010154145b61067e57600481815481106105dd576105dc6114ca565b5b906000526020600020906004020160030160009054906101000a900460ff1661067d57600160048281548110610616576106156114ca565b5b906000526020600020906004020160030160006101000a81548160ff02191690831515021790555060048181548110610652576106516114ca565b5b906000526020600020906004020160010154600660008282546106759190611496565b925050819055505b5b8080610689906113f0565b9150506104f0565b5060006006549050600060068190555060003373ffffffffffffffffffffffffffffffffffffffff16826040516106c79061152a565b60006040518083038185875af1925050503d8060008114610704576040519150601f19603f3d011682016040523d82523d6000602084013e610709565b606091505b505090508061074d576040517f08c379a00000000000000000000000000000000000000000000000000000000081526004016107449061158b565b60405180910390fd5b505050565b6007544211610796576040517f08c379a000000000000000000000000000000000000000000000000000000000815260040161078d906115f7565b60405180910390fd5b6000600960003373ffffffffffffffffffffffffffffffffffffffff1673ffffffffffffffffffffffffffffffffffffffff1681526020019081526020016000205411610818576040517f08c379a000000000000000000000000000000000000000000000000000000000815260040161080f90611663565b60405180910390fd5b6000600960003373ffffffffffffffffffffffffffffffffffffffff1673ffffffffffffffffffffffffffffffffffffffff1681526020019081526020016000205490506000600960003373ffffffffffffffffffffffffffffffffffffffff1673ffffffffffffffffffffffffffffffffffffffff1681526020019081526020016000208190555060003373ffffffffffffffffffffffffffffffffffffffff16826040516108c79061152a565b60006040518083038185875af1925050503d8060008114610904576040519150601f19603f3d011682016040523d82523d6000602084013e610909565b606091505b505090508061094d576040517f08c379a00000000000000000000000000000000000000000000000000000000081526004016109449061158b565b60405180910390fd5b5050565b60606004805480602002602001604051908101604052809291908181526020016000905b82821015610a2c57838290600052602060002090600402016040518060800160405290816000820160009054906101000a900473ffffffffffffffffffffffffffffffffffffffff1673ffffffffffffffffffffffffffffffffffffffff1673ffffffffffffffffffffffffffffffffffffffff16815260200160018201548152602001600282015481526020016003820160009054906101000a900460ff16151515158152505081526020019060010190610975565b50505050905090565b3373ffffffffffffffffffffffffffffffffffffffff167f000000000000000000000000000000000000000000000000000000000000000073ffffffffffffffffffffffffffffffffffffffff1614610ac3576040517f08c379a0000000000000000000000000000000000000000000000000000000008152600401610aba906116f5565b60405180910390fd5b6007544211610b07576040517f08c379a0000000000000000000000000000000000000000000000000000000008152600401610afe906115f7565b60405180910390fd5b6000600480549050905060005b81811015610df45760048181548110610b3057610b2f6114ca565b5b906000526020600020906004020160000160009054906101000a900473ffffffffffffffffffffffffffffffffffffffff1673ffffffffffffffffffffffffffffffffffffffff166000800160009054906101000a900473ffffffffffffffffffffffffffffffffffffffff1673ffffffffffffffffffffffffffffffffffffffff16148015610be9575060048181548110610bcf57610bce6114ca565b5b906000526020600020906004020160010154600060010154145b15610c3957610c1c60048281548110610c0557610c046114ca565b5b906000526020600020906004020160010154610fff565b60056000828254610c2d9190611496565b92505081905550610de1565b60048181548110610c4d57610c4c6114ca565b5b906000526020600020906004020160030160009054906101000a900460ff16610de057610c9e60048281548110610c8757610c866114ca565b5b906000526020600020906004020160010154610fff565b60056000828254610caf9190611496565b92505081905550610ce460048281548110610ccd57610ccc6114ca565b5b906000526020600020906004020160010154610fff565b60048281548110610cf857610cf76114ca565b5b90600052602060002090600402016001016000828254610d189190611462565b9250508190555060048181548110610d3357610d326114ca565b5b9060005260206000209060040201600101546009600060048481548110610d5d57610d5c6114ca565b5b906000526020600020906004020160000160009054906101000a900473ffffffffffffffffffffffffffffffffffffffff1673ffffffffffffffffffffffffffffffffffffffff1673ffffffffffffffffffffffffffffffffffffffff1681526020019081526020016000206000828254610dd89190611496565b925050819055505b5b8080610dec906113f0565b915050610b14565b5060007f000000000000000000000000000000000000000000000000000000000000000073ffffffffffffffffffffffffffffffffffffffff16600554604051610e3d9061152a565b60006040518083038185875af1925050503d8060008114610e7a576040519150601f19603f3d011682016040523d82523d6000602084013e610e7f565b606091505b5050905080610ec3576040517f08c379a0000000000000000000000000000000000000000000000000000000008152600401610eba9061158b565b60405180910390fd5b6000800160009054906101000a900473ffffffffffffffffffffffffffffffffffffffff1673ffffffffffffffffffffffffffffffffffffffff167f7a0ca0f54eafb83c8787175794658805fdf3cd42ef7b6d675aa3e3c06ae34758600060010154604051610f329190611447565b60405180910390a25050565b610f46611021565b60006040518060800160405290816000820160009054906101000a900473ffffffffffffffffffffffffffffffffffffffff1673ffffffffffffffffffffffffffffffffffffffff1673ffffffffffffffffffffffffffffffffffffffff16815260200160018201548152602001600282015481526020016003820160009054906101000a900460ff161515151581525050905090565b60006064606983610fee9190611715565b610ff89190611786565b9050919050565b600060646002836110109190611715565b61101a9190611786565b9050919050565b6040518060800160405280600073ffffffffffffffffffffffffffffffffffffffff16815260200160008152602001600081526020016000151581525090565b600081519050919050565b600082825260208201905092915050565b6000819050602082019050919050565b600073ffffffffffffffffffffffffffffffffffffffff82169050919050565b60006110b88261108d565b9050919050565b6110c8816110ad565b82525050565b6000819050919050565b6110e1816110ce565b82525050565b60008115159050919050565b6110fc816110e7565b82525050565b60808201600082015161111860008501826110bf565b50602082015161112b60208501826110d8565b50604082015161113e60408501826110d8565b50606082015161115160608501826110f3565b50505050565b60006111638383611102565b60808301905092915050565b6000602082019050919050565b600061118782611061565b611191818561106c565b935061119c8361107d565b8060005b838110156111cd5781516111b48882611157565b97506111bf8361116f565b9250506001810190506111a0565b5085935050505092915050565b600060208201905081810360008301526111f4818461117c565b905092915050565b60808201600082015161121260008501826110bf565b50602082015161122560208501826110d8565b50604082015161123860408501826110d8565b50606082015161124b60608501826110f3565b50505050565b600060808201905061126660008301846111fc565b92915050565b600082825260208201905092915050565b7f4269642066696e69736865640000000000000000000000000000000000000000600082015250565b60006112b3600c8361126c565b91506112be8261127d565b602082019050919050565b600060208201905081810360008301526112e2816112a6565b9050919050565b7f426964206d7573742062652067726561746572207468616e207a65726f000000600082015250565b600061131f601d8361126c565b915061132a826112e9565b602082019050919050565b6000602082019050818103600083015261134e81611312565b9050919050565b7f496e76616c69642073656e646572206164647265737300000000000000000000600082015250565b600061138b60168361126c565b915061139682611355565b602082019050919050565b600060208201905081810360008301526113ba8161137e565b9050919050565b7f4e487b7100000000000000000000000000000000000000000000000000000000600052601160045260246000fd5b60006113fb826110ce565b91507fffffffffffffffffffffffffffffffffffffffffffffffffffffffffffffffff820361142d5761142c6113c1565b5b600182019050919050565b611441816110ce565b82525050565b600060208201905061145c6000830184611438565b92915050565b600061146d826110ce565b9150611478836110ce565b92508282039050818111156114905761148f6113c1565b5b92915050565b60006114a1826110ce565b91506114ac836110ce565b92508282019050808211156114c4576114c36113c1565b5b92915050565b7f4e487b7100000000000000000000000000000000000000000000000000000000600052603260045260246000fd5b600081905092915050565b50565b60006115146000836114f9565b915061151f82611504565b600082019050919050565b600061153582611507565b9150819050919050565b7f5472616e73666572204661696c65640000000000000000000000000000000000600082015250565b6000611575600f8361126c565b91506115808261153f565b602082019050919050565b600060208201905081810360008301526115a481611568565b9050919050565b7f426964206e6f742066696e697368656420796574000000000000000000000000600082015250565b60006115e160148361126c565b91506115ec826115ab565b602082019050919050565b60006020820190508181036000830152611610816115d4565b9050919050565b7f4e6f2066756e647320746f20636c61696d000000000000000000000000000000600082015250565b600061164d60118361126c565b915061165882611617565b602082019050919050565b6000602082019050818103600083015261167c81611640565b9050919050565b7f4f6e6c7920746865206f776e65722063616e2072756e20746869732066756e6360008201527f74696f6e00000000000000000000000000000000000000000000000000000000602082015250565b60006116df60248361126c565b91506116ea82611683565b604082019050919050565b6000602082019050818103600083015261170e816116d2565b9050919050565b6000611720826110ce565b915061172b836110ce565b9250828202611739816110ce565b915082820484148315176117505761174f6113c1565b5b5092915050565b7f4e487b7100000000000000000000000000000000000000000000000000000000600052601260045260246000fd5b6000611791826110ce565b915061179c836110ce565b9250826117ac576117ab611757565b5b82820490509291505056fea2646970667358221220b27fc417ec6060e8c0d3f56807e058af022ca3b42583218ed9af7316f29a457a64736f6c63430008120033",
					"opcodes": "PUSH1 0xC0 PUSH1 0x40 MSTORE CALLVALUE DUP1 ISZERO PUSH3 0x11 JUMPI PUSH1 0x0 DUP1 REVERT JUMPDEST POP CALLER PUSH20 0xFFFFFFFFFFFFFFFFFFFFFFFFFFFFFFFFFFFFFFFF AND PUSH1 0x80 DUP2 PUSH20 0xFFFFFFFFFFFFFFFFFFFFFFFFFFFFFFFFFFFFFFFF AND DUP2 MSTORE POP POP TIMESTAMP PUSH1 0xA0 DUP2 DUP2 MSTORE POP POP PUSH3 0x93A80 PUSH1 0xA0 MLOAD PUSH3 0x61 SWAP2 SWAP1 PUSH3 0xA6 JUMP JUMPDEST PUSH1 0x7 DUP2 SWAP1 SSTORE POP PUSH3 0xE1 JUMP JUMPDEST PUSH1 0x0 DUP2 SWAP1 POP SWAP2 SWAP1 POP JUMP JUMPDEST PUSH32 0x4E487B7100000000000000000000000000000000000000000000000000000000 PUSH1 0x0 MSTORE PUSH1 0x11 PUSH1 0x4 MSTORE PUSH1 0x24 PUSH1 0x0 REVERT JUMPDEST PUSH1 0x0 PUSH3 0xB3 DUP3 PUSH3 0x6D JUMP JUMPDEST SWAP2 POP PUSH3 0xC0 DUP4 PUSH3 0x6D JUMP JUMPDEST SWAP3 POP DUP3 DUP3 ADD SWAP1 POP DUP1 DUP3 GT ISZERO PUSH3 0xDB JUMPI PUSH3 0xDA PUSH3 0x77 JUMP JUMPDEST JUMPDEST SWAP3 SWAP2 POP POP JUMP JUMPDEST PUSH1 0x80 MLOAD PUSH1 0xA0 MLOAD PUSH2 0x17ED PUSH3 0x10B PUSH1 0x0 CODECOPY PUSH1 0x0 POP POP PUSH1 0x0 DUP2 DUP2 PUSH2 0xA4E ADD MSTORE PUSH2 0xDF9 ADD MSTORE PUSH2 0x17ED PUSH1 0x0 RETURN INVALID PUSH1 0x80 PUSH1 0x40 MSTORE PUSH1 0x4 CALLDATASIZE LT PUSH2 0x55 JUMPI PUSH1 0x0 CALLDATALOAD PUSH1 0xE0 SHR DUP1 PUSH4 0x1998AEEF EQ PUSH2 0x5A JUMPI DUP1 PUSH4 0x464FCD69 EQ PUSH2 0x64 JUMPI DUP1 PUSH4 0x4E71D92D EQ PUSH2 0x7B JUMPI DUP1 PUSH4 0x534823BF EQ PUSH2 0x92 JUMPI DUP1 PUSH4 0x590E1AE3 EQ PUSH2 0xBD JUMPI DUP1 PUSH4 0xB7E03264 EQ PUSH2 0xD4 JUMPI JUMPDEST PUSH1 0x0 DUP1 REVERT JUMPDEST PUSH2 0x62 PUSH2 0xFF JUMP JUMPDEST STOP JUMPDEST CALLVALUE DUP1 ISZERO PUSH2 0x70 JUMPI PUSH1 0x0 DUP1 REVERT JUMPDEST POP PUSH2 0x79 PUSH2 0x49F JUMP JUMPDEST STOP JUMPDEST CALLVALUE DUP1 ISZERO PUSH2 0x87 JUMPI PUSH1 0x0 DUP1 REVERT JUMPDEST POP PUSH2 0x90 PUSH2 0x752 JUMP JUMPDEST STOP JUMPDEST CALLVALUE DUP1 ISZERO PUSH2 0x9E JUMPI PUSH1 0x0 DUP1 REVERT JUMPDEST POP PUSH2 0xA7 PUSH2 0x951 JUMP JUMPDEST PUSH1 0x40 MLOAD PUSH2 0xB4 SWAP2 SWAP1 PUSH2 0x11DA JUMP JUMPDEST PUSH1 0x40 MLOAD DUP1 SWAP2 SUB SWAP1 RETURN JUMPDEST CALLVALUE DUP1 ISZERO PUSH2 0xC9 JUMPI PUSH1 0x0 DUP1 REVERT JUMPDEST POP PUSH2 0xD2 PUSH2 0xA35 JUMP JUMPDEST STOP JUMPDEST CALLVALUE DUP1 ISZERO PUSH2 0xE0 JUMPI PUSH1 0x0 DUP1 REVERT JUMPDEST POP PUSH2 0xE9 PUSH2 0xF3E JUMP JUMPDEST PUSH1 0x40 MLOAD PUSH2 0xF6 SWAP2 SWAP1 PUSH2 0x1251 JUMP JUMPDEST PUSH1 0x40 MLOAD DUP1 SWAP2 SUB SWAP1 RETURN JUMPDEST PUSH1 0x7 SLOAD TIMESTAMP LT PUSH2 0x143 JUMPI PUSH1 0x40 MLOAD PUSH32 0x8C379A000000000000000000000000000000000000000000000000000000000 DUP2 MSTORE PUSH1 0x4 ADD PUSH2 0x13A SWAP1 PUSH2 0x12C9 JUMP JUMPDEST PUSH1 0x40 MLOAD DUP1 SWAP2 SUB SWAP1 REVERT JUMPDEST PUSH1 0x0 CALLVALUE GT PUSH2 0x186 JUMPI PUSH1 0x40 MLOAD PUSH32 0x8C379A000000000000000000000000000000000000000000000000000000000 DUP2 MSTORE PUSH1 0x4 ADD PUSH2 0x17D SWAP1 PUSH2 0x1335 JUMP JUMPDEST PUSH1 0x40 MLOAD DUP1 SWAP2 SUB SWAP1 REVERT JUMPDEST PUSH1 0x0 PUSH20 0xFFFFFFFFFFFFFFFFFFFFFFFFFFFFFFFFFFFFFFFF AND CALLER PUSH20 0xFFFFFFFFFFFFFFFFFFFFFFFFFFFFFFFFFFFFFFFF AND SUB PUSH2 0x1F5 JUMPI PUSH1 0x40 MLOAD PUSH32 0x8C379A000000000000000000000000000000000000000000000000000000000 DUP2 MSTORE PUSH1 0x4 ADD PUSH2 0x1EC SWAP1 PUSH2 0x13A1 JUMP JUMPDEST PUSH1 0x40 MLOAD DUP1 SWAP2 SUB SWAP1 REVERT JUMPDEST PUSH1 0x0 CALLVALUE SWAP1 POP PUSH1 0x0 CALLER SWAP1 POP PUSH1 0x0 PUSH2 0x20F PUSH1 0x0 PUSH1 0x1 ADD SLOAD PUSH2 0xFDD JUMP JUMPDEST SWAP1 POP DUP1 DUP4 GT ISZERO PUSH2 0x49A JUMPI PUSH1 0x8 PUSH1 0x0 DUP4 PUSH20 0xFFFFFFFFFFFFFFFFFFFFFFFFFFFFFFFFFFFFFFFF AND PUSH20 0xFFFFFFFFFFFFFFFFFFFFFFFFFFFFFFFFFFFFFFFF AND DUP2 MSTORE PUSH1 0x20 ADD SWAP1 DUP2 MSTORE PUSH1 0x20 ADD PUSH1 0x0 KECCAK256 PUSH1 0x0 DUP2 SLOAD DUP1 SWAP3 SWAP2 SWAP1 PUSH2 0x269 SWAP1 PUSH2 0x13F0 JUMP JUMPDEST SWAP2 SWAP1 POP SSTORE POP DUP3 PUSH1 0x0 PUSH1 0x1 ADD DUP2 SWAP1 SSTORE POP DUP2 PUSH1 0x0 DUP1 ADD PUSH1 0x0 PUSH2 0x100 EXP DUP2 SLOAD DUP2 PUSH20 0xFFFFFFFFFFFFFFFFFFFFFFFFFFFFFFFFFFFFFFFF MUL NOT AND SWAP1 DUP4 PUSH20 0xFFFFFFFFFFFFFFFFFFFFFFFFFFFFFFFFFFFFFFFF AND MUL OR SWAP1 SSTORE POP PUSH1 0x4 PUSH1 0x40 MLOAD DUP1 PUSH1 0x80 ADD PUSH1 0x40 MSTORE DUP1 DUP5 PUSH20 0xFFFFFFFFFFFFFFFFFFFFFFFFFFFFFFFFFFFFFFFF AND DUP2 MSTORE PUSH1 0x20 ADD DUP6 DUP2 MSTORE PUSH1 0x20 ADD PUSH1 0x8 PUSH1 0x0 DUP7 PUSH20 0xFFFFFFFFFFFFFFFFFFFFFFFFFFFFFFFFFFFFFFFF AND PUSH20 0xFFFFFFFFFFFFFFFFFFFFFFFFFFFFFFFFFFFFFFFF AND DUP2 MSTORE PUSH1 0x20 ADD SWAP1 DUP2 MSTORE PUSH1 0x20 ADD PUSH1 0x0 KECCAK256 SLOAD DUP2 MSTORE PUSH1 0x20 ADD PUSH1 0x0 ISZERO ISZERO DUP2 MSTORE POP SWAP1 DUP1 PUSH1 0x1 DUP2 SLOAD ADD DUP1 DUP3 SSTORE DUP1 SWAP2 POP POP PUSH1 0x1 SWAP1 SUB SWAP1 PUSH1 0x0 MSTORE PUSH1 0x20 PUSH1 0x0 KECCAK256 SWAP1 PUSH1 0x4 MUL ADD PUSH1 0x0 SWAP1 SWAP2 SWAP1 SWAP2 SWAP1 SWAP2 POP PUSH1 0x0 DUP3 ADD MLOAD DUP2 PUSH1 0x0 ADD PUSH1 0x0 PUSH2 0x100 EXP DUP2 SLOAD DUP2 PUSH20 0xFFFFFFFFFFFFFFFFFFFFFFFFFFFFFFFFFFFFFFFF MUL NOT AND SWAP1 DUP4 PUSH20 0xFFFFFFFFFFFFFFFFFFFFFFFFFFFFFFFFFFFFFFFF AND MUL OR SWAP1 SSTORE POP PUSH1 0x20 DUP3 ADD MLOAD DUP2 PUSH1 0x1 ADD SSTORE PUSH1 0x40 DUP3 ADD MLOAD DUP2 PUSH1 0x2 ADD SSTORE PUSH1 0x60 DUP3 ADD MLOAD DUP2 PUSH1 0x3 ADD PUSH1 0x0 PUSH2 0x100 EXP DUP2 SLOAD DUP2 PUSH1 0xFF MUL NOT AND SWAP1 DUP4 ISZERO ISZERO MUL OR SWAP1 SSTORE POP POP POP DUP2 PUSH20 0xFFFFFFFFFFFFFFFFFFFFFFFFFFFFFFFFFFFFFFFF AND PUSH32 0xDEDA60FB6E38F55D4CCAB679F50F933D04B1DCA8584775216DBDAC46F251CA4A DUP5 PUSH1 0x40 MLOAD PUSH2 0x422 SWAP2 SWAP1 PUSH2 0x1447 JUMP JUMPDEST PUSH1 0x40 MLOAD DUP1 SWAP2 SUB SWAP1 LOG2 PUSH1 0x0 TIMESTAMP PUSH1 0x7 SLOAD PUSH2 0x43A SWAP2 SWAP1 PUSH2 0x1462 JUMP JUMPDEST SWAP1 POP PUSH2 0x258 DUP2 GT PUSH2 0x498 JUMPI DUP1 PUSH1 0x7 PUSH1 0x0 DUP3 DUP3 SLOAD PUSH2 0x457 SWAP2 SWAP1 PUSH2 0x1496 JUMP JUMPDEST SWAP3 POP POP DUP2 SWAP1 SSTORE POP PUSH32 0xC2B459809119087CA9D2BC10DEA53A51B7D848B1A11075DB037BDCA58292C3E8 PUSH1 0x7 SLOAD PUSH1 0x40 MLOAD PUSH2 0x48F SWAP2 SWAP1 PUSH2 0x1447 JUMP JUMPDEST PUSH1 0x40 MLOAD DUP1 SWAP2 SUB SWAP1 LOG1 JUMPDEST POP JUMPDEST POP POP POP JUMP JUMPDEST PUSH1 0x7 SLOAD TIMESTAMP LT PUSH2 0x4E3 JUMPI PUSH1 0x40 MLOAD PUSH32 0x8C379A000000000000000000000000000000000000000000000000000000000 DUP2 MSTORE PUSH1 0x4 ADD PUSH2 0x4DA SWAP1 PUSH2 0x12C9 JUMP JUMPDEST PUSH1 0x40 MLOAD DUP1 SWAP2 SUB SWAP1 REVERT JUMPDEST PUSH1 0x0 PUSH1 0x4 DUP1 SLOAD SWAP1 POP SWAP1 POP PUSH1 0x0 JUMPDEST DUP2 DUP2 LT ISZERO PUSH2 0x691 JUMPI PUSH1 0x4 DUP2 DUP2 SLOAD DUP2 LT PUSH2 0x50C JUMPI PUSH2 0x50B PUSH2 0x14CA JUMP JUMPDEST JUMPDEST SWAP1 PUSH1 0x0 MSTORE PUSH1 0x20 PUSH1 0x0 KECCAK256 SWAP1 PUSH1 0x4 MUL ADD PUSH1 0x0 ADD PUSH1 0x0 SWAP1 SLOAD SWAP1 PUSH2 0x100 EXP SWAP1 DIV PUSH20 0xFFFFFFFFFFFFFFFFFFFFFFFFFFFFFFFFFFFFFFFF AND PUSH20 0xFFFFFFFFFFFFFFFFFFFFFFFFFFFFFFFFFFFFFFFF AND PUSH1 0x0 DUP1 ADD PUSH1 0x0 SWAP1 SLOAD SWAP1 PUSH2 0x100 EXP SWAP1 DIV PUSH20 0xFFFFFFFFFFFFFFFFFFFFFFFFFFFFFFFFFFFFFFFF AND PUSH20 0xFFFFFFFFFFFFFFFFFFFFFFFFFFFFFFFFFFFFFFFF AND EQ DUP1 ISZERO PUSH2 0x5C5 JUMPI POP PUSH1 0x4 DUP2 DUP2 SLOAD DUP2 LT PUSH2 0x5AB JUMPI PUSH2 0x5AA PUSH2 0x14CA JUMP JUMPDEST JUMPDEST SWAP1 PUSH1 0x0 MSTORE PUSH1 0x20 PUSH1 0x0 KECCAK256 SWAP1 PUSH1 0x4 MUL ADD PUSH1 0x1 ADD SLOAD PUSH1 0x0 PUSH1 0x1 ADD SLOAD EQ JUMPDEST PUSH2 0x67E JUMPI PUSH1 0x4 DUP2 DUP2 SLOAD DUP2 LT PUSH2 0x5DD JUMPI PUSH2 0x5DC PUSH2 0x14CA JUMP JUMPDEST JUMPDEST SWAP1 PUSH1 0x0 MSTORE PUSH1 0x20 PUSH1 0x0 KECCAK256 SWAP1 PUSH1 0x4 MUL ADD PUSH1 0x3 ADD PUSH1 0x0 SWAP1 SLOAD SWAP1 PUSH2 0x100 EXP SWAP1 DIV PUSH1 0xFF AND PUSH2 0x67D JUMPI PUSH1 0x1 PUSH1 0x4 DUP3 DUP2 SLOAD DUP2 LT PUSH2 0x616 JUMPI PUSH2 0x615 PUSH2 0x14CA JUMP JUMPDEST JUMPDEST SWAP1 PUSH1 0x0 MSTORE PUSH1 0x20 PUSH1 0x0 KECCAK256 SWAP1 PUSH1 0x4 MUL ADD PUSH1 0x3 ADD PUSH1 0x0 PUSH2 0x100 EXP DUP2 SLOAD DUP2 PUSH1 0xFF MUL NOT AND SWAP1 DUP4 ISZERO ISZERO MUL OR SWAP1 SSTORE POP PUSH1 0x4 DUP2 DUP2 SLOAD DUP2 LT PUSH2 0x652 JUMPI PUSH2 0x651 PUSH2 0x14CA JUMP JUMPDEST JUMPDEST SWAP1 PUSH1 0x0 MSTORE PUSH1 0x20 PUSH1 0x0 KECCAK256 SWAP1 PUSH1 0x4 MUL ADD PUSH1 0x1 ADD SLOAD PUSH1 0x6 PUSH1 0x0 DUP3 DUP3 SLOAD PUSH2 0x675 SWAP2 SWAP1 PUSH2 0x1496 JUMP JUMPDEST SWAP3 POP POP DUP2 SWAP1 SSTORE POP JUMPDEST JUMPDEST DUP1 DUP1 PUSH2 0x689 SWAP1 PUSH2 0x13F0 JUMP JUMPDEST SWAP2 POP POP PUSH2 0x4F0 JUMP JUMPDEST POP PUSH1 0x0 PUSH1 0x6 SLOAD SWAP1 POP PUSH1 0x0 PUSH1 0x6 DUP2 SWAP1 SSTORE POP PUSH1 0x0 CALLER PUSH20 0xFFFFFFFFFFFFFFFFFFFFFFFFFFFFFFFFFFFFFFFF AND DUP3 PUSH1 0x40 MLOAD PUSH2 0x6C7 SWAP1 PUSH2 0x152A JUMP JUMPDEST PUSH1 0x0 PUSH1 0x40 MLOAD DUP1 DUP4 SUB DUP2 DUP6 DUP8 GAS CALL SWAP3 POP POP POP RETURNDATASIZE DUP1 PUSH1 0x0 DUP2 EQ PUSH2 0x704 JUMPI PUSH1 0x40 MLOAD SWAP2 POP PUSH1 0x1F NOT PUSH1 0x3F RETURNDATASIZE ADD AND DUP3 ADD PUSH1 0x40 MSTORE RETURNDATASIZE DUP3 MSTORE RETURNDATASIZE PUSH1 0x0 PUSH1 0x20 DUP5 ADD RETURNDATACOPY PUSH2 0x709 JUMP JUMPDEST PUSH1 0x60 SWAP2 POP JUMPDEST POP POP SWAP1 POP DUP1 PUSH2 0x74D JUMPI PUSH1 0x40 MLOAD PUSH32 0x8C379A000000000000000000000000000000000000000000000000000000000 DUP2 MSTORE PUSH1 0x4 ADD PUSH2 0x744 SWAP1 PUSH2 0x158B JUMP JUMPDEST PUSH1 0x40 MLOAD DUP1 SWAP2 SUB SWAP1 REVERT JUMPDEST POP POP POP JUMP JUMPDEST PUSH1 0x7 SLOAD TIMESTAMP GT PUSH2 0x796 JUMPI PUSH1 0x40 MLOAD PUSH32 0x8C379A000000000000000000000000000000000000000000000000000000000 DUP2 MSTORE PUSH1 0x4 ADD PUSH2 0x78D SWAP1 PUSH2 0x15F7 JUMP JUMPDEST PUSH1 0x40 MLOAD DUP1 SWAP2 SUB SWAP1 REVERT JUMPDEST PUSH1 0x0 PUSH1 0x9 PUSH1 0x0 CALLER PUSH20 0xFFFFFFFFFFFFFFFFFFFFFFFFFFFFFFFFFFFFFFFF AND PUSH20 0xFFFFFFFFFFFFFFFFFFFFFFFFFFFFFFFFFFFFFFFF AND DUP2 MSTORE PUSH1 0x20 ADD SWAP1 DUP2 MSTORE PUSH1 0x20 ADD PUSH1 0x0 KECCAK256 SLOAD GT PUSH2 0x818 JUMPI PUSH1 0x40 MLOAD PUSH32 0x8C379A000000000000000000000000000000000000000000000000000000000 DUP2 MSTORE PUSH1 0x4 ADD PUSH2 0x80F SWAP1 PUSH2 0x1663 JUMP JUMPDEST PUSH1 0x40 MLOAD DUP1 SWAP2 SUB SWAP1 REVERT JUMPDEST PUSH1 0x0 PUSH1 0x9 PUSH1 0x0 CALLER PUSH20 0xFFFFFFFFFFFFFFFFFFFFFFFFFFFFFFFFFFFFFFFF AND PUSH20 0xFFFFFFFFFFFFFFFFFFFFFFFFFFFFFFFFFFFFFFFF AND DUP2 MSTORE PUSH1 0x20 ADD SWAP1 DUP2 MSTORE PUSH1 0x20 ADD PUSH1 0x0 KECCAK256 SLOAD SWAP1 POP PUSH1 0x0 PUSH1 0x9 PUSH1 0x0 CALLER PUSH20 0xFFFFFFFFFFFFFFFFFFFFFFFFFFFFFFFFFFFFFFFF AND PUSH20 0xFFFFFFFFFFFFFFFFFFFFFFFFFFFFFFFFFFFFFFFF AND DUP2 MSTORE PUSH1 0x20 ADD SWAP1 DUP2 MSTORE PUSH1 0x20 ADD PUSH1 0x0 KECCAK256 DUP2 SWAP1 SSTORE POP PUSH1 0x0 CALLER PUSH20 0xFFFFFFFFFFFFFFFFFFFFFFFFFFFFFFFFFFFFFFFF AND DUP3 PUSH1 0x40 MLOAD PUSH2 0x8C7 SWAP1 PUSH2 0x152A JUMP JUMPDEST PUSH1 0x0 PUSH1 0x40 MLOAD DUP1 DUP4 SUB DUP2 DUP6 DUP8 GAS CALL SWAP3 POP POP POP RETURNDATASIZE DUP1 PUSH1 0x0 DUP2 EQ PUSH2 0x904 JUMPI PUSH1 0x40 MLOAD SWAP2 POP PUSH1 0x1F NOT PUSH1 0x3F RETURNDATASIZE ADD AND DUP3 ADD PUSH1 0x40 MSTORE RETURNDATASIZE DUP3 MSTORE RETURNDATASIZE PUSH1 0x0 PUSH1 0x20 DUP5 ADD RETURNDATACOPY PUSH2 0x909 JUMP JUMPDEST PUSH1 0x60 SWAP2 POP JUMPDEST POP POP SWAP1 POP DUP1 PUSH2 0x94D JUMPI PUSH1 0x40 MLOAD PUSH32 0x8C379A000000000000000000000000000000000000000000000000000000000 DUP2 MSTORE PUSH1 0x4 ADD PUSH2 0x944 SWAP1 PUSH2 0x158B JUMP JUMPDEST PUSH1 0x40 MLOAD DUP1 SWAP2 SUB SWAP1 REVERT JUMPDEST POP POP JUMP JUMPDEST PUSH1 0x60 PUSH1 0x4 DUP1 SLOAD DUP1 PUSH1 0x20 MUL PUSH1 0x20 ADD PUSH1 0x40 MLOAD SWAP1 DUP2 ADD PUSH1 0x40 MSTORE DUP1 SWAP3 SWAP2 SWAP1 DUP2 DUP2 MSTORE PUSH1 0x20 ADD PUSH1 0x0 SWAP1 JUMPDEST DUP3 DUP3 LT ISZERO PUSH2 0xA2C JUMPI DUP4 DUP3 SWAP1 PUSH1 0x0 MSTORE PUSH1 0x20 PUSH1 0x0 KECCAK256 SWAP1 PUSH1 0x4 MUL ADD PUSH1 0x40 MLOAD DUP1 PUSH1 0x80 ADD PUSH1 0x40 MSTORE SWAP1 DUP2 PUSH1 0x0 DUP3 ADD PUSH1 0x0 SWAP1 SLOAD SWAP1 PUSH2 0x100 EXP SWAP1 DIV PUSH20 0xFFFFFFFFFFFFFFFFFFFFFFFFFFFFFFFFFFFFFFFF AND PUSH20 0xFFFFFFFFFFFFFFFFFFFFFFFFFFFFFFFFFFFFFFFF AND PUSH20 0xFFFFFFFFFFFFFFFFFFFFFFFFFFFFFFFFFFFFFFFF AND DUP2 MSTORE PUSH1 0x20 ADD PUSH1 0x1 DUP3 ADD SLOAD DUP2 MSTORE PUSH1 0x20 ADD PUSH1 0x2 DUP3 ADD SLOAD DUP2 MSTORE PUSH1 0x20 ADD PUSH1 0x3 DUP3 ADD PUSH1 0x0 SWAP1 SLOAD SWAP1 PUSH2 0x100 EXP SWAP1 DIV PUSH1 0xFF AND ISZERO ISZERO ISZERO ISZERO DUP2 MSTORE POP POP DUP2 MSTORE PUSH1 0x20 ADD SWAP1 PUSH1 0x1 ADD SWAP1 PUSH2 0x975 JUMP JUMPDEST POP POP POP POP SWAP1 POP SWAP1 JUMP JUMPDEST CALLER PUSH20 0xFFFFFFFFFFFFFFFFFFFFFFFFFFFFFFFFFFFFFFFF AND PUSH32 0x0 PUSH20 0xFFFFFFFFFFFFFFFFFFFFFFFFFFFFFFFFFFFFFFFF AND EQ PUSH2 0xAC3 JUMPI PUSH1 0x40 MLOAD PUSH32 0x8C379A000000000000000000000000000000000000000000000000000000000 DUP2 MSTORE PUSH1 0x4 ADD PUSH2 0xABA SWAP1 PUSH2 0x16F5 JUMP JUMPDEST PUSH1 0x40 MLOAD DUP1 SWAP2 SUB SWAP1 REVERT JUMPDEST PUSH1 0x7 SLOAD TIMESTAMP GT PUSH2 0xB07 JUMPI PUSH1 0x40 MLOAD PUSH32 0x8C379A000000000000000000000000000000000000000000000000000000000 DUP2 MSTORE PUSH1 0x4 ADD PUSH2 0xAFE SWAP1 PUSH2 0x15F7 JUMP JUMPDEST PUSH1 0x40 MLOAD DUP1 SWAP2 SUB SWAP1 REVERT JUMPDEST PUSH1 0x0 PUSH1 0x4 DUP1 SLOAD SWAP1 POP SWAP1 POP PUSH1 0x0 JUMPDEST DUP2 DUP2 LT ISZERO PUSH2 0xDF4 JUMPI PUSH1 0x4 DUP2 DUP2 SLOAD DUP2 LT PUSH2 0xB30 JUMPI PUSH2 0xB2F PUSH2 0x14CA JUMP JUMPDEST JUMPDEST SWAP1 PUSH1 0x0 MSTORE PUSH1 0x20 PUSH1 0x0 KECCAK256 SWAP1 PUSH1 0x4 MUL ADD PUSH1 0x0 ADD PUSH1 0x0 SWAP1 SLOAD SWAP1 PUSH2 0x100 EXP SWAP1 DIV PUSH20 0xFFFFFFFFFFFFFFFFFFFFFFFFFFFFFFFFFFFFFFFF AND PUSH20 0xFFFFFFFFFFFFFFFFFFFFFFFFFFFFFFFFFFFFFFFF AND PUSH1 0x0 DUP1 ADD PUSH1 0x0 SWAP1 SLOAD SWAP1 PUSH2 0x100 EXP SWAP1 DIV PUSH20 0xFFFFFFFFFFFFFFFFFFFFFFFFFFFFFFFFFFFFFFFF AND PUSH20 0xFFFFFFFFFFFFFFFFFFFFFFFFFFFFFFFFFFFFFFFF AND EQ DUP1 ISZERO PUSH2 0xBE9 JUMPI POP PUSH1 0x4 DUP2 DUP2 SLOAD DUP2 LT PUSH2 0xBCF JUMPI PUSH2 0xBCE PUSH2 0x14CA JUMP JUMPDEST JUMPDEST SWAP1 PUSH1 0x0 MSTORE PUSH1 0x20 PUSH1 0x0 KECCAK256 SWAP1 PUSH1 0x4 MUL ADD PUSH1 0x1 ADD SLOAD PUSH1 0x0 PUSH1 0x1 ADD SLOAD EQ JUMPDEST ISZERO PUSH2 0xC39 JUMPI PUSH2 0xC1C PUSH1 0x4 DUP3 DUP2 SLOAD DUP2 LT PUSH2 0xC05 JUMPI PUSH2 0xC04 PUSH2 0x14CA JUMP JUMPDEST JUMPDEST SWAP1 PUSH1 0x0 MSTORE PUSH1 0x20 PUSH1 0x0 KECCAK256 SWAP1 PUSH1 0x4 MUL ADD PUSH1 0x1 ADD SLOAD PUSH2 0xFFF JUMP JUMPDEST PUSH1 0x5 PUSH1 0x0 DUP3 DUP3 SLOAD PUSH2 0xC2D SWAP2 SWAP1 PUSH2 0x1496 JUMP JUMPDEST SWAP3 POP POP DUP2 SWAP1 SSTORE POP PUSH2 0xDE1 JUMP JUMPDEST PUSH1 0x4 DUP2 DUP2 SLOAD DUP2 LT PUSH2 0xC4D JUMPI PUSH2 0xC4C PUSH2 0x14CA JUMP JUMPDEST JUMPDEST SWAP1 PUSH1 0x0 MSTORE PUSH1 0x20 PUSH1 0x0 KECCAK256 SWAP1 PUSH1 0x4 MUL ADD PUSH1 0x3 ADD PUSH1 0x0 SWAP1 SLOAD SWAP1 PUSH2 0x100 EXP SWAP1 DIV PUSH1 0xFF AND PUSH2 0xDE0 JUMPI PUSH2 0xC9E PUSH1 0x4 DUP3 DUP2 SLOAD DUP2 LT PUSH2 0xC87 JUMPI PUSH2 0xC86 PUSH2 0x14CA JUMP JUMPDEST JUMPDEST SWAP1 PUSH1 0x0 MSTORE PUSH1 0x20 PUSH1 0x0 KECCAK256 SWAP1 PUSH1 0x4 MUL ADD PUSH1 0x1 ADD SLOAD PUSH2 0xFFF JUMP JUMPDEST PUSH1 0x5 PUSH1 0x0 DUP3 DUP3 SLOAD PUSH2 0xCAF SWAP2 SWAP1 PUSH2 0x1496 JUMP JUMPDEST SWAP3 POP POP DUP2 SWAP1 SSTORE POP PUSH2 0xCE4 PUSH1 0x4 DUP3 DUP2 SLOAD DUP2 LT PUSH2 0xCCD JUMPI PUSH2 0xCCC PUSH2 0x14CA JUMP JUMPDEST JUMPDEST SWAP1 PUSH1 0x0 MSTORE PUSH1 0x20 PUSH1 0x0 KECCAK256 SWAP1 PUSH1 0x4 MUL ADD PUSH1 0x1 ADD SLOAD PUSH2 0xFFF JUMP JUMPDEST PUSH1 0x4 DUP3 DUP2 SLOAD DUP2 LT PUSH2 0xCF8 JUMPI PUSH2 0xCF7 PUSH2 0x14CA JUMP JUMPDEST JUMPDEST SWAP1 PUSH1 0x0 MSTORE PUSH1 0x20 PUSH1 0x0 KECCAK256 SWAP1 PUSH1 0x4 MUL ADD PUSH1 0x1 ADD PUSH1 0x0 DUP3 DUP3 SLOAD PUSH2 0xD18 SWAP2 SWAP1 PUSH2 0x1462 JUMP JUMPDEST SWAP3 POP POP DUP2 SWAP1 SSTORE POP PUSH1 0x4 DUP2 DUP2 SLOAD DUP2 LT PUSH2 0xD33 JUMPI PUSH2 0xD32 PUSH2 0x14CA JUMP JUMPDEST JUMPDEST SWAP1 PUSH1 0x0 MSTORE PUSH1 0x20 PUSH1 0x0 KECCAK256 SWAP1 PUSH1 0x4 MUL ADD PUSH1 0x1 ADD SLOAD PUSH1 0x9 PUSH1 0x0 PUSH1 0x4 DUP5 DUP2 SLOAD DUP2 LT PUSH2 0xD5D JUMPI PUSH2 0xD5C PUSH2 0x14CA JUMP JUMPDEST JUMPDEST SWAP1 PUSH1 0x0 MSTORE PUSH1 0x20 PUSH1 0x0 KECCAK256 SWAP1 PUSH1 0x4 MUL ADD PUSH1 0x0 ADD PUSH1 0x0 SWAP1 SLOAD SWAP1 PUSH2 0x100 EXP SWAP1 DIV PUSH20 0xFFFFFFFFFFFFFFFFFFFFFFFFFFFFFFFFFFFFFFFF AND PUSH20 0xFFFFFFFFFFFFFFFFFFFFFFFFFFFFFFFFFFFFFFFF AND PUSH20 0xFFFFFFFFFFFFFFFFFFFFFFFFFFFFFFFFFFFFFFFF AND DUP2 MSTORE PUSH1 0x20 ADD SWAP1 DUP2 MSTORE PUSH1 0x20 ADD PUSH1 0x0 KECCAK256 PUSH1 0x0 DUP3 DUP3 SLOAD PUSH2 0xDD8 SWAP2 SWAP1 PUSH2 0x1496 JUMP JUMPDEST SWAP3 POP POP DUP2 SWAP1 SSTORE POP JUMPDEST JUMPDEST DUP1 DUP1 PUSH2 0xDEC SWAP1 PUSH2 0x13F0 JUMP JUMPDEST SWAP2 POP POP PUSH2 0xB14 JUMP JUMPDEST POP PUSH1 0x0 PUSH32 0x0 PUSH20 0xFFFFFFFFFFFFFFFFFFFFFFFFFFFFFFFFFFFFFFFF AND PUSH1 0x5 SLOAD PUSH1 0x40 MLOAD PUSH2 0xE3D SWAP1 PUSH2 0x152A JUMP JUMPDEST PUSH1 0x0 PUSH1 0x40 MLOAD DUP1 DUP4 SUB DUP2 DUP6 DUP8 GAS CALL SWAP3 POP POP POP RETURNDATASIZE DUP1 PUSH1 0x0 DUP2 EQ PUSH2 0xE7A JUMPI PUSH1 0x40 MLOAD SWAP2 POP PUSH1 0x1F NOT PUSH1 0x3F RETURNDATASIZE ADD AND DUP3 ADD PUSH1 0x40 MSTORE RETURNDATASIZE DUP3 MSTORE RETURNDATASIZE PUSH1 0x0 PUSH1 0x20 DUP5 ADD RETURNDATACOPY PUSH2 0xE7F JUMP JUMPDEST PUSH1 0x60 SWAP2 POP JUMPDEST POP POP SWAP1 POP DUP1 PUSH2 0xEC3 JUMPI PUSH1 0x40 MLOAD PUSH32 0x8C379A000000000000000000000000000000000000000000000000000000000 DUP2 MSTORE PUSH1 0x4 ADD PUSH2 0xEBA SWAP1 PUSH2 0x158B JUMP JUMPDEST PUSH1 0x40 MLOAD DUP1 SWAP2 SUB SWAP1 REVERT JUMPDEST PUSH1 0x0 DUP1 ADD PUSH1 0x0 SWAP1 SLOAD SWAP1 PUSH2 0x100 EXP SWAP1 DIV PUSH20 0xFFFFFFFFFFFFFFFFFFFFFFFFFFFFFFFFFFFFFFFF AND PUSH20 0xFFFFFFFFFFFFFFFFFFFFFFFFFFFFFFFFFFFFFFFF AND PUSH32 0x7A0CA0F54EAFB83C8787175794658805FDF3CD42EF7B6D675AA3E3C06AE34758 PUSH1 0x0 PUSH1 0x1 ADD SLOAD PUSH1 0x40 MLOAD PUSH2 0xF32 SWAP2 SWAP1 PUSH2 0x1447 JUMP JUMPDEST PUSH1 0x40 MLOAD DUP1 SWAP2 SUB SWAP1 LOG2 POP POP JUMP JUMPDEST PUSH2 0xF46 PUSH2 0x1021 JUMP JUMPDEST PUSH1 0x0 PUSH1 0x40 MLOAD DUP1 PUSH1 0x80 ADD PUSH1 0x40 MSTORE SWAP1 DUP2 PUSH1 0x0 DUP3 ADD PUSH1 0x0 SWAP1 SLOAD SWAP1 PUSH2 0x100 EXP SWAP1 DIV PUSH20 0xFFFFFFFFFFFFFFFFFFFFFFFFFFFFFFFFFFFFFFFF AND PUSH20 0xFFFFFFFFFFFFFFFFFFFFFFFFFFFFFFFFFFFFFFFF AND PUSH20 0xFFFFFFFFFFFFFFFFFFFFFFFFFFFFFFFFFFFFFFFF AND DUP2 MSTORE PUSH1 0x20 ADD PUSH1 0x1 DUP3 ADD SLOAD DUP2 MSTORE PUSH1 0x20 ADD PUSH1 0x2 DUP3 ADD SLOAD DUP2 MSTORE PUSH1 0x20 ADD PUSH1 0x3 DUP3 ADD PUSH1 0x0 SWAP1 SLOAD SWAP1 PUSH2 0x100 EXP SWAP1 DIV PUSH1 0xFF AND ISZERO ISZERO ISZERO ISZERO DUP2 MSTORE POP POP SWAP1 POP SWAP1 JUMP JUMPDEST PUSH1 0x0 PUSH1 0x64 PUSH1 0x69 DUP4 PUSH2 0xFEE SWAP2 SWAP1 PUSH2 0x1715 JUMP JUMPDEST PUSH2 0xFF8 SWAP2 SWAP1 PUSH2 0x1786 JUMP JUMPDEST SWAP1 POP SWAP2 SWAP1 POP JUMP JUMPDEST PUSH1 0x0 PUSH1 0x64 PUSH1 0x2 DUP4 PUSH2 0x1010 SWAP2 SWAP1 PUSH2 0x1715 JUMP JUMPDEST PUSH2 0x101A SWAP2 SWAP1 PUSH2 0x1786 JUMP JUMPDEST SWAP1 POP SWAP2 SWAP1 POP JUMP JUMPDEST PUSH1 0x40 MLOAD DUP1 PUSH1 0x80 ADD PUSH1 0x40 MSTORE DUP1 PUSH1 0x0 PUSH20 0xFFFFFFFFFFFFFFFFFFFFFFFFFFFFFFFFFFFFFFFF AND DUP2 MSTORE PUSH1 0x20 ADD PUSH1 0x0 DUP2 MSTORE PUSH1 0x20 ADD PUSH1 0x0 DUP2 MSTORE PUSH1 0x20 ADD PUSH1 0x0 ISZERO ISZERO DUP2 MSTORE POP SWAP1 JUMP JUMPDEST PUSH1 0x0 DUP2 MLOAD SWAP1 POP SWAP2 SWAP1 POP JUMP JUMPDEST PUSH1 0x0 DUP3 DUP3 MSTORE PUSH1 0x20 DUP3 ADD SWAP1 POP SWAP3 SWAP2 POP POP JUMP JUMPDEST PUSH1 0x0 DUP2 SWAP1 POP PUSH1 0x20 DUP3 ADD SWAP1 POP SWAP2 SWAP1 POP JUMP JUMPDEST PUSH1 0x0 PUSH20 0xFFFFFFFFFFFFFFFFFFFFFFFFFFFFFFFFFFFFFFFF DUP3 AND SWAP1 POP SWAP2 SWAP1 POP JUMP JUMPDEST PUSH1 0x0 PUSH2 0x10B8 DUP3 PUSH2 0x108D JUMP JUMPDEST SWAP1 POP SWAP2 SWAP1 POP JUMP JUMPDEST PUSH2 0x10C8 DUP2 PUSH2 0x10AD JUMP JUMPDEST DUP3 MSTORE POP POP JUMP JUMPDEST PUSH1 0x0 DUP2 SWAP1 POP SWAP2 SWAP1 POP JUMP JUMPDEST PUSH2 0x10E1 DUP2 PUSH2 0x10CE JUMP JUMPDEST DUP3 MSTORE POP POP JUMP JUMPDEST PUSH1 0x0 DUP2 ISZERO ISZERO SWAP1 POP SWAP2 SWAP1 POP JUMP JUMPDEST PUSH2 0x10FC DUP2 PUSH2 0x10E7 JUMP JUMPDEST DUP3 MSTORE POP POP JUMP JUMPDEST PUSH1 0x80 DUP3 ADD PUSH1 0x0 DUP3 ADD MLOAD PUSH2 0x1118 PUSH1 0x0 DUP6 ADD DUP3 PUSH2 0x10BF JUMP JUMPDEST POP PUSH1 0x20 DUP3 ADD MLOAD PUSH2 0x112B PUSH1 0x20 DUP6 ADD DUP3 PUSH2 0x10D8 JUMP JUMPDEST POP PUSH1 0x40 DUP3 ADD MLOAD PUSH2 0x113E PUSH1 0x40 DUP6 ADD DUP3 PUSH2 0x10D8 JUMP JUMPDEST POP PUSH1 0x60 DUP3 ADD MLOAD PUSH2 0x1151 PUSH1 0x60 DUP6 ADD DUP3 PUSH2 0x10F3 JUMP JUMPDEST POP POP POP POP JUMP JUMPDEST PUSH1 0x0 PUSH2 0x1163 DUP4 DUP4 PUSH2 0x1102 JUMP JUMPDEST PUSH1 0x80 DUP4 ADD SWAP1 POP SWAP3 SWAP2 POP POP JUMP JUMPDEST PUSH1 0x0 PUSH1 0x20 DUP3 ADD SWAP1 POP SWAP2 SWAP1 POP JUMP JUMPDEST PUSH1 0x0 PUSH2 0x1187 DUP3 PUSH2 0x1061 JUMP JUMPDEST PUSH2 0x1191 DUP2 DUP6 PUSH2 0x106C JUMP JUMPDEST SWAP4 POP PUSH2 0x119C DUP4 PUSH2 0x107D JUMP JUMPDEST DUP1 PUSH1 0x0 JUMPDEST DUP4 DUP2 LT ISZERO PUSH2 0x11CD JUMPI DUP2 MLOAD PUSH2 0x11B4 DUP9 DUP3 PUSH2 0x1157 JUMP JUMPDEST SWAP8 POP PUSH2 0x11BF DUP4 PUSH2 0x116F JUMP JUMPDEST SWAP3 POP POP PUSH1 0x1 DUP2 ADD SWAP1 POP PUSH2 0x11A0 JUMP JUMPDEST POP DUP6 SWAP4 POP POP POP POP SWAP3 SWAP2 POP POP JUMP JUMPDEST PUSH1 0x0 PUSH1 0x20 DUP3 ADD SWAP1 POP DUP2 DUP2 SUB PUSH1 0x0 DUP4 ADD MSTORE PUSH2 0x11F4 DUP2 DUP5 PUSH2 0x117C JUMP JUMPDEST SWAP1 POP SWAP3 SWAP2 POP POP JUMP JUMPDEST PUSH1 0x80 DUP3 ADD PUSH1 0x0 DUP3 ADD MLOAD PUSH2 0x1212 PUSH1 0x0 DUP6 ADD DUP3 PUSH2 0x10BF JUMP JUMPDEST POP PUSH1 0x20 DUP3 ADD MLOAD PUSH2 0x1225 PUSH1 0x20 DUP6 ADD DUP3 PUSH2 0x10D8 JUMP JUMPDEST POP PUSH1 0x40 DUP3 ADD MLOAD PUSH2 0x1238 PUSH1 0x40 DUP6 ADD DUP3 PUSH2 0x10D8 JUMP JUMPDEST POP PUSH1 0x60 DUP3 ADD MLOAD PUSH2 0x124B PUSH1 0x60 DUP6 ADD DUP3 PUSH2 0x10F3 JUMP JUMPDEST POP POP POP POP JUMP JUMPDEST PUSH1 0x0 PUSH1 0x80 DUP3 ADD SWAP1 POP PUSH2 0x1266 PUSH1 0x0 DUP4 ADD DUP5 PUSH2 0x11FC JUMP JUMPDEST SWAP3 SWAP2 POP POP JUMP JUMPDEST PUSH1 0x0 DUP3 DUP3 MSTORE PUSH1 0x20 DUP3 ADD SWAP1 POP SWAP3 SWAP2 POP POP JUMP JUMPDEST PUSH32 0x4269642066696E69736865640000000000000000000000000000000000000000 PUSH1 0x0 DUP3 ADD MSTORE POP JUMP JUMPDEST PUSH1 0x0 PUSH2 0x12B3 PUSH1 0xC DUP4 PUSH2 0x126C JUMP JUMPDEST SWAP2 POP PUSH2 0x12BE DUP3 PUSH2 0x127D JUMP JUMPDEST PUSH1 0x20 DUP3 ADD SWAP1 POP SWAP2 SWAP1 POP JUMP JUMPDEST PUSH1 0x0 PUSH1 0x20 DUP3 ADD SWAP1 POP DUP2 DUP2 SUB PUSH1 0x0 DUP4 ADD MSTORE PUSH2 0x12E2 DUP2 PUSH2 0x12A6 JUMP JUMPDEST SWAP1 POP SWAP2 SWAP1 POP JUMP JUMPDEST PUSH32 0x426964206D7573742062652067726561746572207468616E207A65726F000000 PUSH1 0x0 DUP3 ADD MSTORE POP JUMP JUMPDEST PUSH1 0x0 PUSH2 0x131F PUSH1 0x1D DUP4 PUSH2 0x126C JUMP JUMPDEST SWAP2 POP PUSH2 0x132A DUP3 PUSH2 0x12E9 JUMP JUMPDEST PUSH1 0x20 DUP3 ADD SWAP1 POP SWAP2 SWAP1 POP JUMP JUMPDEST PUSH1 0x0 PUSH1 0x20 DUP3 ADD SWAP1 POP DUP2 DUP2 SUB PUSH1 0x0 DUP4 ADD MSTORE PUSH2 0x134E DUP2 PUSH2 0x1312 JUMP JUMPDEST SWAP1 POP SWAP2 SWAP1 POP JUMP JUMPDEST PUSH32 0x496E76616C69642073656E646572206164647265737300000000000000000000 PUSH1 0x0 DUP3 ADD MSTORE POP JUMP JUMPDEST PUSH1 0x0 PUSH2 0x138B PUSH1 0x16 DUP4 PUSH2 0x126C JUMP JUMPDEST SWAP2 POP PUSH2 0x1396 DUP3 PUSH2 0x1355 JUMP JUMPDEST PUSH1 0x20 DUP3 ADD SWAP1 POP SWAP2 SWAP1 POP JUMP JUMPDEST PUSH1 0x0 PUSH1 0x20 DUP3 ADD SWAP1 POP DUP2 DUP2 SUB PUSH1 0x0 DUP4 ADD MSTORE PUSH2 0x13BA DUP2 PUSH2 0x137E JUMP JUMPDEST SWAP1 POP SWAP2 SWAP1 POP JUMP JUMPDEST PUSH32 0x4E487B7100000000000000000000000000000000000000000000000000000000 PUSH1 0x0 MSTORE PUSH1 0x11 PUSH1 0x4 MSTORE PUSH1 0x24 PUSH1 0x0 REVERT JUMPDEST PUSH1 0x0 PUSH2 0x13FB DUP3 PUSH2 0x10CE JUMP JUMPDEST SWAP2 POP PUSH32 0xFFFFFFFFFFFFFFFFFFFFFFFFFFFFFFFFFFFFFFFFFFFFFFFFFFFFFFFFFFFFFFFF DUP3 SUB PUSH2 0x142D JUMPI PUSH2 0x142C PUSH2 0x13C1 JUMP JUMPDEST JUMPDEST PUSH1 0x1 DUP3 ADD SWAP1 POP SWAP2 SWAP1 POP JUMP JUMPDEST PUSH2 0x1441 DUP2 PUSH2 0x10CE JUMP JUMPDEST DUP3 MSTORE POP POP JUMP JUMPDEST PUSH1 0x0 PUSH1 0x20 DUP3 ADD SWAP1 POP PUSH2 0x145C PUSH1 0x0 DUP4 ADD DUP5 PUSH2 0x1438 JUMP JUMPDEST SWAP3 SWAP2 POP POP JUMP JUMPDEST PUSH1 0x0 PUSH2 0x146D DUP3 PUSH2 0x10CE JUMP JUMPDEST SWAP2 POP PUSH2 0x1478 DUP4 PUSH2 0x10CE JUMP JUMPDEST SWAP3 POP DUP3 DUP3 SUB SWAP1 POP DUP2 DUP2 GT ISZERO PUSH2 0x1490 JUMPI PUSH2 0x148F PUSH2 0x13C1 JUMP JUMPDEST JUMPDEST SWAP3 SWAP2 POP POP JUMP JUMPDEST PUSH1 0x0 PUSH2 0x14A1 DUP3 PUSH2 0x10CE JUMP JUMPDEST SWAP2 POP PUSH2 0x14AC DUP4 PUSH2 0x10CE JUMP JUMPDEST SWAP3 POP DUP3 DUP3 ADD SWAP1 POP DUP1 DUP3 GT ISZERO PUSH2 0x14C4 JUMPI PUSH2 0x14C3 PUSH2 0x13C1 JUMP JUMPDEST JUMPDEST SWAP3 SWAP2 POP POP JUMP JUMPDEST PUSH32 0x4E487B7100000000000000000000000000000000000000000000000000000000 PUSH1 0x0 MSTORE PUSH1 0x32 PUSH1 0x4 MSTORE PUSH1 0x24 PUSH1 0x0 REVERT JUMPDEST PUSH1 0x0 DUP2 SWAP1 POP SWAP3 SWAP2 POP POP JUMP JUMPDEST POP JUMP JUMPDEST PUSH1 0x0 PUSH2 0x1514 PUSH1 0x0 DUP4 PUSH2 0x14F9 JUMP JUMPDEST SWAP2 POP PUSH2 0x151F DUP3 PUSH2 0x1504 JUMP JUMPDEST PUSH1 0x0 DUP3 ADD SWAP1 POP SWAP2 SWAP1 POP JUMP JUMPDEST PUSH1 0x0 PUSH2 0x1535 DUP3 PUSH2 0x1507 JUMP JUMPDEST SWAP2 POP DUP2 SWAP1 POP SWAP2 SWAP1 POP JUMP JUMPDEST PUSH32 0x5472616E73666572204661696C65640000000000000000000000000000000000 PUSH1 0x0 DUP3 ADD MSTORE POP JUMP JUMPDEST PUSH1 0x0 PUSH2 0x1575 PUSH1 0xF DUP4 PUSH2 0x126C JUMP JUMPDEST SWAP2 POP PUSH2 0x1580 DUP3 PUSH2 0x153F JUMP JUMPDEST PUSH1 0x20 DUP3 ADD SWAP1 POP SWAP2 SWAP1 POP JUMP JUMPDEST PUSH1 0x0 PUSH1 0x20 DUP3 ADD SWAP1 POP DUP2 DUP2 SUB PUSH1 0x0 DUP4 ADD MSTORE PUSH2 0x15A4 DUP2 PUSH2 0x1568 JUMP JUMPDEST SWAP1 POP SWAP2 SWAP1 POP JUMP JUMPDEST PUSH32 0x426964206E6F742066696E697368656420796574000000000000000000000000 PUSH1 0x0 DUP3 ADD MSTORE POP JUMP JUMPDEST PUSH1 0x0 PUSH2 0x15E1 PUSH1 0x14 DUP4 PUSH2 0x126C JUMP JUMPDEST SWAP2 POP PUSH2 0x15EC DUP3 PUSH2 0x15AB JUMP JUMPDEST PUSH1 0x20 DUP3 ADD SWAP1 POP SWAP2 SWAP1 POP JUMP JUMPDEST PUSH1 0x0 PUSH1 0x20 DUP3 ADD SWAP1 POP DUP2 DUP2 SUB PUSH1 0x0 DUP4 ADD MSTORE PUSH2 0x1610 DUP2 PUSH2 0x15D4 JUMP JUMPDEST SWAP1 POP SWAP2 SWAP1 POP JUMP JUMPDEST PUSH32 0x4E6F2066756E647320746F20636C61696D000000000000000000000000000000 PUSH1 0x0 DUP3 ADD MSTORE POP JUMP JUMPDEST PUSH1 0x0 PUSH2 0x164D PUSH1 0x11 DUP4 PUSH2 0x126C JUMP JUMPDEST SWAP2 POP PUSH2 0x1658 DUP3 PUSH2 0x1617 JUMP JUMPDEST PUSH1 0x20 DUP3 ADD SWAP1 POP SWAP2 SWAP1 POP JUMP JUMPDEST PUSH1 0x0 PUSH1 0x20 DUP3 ADD SWAP1 POP DUP2 DUP2 SUB PUSH1 0x0 DUP4 ADD MSTORE PUSH2 0x167C DUP2 PUSH2 0x1640 JUMP JUMPDEST SWAP1 POP SWAP2 SWAP1 POP JUMP JUMPDEST PUSH32 0x4F6E6C7920746865206F776E65722063616E2072756E20746869732066756E63 PUSH1 0x0 DUP3 ADD MSTORE PUSH32 0x74696F6E00000000000000000000000000000000000000000000000000000000 PUSH1 0x20 DUP3 ADD MSTORE POP JUMP JUMPDEST PUSH1 0x0 PUSH2 0x16DF PUSH1 0x24 DUP4 PUSH2 0x126C JUMP JUMPDEST SWAP2 POP PUSH2 0x16EA DUP3 PUSH2 0x1683 JUMP JUMPDEST PUSH1 0x40 DUP3 ADD SWAP1 POP SWAP2 SWAP1 POP JUMP JUMPDEST PUSH1 0x0 PUSH1 0x20 DUP3 ADD SWAP1 POP DUP2 DUP2 SUB PUSH1 0x0 DUP4 ADD MSTORE PUSH2 0x170E DUP2 PUSH2 0x16D2 JUMP JUMPDEST SWAP1 POP SWAP2 SWAP1 POP JUMP JUMPDEST PUSH1 0x0 PUSH2 0x1720 DUP3 PUSH2 0x10CE JUMP JUMPDEST SWAP2 POP PUSH2 0x172B DUP4 PUSH2 0x10CE JUMP JUMPDEST SWAP3 POP DUP3 DUP3 MUL PUSH2 0x1739 DUP2 PUSH2 0x10CE JUMP JUMPDEST SWAP2 POP DUP3 DUP3 DIV DUP5 EQ DUP4 ISZERO OR PUSH2 0x1750 JUMPI PUSH2 0x174F PUSH2 0x13C1 JUMP JUMPDEST JUMPDEST POP SWAP3 SWAP2 POP POP JUMP JUMPDEST PUSH32 0x4E487B7100000000000000000000000000000000000000000000000000000000 PUSH1 0x0 MSTORE PUSH1 0x12 PUSH1 0x4 MSTORE PUSH1 0x24 PUSH1 0x0 REVERT JUMPDEST PUSH1 0x0 PUSH2 0x1791 DUP3 PUSH2 0x10CE JUMP JUMPDEST SWAP2 POP PUSH2 0x179C DUP4 PUSH2 0x10CE JUMP JUMPDEST SWAP3 POP DUP3 PUSH2 0x17AC JUMPI PUSH2 0x17AB PUSH2 0x1757 JUMP JUMPDEST JUMPDEST DUP3 DUP3 DIV SWAP1 POP SWAP3 SWAP2 POP POP JUMP INVALID LOG2 PUSH5 0x6970667358 0x22 SLT KECCAK256 0xB2 PUSH32 0xC417EC6060E8C0D3F56807E058AF022CA3B42583218ED9AF7316F29A457A6473 PUSH16 0x6C634300081200330000000000000000 "
				},
				"gasEstimates": {
					"creation": {
						"codeDepositCost": "1225000",
						"executionCost": "infinite",
						"totalCost": "infinite"
					},
					"external": {
						"bid()": "infinite",
						"claim()": "infinite",
						"partialClaim()": "infinite",
						"refund()": "infinite",
						"showOffers()": "infinite",
						"showWinner()": "infinite"
					},
					"internal": {
						"_checkFee(uint256)": "infinite",
						"_checkOffer(uint256)": "infinite"
					}
				},
				"methodIdentifiers": {
					"bid()": "1998aeef",
					"claim()": "4e71d92d",
					"partialClaim()": "464fcd69",
					"refund()": "590e1ae3",
					"showOffers()": "534823bf",
					"showWinner()": "b7e03264"
				}
			},
			"storageLayout": {
				"storage": [
					{
						"astId": 14,
						"contract": "Auction.sol:Auction",
						"label": "winner",
						"offset": 0,
						"slot": "0",
						"type": "t_struct(Biders)11_storage"
					},
					{
						"astId": 18,
						"contract": "Auction.sol:Auction",
						"label": "biders",
						"offset": 0,
						"slot": "4",
						"type": "t_array(t_struct(Biders)11_storage)dyn_storage"
					},
					{
						"astId": 39,
						"contract": "Auction.sol:Auction",
						"label": "feeOwner",
						"offset": 0,
						"slot": "5",
						"type": "t_uint256"
					},
					{
						"astId": 41,
						"contract": "Auction.sol:Auction",
						"label": "partialClaims",
						"offset": 0,
						"slot": "6",
						"type": "t_uint256"
					},
					{
						"astId": 43,
						"contract": "Auction.sol:Auction",
						"label": "endTime",
						"offset": 0,
						"slot": "7",
						"type": "t_uint256"
					},
					{
						"astId": 47,
						"contract": "Auction.sol:Auction",
						"label": "numOffer",
						"offset": 0,
						"slot": "8",
						"type": "t_mapping(t_address,t_uint256)"
					},
					{
						"astId": 51,
						"contract": "Auction.sol:Auction",
						"label": "claims",
						"offset": 0,
						"slot": "9",
						"type": "t_mapping(t_address,t_uint256)"
					}
				],
				"types": {
					"t_address": {
						"encoding": "inplace",
						"label": "address",
						"numberOfBytes": "20"
					},
					"t_array(t_struct(Biders)11_storage)dyn_storage": {
						"base": "t_struct(Biders)11_storage",
						"encoding": "dynamic_array",
						"label": "struct Auction.Biders[]",
						"numberOfBytes": "32"
					},
					"t_bool": {
						"encoding": "inplace",
						"label": "bool",
						"numberOfBytes": "1"
					},
					"t_mapping(t_address,t_uint256)": {
						"encoding": "mapping",
						"key": "t_address",
						"label": "mapping(address => uint256)",
						"numberOfBytes": "32",
						"value": "t_uint256"
					},
					"t_struct(Biders)11_storage": {
						"encoding": "inplace",
						"label": "struct Auction.Biders",
						"members": [
							{
								"astId": 4,
								"contract": "Auction.sol:Auction",
								"label": "bider",
								"offset": 0,
								"slot": "0",
								"type": "t_address"
							},
							{
								"astId": 6,
								"contract": "Auction.sol:Auction",
								"label": "value",
								"offset": 0,
								"slot": "1",
								"type": "t_uint256"
							},
							{
								"astId": 8,
								"contract": "Auction.sol:Auction",
								"label": "idOffer",
								"offset": 0,
								"slot": "2",
								"type": "t_uint256"
							},
							{
								"astId": 10,
								"contract": "Auction.sol:Auction",
								"label": "offerReclaimed",
								"offset": 0,
								"slot": "3",
								"type": "t_bool"
							}
						],
						"numberOfBytes": "128"
					},
					"t_uint256": {
						"encoding": "inplace",
						"label": "uint256",
						"numberOfBytes": "32"
					}
				}
			},
			"userdoc": {
				"kind": "user",
				"methods": {
					"bid()": {
						"notice": "Allows users to place a bid higher than the current one"
					},
					"claim()": {
						"notice": "Allows a bidder to claim their refund"
					},
					"partialClaim()": {
						"notice": "Allows partial claim of non-winning offers during active auction"
					},
					"refund()": {
						"notice": "Owner can refund the losing bidders and collect the fee after auction ends"
					},
					"showOffers()": {
						"notice": "Returns the full list of bids"
					},
					"showWinner()": {
						"notice": "Returns the current highest bidder and value"
					}
				},
				"version": 1
			}
		}
	}
}