{
	"Auction.sol": {
		"Auction": {
			"abi": [
				{
					"inputs": [],
					"stateMutability": "nonpayable",
					"type": "constructor"
				},
				{
					"anonymous": false,
					"inputs": [
						{
							"indexed": false,
							"internalType": "uint256",
							"name": "newEndTime",
							"type": "uint256"
						}
					],
					"name": "AuctionExtended",
					"type": "event"
				},
				{
					"anonymous": false,
					"inputs": [
						{
							"indexed": true,
							"internalType": "address",
							"name": "winner",
							"type": "address"
						},
						{
							"indexed": false,
							"internalType": "uint256",
							"name": "amount",
							"type": "uint256"
						}
					],
					"name": "FinalWinner",
					"type": "event"
				},
				{
					"anonymous": false,
					"inputs": [
						{
							"indexed": true,
							"internalType": "address",
							"name": "bidder",
							"type": "address"
						},
						{
							"indexed": false,
							"internalType": "uint256",
							"name": "amount",
							"type": "uint256"
						}
					],
					"name": "NewHighestBid",
					"type": "event"
				},
				{
					"anonymous": false,
					"inputs": [
						{
							"indexed": true,
							"internalType": "address",
							"name": "winner",
							"type": "address"
						},
						{
							"indexed": false,
							"internalType": "uint256",
							"name": "amount",
							"type": "uint256"
						}
					],
					"name": "PartialRefund",
					"type": "event"
				},
				{
					"inputs": [],
					"name": "bid",
					"outputs": [],
					"stateMutability": "payable",
					"type": "function"
				},
				{
					"inputs": [],
					"name": "partialRefund",
					"outputs": [],
					"stateMutability": "nonpayable",
					"type": "function"
				},
				{
					"inputs": [],
					"name": "refund",
					"outputs": [],
					"stateMutability": "nonpayable",
					"type": "function"
				},
				{
					"inputs": [],
					"name": "showOffers",
					"outputs": [
						{
							"components": [
								{
									"internalType": "address",
									"name": "bider",
									"type": "address"
								},
								{
									"internalType": "uint256",
									"name": "value",
									"type": "uint256"
								}
							],
							"internalType": "struct Auction.Biders[]",
							"name": "",
							"type": "tuple[]"
						}
					],
					"stateMutability": "view",
					"type": "function"
				},
				{
					"inputs": [],
					"name": "showWinner",
					"outputs": [
						{
							"components": [
								{
									"internalType": "address",
									"name": "bider",
									"type": "address"
								},
								{
									"internalType": "uint256",
									"name": "value",
									"type": "uint256"
								}
							],
							"internalType": "struct Auction.Biders",
							"name": "",
							"type": "tuple"
						}
					],
					"stateMutability": "view",
					"type": "function"
				}
			],
			"devdoc": {
				"details": "Implements a bidding auction with refund and claim mechanisms.",
				"kind": "dev",
				"methods": {
					"bid()": {
						"details": "Updates the winner - stores the bidExtend 10 minutes the auction if the new winner appears when the leftime is low than 10 minutes."
					},
					"constructor": {
						"details": "Initializes the auction contract and sets the owner and end time."
					},
					"partialRefund()": {
						"details": "If the bidder is currently winning, only the non-winning part is withdrawable."
					},
					"refund()": {
						"details": "The owner collects a fee from each bid. Losers are refunded their balance minus the fee."
					},
					"showOffers()": {
						"returns": {
							"_0": "An array of structs with each bidder and their respective bid."
						}
					},
					"showWinner()": {
						"returns": {
							"_0": "A struct containing the address and bid amount of the current winner."
						}
					}
				},
				"title": "Auction",
				"version": 1
			},
			"evm": {
				"assembly": "    /* \"Auction.sol\":163:6243  contract Auction {... */\n  mstore(0x40, 0xc0)\n    /* \"Auction.sol\":1254:1391  constructor() {... */\n  callvalue\n  dup1\n  iszero\n  tag_1\n  jumpi\n  0x00\n  dup1\n  revert\ntag_1:\n  pop\n    /* \"Auction.sol\":1287:1297  msg.sender */\n  caller\n    /* \"Auction.sol\":1279:1297  owner = msg.sender */\n  0xffffffffffffffffffffffffffffffffffffffff\n  and\n  0x80\n  dup2\n  0xffffffffffffffffffffffffffffffffffffffff\n  and\n  dup2\n  mstore\n  pop\n  pop\n    /* \"Auction.sol\":1320:1335  block.timestamp */\n  timestamp\n    /* \"Auction.sol\":1308:1335  startTime = block.timestamp */\n  0xa0\n  dup2\n  dup2\n  mstore\n  pop\n  pop\n    /* \"Auction.sol\":509:515  7 days */\n  0x093a80\n    /* \"Auction.sol\":1356:1365  startTime */\n  mload(0xa0)\n    /* \"Auction.sol\":1356:1383  startTime + AUCTIONDURATION */\n  tag_4\n  swap2\n  swap1\n  tag_5\n  jump\t// in\ntag_4:\n    /* \"Auction.sol\":1346:1353  endTime */\n  0x04\n    /* \"Auction.sol\":1346:1383  endTime = startTime + AUCTIONDURATION */\n  dup2\n  swap1\n  sstore\n  pop\n    /* \"Auction.sol\":163:6243  contract Auction {... */\n  jump(tag_6)\n    /* \"#utility.yul\":7:84   */\ntag_7:\n    /* \"#utility.yul\":44:51   */\n  0x00\n    /* \"#utility.yul\":73:78   */\n  dup2\n    /* \"#utility.yul\":62:78   */\n  swap1\n  pop\n    /* \"#utility.yul\":7:84   */\n  swap2\n  swap1\n  pop\n  jump\t// out\n    /* \"#utility.yul\":90:270   */\ntag_8:\n    /* \"#utility.yul\":138:215   */\n  0x4e487b7100000000000000000000000000000000000000000000000000000000\n    /* \"#utility.yul\":135:136   */\n  0x00\n    /* \"#utility.yul\":128:216   */\n  mstore\n    /* \"#utility.yul\":235:239   */\n  0x11\n    /* \"#utility.yul\":232:233   */\n  0x04\n    /* \"#utility.yul\":225:240   */\n  mstore\n    /* \"#utility.yul\":259:263   */\n  0x24\n    /* \"#utility.yul\":256:257   */\n  0x00\n    /* \"#utility.yul\":249:264   */\n  revert\n    /* \"#utility.yul\":276:467   */\ntag_5:\n    /* \"#utility.yul\":316:319   */\n  0x00\n    /* \"#utility.yul\":335:355   */\n  tag_13\n    /* \"#utility.yul\":353:354   */\n  dup3\n    /* \"#utility.yul\":335:355   */\n  tag_7\n  jump\t// in\ntag_13:\n    /* \"#utility.yul\":330:355   */\n  swap2\n  pop\n    /* \"#utility.yul\":369:389   */\n  tag_14\n    /* \"#utility.yul\":387:388   */\n  dup4\n    /* \"#utility.yul\":369:389   */\n  tag_7\n  jump\t// in\ntag_14:\n    /* \"#utility.yul\":364:389   */\n  swap3\n  pop\n    /* \"#utility.yul\":412:413   */\n  dup3\n    /* \"#utility.yul\":409:410   */\n  dup3\n    /* \"#utility.yul\":405:414   */\n  add\n    /* \"#utility.yul\":398:414   */\n  swap1\n  pop\n    /* \"#utility.yul\":433:436   */\n  dup1\n    /* \"#utility.yul\":430:431   */\n  dup3\n    /* \"#utility.yul\":427:437   */\n  gt\n    /* \"#utility.yul\":424:460   */\n  iszero\n  tag_15\n  jumpi\n    /* \"#utility.yul\":440:458   */\n  tag_16\n  tag_8\n  jump\t// in\ntag_16:\n    /* \"#utility.yul\":424:460   */\ntag_15:\n    /* \"#utility.yul\":276:467   */\n  swap3\n  swap2\n  pop\n  pop\n  jump\t// out\n    /* \"Auction.sol\":163:6243  contract Auction {... */\ntag_6:\n  mload(0x80)\n  mload(0xa0)\n  codecopy(0x00, dataOffset(sub_0), dataSize(sub_0))\n  0x00\n  assignImmutable(\"0x8fef2229291b68be841adf029e58b87f39ba144b2d3b0af1760243d0a9bc6a1c\")\n  0x00\n  assignImmutable(\"0x277ab82e5a4641341820a4a2933a62c1de997e42e92548657ae21b3728d580fe\")\n  return(0x00, dataSize(sub_0))\nstop\n\nsub_0: assembly {\n        /* \"Auction.sol\":163:6243  contract Auction {... */\n      mstore(0x40, 0x80)\n      jumpi(tag_1, lt(calldatasize, 0x04))\n      shr(0xe0, calldataload(0x00))\n      dup1\n      0x1998aeef\n      eq\n      tag_2\n      jumpi\n      dup1\n      0x1ce2bcf5\n      eq\n      tag_3\n      jumpi\n      dup1\n      0x534823bf\n      eq\n      tag_4\n      jumpi\n      dup1\n      0x590e1ae3\n      eq\n      tag_5\n      jumpi\n      dup1\n      0xb7e03264\n      eq\n      tag_6\n      jumpi\n    tag_1:\n      0x00\n      dup1\n      revert\n        /* \"Auction.sol\":2504:3231  function bid() external payable isActive {... */\n    tag_2:\n      tag_7\n      tag_8\n      jump\t// in\n    tag_7:\n      stop\n        /* \"Auction.sol\":4563:4987  function partialRefund() external isActive canRefund {... */\n    tag_3:\n      callvalue\n      dup1\n      iszero\n      tag_9\n      jumpi\n      0x00\n      dup1\n      revert\n    tag_9:\n      pop\n      tag_10\n      tag_11\n      jump\t// in\n    tag_10:\n      stop\n        /* \"Auction.sol\":5406:5500  function showOffers() external view returns (Biders[] memory) {... */\n    tag_4:\n      callvalue\n      dup1\n      iszero\n      tag_12\n      jumpi\n      0x00\n      dup1\n      revert\n    tag_12:\n      pop\n      tag_13\n      tag_14\n      jump\t// in\n    tag_13:\n      mload(0x40)\n      tag_15\n      swap2\n      swap1\n      tag_16\n      jump\t// in\n    tag_15:\n      mload(0x40)\n      dup1\n      swap2\n      sub\n      swap1\n      return\n        /* \"Auction.sol\":3449:4359  function refund() external onlyOwner  isFinished {... */\n    tag_5:\n      callvalue\n      dup1\n      iszero\n      tag_17\n      jumpi\n      0x00\n      dup1\n      revert\n    tag_17:\n      pop\n      tag_18\n      tag_19\n      jump\t// in\n    tag_18:\n      stop\n        /* \"Auction.sol\":5165:5257  function showWinner() external view returns (Biders memory) {... */\n    tag_6:\n      callvalue\n      dup1\n      iszero\n      tag_20\n      jumpi\n      0x00\n      dup1\n      revert\n    tag_20:\n      pop\n      tag_21\n      tag_22\n      jump\t// in\n    tag_21:\n      mload(0x40)\n      tag_23\n      swap2\n      swap1\n      tag_24\n      jump\t// in\n    tag_23:\n      mload(0x40)\n      dup1\n      swap2\n      sub\n      swap1\n      return\n        /* \"Auction.sol\":2504:3231  function bid() external payable isActive {... */\n    tag_8:\n        /* \"Auction.sol\":1553:1560  endTime */\n      sload(0x04)\n        /* \"Auction.sol\":1535:1550  block.timestamp */\n      timestamp\n        /* \"Auction.sol\":1535:1560  block.timestamp < endTime */\n      lt\n        /* \"Auction.sol\":1527:1577  require(block.timestamp < endTime, \"Bid finished\") */\n      tag_26\n      jumpi\n      mload(0x40)\n      0x08c379a000000000000000000000000000000000000000000000000000000000\n      dup2\n      mstore\n      0x04\n      add\n      tag_27\n      swap1\n      tag_28\n      jump\t// in\n    tag_27:\n      mload(0x40)\n      dup1\n      swap2\n      sub\n      swap1\n      revert\n    tag_26:\n        /* \"Auction.sol\":2586:2587  0 */\n      0x00\n        /* \"Auction.sol\":2564:2588  msg.sender != address(0) */\n      0xffffffffffffffffffffffffffffffffffffffff\n      and\n        /* \"Auction.sol\":2564:2574  msg.sender */\n      caller\n        /* \"Auction.sol\":2564:2588  msg.sender != address(0) */\n      0xffffffffffffffffffffffffffffffffffffffff\n      and\n      sub\n        /* \"Auction.sol\":2556:2615  require(msg.sender != address(0), \"Invalid sender address\") */\n      tag_30\n      jumpi\n      mload(0x40)\n      0x08c379a000000000000000000000000000000000000000000000000000000000\n      dup2\n      mstore\n      0x04\n      add\n      tag_31\n      swap1\n      tag_32\n      jump\t// in\n    tag_31:\n      mload(0x40)\n      dup1\n      swap2\n      sub\n      swap1\n      revert\n    tag_30:\n        /* \"Auction.sol\":2629:2642  uint256 value */\n      0x00\n        /* \"Auction.sol\":2645:2654  msg.value */\n      callvalue\n        /* \"Auction.sol\":2629:2654  uint256 value = msg.value */\n      swap1\n      pop\n        /* \"Auction.sol\":2665:2679  address sender */\n      0x00\n        /* \"Auction.sol\":2682:2692  msg.sender */\n      caller\n        /* \"Auction.sol\":2665:2692  address sender = msg.sender */\n      swap1\n      pop\n        /* \"Auction.sol\":2703:2723  uint256 offerWinning */\n      0x00\n        /* \"Auction.sol\":2726:2751  _checkOffer(winner.value) */\n      tag_33\n        /* \"Auction.sol\":2738:2744  winner */\n      0x00\n        /* \"Auction.sol\":2738:2750  winner.value */\n      0x01\n      add\n      sload\n        /* \"Auction.sol\":2726:2737  _checkOffer */\n      tag_34\n        /* \"Auction.sol\":2726:2751  _checkOffer(winner.value) */\n      jump\t// in\n    tag_33:\n        /* \"Auction.sol\":2703:2751  uint256 offerWinning = _checkOffer(winner.value) */\n      swap1\n      pop\n        /* \"Auction.sol\":2776:2788  offerWinning */\n      dup1\n        /* \"Auction.sol\":2768:2773  value */\n      dup4\n        /* \"Auction.sol\":2768:2788  value > offerWinning */\n      gt\n        /* \"Auction.sol\":2764:3224  if (value > offerWinning) {... */\n      iszero\n      tag_35\n      jumpi\n        /* \"Auction.sol\":2820:2825  value */\n      dup3\n        /* \"Auction.sol\":2805:2811  winner */\n      0x00\n        /* \"Auction.sol\":2805:2817  winner.value */\n      0x01\n      add\n        /* \"Auction.sol\":2805:2825  winner.value = value */\n      dup2\n      swap1\n      sstore\n      pop\n        /* \"Auction.sol\":2855:2861  sender */\n      dup2\n        /* \"Auction.sol\":2840:2846  winner */\n      0x00\n        /* \"Auction.sol\":2840:2852  winner.bider */\n      dup1\n      add\n      0x00\n        /* \"Auction.sol\":2840:2861  winner.bider = sender */\n      0x0100\n      exp\n      dup2\n      sload\n      dup2\n      0xffffffffffffffffffffffffffffffffffffffff\n      mul\n      not\n      and\n      swap1\n      dup4\n      0xffffffffffffffffffffffffffffffffffffffff\n      and\n      mul\n      or\n      swap1\n      sstore\n      pop\n        /* \"Auction.sol\":2878:2884  biders */\n      0x02\n        /* \"Auction.sol\":2890:2911  Biders(sender, value) */\n      mload(0x40)\n      dup1\n      0x40\n      add\n      0x40\n      mstore\n      dup1\n        /* \"Auction.sol\":2897:2903  sender */\n      dup5\n        /* \"Auction.sol\":2890:2911  Biders(sender, value) */\n      0xffffffffffffffffffffffffffffffffffffffff\n      and\n      dup2\n      mstore\n      0x20\n      add\n        /* \"Auction.sol\":2905:2910  value */\n      dup6\n        /* \"Auction.sol\":2890:2911  Biders(sender, value) */\n      dup2\n      mstore\n      pop\n        /* \"Auction.sol\":2878:2912  biders.push(Biders(sender, value)) */\n      swap1\n      dup1\n      0x01\n      dup2\n      sload\n      add\n      dup1\n      dup3\n      sstore\n      dup1\n      swap2\n      pop\n      pop\n      0x01\n      swap1\n      sub\n      swap1\n      0x00\n      mstore\n      keccak256(0x00, 0x20)\n      swap1\n      0x02\n      mul\n      add\n      0x00\n      swap1\n      swap2\n      swap1\n      swap2\n      swap1\n      swap2\n      pop\n      0x00\n      dup3\n      add\n      mload\n      dup2\n      0x00\n      add\n      exp(0x0100, 0x00)\n      dup2\n      sload\n      dup2\n      0xffffffffffffffffffffffffffffffffffffffff\n      mul\n      not\n      and\n      swap1\n      dup4\n      0xffffffffffffffffffffffffffffffffffffffff\n      and\n      mul\n      or\n      swap1\n      sstore\n      pop\n      0x20\n      dup3\n      add\n      mload\n      dup2\n      0x01\n      add\n      sstore\n      pop\n      pop\n        /* \"Auction.sol\":2946:2951  value */\n      dup3\n        /* \"Auction.sol\":2927:2934  balance */\n      0x05\n        /* \"Auction.sol\":2927:2942  balance[sender] */\n      0x00\n        /* \"Auction.sol\":2935:2941  sender */\n      dup5\n        /* \"Auction.sol\":2927:2942  balance[sender] */\n      0xffffffffffffffffffffffffffffffffffffffff\n      and\n      0xffffffffffffffffffffffffffffffffffffffff\n      and\n      dup2\n      mstore\n      0x20\n      add\n      swap1\n      dup2\n      mstore\n      0x20\n      add\n      0x00\n      keccak256\n      0x00\n        /* \"Auction.sol\":2927:2951  balance[sender] += value */\n      dup3\n      dup3\n      sload\n      tag_37\n      swap2\n      swap1\n      tag_38\n      jump\t// in\n    tag_37:\n      swap3\n      pop\n      pop\n      dup2\n      swap1\n      sstore\n      pop\n        /* \"Auction.sol\":2987:2993  sender */\n      dup2\n        /* \"Auction.sol\":2973:3001  NewHighestBid(sender, value) */\n      0xffffffffffffffffffffffffffffffffffffffff\n      and\n      0xdeda60fb6e38f55d4ccab679f50f933d04b1dca8584775216dbdac46f251ca4a\n        /* \"Auction.sol\":2995:3000  value */\n      dup5\n        /* \"Auction.sol\":2973:3001  NewHighestBid(sender, value) */\n      mload(0x40)\n      tag_39\n      swap2\n      swap1\n      tag_40\n      jump\t// in\n    tag_39:\n      mload(0x40)\n      dup1\n      swap2\n      sub\n      swap1\n      log2\n        /* \"Auction.sol\":3019:3035  uint256 timeLeft */\n      0x00\n        /* \"Auction.sol\":3048:3063  block.timestamp */\n      timestamp\n        /* \"Auction.sol\":3038:3045  endTime */\n      sload(0x04)\n        /* \"Auction.sol\":3038:3063  endTime - block.timestamp */\n      tag_41\n      swap2\n      swap1\n      tag_42\n      jump\t// in\n    tag_41:\n        /* \"Auction.sol\":3019:3063  uint256 timeLeft = endTime - block.timestamp */\n      swap1\n      pop\n        /* \"Auction.sol\":721:731  10 minutes */\n      0x0258\n        /* \"Auction.sol\":3082:3090  timeLeft */\n      dup2\n        /* \"Auction.sol\":3082:3108  timeLeft <= TIME_EXTENSION */\n      gt\n        /* \"Auction.sol\":3078:3213  if (timeLeft <= TIME_EXTENSION) {... */\n      tag_43\n      jumpi\n        /* \"Auction.sol\":3140:3148  timeLeft */\n      dup1\n        /* \"Auction.sol\":3129:3136  endTime */\n      0x04\n      0x00\n        /* \"Auction.sol\":3129:3148  endTime += timeLeft */\n      dup3\n      dup3\n      sload\n      tag_44\n      swap2\n      swap1\n      tag_38\n      jump\t// in\n    tag_44:\n      swap3\n      pop\n      pop\n      dup2\n      swap1\n      sstore\n      pop\n        /* \"Auction.sol\":3172:3196  AuctionExtended(endTime) */\n      0xc2b459809119087ca9d2bc10dea53a51b7d848b1a11075db037bdca58292c3e8\n        /* \"Auction.sol\":3188:3195  endTime */\n      sload(0x04)\n        /* \"Auction.sol\":3172:3196  AuctionExtended(endTime) */\n      mload(0x40)\n      tag_45\n      swap2\n      swap1\n      tag_40\n      jump\t// in\n    tag_45:\n      mload(0x40)\n      dup1\n      swap2\n      sub\n      swap1\n      log1\n        /* \"Auction.sol\":3078:3213  if (timeLeft <= TIME_EXTENSION) {... */\n    tag_43:\n        /* \"Auction.sol\":2790:3224  {... */\n      pop\n        /* \"Auction.sol\":2764:3224  if (value > offerWinning) {... */\n    tag_35:\n        /* \"Auction.sol\":2545:3231  {... */\n      pop\n      pop\n      pop\n        /* \"Auction.sol\":2504:3231  function bid() external payable isActive {... */\n      jump\t// out\n        /* \"Auction.sol\":4563:4987  function partialRefund() external isActive canRefund {... */\n    tag_11:\n        /* \"Auction.sol\":1553:1560  endTime */\n      sload(0x04)\n        /* \"Auction.sol\":1535:1550  block.timestamp */\n      timestamp\n        /* \"Auction.sol\":1535:1560  block.timestamp < endTime */\n      lt\n        /* \"Auction.sol\":1527:1577  require(block.timestamp < endTime, \"Bid finished\") */\n      tag_47\n      jumpi\n      mload(0x40)\n      0x08c379a000000000000000000000000000000000000000000000000000000000\n      dup2\n      mstore\n      0x04\n      add\n      tag_48\n      swap1\n      tag_28\n      jump\t// in\n    tag_48:\n      mload(0x40)\n      dup1\n      swap2\n      sub\n      swap1\n      revert\n    tag_47:\n        /* \"Auction.sol\":2132:2133  0 */\n      0x00\n        /* \"Auction.sol\":2110:2117  balance */\n      0x05\n        /* \"Auction.sol\":2110:2129  balance[msg.sender] */\n      0x00\n        /* \"Auction.sol\":2118:2128  msg.sender */\n      caller\n        /* \"Auction.sol\":2110:2129  balance[msg.sender] */\n      0xffffffffffffffffffffffffffffffffffffffff\n      and\n      0xffffffffffffffffffffffffffffffffffffffff\n      and\n      dup2\n      mstore\n      0x20\n      add\n      swap1\n      dup2\n      mstore\n      0x20\n      add\n      0x00\n      keccak256\n      sload\n        /* \"Auction.sol\":2110:2133  balance[msg.sender] > 0 */\n      gt\n        /* \"Auction.sol\":2102:2157  require(balance[msg.sender] > 0, \"Nothing to withdraw\") */\n      tag_50\n      jumpi\n      mload(0x40)\n      0x08c379a000000000000000000000000000000000000000000000000000000000\n      dup2\n      mstore\n      0x04\n      add\n      tag_51\n      swap1\n      tag_52\n      jump\t// in\n    tag_51:\n      mload(0x40)\n      dup1\n      swap2\n      sub\n      swap1\n      revert\n    tag_50:\n        /* \"Auction.sol\":4647:4657  msg.sender */\n      caller\n        /* \"Auction.sol\":4631:4657  winner.bider == msg.sender */\n      0xffffffffffffffffffffffffffffffffffffffff\n      and\n        /* \"Auction.sol\":4631:4637  winner */\n      0x00\n        /* \"Auction.sol\":4631:4643  winner.bider */\n      dup1\n      add\n      0x00\n      swap1\n      sload\n      swap1\n      0x0100\n      exp\n      swap1\n      div\n      0xffffffffffffffffffffffffffffffffffffffff\n      and\n        /* \"Auction.sol\":4631:4657  winner.bider == msg.sender */\n      0xffffffffffffffffffffffffffffffffffffffff\n      and\n      sub\n        /* \"Auction.sol\":4627:4721  if (winner.bider == msg.sender) {... */\n      tag_54\n      jumpi\n        /* \"Auction.sol\":4697:4703  winner */\n      0x00\n        /* \"Auction.sol\":4697:4709  winner.value */\n      0x01\n      add\n      sload\n        /* \"Auction.sol\":4674:4681  balance */\n      0x05\n        /* \"Auction.sol\":4674:4693  balance[msg.sender] */\n      0x00\n        /* \"Auction.sol\":4682:4692  msg.sender */\n      caller\n        /* \"Auction.sol\":4674:4693  balance[msg.sender] */\n      0xffffffffffffffffffffffffffffffffffffffff\n      and\n      0xffffffffffffffffffffffffffffffffffffffff\n      and\n      dup2\n      mstore\n      0x20\n      add\n      swap1\n      dup2\n      mstore\n      0x20\n      add\n      0x00\n      keccak256\n      0x00\n        /* \"Auction.sol\":4674:4709  balance[msg.sender] -= winner.value */\n      dup3\n      dup3\n      sload\n      tag_55\n      swap2\n      swap1\n      tag_42\n      jump\t// in\n    tag_55:\n      swap3\n      pop\n      pop\n      dup2\n      swap1\n      sstore\n      pop\n        /* \"Auction.sol\":4627:4721  if (winner.bider == msg.sender) {... */\n    tag_54:\n        /* \"Auction.sol\":4733:4749  uint256 withdraw */\n      0x00\n        /* \"Auction.sol\":4752:4759  balance */\n      0x05\n        /* \"Auction.sol\":4752:4771  balance[msg.sender] */\n      0x00\n        /* \"Auction.sol\":4760:4770  msg.sender */\n      caller\n        /* \"Auction.sol\":4752:4771  balance[msg.sender] */\n      0xffffffffffffffffffffffffffffffffffffffff\n      and\n      0xffffffffffffffffffffffffffffffffffffffff\n      and\n      dup2\n      mstore\n      0x20\n      add\n      swap1\n      dup2\n      mstore\n      0x20\n      add\n      0x00\n      keccak256\n      sload\n        /* \"Auction.sol\":4733:4771  uint256 withdraw = balance[msg.sender] */\n      swap1\n      pop\n        /* \"Auction.sol\":4804:4805  0 */\n      0x00\n        /* \"Auction.sol\":4782:4789  balance */\n      0x05\n        /* \"Auction.sol\":4782:4801  balance[msg.sender] */\n      0x00\n        /* \"Auction.sol\":4790:4800  msg.sender */\n      caller\n        /* \"Auction.sol\":4782:4801  balance[msg.sender] */\n      0xffffffffffffffffffffffffffffffffffffffff\n      and\n      0xffffffffffffffffffffffffffffffffffffffff\n      and\n      dup2\n      mstore\n      0x20\n      add\n      swap1\n      dup2\n      mstore\n      0x20\n      add\n      0x00\n      keccak256\n        /* \"Auction.sol\":4782:4805  balance[msg.sender] = 0 */\n      dup2\n      swap1\n      sstore\n      pop\n        /* \"Auction.sol\":4817:4829  bool success */\n      0x00\n        /* \"Auction.sol\":4843:4853  msg.sender */\n      caller\n        /* \"Auction.sol\":4835:4859  payable(msg.sender).call */\n      0xffffffffffffffffffffffffffffffffffffffff\n      and\n        /* \"Auction.sol\":4867:4875  withdraw */\n      dup3\n        /* \"Auction.sol\":4835:4880  payable(msg.sender).call{value: withdraw}(\"\") */\n      mload(0x40)\n      tag_56\n      swap1\n      tag_57\n      jump\t// in\n    tag_56:\n      0x00\n      mload(0x40)\n      dup1\n      dup4\n      sub\n      dup2\n      dup6\n      dup8\n      gas\n      call\n      swap3\n      pop\n      pop\n      pop\n      returndatasize\n      dup1\n      0x00\n      dup2\n      eq\n      tag_60\n      jumpi\n      mload(0x40)\n      swap2\n      pop\n      and(add(returndatasize, 0x3f), not(0x1f))\n      dup3\n      add\n      0x40\n      mstore\n      returndatasize\n      dup3\n      mstore\n      returndatasize\n      0x00\n      0x20\n      dup5\n      add\n      returndatacopy\n      jump(tag_59)\n    tag_60:\n      0x60\n      swap2\n      pop\n    tag_59:\n      pop\n        /* \"Auction.sol\":4816:4880  (bool success, ) = payable(msg.sender).call{value: withdraw}(\"\") */\n      pop\n      swap1\n      pop\n        /* \"Auction.sol\":4899:4906  success */\n      dup1\n        /* \"Auction.sol\":4891:4926  require(success, \"Transfer Failed\") */\n      tag_61\n      jumpi\n      mload(0x40)\n      0x08c379a000000000000000000000000000000000000000000000000000000000\n      dup2\n      mstore\n      0x04\n      add\n      tag_62\n      swap1\n      tag_63\n      jump\t// in\n    tag_62:\n      mload(0x40)\n      dup1\n      swap2\n      sub\n      swap1\n      revert\n    tag_61:\n        /* \"Auction.sol\":4958:4968  msg.sender */\n      caller\n        /* \"Auction.sol\":4944:4979  PartialRefund(msg.sender, withdraw) */\n      0xffffffffffffffffffffffffffffffffffffffff\n      and\n      0xdce68997783ae47468b6fb0dd39cca315f9082d51d9ab3df8747c70512aa8ff2\n        /* \"Auction.sol\":4970:4978  withdraw */\n      dup4\n        /* \"Auction.sol\":4944:4979  PartialRefund(msg.sender, withdraw) */\n      mload(0x40)\n      tag_64\n      swap2\n      swap1\n      tag_40\n      jump\t// in\n    tag_64:\n      mload(0x40)\n      dup1\n      swap2\n      sub\n      swap1\n      log2\n        /* \"Auction.sol\":4616:4987  {... */\n      pop\n      pop\n        /* \"Auction.sol\":4563:4987  function partialRefund() external isActive canRefund {... */\n      jump\t// out\n        /* \"Auction.sol\":5406:5500  function showOffers() external view returns (Biders[] memory) {... */\n    tag_14:\n        /* \"Auction.sol\":5451:5466  Biders[] memory */\n      0x60\n        /* \"Auction.sol\":5486:5492  biders */\n      0x02\n        /* \"Auction.sol\":5479:5492  return biders */\n      dup1\n      sload\n      dup1\n      0x20\n      mul\n      0x20\n      add\n      mload(0x40)\n      swap1\n      dup2\n      add\n      0x40\n      mstore\n      dup1\n      swap3\n      swap2\n      swap1\n      dup2\n      dup2\n      mstore\n      0x20\n      add\n      0x00\n      swap1\n    tag_66:\n      dup3\n      dup3\n      lt\n      iszero\n      tag_67\n      jumpi\n      dup4\n      dup3\n      swap1\n      0x00\n      mstore\n      keccak256(0x00, 0x20)\n      swap1\n      0x02\n      mul\n      add\n      mload(0x40)\n      dup1\n      0x40\n      add\n      0x40\n      mstore\n      swap1\n      dup2\n      0x00\n      dup3\n      add\n      0x00\n      swap1\n      sload\n      swap1\n      0x0100\n      exp\n      swap1\n      div\n      0xffffffffffffffffffffffffffffffffffffffff\n      and\n      0xffffffffffffffffffffffffffffffffffffffff\n      and\n      0xffffffffffffffffffffffffffffffffffffffff\n      and\n      dup2\n      mstore\n      0x20\n      add\n      0x01\n      dup3\n      add\n      sload\n      dup2\n      mstore\n      pop\n      pop\n      dup2\n      mstore\n      0x20\n      add\n      swap1\n      0x01\n      add\n      swap1\n      jump(tag_66)\n    tag_67:\n      pop\n      pop\n      pop\n      pop\n      swap1\n      pop\n        /* \"Auction.sol\":5406:5500  function showOffers() external view returns (Biders[] memory) {... */\n      swap1\n      jump\t// out\n        /* \"Auction.sol\":3449:4359  function refund() external onlyOwner  isFinished {... */\n    tag_19:\n        /* \"Auction.sol\":1915:1925  msg.sender */\n      caller\n        /* \"Auction.sol\":1906:1925  owner == msg.sender */\n      0xffffffffffffffffffffffffffffffffffffffff\n      and\n        /* \"Auction.sol\":1906:1911  owner */\n      immutable(\"0x277ab82e5a4641341820a4a2933a62c1de997e42e92548657ae21b3728d580fe\")\n        /* \"Auction.sol\":1906:1925  owner == msg.sender */\n      0xffffffffffffffffffffffffffffffffffffffff\n      and\n      eq\n        /* \"Auction.sol\":1898:1966  require(owner == msg.sender, \"Only the owner can run this function\") */\n      tag_70\n      jumpi\n      mload(0x40)\n      0x08c379a000000000000000000000000000000000000000000000000000000000\n      dup2\n      mstore\n      0x04\n      add\n      tag_71\n      swap1\n      tag_72\n      jump\t// in\n    tag_71:\n      mload(0x40)\n      dup1\n      swap2\n      sub\n      swap1\n      revert\n    tag_70:\n        /* \"Auction.sol\":1726:1733  endTime */\n      sload(0x04)\n        /* \"Auction.sol\":1708:1723  block.timestamp */\n      timestamp\n        /* \"Auction.sol\":1708:1733  block.timestamp > endTime */\n      gt\n        /* \"Auction.sol\":1700:1758  require(block.timestamp > endTime, \"Bid not finished yet\") */\n      tag_74\n      jumpi\n      mload(0x40)\n      0x08c379a000000000000000000000000000000000000000000000000000000000\n      dup2\n      mstore\n      0x04\n      add\n      tag_75\n      swap1\n      tag_76\n      jump\t// in\n    tag_75:\n      mload(0x40)\n      dup1\n      swap2\n      sub\n      swap1\n      revert\n    tag_74:\n        /* \"Auction.sol\":3509:3529  uint256 lengthOffers */\n      0x00\n        /* \"Auction.sol\":3532:3538  biders */\n      0x02\n        /* \"Auction.sol\":3532:3545  biders.length */\n      dup1\n      sload\n      swap1\n      pop\n        /* \"Auction.sol\":3509:3545  uint256 lengthOffers = biders.length */\n      swap1\n      pop\n        /* \"Auction.sol\":3563:3572  uint256 i */\n      0x00\n        /* \"Auction.sol\":3558:4168  for (uint256 i = 0; i < lengthOffers; i++) {... */\n    tag_78:\n        /* \"Auction.sol\":3582:3594  lengthOffers */\n      dup2\n        /* \"Auction.sol\":3578:3579  i */\n      dup2\n        /* \"Auction.sol\":3578:3594  i < lengthOffers */\n      lt\n        /* \"Auction.sol\":3558:4168  for (uint256 i = 0; i < lengthOffers; i++) {... */\n      iszero\n      tag_79\n      jumpi\n        /* \"Auction.sol\":3616:3627  uint256 fee */\n      0x00\n        /* \"Auction.sol\":3630:3656  _checkFee(biders[i].value) */\n      tag_81\n        /* \"Auction.sol\":3640:3646  biders */\n      0x02\n        /* \"Auction.sol\":3647:3648  i */\n      dup4\n        /* \"Auction.sol\":3640:3649  biders[i] */\n      dup2\n      sload\n      dup2\n      lt\n      tag_82\n      jumpi\n      tag_83\n      tag_84\n      jump\t// in\n    tag_83:\n    tag_82:\n      swap1\n      0x00\n      mstore\n      keccak256(0x00, 0x20)\n      swap1\n      0x02\n      mul\n      add\n        /* \"Auction.sol\":3640:3655  biders[i].value */\n      0x01\n      add\n      sload\n        /* \"Auction.sol\":3630:3639  _checkFee */\n      tag_86\n        /* \"Auction.sol\":3630:3656  _checkFee(biders[i].value) */\n      jump\t// in\n    tag_81:\n        /* \"Auction.sol\":3616:3656  uint256 fee = _checkFee(biders[i].value) */\n      swap1\n      pop\n        /* \"Auction.sol\":3683:3686  fee */\n      dup1\n        /* \"Auction.sol\":3671:3679  feeOwner */\n      0x03\n      0x00\n        /* \"Auction.sol\":3671:3686  feeOwner += fee */\n      dup3\n      dup3\n      sload\n      tag_87\n      swap2\n      swap1\n      tag_38\n      jump\t// in\n    tag_87:\n      swap3\n      pop\n      pop\n      dup2\n      swap1\n      sstore\n      pop\n        /* \"Auction.sol\":3721:3727  biders */\n      0x02\n        /* \"Auction.sol\":3728:3729  i */\n      dup3\n        /* \"Auction.sol\":3721:3730  biders[i] */\n      dup2\n      sload\n      dup2\n      lt\n      tag_88\n      jumpi\n      tag_89\n      tag_84\n      jump\t// in\n    tag_89:\n    tag_88:\n      swap1\n      0x00\n      mstore\n      keccak256(0x00, 0x20)\n      swap1\n      0x02\n      mul\n      add\n        /* \"Auction.sol\":3721:3736  biders[i].bider */\n      0x00\n      add\n      0x00\n      swap1\n      sload\n      swap1\n      0x0100\n      exp\n      swap1\n      div\n      0xffffffffffffffffffffffffffffffffffffffff\n      and\n        /* \"Auction.sol\":3705:3736  winner.bider == biders[i].bider */\n      0xffffffffffffffffffffffffffffffffffffffff\n      and\n        /* \"Auction.sol\":3705:3711  winner */\n      0x00\n        /* \"Auction.sol\":3705:3717  winner.bider */\n      dup1\n      add\n      0x00\n      swap1\n      sload\n      swap1\n      0x0100\n      exp\n      swap1\n      div\n      0xffffffffffffffffffffffffffffffffffffffff\n      and\n        /* \"Auction.sol\":3705:3736  winner.bider == biders[i].bider */\n      0xffffffffffffffffffffffffffffffffffffffff\n      and\n      eq\n        /* \"Auction.sol\":3705:3771  winner.bider == biders[i].bider && winner.value == biders[i].value */\n      dup1\n      iszero\n      tag_91\n      jumpi\n      pop\n        /* \"Auction.sol\":3756:3762  biders */\n      0x02\n        /* \"Auction.sol\":3763:3764  i */\n      dup3\n        /* \"Auction.sol\":3756:3765  biders[i] */\n      dup2\n      sload\n      dup2\n      lt\n      tag_92\n      jumpi\n      tag_93\n      tag_84\n      jump\t// in\n    tag_93:\n    tag_92:\n      swap1\n      0x00\n      mstore\n      keccak256(0x00, 0x20)\n      swap1\n      0x02\n      mul\n      add\n        /* \"Auction.sol\":3756:3771  biders[i].value */\n      0x01\n      add\n      sload\n        /* \"Auction.sol\":3740:3746  winner */\n      0x00\n        /* \"Auction.sol\":3740:3752  winner.value */\n      0x01\n      add\n      sload\n        /* \"Auction.sol\":3740:3771  winner.value == biders[i].value */\n      eq\n        /* \"Auction.sol\":3705:3771  winner.bider == biders[i].bider && winner.value == biders[i].value */\n    tag_91:\n        /* \"Auction.sol\":3701:4157  if (winner.bider == biders[i].bider && winner.value == biders[i].value) {... */\n      iszero\n      tag_95\n      jumpi\n        /* \"Auction.sol\":3819:3820  0 */\n      0x00\n        /* \"Auction.sol\":3792:3799  balance */\n      0x05\n        /* \"Auction.sol\":3792:3816  balance[biders[i].bider] */\n      0x00\n        /* \"Auction.sol\":3800:3806  biders */\n      0x02\n        /* \"Auction.sol\":3807:3808  i */\n      dup6\n        /* \"Auction.sol\":3800:3809  biders[i] */\n      dup2\n      sload\n      dup2\n      lt\n      tag_96\n      jumpi\n      tag_97\n      tag_84\n      jump\t// in\n    tag_97:\n    tag_96:\n      swap1\n      0x00\n      mstore\n      keccak256(0x00, 0x20)\n      swap1\n      0x02\n      mul\n      add\n        /* \"Auction.sol\":3800:3815  biders[i].bider */\n      0x00\n      add\n      0x00\n      swap1\n      sload\n      swap1\n      0x0100\n      exp\n      swap1\n      div\n      0xffffffffffffffffffffffffffffffffffffffff\n      and\n        /* \"Auction.sol\":3792:3816  balance[biders[i].bider] */\n      0xffffffffffffffffffffffffffffffffffffffff\n      and\n      0xffffffffffffffffffffffffffffffffffffffff\n      and\n      dup2\n      mstore\n      0x20\n      add\n      swap1\n      dup2\n      mstore\n      0x20\n      add\n      0x00\n      keccak256\n        /* \"Auction.sol\":3792:3820  balance[biders[i].bider] = 0 */\n      dup2\n      swap1\n      sstore\n      pop\n        /* \"Auction.sol\":3701:4157  if (winner.bider == biders[i].bider && winner.value == biders[i].value) {... */\n      jump(tag_99)\n    tag_95:\n        /* \"Auction.sol\":3892:3893  0 */\n      0x00\n        /* \"Auction.sol\":3865:3872  balance */\n      0x05\n        /* \"Auction.sol\":3865:3889  balance[biders[i].bider] */\n      0x00\n        /* \"Auction.sol\":3873:3879  biders */\n      0x02\n        /* \"Auction.sol\":3880:3881  i */\n      dup6\n        /* \"Auction.sol\":3873:3882  biders[i] */\n      dup2\n      sload\n      dup2\n      lt\n      tag_100\n      jumpi\n      tag_101\n      tag_84\n      jump\t// in\n    tag_101:\n    tag_100:\n      swap1\n      0x00\n      mstore\n      keccak256(0x00, 0x20)\n      swap1\n      0x02\n      mul\n      add\n        /* \"Auction.sol\":3873:3888  biders[i].bider */\n      0x00\n      add\n      0x00\n      swap1\n      sload\n      swap1\n      0x0100\n      exp\n      swap1\n      div\n      0xffffffffffffffffffffffffffffffffffffffff\n      and\n        /* \"Auction.sol\":3865:3889  balance[biders[i].bider] */\n      0xffffffffffffffffffffffffffffffffffffffff\n      and\n      0xffffffffffffffffffffffffffffffffffffffff\n      and\n      dup2\n      mstore\n      0x20\n      add\n      swap1\n      dup2\n      mstore\n      0x20\n      add\n      0x00\n      keccak256\n      sload\n        /* \"Auction.sol\":3865:3893  balance[biders[i].bider] > 0 */\n      gt\n        /* \"Auction.sol\":3861:4142  if (balance[biders[i].bider] > 0) {... */\n      iszero\n      tag_103\n      jumpi\n        /* \"Auction.sol\":3919:3936  bool sentToBidder */\n      0x00\n        /* \"Auction.sol\":3950:3956  biders */\n      0x02\n        /* \"Auction.sol\":3957:3958  i */\n      dup4\n        /* \"Auction.sol\":3950:3959  biders[i] */\n      dup2\n      sload\n      dup2\n      lt\n      tag_104\n      jumpi\n      tag_105\n      tag_84\n      jump\t// in\n    tag_105:\n    tag_104:\n      swap1\n      0x00\n      mstore\n      keccak256(0x00, 0x20)\n      swap1\n      0x02\n      mul\n      add\n        /* \"Auction.sol\":3950:3965  biders[i].bider */\n      0x00\n      add\n      0x00\n      swap1\n      sload\n      swap1\n      0x0100\n      exp\n      swap1\n      div\n      0xffffffffffffffffffffffffffffffffffffffff\n      and\n        /* \"Auction.sol\":3942:3971  payable(biders[i].bider).call */\n      0xffffffffffffffffffffffffffffffffffffffff\n      and\n        /* \"Auction.sol\":3979:3986  balance */\n      0x05\n        /* \"Auction.sol\":3979:4003  balance[biders[i].bider] */\n      0x00\n        /* \"Auction.sol\":3987:3993  biders */\n      0x02\n        /* \"Auction.sol\":3994:3995  i */\n      dup7\n        /* \"Auction.sol\":3987:3996  biders[i] */\n      dup2\n      sload\n      dup2\n      lt\n      tag_107\n      jumpi\n      tag_108\n      tag_84\n      jump\t// in\n    tag_108:\n    tag_107:\n      swap1\n      0x00\n      mstore\n      keccak256(0x00, 0x20)\n      swap1\n      0x02\n      mul\n      add\n        /* \"Auction.sol\":3987:4002  biders[i].bider */\n      0x00\n      add\n      0x00\n      swap1\n      sload\n      swap1\n      0x0100\n      exp\n      swap1\n      div\n      0xffffffffffffffffffffffffffffffffffffffff\n      and\n        /* \"Auction.sol\":3979:4003  balance[biders[i].bider] */\n      0xffffffffffffffffffffffffffffffffffffffff\n      and\n      0xffffffffffffffffffffffffffffffffffffffff\n      and\n      dup2\n      mstore\n      0x20\n      add\n      swap1\n      dup2\n      mstore\n      0x20\n      add\n      0x00\n      keccak256\n      sload\n        /* \"Auction.sol\":3942:4008  payable(biders[i].bider).call{value: balance[biders[i].bider]}(\"\") */\n      mload(0x40)\n      tag_110\n      swap1\n      tag_57\n      jump\t// in\n    tag_110:\n      0x00\n      mload(0x40)\n      dup1\n      dup4\n      sub\n      dup2\n      dup6\n      dup8\n      gas\n      call\n      swap3\n      pop\n      pop\n      pop\n      returndatasize\n      dup1\n      0x00\n      dup2\n      eq\n      tag_113\n      jumpi\n      mload(0x40)\n      swap2\n      pop\n      and(add(returndatasize, 0x3f), not(0x1f))\n      dup3\n      add\n      0x40\n      mstore\n      returndatasize\n      dup3\n      mstore\n      returndatasize\n      0x00\n      0x20\n      dup5\n      add\n      returndatacopy\n      jump(tag_112)\n    tag_113:\n      0x60\n      swap2\n      pop\n    tag_112:\n      pop\n        /* \"Auction.sol\":3918:4008  (bool sentToBidder, ) = payable(biders[i].bider).call{value: balance[biders[i].bider]}(\"\") */\n      pop\n      swap1\n      pop\n        /* \"Auction.sol\":4039:4051  sentToBidder */\n      dup1\n        /* \"Auction.sol\":4031:4071  require(sentToBidder, \"Transfer Failed\") */\n      tag_114\n      jumpi\n      mload(0x40)\n      0x08c379a000000000000000000000000000000000000000000000000000000000\n      dup2\n      mstore\n      0x04\n      add\n      tag_115\n      swap1\n      tag_63\n      jump\t// in\n    tag_115:\n      mload(0x40)\n      dup1\n      swap2\n      sub\n      swap1\n      revert\n    tag_114:\n        /* \"Auction.sol\":4121:4122  0 */\n      0x00\n        /* \"Auction.sol\":4094:4101  balance */\n      0x05\n        /* \"Auction.sol\":4094:4118  balance[biders[i].bider] */\n      0x00\n        /* \"Auction.sol\":4102:4108  biders */\n      0x02\n        /* \"Auction.sol\":4109:4110  i */\n      dup7\n        /* \"Auction.sol\":4102:4111  biders[i] */\n      dup2\n      sload\n      dup2\n      lt\n      tag_116\n      jumpi\n      tag_117\n      tag_84\n      jump\t// in\n    tag_117:\n    tag_116:\n      swap1\n      0x00\n      mstore\n      keccak256(0x00, 0x20)\n      swap1\n      0x02\n      mul\n      add\n        /* \"Auction.sol\":4102:4117  biders[i].bider */\n      0x00\n      add\n      0x00\n      swap1\n      sload\n      swap1\n      0x0100\n      exp\n      swap1\n      div\n      0xffffffffffffffffffffffffffffffffffffffff\n      and\n        /* \"Auction.sol\":4094:4118  balance[biders[i].bider] */\n      0xffffffffffffffffffffffffffffffffffffffff\n      and\n      0xffffffffffffffffffffffffffffffffffffffff\n      and\n      dup2\n      mstore\n      0x20\n      add\n      swap1\n      dup2\n      mstore\n      0x20\n      add\n      0x00\n      keccak256\n        /* \"Auction.sol\":4094:4122  balance[biders[i].bider] = 0 */\n      dup2\n      swap1\n      sstore\n      pop\n        /* \"Auction.sol\":3895:4142  {... */\n      pop\n        /* \"Auction.sol\":3861:4142  if (balance[biders[i].bider] > 0) {... */\n    tag_103:\n        /* \"Auction.sol\":3701:4157  if (winner.bider == biders[i].bider && winner.value == biders[i].value) {... */\n    tag_99:\n        /* \"Auction.sol\":3601:4168  {... */\n      pop\n        /* \"Auction.sol\":3596:3599  i++ */\n      dup1\n      dup1\n      tag_119\n      swap1\n      tag_120\n      jump\t// in\n    tag_119:\n      swap2\n      pop\n      pop\n        /* \"Auction.sol\":3558:4168  for (uint256 i = 0; i < lengthOffers; i++) {... */\n      jump(tag_78)\n    tag_79:\n      pop\n        /* \"Auction.sol\":4181:4197  bool sentToOwner */\n      0x00\n        /* \"Auction.sol\":4211:4216  owner */\n      immutable(\"0x277ab82e5a4641341820a4a2933a62c1de997e42e92548657ae21b3728d580fe\")\n        /* \"Auction.sol\":4203:4222  payable(owner).call */\n      0xffffffffffffffffffffffffffffffffffffffff\n      and\n        /* \"Auction.sol\":4230:4238  feeOwner */\n      sload(0x03)\n        /* \"Auction.sol\":4203:4243  payable(owner).call{value: feeOwner}(\"\") */\n      mload(0x40)\n      tag_121\n      swap1\n      tag_57\n      jump\t// in\n    tag_121:\n      0x00\n      mload(0x40)\n      dup1\n      dup4\n      sub\n      dup2\n      dup6\n      dup8\n      gas\n      call\n      swap3\n      pop\n      pop\n      pop\n      returndatasize\n      dup1\n      0x00\n      dup2\n      eq\n      tag_124\n      jumpi\n      mload(0x40)\n      swap2\n      pop\n      and(add(returndatasize, 0x3f), not(0x1f))\n      dup3\n      add\n      0x40\n      mstore\n      returndatasize\n      dup3\n      mstore\n      returndatasize\n      0x00\n      0x20\n      dup5\n      add\n      returndatacopy\n      jump(tag_123)\n    tag_124:\n      0x60\n      swap2\n      pop\n    tag_123:\n      pop\n        /* \"Auction.sol\":4180:4243  (bool sentToOwner, ) = payable(owner).call{value: feeOwner}(\"\") */\n      pop\n      swap1\n      pop\n        /* \"Auction.sol\":4262:4273  sentToOwner */\n      dup1\n        /* \"Auction.sol\":4254:4293  require(sentToOwner, \"Transfer Failed\") */\n      tag_125\n      jumpi\n      mload(0x40)\n      0x08c379a000000000000000000000000000000000000000000000000000000000\n      dup2\n      mstore\n      0x04\n      add\n      tag_126\n      swap1\n      tag_63\n      jump\t// in\n    tag_126:\n      mload(0x40)\n      dup1\n      swap2\n      sub\n      swap1\n      revert\n    tag_125:\n        /* \"Auction.sol\":4323:4329  winner */\n      0x00\n        /* \"Auction.sol\":4323:4335  winner.bider */\n      dup1\n      add\n      0x00\n      swap1\n      sload\n      swap1\n      0x0100\n      exp\n      swap1\n      div\n      0xffffffffffffffffffffffffffffffffffffffff\n      and\n        /* \"Auction.sol\":4311:4350  FinalWinner(winner.bider, winner.value) */\n      0xffffffffffffffffffffffffffffffffffffffff\n      and\n      0x7a0ca0f54eafb83c8787175794658805fdf3cd42ef7b6d675aa3e3c06ae34758\n        /* \"Auction.sol\":4337:4343  winner */\n      0x00\n        /* \"Auction.sol\":4337:4349  winner.value */\n      0x01\n      add\n      sload\n        /* \"Auction.sol\":4311:4350  FinalWinner(winner.bider, winner.value) */\n      mload(0x40)\n      tag_127\n      swap2\n      swap1\n      tag_40\n      jump\t// in\n    tag_127:\n      mload(0x40)\n      dup1\n      swap2\n      sub\n      swap1\n      log2\n        /* \"Auction.sol\":3498:4359  {... */\n      pop\n      pop\n        /* \"Auction.sol\":3449:4359  function refund() external onlyOwner  isFinished {... */\n      jump\t// out\n        /* \"Auction.sol\":5165:5257  function showWinner() external view returns (Biders memory) {... */\n    tag_22:\n        /* \"Auction.sol\":5210:5223  Biders memory */\n      tag_128\n      tag_129\n      jump\t// in\n    tag_128:\n        /* \"Auction.sol\":5243:5249  winner */\n      0x00\n        /* \"Auction.sol\":5236:5249  return winner */\n      mload(0x40)\n      dup1\n      0x40\n      add\n      0x40\n      mstore\n      swap1\n      dup2\n      0x00\n      dup3\n      add\n      0x00\n      swap1\n      sload\n      swap1\n      0x0100\n      exp\n      swap1\n      div\n      0xffffffffffffffffffffffffffffffffffffffff\n      and\n      0xffffffffffffffffffffffffffffffffffffffff\n      and\n      0xffffffffffffffffffffffffffffffffffffffff\n      and\n      dup2\n      mstore\n      0x20\n      add\n      0x01\n      dup3\n      add\n      sload\n      dup2\n      mstore\n      pop\n      pop\n      swap1\n      pop\n        /* \"Auction.sol\":5165:5257  function showWinner() external view returns (Biders memory) {... */\n      swap1\n      jump\t// out\n        /* \"Auction.sol\":5751:5919  function _checkOffer(uint256 lastOffer) private pure returns (uint256 offerChecked) {... */\n    tag_34:\n        /* \"Auction.sol\":5813:5833  uint256 offerChecked */\n      0x00\n        /* \"Auction.sol\":669:672  100 */\n      0x64\n        /* \"Auction.sol\":576:579  105 */\n      0x69\n        /* \"Auction.sol\":5862:5871  lastOffer */\n      dup4\n        /* \"Auction.sol\":5862:5899  lastOffer * MIN_BID_INCREMENT_PERCENT */\n      tag_132\n      swap2\n      swap1\n      tag_133\n      jump\t// in\n    tag_132:\n        /* \"Auction.sol\":5861:5911  (lastOffer * MIN_BID_INCREMENT_PERCENT) / REFACTOR */\n      tag_134\n      swap2\n      swap1\n      tag_135\n      jump\t// in\n    tag_134:\n        /* \"Auction.sol\":5846:5911  offerChecked = (lastOffer * MIN_BID_INCREMENT_PERCENT) / REFACTOR */\n      swap1\n      pop\n        /* \"Auction.sol\":5751:5919  function _checkOffer(uint256 lastOffer) private pure returns (uint256 offerChecked) {... */\n      swap2\n      swap1\n      pop\n      jump\t// out\n        /* \"Auction.sol\":6104:6240  function _checkFee(uint256 biderValue) private pure returns (uint256 fee) {... */\n    tag_86:\n        /* \"Auction.sol\":6165:6176  uint256 fee */\n      0x00\n        /* \"Auction.sol\":669:672  100 */\n      0x64\n        /* \"Auction.sol\":625:626  2 */\n      0x02\n        /* \"Auction.sol\":6196:6206  biderValue */\n      dup4\n        /* \"Auction.sol\":6196:6220  biderValue * FEE_PERCENT */\n      tag_137\n      swap2\n      swap1\n      tag_133\n      jump\t// in\n    tag_137:\n        /* \"Auction.sol\":6195:6232  (biderValue * FEE_PERCENT) / REFACTOR */\n      tag_138\n      swap2\n      swap1\n      tag_135\n      jump\t// in\n    tag_138:\n        /* \"Auction.sol\":6189:6232  fee = (biderValue * FEE_PERCENT) / REFACTOR */\n      swap1\n      pop\n        /* \"Auction.sol\":6104:6240  function _checkFee(uint256 biderValue) private pure returns (uint256 fee) {... */\n      swap2\n      swap1\n      pop\n      jump\t// out\n    tag_129:\n      mload(0x40)\n      dup1\n      0x40\n      add\n      0x40\n      mstore\n      dup1\n      and(0xffffffffffffffffffffffffffffffffffffffff, 0x00)\n      dup2\n      mstore\n      0x20\n      add\n      0x00\n      dup2\n      mstore\n      pop\n      swap1\n      jump\t// out\n        /* \"#utility.yul\":7:142   */\n    tag_139:\n        /* \"#utility.yul\":95:101   */\n      0x00\n        /* \"#utility.yul\":129:134   */\n      dup2\n        /* \"#utility.yul\":123:135   */\n      mload\n        /* \"#utility.yul\":113:135   */\n      swap1\n      pop\n        /* \"#utility.yul\":7:142   */\n      swap2\n      swap1\n      pop\n      jump\t// out\n        /* \"#utility.yul\":148:353   */\n    tag_140:\n        /* \"#utility.yul\":268:279   */\n      0x00\n        /* \"#utility.yul\":302:308   */\n      dup3\n        /* \"#utility.yul\":297:300   */\n      dup3\n        /* \"#utility.yul\":290:309   */\n      mstore\n        /* \"#utility.yul\":342:346   */\n      0x20\n        /* \"#utility.yul\":337:340   */\n      dup3\n        /* \"#utility.yul\":333:347   */\n      add\n        /* \"#utility.yul\":318:347   */\n      swap1\n      pop\n        /* \"#utility.yul\":148:353   */\n      swap3\n      swap2\n      pop\n      pop\n      jump\t// out\n        /* \"#utility.yul\":359:512   */\n    tag_141:\n        /* \"#utility.yul\":447:451   */\n      0x00\n        /* \"#utility.yul\":470:473   */\n      dup2\n        /* \"#utility.yul\":462:473   */\n      swap1\n      pop\n        /* \"#utility.yul\":500:504   */\n      0x20\n        /* \"#utility.yul\":495:498   */\n      dup3\n        /* \"#utility.yul\":491:505   */\n      add\n        /* \"#utility.yul\":483:505   */\n      swap1\n      pop\n        /* \"#utility.yul\":359:512   */\n      swap2\n      swap1\n      pop\n      jump\t// out\n        /* \"#utility.yul\":518:644   */\n    tag_142:\n        /* \"#utility.yul\":555:562   */\n      0x00\n        /* \"#utility.yul\":595:637   */\n      0xffffffffffffffffffffffffffffffffffffffff\n        /* \"#utility.yul\":588:593   */\n      dup3\n        /* \"#utility.yul\":584:638   */\n      and\n        /* \"#utility.yul\":573:638   */\n      swap1\n      pop\n        /* \"#utility.yul\":518:644   */\n      swap2\n      swap1\n      pop\n      jump\t// out\n        /* \"#utility.yul\":650:746   */\n    tag_143:\n        /* \"#utility.yul\":687:694   */\n      0x00\n        /* \"#utility.yul\":716:740   */\n      tag_177\n        /* \"#utility.yul\":734:739   */\n      dup3\n        /* \"#utility.yul\":716:740   */\n      tag_142\n      jump\t// in\n    tag_177:\n        /* \"#utility.yul\":705:740   */\n      swap1\n      pop\n        /* \"#utility.yul\":650:746   */\n      swap2\n      swap1\n      pop\n      jump\t// out\n        /* \"#utility.yul\":752:860   */\n    tag_144:\n        /* \"#utility.yul\":829:853   */\n      tag_179\n        /* \"#utility.yul\":847:852   */\n      dup2\n        /* \"#utility.yul\":829:853   */\n      tag_143\n      jump\t// in\n    tag_179:\n        /* \"#utility.yul\":824:827   */\n      dup3\n        /* \"#utility.yul\":817:854   */\n      mstore\n        /* \"#utility.yul\":752:860   */\n      pop\n      pop\n      jump\t// out\n        /* \"#utility.yul\":866:943   */\n    tag_145:\n        /* \"#utility.yul\":903:910   */\n      0x00\n        /* \"#utility.yul\":932:937   */\n      dup2\n        /* \"#utility.yul\":921:937   */\n      swap1\n      pop\n        /* \"#utility.yul\":866:943   */\n      swap2\n      swap1\n      pop\n      jump\t// out\n        /* \"#utility.yul\":949:1057   */\n    tag_146:\n        /* \"#utility.yul\":1026:1050   */\n      tag_182\n        /* \"#utility.yul\":1044:1049   */\n      dup2\n        /* \"#utility.yul\":1026:1050   */\n      tag_145\n      jump\t// in\n    tag_182:\n        /* \"#utility.yul\":1021:1024   */\n      dup3\n        /* \"#utility.yul\":1014:1051   */\n      mstore\n        /* \"#utility.yul\":949:1057   */\n      pop\n      pop\n      jump\t// out\n        /* \"#utility.yul\":1117:1608   */\n    tag_147:\n        /* \"#utility.yul\":1246:1250   */\n      0x40\n        /* \"#utility.yul\":1241:1244   */\n      dup3\n        /* \"#utility.yul\":1237:1251   */\n      add\n        /* \"#utility.yul\":1334:1338   */\n      0x00\n        /* \"#utility.yul\":1327:1332   */\n      dup3\n        /* \"#utility.yul\":1323:1339   */\n      add\n        /* \"#utility.yul\":1317:1340   */\n      mload\n        /* \"#utility.yul\":1353:1416   */\n      tag_184\n        /* \"#utility.yul\":1410:1414   */\n      0x00\n        /* \"#utility.yul\":1405:1408   */\n      dup6\n        /* \"#utility.yul\":1401:1415   */\n      add\n        /* \"#utility.yul\":1387:1399   */\n      dup3\n        /* \"#utility.yul\":1353:1416   */\n      tag_144\n      jump\t// in\n    tag_184:\n        /* \"#utility.yul\":1261:1426   */\n      pop\n        /* \"#utility.yul\":1509:1513   */\n      0x20\n        /* \"#utility.yul\":1502:1507   */\n      dup3\n        /* \"#utility.yul\":1498:1514   */\n      add\n        /* \"#utility.yul\":1492:1515   */\n      mload\n        /* \"#utility.yul\":1528:1591   */\n      tag_185\n        /* \"#utility.yul\":1585:1589   */\n      0x20\n        /* \"#utility.yul\":1580:1583   */\n      dup6\n        /* \"#utility.yul\":1576:1590   */\n      add\n        /* \"#utility.yul\":1562:1574   */\n      dup3\n        /* \"#utility.yul\":1528:1591   */\n      tag_146\n      jump\t// in\n    tag_185:\n        /* \"#utility.yul\":1436:1601   */\n      pop\n        /* \"#utility.yul\":1215:1608   */\n      pop\n        /* \"#utility.yul\":1117:1608   */\n      pop\n      pop\n      jump\t// out\n        /* \"#utility.yul\":1614:1877   */\n    tag_148:\n        /* \"#utility.yul\":1725:1735   */\n      0x00\n        /* \"#utility.yul\":1746:1834   */\n      tag_187\n        /* \"#utility.yul\":1830:1833   */\n      dup4\n        /* \"#utility.yul\":1822:1828   */\n      dup4\n        /* \"#utility.yul\":1746:1834   */\n      tag_147\n      jump\t// in\n    tag_187:\n        /* \"#utility.yul\":1866:1870   */\n      0x40\n        /* \"#utility.yul\":1861:1864   */\n      dup4\n        /* \"#utility.yul\":1857:1871   */\n      add\n        /* \"#utility.yul\":1843:1871   */\n      swap1\n      pop\n        /* \"#utility.yul\":1614:1877   */\n      swap3\n      swap2\n      pop\n      pop\n      jump\t// out\n        /* \"#utility.yul\":1883:2017   */\n    tag_149:\n        /* \"#utility.yul\":1974:1978   */\n      0x00\n        /* \"#utility.yul\":2006:2010   */\n      0x20\n        /* \"#utility.yul\":2001:2004   */\n      dup3\n        /* \"#utility.yul\":1997:2011   */\n      add\n        /* \"#utility.yul\":1989:2011   */\n      swap1\n      pop\n        /* \"#utility.yul\":1883:2017   */\n      swap2\n      swap1\n      pop\n      jump\t// out\n        /* \"#utility.yul\":2081:2981   */\n    tag_150:\n        /* \"#utility.yul\":2242:2245   */\n      0x00\n        /* \"#utility.yul\":2271:2346   */\n      tag_190\n        /* \"#utility.yul\":2340:2345   */\n      dup3\n        /* \"#utility.yul\":2271:2346   */\n      tag_139\n      jump\t// in\n    tag_190:\n        /* \"#utility.yul\":2362:2469   */\n      tag_191\n        /* \"#utility.yul\":2462:2468   */\n      dup2\n        /* \"#utility.yul\":2457:2460   */\n      dup6\n        /* \"#utility.yul\":2362:2469   */\n      tag_140\n      jump\t// in\n    tag_191:\n        /* \"#utility.yul\":2355:2469   */\n      swap4\n      pop\n        /* \"#utility.yul\":2493:2570   */\n      tag_192\n        /* \"#utility.yul\":2564:2569   */\n      dup4\n        /* \"#utility.yul\":2493:2570   */\n      tag_141\n      jump\t// in\n    tag_192:\n        /* \"#utility.yul\":2593:2600   */\n      dup1\n        /* \"#utility.yul\":2624:2625   */\n      0x00\n        /* \"#utility.yul\":2609:2956   */\n    tag_193:\n        /* \"#utility.yul\":2634:2640   */\n      dup4\n        /* \"#utility.yul\":2631:2632   */\n      dup2\n        /* \"#utility.yul\":2628:2641   */\n      lt\n        /* \"#utility.yul\":2609:2956   */\n      iszero\n      tag_195\n      jumpi\n        /* \"#utility.yul\":2710:2716   */\n      dup2\n        /* \"#utility.yul\":2704:2717   */\n      mload\n        /* \"#utility.yul\":2737:2842   */\n      tag_196\n        /* \"#utility.yul\":2838:2841   */\n      dup9\n        /* \"#utility.yul\":2823:2836   */\n      dup3\n        /* \"#utility.yul\":2737:2842   */\n      tag_148\n      jump\t// in\n    tag_196:\n        /* \"#utility.yul\":2730:2842   */\n      swap8\n      pop\n        /* \"#utility.yul\":2865:2946   */\n      tag_197\n        /* \"#utility.yul\":2939:2945   */\n      dup4\n        /* \"#utility.yul\":2865:2946   */\n      tag_149\n      jump\t// in\n    tag_197:\n        /* \"#utility.yul\":2855:2946   */\n      swap3\n      pop\n        /* \"#utility.yul\":2669:2956   */\n      pop\n        /* \"#utility.yul\":2656:2657   */\n      0x01\n        /* \"#utility.yul\":2653:2654   */\n      dup2\n        /* \"#utility.yul\":2649:2658   */\n      add\n        /* \"#utility.yul\":2644:2658   */\n      swap1\n      pop\n        /* \"#utility.yul\":2609:2956   */\n      jump(tag_193)\n    tag_195:\n        /* \"#utility.yul\":2613:2627   */\n      pop\n        /* \"#utility.yul\":2972:2975   */\n      dup6\n        /* \"#utility.yul\":2965:2975   */\n      swap4\n      pop\n        /* \"#utility.yul\":2247:2981   */\n      pop\n      pop\n      pop\n        /* \"#utility.yul\":2081:2981   */\n      swap3\n      swap2\n      pop\n      pop\n      jump\t// out\n        /* \"#utility.yul\":2987:3444   */\n    tag_16:\n        /* \"#utility.yul\":3172:3176   */\n      0x00\n        /* \"#utility.yul\":3210:3212   */\n      0x20\n        /* \"#utility.yul\":3199:3208   */\n      dup3\n        /* \"#utility.yul\":3195:3213   */\n      add\n        /* \"#utility.yul\":3187:3213   */\n      swap1\n      pop\n        /* \"#utility.yul\":3259:3268   */\n      dup2\n        /* \"#utility.yul\":3253:3257   */\n      dup2\n        /* \"#utility.yul\":3249:3269   */\n      sub\n        /* \"#utility.yul\":3245:3246   */\n      0x00\n        /* \"#utility.yul\":3234:3243   */\n      dup4\n        /* \"#utility.yul\":3230:3247   */\n      add\n        /* \"#utility.yul\":3223:3270   */\n      mstore\n        /* \"#utility.yul\":3287:3437   */\n      tag_199\n        /* \"#utility.yul\":3432:3436   */\n      dup2\n        /* \"#utility.yul\":3423:3429   */\n      dup5\n        /* \"#utility.yul\":3287:3437   */\n      tag_150\n      jump\t// in\n    tag_199:\n        /* \"#utility.yul\":3279:3437   */\n      swap1\n      pop\n        /* \"#utility.yul\":2987:3444   */\n      swap3\n      swap2\n      pop\n      pop\n      jump\t// out\n        /* \"#utility.yul\":3504:4005   */\n    tag_151:\n        /* \"#utility.yul\":3643:3647   */\n      0x40\n        /* \"#utility.yul\":3638:3641   */\n      dup3\n        /* \"#utility.yul\":3634:3648   */\n      add\n        /* \"#utility.yul\":3731:3735   */\n      0x00\n        /* \"#utility.yul\":3724:3729   */\n      dup3\n        /* \"#utility.yul\":3720:3736   */\n      add\n        /* \"#utility.yul\":3714:3737   */\n      mload\n        /* \"#utility.yul\":3750:3813   */\n      tag_201\n        /* \"#utility.yul\":3807:3811   */\n      0x00\n        /* \"#utility.yul\":3802:3805   */\n      dup6\n        /* \"#utility.yul\":3798:3812   */\n      add\n        /* \"#utility.yul\":3784:3796   */\n      dup3\n        /* \"#utility.yul\":3750:3813   */\n      tag_144\n      jump\t// in\n    tag_201:\n        /* \"#utility.yul\":3658:3823   */\n      pop\n        /* \"#utility.yul\":3906:3910   */\n      0x20\n        /* \"#utility.yul\":3899:3904   */\n      dup3\n        /* \"#utility.yul\":3895:3911   */\n      add\n        /* \"#utility.yul\":3889:3912   */\n      mload\n        /* \"#utility.yul\":3925:3988   */\n      tag_202\n        /* \"#utility.yul\":3982:3986   */\n      0x20\n        /* \"#utility.yul\":3977:3980   */\n      dup6\n        /* \"#utility.yul\":3973:3987   */\n      add\n        /* \"#utility.yul\":3959:3971   */\n      dup3\n        /* \"#utility.yul\":3925:3988   */\n      tag_146\n      jump\t// in\n    tag_202:\n        /* \"#utility.yul\":3833:3998   */\n      pop\n        /* \"#utility.yul\":3612:4005   */\n      pop\n        /* \"#utility.yul\":3504:4005   */\n      pop\n      pop\n      jump\t// out\n        /* \"#utility.yul\":4011:4317   */\n    tag_24:\n        /* \"#utility.yul\":4146:4150   */\n      0x00\n        /* \"#utility.yul\":4184:4186   */\n      0x40\n        /* \"#utility.yul\":4173:4182   */\n      dup3\n        /* \"#utility.yul\":4169:4187   */\n      add\n        /* \"#utility.yul\":4161:4187   */\n      swap1\n      pop\n        /* \"#utility.yul\":4197:4310   */\n      tag_204\n        /* \"#utility.yul\":4307:4308   */\n      0x00\n        /* \"#utility.yul\":4296:4305   */\n      dup4\n        /* \"#utility.yul\":4292:4309   */\n      add\n        /* \"#utility.yul\":4283:4289   */\n      dup5\n        /* \"#utility.yul\":4197:4310   */\n      tag_151\n      jump\t// in\n    tag_204:\n        /* \"#utility.yul\":4011:4317   */\n      swap3\n      swap2\n      pop\n      pop\n      jump\t// out\n        /* \"#utility.yul\":4323:4492   */\n    tag_152:\n        /* \"#utility.yul\":4407:4418   */\n      0x00\n        /* \"#utility.yul\":4441:4447   */\n      dup3\n        /* \"#utility.yul\":4436:4439   */\n      dup3\n        /* \"#utility.yul\":4429:4448   */\n      mstore\n        /* \"#utility.yul\":4481:4485   */\n      0x20\n        /* \"#utility.yul\":4476:4479   */\n      dup3\n        /* \"#utility.yul\":4472:4486   */\n      add\n        /* \"#utility.yul\":4457:4486   */\n      swap1\n      pop\n        /* \"#utility.yul\":4323:4492   */\n      swap3\n      swap2\n      pop\n      pop\n      jump\t// out\n        /* \"#utility.yul\":4498:4660   */\n    tag_153:\n        /* \"#utility.yul\":4638:4652   */\n      0x4269642066696e69736865640000000000000000000000000000000000000000\n        /* \"#utility.yul\":4634:4635   */\n      0x00\n        /* \"#utility.yul\":4626:4632   */\n      dup3\n        /* \"#utility.yul\":4622:4636   */\n      add\n        /* \"#utility.yul\":4615:4653   */\n      mstore\n        /* \"#utility.yul\":4498:4660   */\n      pop\n      jump\t// out\n        /* \"#utility.yul\":4666:5032   */\n    tag_154:\n        /* \"#utility.yul\":4808:4811   */\n      0x00\n        /* \"#utility.yul\":4829:4896   */\n      tag_208\n        /* \"#utility.yul\":4893:4895   */\n      0x0c\n        /* \"#utility.yul\":4888:4891   */\n      dup4\n        /* \"#utility.yul\":4829:4896   */\n      tag_152\n      jump\t// in\n    tag_208:\n        /* \"#utility.yul\":4822:4896   */\n      swap2\n      pop\n        /* \"#utility.yul\":4905:4998   */\n      tag_209\n        /* \"#utility.yul\":4994:4997   */\n      dup3\n        /* \"#utility.yul\":4905:4998   */\n      tag_153\n      jump\t// in\n    tag_209:\n        /* \"#utility.yul\":5023:5025   */\n      0x20\n        /* \"#utility.yul\":5018:5021   */\n      dup3\n        /* \"#utility.yul\":5014:5026   */\n      add\n        /* \"#utility.yul\":5007:5026   */\n      swap1\n      pop\n        /* \"#utility.yul\":4666:5032   */\n      swap2\n      swap1\n      pop\n      jump\t// out\n        /* \"#utility.yul\":5038:5457   */\n    tag_28:\n        /* \"#utility.yul\":5204:5208   */\n      0x00\n        /* \"#utility.yul\":5242:5244   */\n      0x20\n        /* \"#utility.yul\":5231:5240   */\n      dup3\n        /* \"#utility.yul\":5227:5245   */\n      add\n        /* \"#utility.yul\":5219:5245   */\n      swap1\n      pop\n        /* \"#utility.yul\":5291:5300   */\n      dup2\n        /* \"#utility.yul\":5285:5289   */\n      dup2\n        /* \"#utility.yul\":5281:5301   */\n      sub\n        /* \"#utility.yul\":5277:5278   */\n      0x00\n        /* \"#utility.yul\":5266:5275   */\n      dup4\n        /* \"#utility.yul\":5262:5279   */\n      add\n        /* \"#utility.yul\":5255:5302   */\n      mstore\n        /* \"#utility.yul\":5319:5450   */\n      tag_211\n        /* \"#utility.yul\":5445:5449   */\n      dup2\n        /* \"#utility.yul\":5319:5450   */\n      tag_154\n      jump\t// in\n    tag_211:\n        /* \"#utility.yul\":5311:5450   */\n      swap1\n      pop\n        /* \"#utility.yul\":5038:5457   */\n      swap2\n      swap1\n      pop\n      jump\t// out\n        /* \"#utility.yul\":5463:5635   */\n    tag_155:\n        /* \"#utility.yul\":5603:5627   */\n      0x496e76616c69642073656e646572206164647265737300000000000000000000\n        /* \"#utility.yul\":5599:5600   */\n      0x00\n        /* \"#utility.yul\":5591:5597   */\n      dup3\n        /* \"#utility.yul\":5587:5601   */\n      add\n        /* \"#utility.yul\":5580:5628   */\n      mstore\n        /* \"#utility.yul\":5463:5635   */\n      pop\n      jump\t// out\n        /* \"#utility.yul\":5641:6007   */\n    tag_156:\n        /* \"#utility.yul\":5783:5786   */\n      0x00\n        /* \"#utility.yul\":5804:5871   */\n      tag_214\n        /* \"#utility.yul\":5868:5870   */\n      0x16\n        /* \"#utility.yul\":5863:5866   */\n      dup4\n        /* \"#utility.yul\":5804:5871   */\n      tag_152\n      jump\t// in\n    tag_214:\n        /* \"#utility.yul\":5797:5871   */\n      swap2\n      pop\n        /* \"#utility.yul\":5880:5973   */\n      tag_215\n        /* \"#utility.yul\":5969:5972   */\n      dup3\n        /* \"#utility.yul\":5880:5973   */\n      tag_155\n      jump\t// in\n    tag_215:\n        /* \"#utility.yul\":5998:6000   */\n      0x20\n        /* \"#utility.yul\":5993:5996   */\n      dup3\n        /* \"#utility.yul\":5989:6001   */\n      add\n        /* \"#utility.yul\":5982:6001   */\n      swap1\n      pop\n        /* \"#utility.yul\":5641:6007   */\n      swap2\n      swap1\n      pop\n      jump\t// out\n        /* \"#utility.yul\":6013:6432   */\n    tag_32:\n        /* \"#utility.yul\":6179:6183   */\n      0x00\n        /* \"#utility.yul\":6217:6219   */\n      0x20\n        /* \"#utility.yul\":6206:6215   */\n      dup3\n        /* \"#utility.yul\":6202:6220   */\n      add\n        /* \"#utility.yul\":6194:6220   */\n      swap1\n      pop\n        /* \"#utility.yul\":6266:6275   */\n      dup2\n        /* \"#utility.yul\":6260:6264   */\n      dup2\n        /* \"#utility.yul\":6256:6276   */\n      sub\n        /* \"#utility.yul\":6252:6253   */\n      0x00\n        /* \"#utility.yul\":6241:6250   */\n      dup4\n        /* \"#utility.yul\":6237:6254   */\n      add\n        /* \"#utility.yul\":6230:6277   */\n      mstore\n        /* \"#utility.yul\":6294:6425   */\n      tag_217\n        /* \"#utility.yul\":6420:6424   */\n      dup2\n        /* \"#utility.yul\":6294:6425   */\n      tag_156\n      jump\t// in\n    tag_217:\n        /* \"#utility.yul\":6286:6425   */\n      swap1\n      pop\n        /* \"#utility.yul\":6013:6432   */\n      swap2\n      swap1\n      pop\n      jump\t// out\n        /* \"#utility.yul\":6438:6618   */\n    tag_157:\n        /* \"#utility.yul\":6486:6563   */\n      0x4e487b7100000000000000000000000000000000000000000000000000000000\n        /* \"#utility.yul\":6483:6484   */\n      0x00\n        /* \"#utility.yul\":6476:6564   */\n      mstore\n        /* \"#utility.yul\":6583:6587   */\n      0x11\n        /* \"#utility.yul\":6580:6581   */\n      0x04\n        /* \"#utility.yul\":6573:6588   */\n      mstore\n        /* \"#utility.yul\":6607:6611   */\n      0x24\n        /* \"#utility.yul\":6604:6605   */\n      0x00\n        /* \"#utility.yul\":6597:6612   */\n      revert\n        /* \"#utility.yul\":6624:6815   */\n    tag_38:\n        /* \"#utility.yul\":6664:6667   */\n      0x00\n        /* \"#utility.yul\":6683:6703   */\n      tag_220\n        /* \"#utility.yul\":6701:6702   */\n      dup3\n        /* \"#utility.yul\":6683:6703   */\n      tag_145\n      jump\t// in\n    tag_220:\n        /* \"#utility.yul\":6678:6703   */\n      swap2\n      pop\n        /* \"#utility.yul\":6717:6737   */\n      tag_221\n        /* \"#utility.yul\":6735:6736   */\n      dup4\n        /* \"#utility.yul\":6717:6737   */\n      tag_145\n      jump\t// in\n    tag_221:\n        /* \"#utility.yul\":6712:6737   */\n      swap3\n      pop\n        /* \"#utility.yul\":6760:6761   */\n      dup3\n        /* \"#utility.yul\":6757:6758   */\n      dup3\n        /* \"#utility.yul\":6753:6762   */\n      add\n        /* \"#utility.yul\":6746:6762   */\n      swap1\n      pop\n        /* \"#utility.yul\":6781:6784   */\n      dup1\n        /* \"#utility.yul\":6778:6779   */\n      dup3\n        /* \"#utility.yul\":6775:6785   */\n      gt\n        /* \"#utility.yul\":6772:6808   */\n      iszero\n      tag_222\n      jumpi\n        /* \"#utility.yul\":6788:6806   */\n      tag_223\n      tag_157\n      jump\t// in\n    tag_223:\n        /* \"#utility.yul\":6772:6808   */\n    tag_222:\n        /* \"#utility.yul\":6624:6815   */\n      swap3\n      swap2\n      pop\n      pop\n      jump\t// out\n        /* \"#utility.yul\":6821:6939   */\n    tag_158:\n        /* \"#utility.yul\":6908:6932   */\n      tag_225\n        /* \"#utility.yul\":6926:6931   */\n      dup2\n        /* \"#utility.yul\":6908:6932   */\n      tag_145\n      jump\t// in\n    tag_225:\n        /* \"#utility.yul\":6903:6906   */\n      dup3\n        /* \"#utility.yul\":6896:6933   */\n      mstore\n        /* \"#utility.yul\":6821:6939   */\n      pop\n      pop\n      jump\t// out\n        /* \"#utility.yul\":6945:7167   */\n    tag_40:\n        /* \"#utility.yul\":7038:7042   */\n      0x00\n        /* \"#utility.yul\":7076:7078   */\n      0x20\n        /* \"#utility.yul\":7065:7074   */\n      dup3\n        /* \"#utility.yul\":7061:7079   */\n      add\n        /* \"#utility.yul\":7053:7079   */\n      swap1\n      pop\n        /* \"#utility.yul\":7089:7160   */\n      tag_227\n        /* \"#utility.yul\":7157:7158   */\n      0x00\n        /* \"#utility.yul\":7146:7155   */\n      dup4\n        /* \"#utility.yul\":7142:7159   */\n      add\n        /* \"#utility.yul\":7133:7139   */\n      dup5\n        /* \"#utility.yul\":7089:7160   */\n      tag_158\n      jump\t// in\n    tag_227:\n        /* \"#utility.yul\":6945:7167   */\n      swap3\n      swap2\n      pop\n      pop\n      jump\t// out\n        /* \"#utility.yul\":7173:7367   */\n    tag_42:\n        /* \"#utility.yul\":7213:7217   */\n      0x00\n        /* \"#utility.yul\":7233:7253   */\n      tag_229\n        /* \"#utility.yul\":7251:7252   */\n      dup3\n        /* \"#utility.yul\":7233:7253   */\n      tag_145\n      jump\t// in\n    tag_229:\n        /* \"#utility.yul\":7228:7253   */\n      swap2\n      pop\n        /* \"#utility.yul\":7267:7287   */\n      tag_230\n        /* \"#utility.yul\":7285:7286   */\n      dup4\n        /* \"#utility.yul\":7267:7287   */\n      tag_145\n      jump\t// in\n    tag_230:\n        /* \"#utility.yul\":7262:7287   */\n      swap3\n      pop\n        /* \"#utility.yul\":7311:7312   */\n      dup3\n        /* \"#utility.yul\":7308:7309   */\n      dup3\n        /* \"#utility.yul\":7304:7313   */\n      sub\n        /* \"#utility.yul\":7296:7313   */\n      swap1\n      pop\n        /* \"#utility.yul\":7335:7336   */\n      dup2\n        /* \"#utility.yul\":7329:7333   */\n      dup2\n        /* \"#utility.yul\":7326:7337   */\n      gt\n        /* \"#utility.yul\":7323:7360   */\n      iszero\n      tag_231\n      jumpi\n        /* \"#utility.yul\":7340:7358   */\n      tag_232\n      tag_157\n      jump\t// in\n    tag_232:\n        /* \"#utility.yul\":7323:7360   */\n    tag_231:\n        /* \"#utility.yul\":7173:7367   */\n      swap3\n      swap2\n      pop\n      pop\n      jump\t// out\n        /* \"#utility.yul\":7373:7542   */\n    tag_159:\n        /* \"#utility.yul\":7513:7534   */\n      0x4e6f7468696e6720746f20776974686472617700000000000000000000000000\n        /* \"#utility.yul\":7509:7510   */\n      0x00\n        /* \"#utility.yul\":7501:7507   */\n      dup3\n        /* \"#utility.yul\":7497:7511   */\n      add\n        /* \"#utility.yul\":7490:7535   */\n      mstore\n        /* \"#utility.yul\":7373:7542   */\n      pop\n      jump\t// out\n        /* \"#utility.yul\":7548:7914   */\n    tag_160:\n        /* \"#utility.yul\":7690:7693   */\n      0x00\n        /* \"#utility.yul\":7711:7778   */\n      tag_235\n        /* \"#utility.yul\":7775:7777   */\n      0x13\n        /* \"#utility.yul\":7770:7773   */\n      dup4\n        /* \"#utility.yul\":7711:7778   */\n      tag_152\n      jump\t// in\n    tag_235:\n        /* \"#utility.yul\":7704:7778   */\n      swap2\n      pop\n        /* \"#utility.yul\":7787:7880   */\n      tag_236\n        /* \"#utility.yul\":7876:7879   */\n      dup3\n        /* \"#utility.yul\":7787:7880   */\n      tag_159\n      jump\t// in\n    tag_236:\n        /* \"#utility.yul\":7905:7907   */\n      0x20\n        /* \"#utility.yul\":7900:7903   */\n      dup3\n        /* \"#utility.yul\":7896:7908   */\n      add\n        /* \"#utility.yul\":7889:7908   */\n      swap1\n      pop\n        /* \"#utility.yul\":7548:7914   */\n      swap2\n      swap1\n      pop\n      jump\t// out\n        /* \"#utility.yul\":7920:8339   */\n    tag_52:\n        /* \"#utility.yul\":8086:8090   */\n      0x00\n        /* \"#utility.yul\":8124:8126   */\n      0x20\n        /* \"#utility.yul\":8113:8122   */\n      dup3\n        /* \"#utility.yul\":8109:8127   */\n      add\n        /* \"#utility.yul\":8101:8127   */\n      swap1\n      pop\n        /* \"#utility.yul\":8173:8182   */\n      dup2\n        /* \"#utility.yul\":8167:8171   */\n      dup2\n        /* \"#utility.yul\":8163:8183   */\n      sub\n        /* \"#utility.yul\":8159:8160   */\n      0x00\n        /* \"#utility.yul\":8148:8157   */\n      dup4\n        /* \"#utility.yul\":8144:8161   */\n      add\n        /* \"#utility.yul\":8137:8184   */\n      mstore\n        /* \"#utility.yul\":8201:8332   */\n      tag_238\n        /* \"#utility.yul\":8327:8331   */\n      dup2\n        /* \"#utility.yul\":8201:8332   */\n      tag_160\n      jump\t// in\n    tag_238:\n        /* \"#utility.yul\":8193:8332   */\n      swap1\n      pop\n        /* \"#utility.yul\":7920:8339   */\n      swap2\n      swap1\n      pop\n      jump\t// out\n        /* \"#utility.yul\":8345:8492   */\n    tag_161:\n        /* \"#utility.yul\":8446:8457   */\n      0x00\n        /* \"#utility.yul\":8483:8486   */\n      dup2\n        /* \"#utility.yul\":8468:8486   */\n      swap1\n      pop\n        /* \"#utility.yul\":8345:8492   */\n      swap3\n      swap2\n      pop\n      pop\n      jump\t// out\n        /* \"#utility.yul\":8498:8612   */\n    tag_162:\n      pop\n      jump\t// out\n        /* \"#utility.yul\":8618:9016   */\n    tag_163:\n        /* \"#utility.yul\":8777:8780   */\n      0x00\n        /* \"#utility.yul\":8798:8881   */\n      tag_242\n        /* \"#utility.yul\":8879:8880   */\n      0x00\n        /* \"#utility.yul\":8874:8877   */\n      dup4\n        /* \"#utility.yul\":8798:8881   */\n      tag_161\n      jump\t// in\n    tag_242:\n        /* \"#utility.yul\":8791:8881   */\n      swap2\n      pop\n        /* \"#utility.yul\":8890:8983   */\n      tag_243\n        /* \"#utility.yul\":8979:8982   */\n      dup3\n        /* \"#utility.yul\":8890:8983   */\n      tag_162\n      jump\t// in\n    tag_243:\n        /* \"#utility.yul\":9008:9009   */\n      0x00\n        /* \"#utility.yul\":9003:9006   */\n      dup3\n        /* \"#utility.yul\":8999:9010   */\n      add\n        /* \"#utility.yul\":8992:9010   */\n      swap1\n      pop\n        /* \"#utility.yul\":8618:9016   */\n      swap2\n      swap1\n      pop\n      jump\t// out\n        /* \"#utility.yul\":9022:9401   */\n    tag_57:\n        /* \"#utility.yul\":9206:9209   */\n      0x00\n        /* \"#utility.yul\":9228:9375   */\n      tag_245\n        /* \"#utility.yul\":9371:9374   */\n      dup3\n        /* \"#utility.yul\":9228:9375   */\n      tag_163\n      jump\t// in\n    tag_245:\n        /* \"#utility.yul\":9221:9375   */\n      swap2\n      pop\n        /* \"#utility.yul\":9392:9395   */\n      dup2\n        /* \"#utility.yul\":9385:9395   */\n      swap1\n      pop\n        /* \"#utility.yul\":9022:9401   */\n      swap2\n      swap1\n      pop\n      jump\t// out\n        /* \"#utility.yul\":9407:9572   */\n    tag_164:\n        /* \"#utility.yul\":9547:9564   */\n      0x5472616e73666572204661696c65640000000000000000000000000000000000\n        /* \"#utility.yul\":9543:9544   */\n      0x00\n        /* \"#utility.yul\":9535:9541   */\n      dup3\n        /* \"#utility.yul\":9531:9545   */\n      add\n        /* \"#utility.yul\":9524:9565   */\n      mstore\n        /* \"#utility.yul\":9407:9572   */\n      pop\n      jump\t// out\n        /* \"#utility.yul\":9578:9944   */\n    tag_165:\n        /* \"#utility.yul\":9720:9723   */\n      0x00\n        /* \"#utility.yul\":9741:9808   */\n      tag_248\n        /* \"#utility.yul\":9805:9807   */\n      0x0f\n        /* \"#utility.yul\":9800:9803   */\n      dup4\n        /* \"#utility.yul\":9741:9808   */\n      tag_152\n      jump\t// in\n    tag_248:\n        /* \"#utility.yul\":9734:9808   */\n      swap2\n      pop\n        /* \"#utility.yul\":9817:9910   */\n      tag_249\n        /* \"#utility.yul\":9906:9909   */\n      dup3\n        /* \"#utility.yul\":9817:9910   */\n      tag_164\n      jump\t// in\n    tag_249:\n        /* \"#utility.yul\":9935:9937   */\n      0x20\n        /* \"#utility.yul\":9930:9933   */\n      dup3\n        /* \"#utility.yul\":9926:9938   */\n      add\n        /* \"#utility.yul\":9919:9938   */\n      swap1\n      pop\n        /* \"#utility.yul\":9578:9944   */\n      swap2\n      swap1\n      pop\n      jump\t// out\n        /* \"#utility.yul\":9950:10369   */\n    tag_63:\n        /* \"#utility.yul\":10116:10120   */\n      0x00\n        /* \"#utility.yul\":10154:10156   */\n      0x20\n        /* \"#utility.yul\":10143:10152   */\n      dup3\n        /* \"#utility.yul\":10139:10157   */\n      add\n        /* \"#utility.yul\":10131:10157   */\n      swap1\n      pop\n        /* \"#utility.yul\":10203:10212   */\n      dup2\n        /* \"#utility.yul\":10197:10201   */\n      dup2\n        /* \"#utility.yul\":10193:10213   */\n      sub\n        /* \"#utility.yul\":10189:10190   */\n      0x00\n        /* \"#utility.yul\":10178:10187   */\n      dup4\n        /* \"#utility.yul\":10174:10191   */\n      add\n        /* \"#utility.yul\":10167:10214   */\n      mstore\n        /* \"#utility.yul\":10231:10362   */\n      tag_251\n        /* \"#utility.yul\":10357:10361   */\n      dup2\n        /* \"#utility.yul\":10231:10362   */\n      tag_165\n      jump\t// in\n    tag_251:\n        /* \"#utility.yul\":10223:10362   */\n      swap1\n      pop\n        /* \"#utility.yul\":9950:10369   */\n      swap2\n      swap1\n      pop\n      jump\t// out\n        /* \"#utility.yul\":10375:10598   */\n    tag_166:\n        /* \"#utility.yul\":10515:10549   */\n      0x4f6e6c7920746865206f776e65722063616e2072756e20746869732066756e63\n        /* \"#utility.yul\":10511:10512   */\n      0x00\n        /* \"#utility.yul\":10503:10509   */\n      dup3\n        /* \"#utility.yul\":10499:10513   */\n      add\n        /* \"#utility.yul\":10492:10550   */\n      mstore\n        /* \"#utility.yul\":10584:10590   */\n      0x74696f6e00000000000000000000000000000000000000000000000000000000\n        /* \"#utility.yul\":10579:10581   */\n      0x20\n        /* \"#utility.yul\":10571:10577   */\n      dup3\n        /* \"#utility.yul\":10567:10582   */\n      add\n        /* \"#utility.yul\":10560:10591   */\n      mstore\n        /* \"#utility.yul\":10375:10598   */\n      pop\n      jump\t// out\n        /* \"#utility.yul\":10604:10970   */\n    tag_167:\n        /* \"#utility.yul\":10746:10749   */\n      0x00\n        /* \"#utility.yul\":10767:10834   */\n      tag_254\n        /* \"#utility.yul\":10831:10833   */\n      0x24\n        /* \"#utility.yul\":10826:10829   */\n      dup4\n        /* \"#utility.yul\":10767:10834   */\n      tag_152\n      jump\t// in\n    tag_254:\n        /* \"#utility.yul\":10760:10834   */\n      swap2\n      pop\n        /* \"#utility.yul\":10843:10936   */\n      tag_255\n        /* \"#utility.yul\":10932:10935   */\n      dup3\n        /* \"#utility.yul\":10843:10936   */\n      tag_166\n      jump\t// in\n    tag_255:\n        /* \"#utility.yul\":10961:10963   */\n      0x40\n        /* \"#utility.yul\":10956:10959   */\n      dup3\n        /* \"#utility.yul\":10952:10964   */\n      add\n        /* \"#utility.yul\":10945:10964   */\n      swap1\n      pop\n        /* \"#utility.yul\":10604:10970   */\n      swap2\n      swap1\n      pop\n      jump\t// out\n        /* \"#utility.yul\":10976:11395   */\n    tag_72:\n        /* \"#utility.yul\":11142:11146   */\n      0x00\n        /* \"#utility.yul\":11180:11182   */\n      0x20\n        /* \"#utility.yul\":11169:11178   */\n      dup3\n        /* \"#utility.yul\":11165:11183   */\n      add\n        /* \"#utility.yul\":11157:11183   */\n      swap1\n      pop\n        /* \"#utility.yul\":11229:11238   */\n      dup2\n        /* \"#utility.yul\":11223:11227   */\n      dup2\n        /* \"#utility.yul\":11219:11239   */\n      sub\n        /* \"#utility.yul\":11215:11216   */\n      0x00\n        /* \"#utility.yul\":11204:11213   */\n      dup4\n        /* \"#utility.yul\":11200:11217   */\n      add\n        /* \"#utility.yul\":11193:11240   */\n      mstore\n        /* \"#utility.yul\":11257:11388   */\n      tag_257\n        /* \"#utility.yul\":11383:11387   */\n      dup2\n        /* \"#utility.yul\":11257:11388   */\n      tag_167\n      jump\t// in\n    tag_257:\n        /* \"#utility.yul\":11249:11388   */\n      swap1\n      pop\n        /* \"#utility.yul\":10976:11395   */\n      swap2\n      swap1\n      pop\n      jump\t// out\n        /* \"#utility.yul\":11401:11571   */\n    tag_168:\n        /* \"#utility.yul\":11541:11563   */\n      0x426964206e6f742066696e697368656420796574000000000000000000000000\n        /* \"#utility.yul\":11537:11538   */\n      0x00\n        /* \"#utility.yul\":11529:11535   */\n      dup3\n        /* \"#utility.yul\":11525:11539   */\n      add\n        /* \"#utility.yul\":11518:11564   */\n      mstore\n        /* \"#utility.yul\":11401:11571   */\n      pop\n      jump\t// out\n        /* \"#utility.yul\":11577:11943   */\n    tag_169:\n        /* \"#utility.yul\":11719:11722   */\n      0x00\n        /* \"#utility.yul\":11740:11807   */\n      tag_260\n        /* \"#utility.yul\":11804:11806   */\n      0x14\n        /* \"#utility.yul\":11799:11802   */\n      dup4\n        /* \"#utility.yul\":11740:11807   */\n      tag_152\n      jump\t// in\n    tag_260:\n        /* \"#utility.yul\":11733:11807   */\n      swap2\n      pop\n        /* \"#utility.yul\":11816:11909   */\n      tag_261\n        /* \"#utility.yul\":11905:11908   */\n      dup3\n        /* \"#utility.yul\":11816:11909   */\n      tag_168\n      jump\t// in\n    tag_261:\n        /* \"#utility.yul\":11934:11936   */\n      0x20\n        /* \"#utility.yul\":11929:11932   */\n      dup3\n        /* \"#utility.yul\":11925:11937   */\n      add\n        /* \"#utility.yul\":11918:11937   */\n      swap1\n      pop\n        /* \"#utility.yul\":11577:11943   */\n      swap2\n      swap1\n      pop\n      jump\t// out\n        /* \"#utility.yul\":11949:12368   */\n    tag_76:\n        /* \"#utility.yul\":12115:12119   */\n      0x00\n        /* \"#utility.yul\":12153:12155   */\n      0x20\n        /* \"#utility.yul\":12142:12151   */\n      dup3\n        /* \"#utility.yul\":12138:12156   */\n      add\n        /* \"#utility.yul\":12130:12156   */\n      swap1\n      pop\n        /* \"#utility.yul\":12202:12211   */\n      dup2\n        /* \"#utility.yul\":12196:12200   */\n      dup2\n        /* \"#utility.yul\":12192:12212   */\n      sub\n        /* \"#utility.yul\":12188:12189   */\n      0x00\n        /* \"#utility.yul\":12177:12186   */\n      dup4\n        /* \"#utility.yul\":12173:12190   */\n      add\n        /* \"#utility.yul\":12166:12213   */\n      mstore\n        /* \"#utility.yul\":12230:12361   */\n      tag_263\n        /* \"#utility.yul\":12356:12360   */\n      dup2\n        /* \"#utility.yul\":12230:12361   */\n      tag_169\n      jump\t// in\n    tag_263:\n        /* \"#utility.yul\":12222:12361   */\n      swap1\n      pop\n        /* \"#utility.yul\":11949:12368   */\n      swap2\n      swap1\n      pop\n      jump\t// out\n        /* \"#utility.yul\":12374:12554   */\n    tag_84:\n        /* \"#utility.yul\":12422:12499   */\n      0x4e487b7100000000000000000000000000000000000000000000000000000000\n        /* \"#utility.yul\":12419:12420   */\n      0x00\n        /* \"#utility.yul\":12412:12500   */\n      mstore\n        /* \"#utility.yul\":12519:12523   */\n      0x32\n        /* \"#utility.yul\":12516:12517   */\n      0x04\n        /* \"#utility.yul\":12509:12524   */\n      mstore\n        /* \"#utility.yul\":12543:12547   */\n      0x24\n        /* \"#utility.yul\":12540:12541   */\n      0x00\n        /* \"#utility.yul\":12533:12548   */\n      revert\n        /* \"#utility.yul\":12560:12793   */\n    tag_120:\n        /* \"#utility.yul\":12599:12602   */\n      0x00\n        /* \"#utility.yul\":12622:12646   */\n      tag_266\n        /* \"#utility.yul\":12640:12645   */\n      dup3\n        /* \"#utility.yul\":12622:12646   */\n      tag_145\n      jump\t// in\n    tag_266:\n        /* \"#utility.yul\":12613:12646   */\n      swap2\n      pop\n        /* \"#utility.yul\":12668:12734   */\n      0xffffffffffffffffffffffffffffffffffffffffffffffffffffffffffffffff\n        /* \"#utility.yul\":12661:12666   */\n      dup3\n        /* \"#utility.yul\":12658:12735   */\n      sub\n        /* \"#utility.yul\":12655:12758   */\n      tag_267\n      jumpi\n        /* \"#utility.yul\":12738:12756   */\n      tag_268\n      tag_157\n      jump\t// in\n    tag_268:\n        /* \"#utility.yul\":12655:12758   */\n    tag_267:\n        /* \"#utility.yul\":12785:12786   */\n      0x01\n        /* \"#utility.yul\":12778:12783   */\n      dup3\n        /* \"#utility.yul\":12774:12787   */\n      add\n        /* \"#utility.yul\":12767:12787   */\n      swap1\n      pop\n        /* \"#utility.yul\":12560:12793   */\n      swap2\n      swap1\n      pop\n      jump\t// out\n        /* \"#utility.yul\":12799:13209   */\n    tag_133:\n        /* \"#utility.yul\":12839:12846   */\n      0x00\n        /* \"#utility.yul\":12862:12882   */\n      tag_270\n        /* \"#utility.yul\":12880:12881   */\n      dup3\n        /* \"#utility.yul\":12862:12882   */\n      tag_145\n      jump\t// in\n    tag_270:\n        /* \"#utility.yul\":12857:12882   */\n      swap2\n      pop\n        /* \"#utility.yul\":12896:12916   */\n      tag_271\n        /* \"#utility.yul\":12914:12915   */\n      dup4\n        /* \"#utility.yul\":12896:12916   */\n      tag_145\n      jump\t// in\n    tag_271:\n        /* \"#utility.yul\":12891:12916   */\n      swap3\n      pop\n        /* \"#utility.yul\":12951:12952   */\n      dup3\n        /* \"#utility.yul\":12948:12949   */\n      dup3\n        /* \"#utility.yul\":12944:12953   */\n      mul\n        /* \"#utility.yul\":12973:13003   */\n      tag_272\n        /* \"#utility.yul\":12991:13002   */\n      dup2\n        /* \"#utility.yul\":12973:13003   */\n      tag_145\n      jump\t// in\n    tag_272:\n        /* \"#utility.yul\":12962:13003   */\n      swap2\n      pop\n        /* \"#utility.yul\":13152:13153   */\n      dup3\n        /* \"#utility.yul\":13143:13150   */\n      dup3\n        /* \"#utility.yul\":13139:13154   */\n      div\n        /* \"#utility.yul\":13136:13137   */\n      dup5\n        /* \"#utility.yul\":13133:13155   */\n      eq\n        /* \"#utility.yul\":13113:13114   */\n      dup4\n        /* \"#utility.yul\":13106:13115   */\n      iszero\n        /* \"#utility.yul\":13086:13169   */\n      or\n        /* \"#utility.yul\":13063:13202   */\n      tag_273\n      jumpi\n        /* \"#utility.yul\":13182:13200   */\n      tag_274\n      tag_157\n      jump\t// in\n    tag_274:\n        /* \"#utility.yul\":13063:13202   */\n    tag_273:\n        /* \"#utility.yul\":12847:13209   */\n      pop\n        /* \"#utility.yul\":12799:13209   */\n      swap3\n      swap2\n      pop\n      pop\n      jump\t// out\n        /* \"#utility.yul\":13215:13395   */\n    tag_170:\n        /* \"#utility.yul\":13263:13340   */\n      0x4e487b7100000000000000000000000000000000000000000000000000000000\n        /* \"#utility.yul\":13260:13261   */\n      0x00\n        /* \"#utility.yul\":13253:13341   */\n      mstore\n        /* \"#utility.yul\":13360:13364   */\n      0x12\n        /* \"#utility.yul\":13357:13358   */\n      0x04\n        /* \"#utility.yul\":13350:13365   */\n      mstore\n        /* \"#utility.yul\":13384:13388   */\n      0x24\n        /* \"#utility.yul\":13381:13382   */\n      0x00\n        /* \"#utility.yul\":13374:13389   */\n      revert\n        /* \"#utility.yul\":13401:13586   */\n    tag_135:\n        /* \"#utility.yul\":13441:13442   */\n      0x00\n        /* \"#utility.yul\":13458:13478   */\n      tag_277\n        /* \"#utility.yul\":13476:13477   */\n      dup3\n        /* \"#utility.yul\":13458:13478   */\n      tag_145\n      jump\t// in\n    tag_277:\n        /* \"#utility.yul\":13453:13478   */\n      swap2\n      pop\n        /* \"#utility.yul\":13492:13512   */\n      tag_278\n        /* \"#utility.yul\":13510:13511   */\n      dup4\n        /* \"#utility.yul\":13492:13512   */\n      tag_145\n      jump\t// in\n    tag_278:\n        /* \"#utility.yul\":13487:13512   */\n      swap3\n      pop\n        /* \"#utility.yul\":13531:13532   */\n      dup3\n        /* \"#utility.yul\":13521:13556   */\n      tag_279\n      jumpi\n        /* \"#utility.yul\":13536:13554   */\n      tag_280\n      tag_170\n      jump\t// in\n    tag_280:\n        /* \"#utility.yul\":13521:13556   */\n    tag_279:\n        /* \"#utility.yul\":13578:13579   */\n      dup3\n        /* \"#utility.yul\":13575:13576   */\n      dup3\n        /* \"#utility.yul\":13571:13580   */\n      div\n        /* \"#utility.yul\":13566:13580   */\n      swap1\n      pop\n        /* \"#utility.yul\":13401:13586   */\n      swap3\n      swap2\n      pop\n      pop\n      jump\t// out\n\n    auxdata: 0xa2646970667358221220d49434a78977fbac29ed82e530a66ddd75169ad74fdb72b68425c73022deface64736f6c63430008120033\n}\n",
				"bytecode": {
					"linkReferences": {},
					"object": "60c06040523480156200001157600080fd5b503373ffffffffffffffffffffffffffffffffffffffff1660808173ffffffffffffffffffffffffffffffffffffffff16815250504260a0818152505062093a8060a051620000619190620000a6565b600481905550620000e1565b6000819050919050565b7f4e487b7100000000000000000000000000000000000000000000000000000000600052601160045260246000fd5b6000620000b3826200006d565b9150620000c0836200006d565b9250828201905080821115620000db57620000da62000077565b5b92915050565b60805160a0516115a96200010b600039600050506000818161079b0152610cbd01526115a96000f3fe60806040526004361061004a5760003560e01c80631998aeef1461004f5780631ce2bcf514610059578063534823bf14610070578063590e1ae31461009b578063b7e03264146100b2575b600080fd5b6100576100dd565b005b34801561006557600080fd5b5061006e6103c3565b005b34801561007c57600080fd5b506100856106c3565b6040516100929190611028565b60405180910390f35b3480156100a757600080fd5b506100b0610782565b005b3480156100be57600080fd5b506100c7610e02565b6040516100d49190611079565b60405180910390f35b6004544210610121576040517f08c379a0000000000000000000000000000000000000000000000000000000008152600401610118906110f1565b60405180910390fd5b600073ffffffffffffffffffffffffffffffffffffffff163373ffffffffffffffffffffffffffffffffffffffff1603610190576040517f08c379a00000000000000000000000000000000000000000000000000000000081526004016101879061115d565b60405180910390fd5b6000349050600033905060006101aa600060010154610e7c565b9050808311156103be5782600060010181905550816000800160006101000a81548173ffffffffffffffffffffffffffffffffffffffff021916908373ffffffffffffffffffffffffffffffffffffffff160217905550600260405180604001604052808473ffffffffffffffffffffffffffffffffffffffff16815260200185815250908060018154018082558091505060019003906000526020600020906002020160009091909190915060008201518160000160006101000a81548173ffffffffffffffffffffffffffffffffffffffff021916908373ffffffffffffffffffffffffffffffffffffffff16021790555060208201518160010155505082600560008473ffffffffffffffffffffffffffffffffffffffff1673ffffffffffffffffffffffffffffffffffffffff16815260200190815260200160002060008282546102f991906111ac565b925050819055508173ffffffffffffffffffffffffffffffffffffffff167fdeda60fb6e38f55d4ccab679f50f933d04b1dca8584775216dbdac46f251ca4a8460405161034691906111ef565b60405180910390a260004260045461035e919061120a565b905061025881116103bc57806004600082825461037b91906111ac565b925050819055507fc2b459809119087ca9d2bc10dea53a51b7d848b1a11075db037bdca58292c3e86004546040516103b391906111ef565b60405180910390a15b505b505050565b6004544210610407576040517f08c379a00000000000000000000000000000000000000000000000000000000081526004016103fe906110f1565b60405180910390fd5b6000600560003373ffffffffffffffffffffffffffffffffffffffff1673ffffffffffffffffffffffffffffffffffffffff1681526020019081526020016000205411610489576040517f08c379a00000000000000000000000000000000000000000000000000000000081526004016104809061128a565b60405180910390fd5b3373ffffffffffffffffffffffffffffffffffffffff166000800160009054906101000a900473ffffffffffffffffffffffffffffffffffffffff1673ffffffffffffffffffffffffffffffffffffffff160361053c57600060010154600560003373ffffffffffffffffffffffffffffffffffffffff1673ffffffffffffffffffffffffffffffffffffffff1681526020019081526020016000206000828254610534919061120a565b925050819055505b6000600560003373ffffffffffffffffffffffffffffffffffffffff1673ffffffffffffffffffffffffffffffffffffffff1681526020019081526020016000205490506000600560003373ffffffffffffffffffffffffffffffffffffffff1673ffffffffffffffffffffffffffffffffffffffff1681526020019081526020016000208190555060003373ffffffffffffffffffffffffffffffffffffffff16826040516105eb906112db565b60006040518083038185875af1925050503d8060008114610628576040519150601f19603f3d011682016040523d82523d6000602084013e61062d565b606091505b5050905080610671576040517f08c379a00000000000000000000000000000000000000000000000000000000081526004016106689061133c565b60405180910390fd5b3373ffffffffffffffffffffffffffffffffffffffff167fdce68997783ae47468b6fb0dd39cca315f9082d51d9ab3df8747c70512aa8ff2836040516106b791906111ef565b60405180910390a25050565b60606002805480602002602001604051908101604052809291908181526020016000905b8282101561077957838290600052602060002090600202016040518060400160405290816000820160009054906101000a900473ffffffffffffffffffffffffffffffffffffffff1673ffffffffffffffffffffffffffffffffffffffff1673ffffffffffffffffffffffffffffffffffffffff168152602001600182015481525050815260200190600101906106e7565b50505050905090565b3373ffffffffffffffffffffffffffffffffffffffff167f000000000000000000000000000000000000000000000000000000000000000073ffffffffffffffffffffffffffffffffffffffff1614610810576040517f08c379a0000000000000000000000000000000000000000000000000000000008152600401610807906113ce565b60405180910390fd5b6004544211610854576040517f08c379a000000000000000000000000000000000000000000000000000000000815260040161084b9061143a565b60405180910390fd5b6000600280549050905060005b81811015610cb8576000610899600283815481106108825761088161145a565b5b906000526020600020906002020160010154610e9e565b905080600360008282546108ad91906111ac565b92505081905550600282815481106108c8576108c761145a565b5b906000526020600020906002020160000160009054906101000a900473ffffffffffffffffffffffffffffffffffffffff1673ffffffffffffffffffffffffffffffffffffffff166000800160009054906101000a900473ffffffffffffffffffffffffffffffffffffffff1673ffffffffffffffffffffffffffffffffffffffff161480156109815750600282815481106109675761096661145a565b5b906000526020600020906002020160010154600060010154145b15610a1557600060056000600285815481106109a05761099f61145a565b5b906000526020600020906002020160000160009054906101000a900473ffffffffffffffffffffffffffffffffffffffff1673ffffffffffffffffffffffffffffffffffffffff1673ffffffffffffffffffffffffffffffffffffffff16815260200190815260200160002081905550610ca4565b60006005600060028581548110610a2f57610a2e61145a565b5b906000526020600020906002020160000160009054906101000a900473ffffffffffffffffffffffffffffffffffffffff1673ffffffffffffffffffffffffffffffffffffffff1673ffffffffffffffffffffffffffffffffffffffff168152602001908152602001600020541115610ca357600060028381548110610ab857610ab761145a565b5b906000526020600020906002020160000160009054906101000a900473ffffffffffffffffffffffffffffffffffffffff1673ffffffffffffffffffffffffffffffffffffffff166005600060028681548110610b1857610b1761145a565b5b906000526020600020906002020160000160009054906101000a900473ffffffffffffffffffffffffffffffffffffffff1673ffffffffffffffffffffffffffffffffffffffff1673ffffffffffffffffffffffffffffffffffffffff16815260200190815260200160002054604051610b91906112db565b60006040518083038185875af1925050503d8060008114610bce576040519150601f19603f3d011682016040523d82523d6000602084013e610bd3565b606091505b5050905080610c17576040517f08c379a0000000000000000000000000000000000000000000000000000000008152600401610c0e9061133c565b60405180910390fd5b60006005600060028681548110610c3157610c3061145a565b5b906000526020600020906002020160000160009054906101000a900473ffffffffffffffffffffffffffffffffffffffff1673ffffffffffffffffffffffffffffffffffffffff1673ffffffffffffffffffffffffffffffffffffffff16815260200190815260200160002081905550505b5b508080610cb090611489565b915050610861565b5060007f000000000000000000000000000000000000000000000000000000000000000073ffffffffffffffffffffffffffffffffffffffff16600354604051610d01906112db565b60006040518083038185875af1925050503d8060008114610d3e576040519150601f19603f3d011682016040523d82523d6000602084013e610d43565b606091505b5050905080610d87576040517f08c379a0000000000000000000000000000000000000000000000000000000008152600401610d7e9061133c565b60405180910390fd5b6000800160009054906101000a900473ffffffffffffffffffffffffffffffffffffffff1673ffffffffffffffffffffffffffffffffffffffff167f7a0ca0f54eafb83c8787175794658805fdf3cd42ef7b6d675aa3e3c06ae34758600060010154604051610df691906111ef565b60405180910390a25050565b610e0a610ec0565b60006040518060400160405290816000820160009054906101000a900473ffffffffffffffffffffffffffffffffffffffff1673ffffffffffffffffffffffffffffffffffffffff1673ffffffffffffffffffffffffffffffffffffffff168152602001600182015481525050905090565b60006064606983610e8d91906114d1565b610e979190611542565b9050919050565b60006064600283610eaf91906114d1565b610eb99190611542565b9050919050565b6040518060400160405280600073ffffffffffffffffffffffffffffffffffffffff168152602001600081525090565b600081519050919050565b600082825260208201905092915050565b6000819050602082019050919050565b600073ffffffffffffffffffffffffffffffffffffffff82169050919050565b6000610f4782610f1c565b9050919050565b610f5781610f3c565b82525050565b6000819050919050565b610f7081610f5d565b82525050565b604082016000820151610f8c6000850182610f4e565b506020820151610f9f6020850182610f67565b50505050565b6000610fb18383610f76565b60408301905092915050565b6000602082019050919050565b6000610fd582610ef0565b610fdf8185610efb565b9350610fea83610f0c565b8060005b8381101561101b5781516110028882610fa5565b975061100d83610fbd565b925050600181019050610fee565b5085935050505092915050565b600060208201905081810360008301526110428184610fca565b905092915050565b6040820160008201516110606000850182610f4e565b5060208201516110736020850182610f67565b50505050565b600060408201905061108e600083018461104a565b92915050565b600082825260208201905092915050565b7f4269642066696e69736865640000000000000000000000000000000000000000600082015250565b60006110db600c83611094565b91506110e6826110a5565b602082019050919050565b6000602082019050818103600083015261110a816110ce565b9050919050565b7f496e76616c69642073656e646572206164647265737300000000000000000000600082015250565b6000611147601683611094565b915061115282611111565b602082019050919050565b600060208201905081810360008301526111768161113a565b9050919050565b7f4e487b7100000000000000000000000000000000000000000000000000000000600052601160045260246000fd5b60006111b782610f5d565b91506111c283610f5d565b92508282019050808211156111da576111d961117d565b5b92915050565b6111e981610f5d565b82525050565b600060208201905061120460008301846111e0565b92915050565b600061121582610f5d565b915061122083610f5d565b92508282039050818111156112385761123761117d565b5b92915050565b7f4e6f7468696e6720746f20776974686472617700000000000000000000000000600082015250565b6000611274601383611094565b915061127f8261123e565b602082019050919050565b600060208201905081810360008301526112a381611267565b9050919050565b600081905092915050565b50565b60006112c56000836112aa565b91506112d0826112b5565b600082019050919050565b60006112e6826112b8565b9150819050919050565b7f5472616e73666572204661696c65640000000000000000000000000000000000600082015250565b6000611326600f83611094565b9150611331826112f0565b602082019050919050565b6000602082019050818103600083015261135581611319565b9050919050565b7f4f6e6c7920746865206f776e65722063616e2072756e20746869732066756e6360008201527f74696f6e00000000000000000000000000000000000000000000000000000000602082015250565b60006113b8602483611094565b91506113c38261135c565b604082019050919050565b600060208201905081810360008301526113e7816113ab565b9050919050565b7f426964206e6f742066696e697368656420796574000000000000000000000000600082015250565b6000611424601483611094565b915061142f826113ee565b602082019050919050565b6000602082019050818103600083015261145381611417565b9050919050565b7f4e487b7100000000000000000000000000000000000000000000000000000000600052603260045260246000fd5b600061149482610f5d565b91507fffffffffffffffffffffffffffffffffffffffffffffffffffffffffffffffff82036114c6576114c561117d565b5b600182019050919050565b60006114dc82610f5d565b91506114e783610f5d565b92508282026114f581610f5d565b9150828204841483151761150c5761150b61117d565b5b5092915050565b7f4e487b7100000000000000000000000000000000000000000000000000000000600052601260045260246000fd5b600061154d82610f5d565b915061155883610f5d565b92508261156857611567611513565b5b82820490509291505056fea2646970667358221220d49434a78977fbac29ed82e530a66ddd75169ad74fdb72b68425c73022deface64736f6c63430008120033",
					"opcodes": "PUSH1 0xC0 PUSH1 0x40 MSTORE CALLVALUE DUP1 ISZERO PUSH3 0x11 JUMPI PUSH1 0x0 DUP1 REVERT JUMPDEST POP CALLER PUSH20 0xFFFFFFFFFFFFFFFFFFFFFFFFFFFFFFFFFFFFFFFF AND PUSH1 0x80 DUP2 PUSH20 0xFFFFFFFFFFFFFFFFFFFFFFFFFFFFFFFFFFFFFFFF AND DUP2 MSTORE POP POP TIMESTAMP PUSH1 0xA0 DUP2 DUP2 MSTORE POP POP PUSH3 0x93A80 PUSH1 0xA0 MLOAD PUSH3 0x61 SWAP2 SWAP1 PUSH3 0xA6 JUMP JUMPDEST PUSH1 0x4 DUP2 SWAP1 SSTORE POP PUSH3 0xE1 JUMP JUMPDEST PUSH1 0x0 DUP2 SWAP1 POP SWAP2 SWAP1 POP JUMP JUMPDEST PUSH32 0x4E487B7100000000000000000000000000000000000000000000000000000000 PUSH1 0x0 MSTORE PUSH1 0x11 PUSH1 0x4 MSTORE PUSH1 0x24 PUSH1 0x0 REVERT JUMPDEST PUSH1 0x0 PUSH3 0xB3 DUP3 PUSH3 0x6D JUMP JUMPDEST SWAP2 POP PUSH3 0xC0 DUP4 PUSH3 0x6D JUMP JUMPDEST SWAP3 POP DUP3 DUP3 ADD SWAP1 POP DUP1 DUP3 GT ISZERO PUSH3 0xDB JUMPI PUSH3 0xDA PUSH3 0x77 JUMP JUMPDEST JUMPDEST SWAP3 SWAP2 POP POP JUMP JUMPDEST PUSH1 0x80 MLOAD PUSH1 0xA0 MLOAD PUSH2 0x15A9 PUSH3 0x10B PUSH1 0x0 CODECOPY PUSH1 0x0 POP POP PUSH1 0x0 DUP2 DUP2 PUSH2 0x79B ADD MSTORE PUSH2 0xCBD ADD MSTORE PUSH2 0x15A9 PUSH1 0x0 RETURN INVALID PUSH1 0x80 PUSH1 0x40 MSTORE PUSH1 0x4 CALLDATASIZE LT PUSH2 0x4A JUMPI PUSH1 0x0 CALLDATALOAD PUSH1 0xE0 SHR DUP1 PUSH4 0x1998AEEF EQ PUSH2 0x4F JUMPI DUP1 PUSH4 0x1CE2BCF5 EQ PUSH2 0x59 JUMPI DUP1 PUSH4 0x534823BF EQ PUSH2 0x70 JUMPI DUP1 PUSH4 0x590E1AE3 EQ PUSH2 0x9B JUMPI DUP1 PUSH4 0xB7E03264 EQ PUSH2 0xB2 JUMPI JUMPDEST PUSH1 0x0 DUP1 REVERT JUMPDEST PUSH2 0x57 PUSH2 0xDD JUMP JUMPDEST STOP JUMPDEST CALLVALUE DUP1 ISZERO PUSH2 0x65 JUMPI PUSH1 0x0 DUP1 REVERT JUMPDEST POP PUSH2 0x6E PUSH2 0x3C3 JUMP JUMPDEST STOP JUMPDEST CALLVALUE DUP1 ISZERO PUSH2 0x7C JUMPI PUSH1 0x0 DUP1 REVERT JUMPDEST POP PUSH2 0x85 PUSH2 0x6C3 JUMP JUMPDEST PUSH1 0x40 MLOAD PUSH2 0x92 SWAP2 SWAP1 PUSH2 0x1028 JUMP JUMPDEST PUSH1 0x40 MLOAD DUP1 SWAP2 SUB SWAP1 RETURN JUMPDEST CALLVALUE DUP1 ISZERO PUSH2 0xA7 JUMPI PUSH1 0x0 DUP1 REVERT JUMPDEST POP PUSH2 0xB0 PUSH2 0x782 JUMP JUMPDEST STOP JUMPDEST CALLVALUE DUP1 ISZERO PUSH2 0xBE JUMPI PUSH1 0x0 DUP1 REVERT JUMPDEST POP PUSH2 0xC7 PUSH2 0xE02 JUMP JUMPDEST PUSH1 0x40 MLOAD PUSH2 0xD4 SWAP2 SWAP1 PUSH2 0x1079 JUMP JUMPDEST PUSH1 0x40 MLOAD DUP1 SWAP2 SUB SWAP1 RETURN JUMPDEST PUSH1 0x4 SLOAD TIMESTAMP LT PUSH2 0x121 JUMPI PUSH1 0x40 MLOAD PUSH32 0x8C379A000000000000000000000000000000000000000000000000000000000 DUP2 MSTORE PUSH1 0x4 ADD PUSH2 0x118 SWAP1 PUSH2 0x10F1 JUMP JUMPDEST PUSH1 0x40 MLOAD DUP1 SWAP2 SUB SWAP1 REVERT JUMPDEST PUSH1 0x0 PUSH20 0xFFFFFFFFFFFFFFFFFFFFFFFFFFFFFFFFFFFFFFFF AND CALLER PUSH20 0xFFFFFFFFFFFFFFFFFFFFFFFFFFFFFFFFFFFFFFFF AND SUB PUSH2 0x190 JUMPI PUSH1 0x40 MLOAD PUSH32 0x8C379A000000000000000000000000000000000000000000000000000000000 DUP2 MSTORE PUSH1 0x4 ADD PUSH2 0x187 SWAP1 PUSH2 0x115D JUMP JUMPDEST PUSH1 0x40 MLOAD DUP1 SWAP2 SUB SWAP1 REVERT JUMPDEST PUSH1 0x0 CALLVALUE SWAP1 POP PUSH1 0x0 CALLER SWAP1 POP PUSH1 0x0 PUSH2 0x1AA PUSH1 0x0 PUSH1 0x1 ADD SLOAD PUSH2 0xE7C JUMP JUMPDEST SWAP1 POP DUP1 DUP4 GT ISZERO PUSH2 0x3BE JUMPI DUP3 PUSH1 0x0 PUSH1 0x1 ADD DUP2 SWAP1 SSTORE POP DUP2 PUSH1 0x0 DUP1 ADD PUSH1 0x0 PUSH2 0x100 EXP DUP2 SLOAD DUP2 PUSH20 0xFFFFFFFFFFFFFFFFFFFFFFFFFFFFFFFFFFFFFFFF MUL NOT AND SWAP1 DUP4 PUSH20 0xFFFFFFFFFFFFFFFFFFFFFFFFFFFFFFFFFFFFFFFF AND MUL OR SWAP1 SSTORE POP PUSH1 0x2 PUSH1 0x40 MLOAD DUP1 PUSH1 0x40 ADD PUSH1 0x40 MSTORE DUP1 DUP5 PUSH20 0xFFFFFFFFFFFFFFFFFFFFFFFFFFFFFFFFFFFFFFFF AND DUP2 MSTORE PUSH1 0x20 ADD DUP6 DUP2 MSTORE POP SWAP1 DUP1 PUSH1 0x1 DUP2 SLOAD ADD DUP1 DUP3 SSTORE DUP1 SWAP2 POP POP PUSH1 0x1 SWAP1 SUB SWAP1 PUSH1 0x0 MSTORE PUSH1 0x20 PUSH1 0x0 KECCAK256 SWAP1 PUSH1 0x2 MUL ADD PUSH1 0x0 SWAP1 SWAP2 SWAP1 SWAP2 SWAP1 SWAP2 POP PUSH1 0x0 DUP3 ADD MLOAD DUP2 PUSH1 0x0 ADD PUSH1 0x0 PUSH2 0x100 EXP DUP2 SLOAD DUP2 PUSH20 0xFFFFFFFFFFFFFFFFFFFFFFFFFFFFFFFFFFFFFFFF MUL NOT AND SWAP1 DUP4 PUSH20 0xFFFFFFFFFFFFFFFFFFFFFFFFFFFFFFFFFFFFFFFF AND MUL OR SWAP1 SSTORE POP PUSH1 0x20 DUP3 ADD MLOAD DUP2 PUSH1 0x1 ADD SSTORE POP POP DUP3 PUSH1 0x5 PUSH1 0x0 DUP5 PUSH20 0xFFFFFFFFFFFFFFFFFFFFFFFFFFFFFFFFFFFFFFFF AND PUSH20 0xFFFFFFFFFFFFFFFFFFFFFFFFFFFFFFFFFFFFFFFF AND DUP2 MSTORE PUSH1 0x20 ADD SWAP1 DUP2 MSTORE PUSH1 0x20 ADD PUSH1 0x0 KECCAK256 PUSH1 0x0 DUP3 DUP3 SLOAD PUSH2 0x2F9 SWAP2 SWAP1 PUSH2 0x11AC JUMP JUMPDEST SWAP3 POP POP DUP2 SWAP1 SSTORE POP DUP2 PUSH20 0xFFFFFFFFFFFFFFFFFFFFFFFFFFFFFFFFFFFFFFFF AND PUSH32 0xDEDA60FB6E38F55D4CCAB679F50F933D04B1DCA8584775216DBDAC46F251CA4A DUP5 PUSH1 0x40 MLOAD PUSH2 0x346 SWAP2 SWAP1 PUSH2 0x11EF JUMP JUMPDEST PUSH1 0x40 MLOAD DUP1 SWAP2 SUB SWAP1 LOG2 PUSH1 0x0 TIMESTAMP PUSH1 0x4 SLOAD PUSH2 0x35E SWAP2 SWAP1 PUSH2 0x120A JUMP JUMPDEST SWAP1 POP PUSH2 0x258 DUP2 GT PUSH2 0x3BC JUMPI DUP1 PUSH1 0x4 PUSH1 0x0 DUP3 DUP3 SLOAD PUSH2 0x37B SWAP2 SWAP1 PUSH2 0x11AC JUMP JUMPDEST SWAP3 POP POP DUP2 SWAP1 SSTORE POP PUSH32 0xC2B459809119087CA9D2BC10DEA53A51B7D848B1A11075DB037BDCA58292C3E8 PUSH1 0x4 SLOAD PUSH1 0x40 MLOAD PUSH2 0x3B3 SWAP2 SWAP1 PUSH2 0x11EF JUMP JUMPDEST PUSH1 0x40 MLOAD DUP1 SWAP2 SUB SWAP1 LOG1 JUMPDEST POP JUMPDEST POP POP POP JUMP JUMPDEST PUSH1 0x4 SLOAD TIMESTAMP LT PUSH2 0x407 JUMPI PUSH1 0x40 MLOAD PUSH32 0x8C379A000000000000000000000000000000000000000000000000000000000 DUP2 MSTORE PUSH1 0x4 ADD PUSH2 0x3FE SWAP1 PUSH2 0x10F1 JUMP JUMPDEST PUSH1 0x40 MLOAD DUP1 SWAP2 SUB SWAP1 REVERT JUMPDEST PUSH1 0x0 PUSH1 0x5 PUSH1 0x0 CALLER PUSH20 0xFFFFFFFFFFFFFFFFFFFFFFFFFFFFFFFFFFFFFFFF AND PUSH20 0xFFFFFFFFFFFFFFFFFFFFFFFFFFFFFFFFFFFFFFFF AND DUP2 MSTORE PUSH1 0x20 ADD SWAP1 DUP2 MSTORE PUSH1 0x20 ADD PUSH1 0x0 KECCAK256 SLOAD GT PUSH2 0x489 JUMPI PUSH1 0x40 MLOAD PUSH32 0x8C379A000000000000000000000000000000000000000000000000000000000 DUP2 MSTORE PUSH1 0x4 ADD PUSH2 0x480 SWAP1 PUSH2 0x128A JUMP JUMPDEST PUSH1 0x40 MLOAD DUP1 SWAP2 SUB SWAP1 REVERT JUMPDEST CALLER PUSH20 0xFFFFFFFFFFFFFFFFFFFFFFFFFFFFFFFFFFFFFFFF AND PUSH1 0x0 DUP1 ADD PUSH1 0x0 SWAP1 SLOAD SWAP1 PUSH2 0x100 EXP SWAP1 DIV PUSH20 0xFFFFFFFFFFFFFFFFFFFFFFFFFFFFFFFFFFFFFFFF AND PUSH20 0xFFFFFFFFFFFFFFFFFFFFFFFFFFFFFFFFFFFFFFFF AND SUB PUSH2 0x53C JUMPI PUSH1 0x0 PUSH1 0x1 ADD SLOAD PUSH1 0x5 PUSH1 0x0 CALLER PUSH20 0xFFFFFFFFFFFFFFFFFFFFFFFFFFFFFFFFFFFFFFFF AND PUSH20 0xFFFFFFFFFFFFFFFFFFFFFFFFFFFFFFFFFFFFFFFF AND DUP2 MSTORE PUSH1 0x20 ADD SWAP1 DUP2 MSTORE PUSH1 0x20 ADD PUSH1 0x0 KECCAK256 PUSH1 0x0 DUP3 DUP3 SLOAD PUSH2 0x534 SWAP2 SWAP1 PUSH2 0x120A JUMP JUMPDEST SWAP3 POP POP DUP2 SWAP1 SSTORE POP JUMPDEST PUSH1 0x0 PUSH1 0x5 PUSH1 0x0 CALLER PUSH20 0xFFFFFFFFFFFFFFFFFFFFFFFFFFFFFFFFFFFFFFFF AND PUSH20 0xFFFFFFFFFFFFFFFFFFFFFFFFFFFFFFFFFFFFFFFF AND DUP2 MSTORE PUSH1 0x20 ADD SWAP1 DUP2 MSTORE PUSH1 0x20 ADD PUSH1 0x0 KECCAK256 SLOAD SWAP1 POP PUSH1 0x0 PUSH1 0x5 PUSH1 0x0 CALLER PUSH20 0xFFFFFFFFFFFFFFFFFFFFFFFFFFFFFFFFFFFFFFFF AND PUSH20 0xFFFFFFFFFFFFFFFFFFFFFFFFFFFFFFFFFFFFFFFF AND DUP2 MSTORE PUSH1 0x20 ADD SWAP1 DUP2 MSTORE PUSH1 0x20 ADD PUSH1 0x0 KECCAK256 DUP2 SWAP1 SSTORE POP PUSH1 0x0 CALLER PUSH20 0xFFFFFFFFFFFFFFFFFFFFFFFFFFFFFFFFFFFFFFFF AND DUP3 PUSH1 0x40 MLOAD PUSH2 0x5EB SWAP1 PUSH2 0x12DB JUMP JUMPDEST PUSH1 0x0 PUSH1 0x40 MLOAD DUP1 DUP4 SUB DUP2 DUP6 DUP8 GAS CALL SWAP3 POP POP POP RETURNDATASIZE DUP1 PUSH1 0x0 DUP2 EQ PUSH2 0x628 JUMPI PUSH1 0x40 MLOAD SWAP2 POP PUSH1 0x1F NOT PUSH1 0x3F RETURNDATASIZE ADD AND DUP3 ADD PUSH1 0x40 MSTORE RETURNDATASIZE DUP3 MSTORE RETURNDATASIZE PUSH1 0x0 PUSH1 0x20 DUP5 ADD RETURNDATACOPY PUSH2 0x62D JUMP JUMPDEST PUSH1 0x60 SWAP2 POP JUMPDEST POP POP SWAP1 POP DUP1 PUSH2 0x671 JUMPI PUSH1 0x40 MLOAD PUSH32 0x8C379A000000000000000000000000000000000000000000000000000000000 DUP2 MSTORE PUSH1 0x4 ADD PUSH2 0x668 SWAP1 PUSH2 0x133C JUMP JUMPDEST PUSH1 0x40 MLOAD DUP1 SWAP2 SUB SWAP1 REVERT JUMPDEST CALLER PUSH20 0xFFFFFFFFFFFFFFFFFFFFFFFFFFFFFFFFFFFFFFFF AND PUSH32 0xDCE68997783AE47468B6FB0DD39CCA315F9082D51D9AB3DF8747C70512AA8FF2 DUP4 PUSH1 0x40 MLOAD PUSH2 0x6B7 SWAP2 SWAP1 PUSH2 0x11EF JUMP JUMPDEST PUSH1 0x40 MLOAD DUP1 SWAP2 SUB SWAP1 LOG2 POP POP JUMP JUMPDEST PUSH1 0x60 PUSH1 0x2 DUP1 SLOAD DUP1 PUSH1 0x20 MUL PUSH1 0x20 ADD PUSH1 0x40 MLOAD SWAP1 DUP2 ADD PUSH1 0x40 MSTORE DUP1 SWAP3 SWAP2 SWAP1 DUP2 DUP2 MSTORE PUSH1 0x20 ADD PUSH1 0x0 SWAP1 JUMPDEST DUP3 DUP3 LT ISZERO PUSH2 0x779 JUMPI DUP4 DUP3 SWAP1 PUSH1 0x0 MSTORE PUSH1 0x20 PUSH1 0x0 KECCAK256 SWAP1 PUSH1 0x2 MUL ADD PUSH1 0x40 MLOAD DUP1 PUSH1 0x40 ADD PUSH1 0x40 MSTORE SWAP1 DUP2 PUSH1 0x0 DUP3 ADD PUSH1 0x0 SWAP1 SLOAD SWAP1 PUSH2 0x100 EXP SWAP1 DIV PUSH20 0xFFFFFFFFFFFFFFFFFFFFFFFFFFFFFFFFFFFFFFFF AND PUSH20 0xFFFFFFFFFFFFFFFFFFFFFFFFFFFFFFFFFFFFFFFF AND PUSH20 0xFFFFFFFFFFFFFFFFFFFFFFFFFFFFFFFFFFFFFFFF AND DUP2 MSTORE PUSH1 0x20 ADD PUSH1 0x1 DUP3 ADD SLOAD DUP2 MSTORE POP POP DUP2 MSTORE PUSH1 0x20 ADD SWAP1 PUSH1 0x1 ADD SWAP1 PUSH2 0x6E7 JUMP JUMPDEST POP POP POP POP SWAP1 POP SWAP1 JUMP JUMPDEST CALLER PUSH20 0xFFFFFFFFFFFFFFFFFFFFFFFFFFFFFFFFFFFFFFFF AND PUSH32 0x0 PUSH20 0xFFFFFFFFFFFFFFFFFFFFFFFFFFFFFFFFFFFFFFFF AND EQ PUSH2 0x810 JUMPI PUSH1 0x40 MLOAD PUSH32 0x8C379A000000000000000000000000000000000000000000000000000000000 DUP2 MSTORE PUSH1 0x4 ADD PUSH2 0x807 SWAP1 PUSH2 0x13CE JUMP JUMPDEST PUSH1 0x40 MLOAD DUP1 SWAP2 SUB SWAP1 REVERT JUMPDEST PUSH1 0x4 SLOAD TIMESTAMP GT PUSH2 0x854 JUMPI PUSH1 0x40 MLOAD PUSH32 0x8C379A000000000000000000000000000000000000000000000000000000000 DUP2 MSTORE PUSH1 0x4 ADD PUSH2 0x84B SWAP1 PUSH2 0x143A JUMP JUMPDEST PUSH1 0x40 MLOAD DUP1 SWAP2 SUB SWAP1 REVERT JUMPDEST PUSH1 0x0 PUSH1 0x2 DUP1 SLOAD SWAP1 POP SWAP1 POP PUSH1 0x0 JUMPDEST DUP2 DUP2 LT ISZERO PUSH2 0xCB8 JUMPI PUSH1 0x0 PUSH2 0x899 PUSH1 0x2 DUP4 DUP2 SLOAD DUP2 LT PUSH2 0x882 JUMPI PUSH2 0x881 PUSH2 0x145A JUMP JUMPDEST JUMPDEST SWAP1 PUSH1 0x0 MSTORE PUSH1 0x20 PUSH1 0x0 KECCAK256 SWAP1 PUSH1 0x2 MUL ADD PUSH1 0x1 ADD SLOAD PUSH2 0xE9E JUMP JUMPDEST SWAP1 POP DUP1 PUSH1 0x3 PUSH1 0x0 DUP3 DUP3 SLOAD PUSH2 0x8AD SWAP2 SWAP1 PUSH2 0x11AC JUMP JUMPDEST SWAP3 POP POP DUP2 SWAP1 SSTORE POP PUSH1 0x2 DUP3 DUP2 SLOAD DUP2 LT PUSH2 0x8C8 JUMPI PUSH2 0x8C7 PUSH2 0x145A JUMP JUMPDEST JUMPDEST SWAP1 PUSH1 0x0 MSTORE PUSH1 0x20 PUSH1 0x0 KECCAK256 SWAP1 PUSH1 0x2 MUL ADD PUSH1 0x0 ADD PUSH1 0x0 SWAP1 SLOAD SWAP1 PUSH2 0x100 EXP SWAP1 DIV PUSH20 0xFFFFFFFFFFFFFFFFFFFFFFFFFFFFFFFFFFFFFFFF AND PUSH20 0xFFFFFFFFFFFFFFFFFFFFFFFFFFFFFFFFFFFFFFFF AND PUSH1 0x0 DUP1 ADD PUSH1 0x0 SWAP1 SLOAD SWAP1 PUSH2 0x100 EXP SWAP1 DIV PUSH20 0xFFFFFFFFFFFFFFFFFFFFFFFFFFFFFFFFFFFFFFFF AND PUSH20 0xFFFFFFFFFFFFFFFFFFFFFFFFFFFFFFFFFFFFFFFF AND EQ DUP1 ISZERO PUSH2 0x981 JUMPI POP PUSH1 0x2 DUP3 DUP2 SLOAD DUP2 LT PUSH2 0x967 JUMPI PUSH2 0x966 PUSH2 0x145A JUMP JUMPDEST JUMPDEST SWAP1 PUSH1 0x0 MSTORE PUSH1 0x20 PUSH1 0x0 KECCAK256 SWAP1 PUSH1 0x2 MUL ADD PUSH1 0x1 ADD SLOAD PUSH1 0x0 PUSH1 0x1 ADD SLOAD EQ JUMPDEST ISZERO PUSH2 0xA15 JUMPI PUSH1 0x0 PUSH1 0x5 PUSH1 0x0 PUSH1 0x2 DUP6 DUP2 SLOAD DUP2 LT PUSH2 0x9A0 JUMPI PUSH2 0x99F PUSH2 0x145A JUMP JUMPDEST JUMPDEST SWAP1 PUSH1 0x0 MSTORE PUSH1 0x20 PUSH1 0x0 KECCAK256 SWAP1 PUSH1 0x2 MUL ADD PUSH1 0x0 ADD PUSH1 0x0 SWAP1 SLOAD SWAP1 PUSH2 0x100 EXP SWAP1 DIV PUSH20 0xFFFFFFFFFFFFFFFFFFFFFFFFFFFFFFFFFFFFFFFF AND PUSH20 0xFFFFFFFFFFFFFFFFFFFFFFFFFFFFFFFFFFFFFFFF AND PUSH20 0xFFFFFFFFFFFFFFFFFFFFFFFFFFFFFFFFFFFFFFFF AND DUP2 MSTORE PUSH1 0x20 ADD SWAP1 DUP2 MSTORE PUSH1 0x20 ADD PUSH1 0x0 KECCAK256 DUP2 SWAP1 SSTORE POP PUSH2 0xCA4 JUMP JUMPDEST PUSH1 0x0 PUSH1 0x5 PUSH1 0x0 PUSH1 0x2 DUP6 DUP2 SLOAD DUP2 LT PUSH2 0xA2F JUMPI PUSH2 0xA2E PUSH2 0x145A JUMP JUMPDEST JUMPDEST SWAP1 PUSH1 0x0 MSTORE PUSH1 0x20 PUSH1 0x0 KECCAK256 SWAP1 PUSH1 0x2 MUL ADD PUSH1 0x0 ADD PUSH1 0x0 SWAP1 SLOAD SWAP1 PUSH2 0x100 EXP SWAP1 DIV PUSH20 0xFFFFFFFFFFFFFFFFFFFFFFFFFFFFFFFFFFFFFFFF AND PUSH20 0xFFFFFFFFFFFFFFFFFFFFFFFFFFFFFFFFFFFFFFFF AND PUSH20 0xFFFFFFFFFFFFFFFFFFFFFFFFFFFFFFFFFFFFFFFF AND DUP2 MSTORE PUSH1 0x20 ADD SWAP1 DUP2 MSTORE PUSH1 0x20 ADD PUSH1 0x0 KECCAK256 SLOAD GT ISZERO PUSH2 0xCA3 JUMPI PUSH1 0x0 PUSH1 0x2 DUP4 DUP2 SLOAD DUP2 LT PUSH2 0xAB8 JUMPI PUSH2 0xAB7 PUSH2 0x145A JUMP JUMPDEST JUMPDEST SWAP1 PUSH1 0x0 MSTORE PUSH1 0x20 PUSH1 0x0 KECCAK256 SWAP1 PUSH1 0x2 MUL ADD PUSH1 0x0 ADD PUSH1 0x0 SWAP1 SLOAD SWAP1 PUSH2 0x100 EXP SWAP1 DIV PUSH20 0xFFFFFFFFFFFFFFFFFFFFFFFFFFFFFFFFFFFFFFFF AND PUSH20 0xFFFFFFFFFFFFFFFFFFFFFFFFFFFFFFFFFFFFFFFF AND PUSH1 0x5 PUSH1 0x0 PUSH1 0x2 DUP7 DUP2 SLOAD DUP2 LT PUSH2 0xB18 JUMPI PUSH2 0xB17 PUSH2 0x145A JUMP JUMPDEST JUMPDEST SWAP1 PUSH1 0x0 MSTORE PUSH1 0x20 PUSH1 0x0 KECCAK256 SWAP1 PUSH1 0x2 MUL ADD PUSH1 0x0 ADD PUSH1 0x0 SWAP1 SLOAD SWAP1 PUSH2 0x100 EXP SWAP1 DIV PUSH20 0xFFFFFFFFFFFFFFFFFFFFFFFFFFFFFFFFFFFFFFFF AND PUSH20 0xFFFFFFFFFFFFFFFFFFFFFFFFFFFFFFFFFFFFFFFF AND PUSH20 0xFFFFFFFFFFFFFFFFFFFFFFFFFFFFFFFFFFFFFFFF AND DUP2 MSTORE PUSH1 0x20 ADD SWAP1 DUP2 MSTORE PUSH1 0x20 ADD PUSH1 0x0 KECCAK256 SLOAD PUSH1 0x40 MLOAD PUSH2 0xB91 SWAP1 PUSH2 0x12DB JUMP JUMPDEST PUSH1 0x0 PUSH1 0x40 MLOAD DUP1 DUP4 SUB DUP2 DUP6 DUP8 GAS CALL SWAP3 POP POP POP RETURNDATASIZE DUP1 PUSH1 0x0 DUP2 EQ PUSH2 0xBCE JUMPI PUSH1 0x40 MLOAD SWAP2 POP PUSH1 0x1F NOT PUSH1 0x3F RETURNDATASIZE ADD AND DUP3 ADD PUSH1 0x40 MSTORE RETURNDATASIZE DUP3 MSTORE RETURNDATASIZE PUSH1 0x0 PUSH1 0x20 DUP5 ADD RETURNDATACOPY PUSH2 0xBD3 JUMP JUMPDEST PUSH1 0x60 SWAP2 POP JUMPDEST POP POP SWAP1 POP DUP1 PUSH2 0xC17 JUMPI PUSH1 0x40 MLOAD PUSH32 0x8C379A000000000000000000000000000000000000000000000000000000000 DUP2 MSTORE PUSH1 0x4 ADD PUSH2 0xC0E SWAP1 PUSH2 0x133C JUMP JUMPDEST PUSH1 0x40 MLOAD DUP1 SWAP2 SUB SWAP1 REVERT JUMPDEST PUSH1 0x0 PUSH1 0x5 PUSH1 0x0 PUSH1 0x2 DUP7 DUP2 SLOAD DUP2 LT PUSH2 0xC31 JUMPI PUSH2 0xC30 PUSH2 0x145A JUMP JUMPDEST JUMPDEST SWAP1 PUSH1 0x0 MSTORE PUSH1 0x20 PUSH1 0x0 KECCAK256 SWAP1 PUSH1 0x2 MUL ADD PUSH1 0x0 ADD PUSH1 0x0 SWAP1 SLOAD SWAP1 PUSH2 0x100 EXP SWAP1 DIV PUSH20 0xFFFFFFFFFFFFFFFFFFFFFFFFFFFFFFFFFFFFFFFF AND PUSH20 0xFFFFFFFFFFFFFFFFFFFFFFFFFFFFFFFFFFFFFFFF AND PUSH20 0xFFFFFFFFFFFFFFFFFFFFFFFFFFFFFFFFFFFFFFFF AND DUP2 MSTORE PUSH1 0x20 ADD SWAP1 DUP2 MSTORE PUSH1 0x20 ADD PUSH1 0x0 KECCAK256 DUP2 SWAP1 SSTORE POP POP JUMPDEST JUMPDEST POP DUP1 DUP1 PUSH2 0xCB0 SWAP1 PUSH2 0x1489 JUMP JUMPDEST SWAP2 POP POP PUSH2 0x861 JUMP JUMPDEST POP PUSH1 0x0 PUSH32 0x0 PUSH20 0xFFFFFFFFFFFFFFFFFFFFFFFFFFFFFFFFFFFFFFFF AND PUSH1 0x3 SLOAD PUSH1 0x40 MLOAD PUSH2 0xD01 SWAP1 PUSH2 0x12DB JUMP JUMPDEST PUSH1 0x0 PUSH1 0x40 MLOAD DUP1 DUP4 SUB DUP2 DUP6 DUP8 GAS CALL SWAP3 POP POP POP RETURNDATASIZE DUP1 PUSH1 0x0 DUP2 EQ PUSH2 0xD3E JUMPI PUSH1 0x40 MLOAD SWAP2 POP PUSH1 0x1F NOT PUSH1 0x3F RETURNDATASIZE ADD AND DUP3 ADD PUSH1 0x40 MSTORE RETURNDATASIZE DUP3 MSTORE RETURNDATASIZE PUSH1 0x0 PUSH1 0x20 DUP5 ADD RETURNDATACOPY PUSH2 0xD43 JUMP JUMPDEST PUSH1 0x60 SWAP2 POP JUMPDEST POP POP SWAP1 POP DUP1 PUSH2 0xD87 JUMPI PUSH1 0x40 MLOAD PUSH32 0x8C379A000000000000000000000000000000000000000000000000000000000 DUP2 MSTORE PUSH1 0x4 ADD PUSH2 0xD7E SWAP1 PUSH2 0x133C JUMP JUMPDEST PUSH1 0x40 MLOAD DUP1 SWAP2 SUB SWAP1 REVERT JUMPDEST PUSH1 0x0 DUP1 ADD PUSH1 0x0 SWAP1 SLOAD SWAP1 PUSH2 0x100 EXP SWAP1 DIV PUSH20 0xFFFFFFFFFFFFFFFFFFFFFFFFFFFFFFFFFFFFFFFF AND PUSH20 0xFFFFFFFFFFFFFFFFFFFFFFFFFFFFFFFFFFFFFFFF AND PUSH32 0x7A0CA0F54EAFB83C8787175794658805FDF3CD42EF7B6D675AA3E3C06AE34758 PUSH1 0x0 PUSH1 0x1 ADD SLOAD PUSH1 0x40 MLOAD PUSH2 0xDF6 SWAP2 SWAP1 PUSH2 0x11EF JUMP JUMPDEST PUSH1 0x40 MLOAD DUP1 SWAP2 SUB SWAP1 LOG2 POP POP JUMP JUMPDEST PUSH2 0xE0A PUSH2 0xEC0 JUMP JUMPDEST PUSH1 0x0 PUSH1 0x40 MLOAD DUP1 PUSH1 0x40 ADD PUSH1 0x40 MSTORE SWAP1 DUP2 PUSH1 0x0 DUP3 ADD PUSH1 0x0 SWAP1 SLOAD SWAP1 PUSH2 0x100 EXP SWAP1 DIV PUSH20 0xFFFFFFFFFFFFFFFFFFFFFFFFFFFFFFFFFFFFFFFF AND PUSH20 0xFFFFFFFFFFFFFFFFFFFFFFFFFFFFFFFFFFFFFFFF AND PUSH20 0xFFFFFFFFFFFFFFFFFFFFFFFFFFFFFFFFFFFFFFFF AND DUP2 MSTORE PUSH1 0x20 ADD PUSH1 0x1 DUP3 ADD SLOAD DUP2 MSTORE POP POP SWAP1 POP SWAP1 JUMP JUMPDEST PUSH1 0x0 PUSH1 0x64 PUSH1 0x69 DUP4 PUSH2 0xE8D SWAP2 SWAP1 PUSH2 0x14D1 JUMP JUMPDEST PUSH2 0xE97 SWAP2 SWAP1 PUSH2 0x1542 JUMP JUMPDEST SWAP1 POP SWAP2 SWAP1 POP JUMP JUMPDEST PUSH1 0x0 PUSH1 0x64 PUSH1 0x2 DUP4 PUSH2 0xEAF SWAP2 SWAP1 PUSH2 0x14D1 JUMP JUMPDEST PUSH2 0xEB9 SWAP2 SWAP1 PUSH2 0x1542 JUMP JUMPDEST SWAP1 POP SWAP2 SWAP1 POP JUMP JUMPDEST PUSH1 0x40 MLOAD DUP1 PUSH1 0x40 ADD PUSH1 0x40 MSTORE DUP1 PUSH1 0x0 PUSH20 0xFFFFFFFFFFFFFFFFFFFFFFFFFFFFFFFFFFFFFFFF AND DUP2 MSTORE PUSH1 0x20 ADD PUSH1 0x0 DUP2 MSTORE POP SWAP1 JUMP JUMPDEST PUSH1 0x0 DUP2 MLOAD SWAP1 POP SWAP2 SWAP1 POP JUMP JUMPDEST PUSH1 0x0 DUP3 DUP3 MSTORE PUSH1 0x20 DUP3 ADD SWAP1 POP SWAP3 SWAP2 POP POP JUMP JUMPDEST PUSH1 0x0 DUP2 SWAP1 POP PUSH1 0x20 DUP3 ADD SWAP1 POP SWAP2 SWAP1 POP JUMP JUMPDEST PUSH1 0x0 PUSH20 0xFFFFFFFFFFFFFFFFFFFFFFFFFFFFFFFFFFFFFFFF DUP3 AND SWAP1 POP SWAP2 SWAP1 POP JUMP JUMPDEST PUSH1 0x0 PUSH2 0xF47 DUP3 PUSH2 0xF1C JUMP JUMPDEST SWAP1 POP SWAP2 SWAP1 POP JUMP JUMPDEST PUSH2 0xF57 DUP2 PUSH2 0xF3C JUMP JUMPDEST DUP3 MSTORE POP POP JUMP JUMPDEST PUSH1 0x0 DUP2 SWAP1 POP SWAP2 SWAP1 POP JUMP JUMPDEST PUSH2 0xF70 DUP2 PUSH2 0xF5D JUMP JUMPDEST DUP3 MSTORE POP POP JUMP JUMPDEST PUSH1 0x40 DUP3 ADD PUSH1 0x0 DUP3 ADD MLOAD PUSH2 0xF8C PUSH1 0x0 DUP6 ADD DUP3 PUSH2 0xF4E JUMP JUMPDEST POP PUSH1 0x20 DUP3 ADD MLOAD PUSH2 0xF9F PUSH1 0x20 DUP6 ADD DUP3 PUSH2 0xF67 JUMP JUMPDEST POP POP POP POP JUMP JUMPDEST PUSH1 0x0 PUSH2 0xFB1 DUP4 DUP4 PUSH2 0xF76 JUMP JUMPDEST PUSH1 0x40 DUP4 ADD SWAP1 POP SWAP3 SWAP2 POP POP JUMP JUMPDEST PUSH1 0x0 PUSH1 0x20 DUP3 ADD SWAP1 POP SWAP2 SWAP1 POP JUMP JUMPDEST PUSH1 0x0 PUSH2 0xFD5 DUP3 PUSH2 0xEF0 JUMP JUMPDEST PUSH2 0xFDF DUP2 DUP6 PUSH2 0xEFB JUMP JUMPDEST SWAP4 POP PUSH2 0xFEA DUP4 PUSH2 0xF0C JUMP JUMPDEST DUP1 PUSH1 0x0 JUMPDEST DUP4 DUP2 LT ISZERO PUSH2 0x101B JUMPI DUP2 MLOAD PUSH2 0x1002 DUP9 DUP3 PUSH2 0xFA5 JUMP JUMPDEST SWAP8 POP PUSH2 0x100D DUP4 PUSH2 0xFBD JUMP JUMPDEST SWAP3 POP POP PUSH1 0x1 DUP2 ADD SWAP1 POP PUSH2 0xFEE JUMP JUMPDEST POP DUP6 SWAP4 POP POP POP POP SWAP3 SWAP2 POP POP JUMP JUMPDEST PUSH1 0x0 PUSH1 0x20 DUP3 ADD SWAP1 POP DUP2 DUP2 SUB PUSH1 0x0 DUP4 ADD MSTORE PUSH2 0x1042 DUP2 DUP5 PUSH2 0xFCA JUMP JUMPDEST SWAP1 POP SWAP3 SWAP2 POP POP JUMP JUMPDEST PUSH1 0x40 DUP3 ADD PUSH1 0x0 DUP3 ADD MLOAD PUSH2 0x1060 PUSH1 0x0 DUP6 ADD DUP3 PUSH2 0xF4E JUMP JUMPDEST POP PUSH1 0x20 DUP3 ADD MLOAD PUSH2 0x1073 PUSH1 0x20 DUP6 ADD DUP3 PUSH2 0xF67 JUMP JUMPDEST POP POP POP POP JUMP JUMPDEST PUSH1 0x0 PUSH1 0x40 DUP3 ADD SWAP1 POP PUSH2 0x108E PUSH1 0x0 DUP4 ADD DUP5 PUSH2 0x104A JUMP JUMPDEST SWAP3 SWAP2 POP POP JUMP JUMPDEST PUSH1 0x0 DUP3 DUP3 MSTORE PUSH1 0x20 DUP3 ADD SWAP1 POP SWAP3 SWAP2 POP POP JUMP JUMPDEST PUSH32 0x4269642066696E69736865640000000000000000000000000000000000000000 PUSH1 0x0 DUP3 ADD MSTORE POP JUMP JUMPDEST PUSH1 0x0 PUSH2 0x10DB PUSH1 0xC DUP4 PUSH2 0x1094 JUMP JUMPDEST SWAP2 POP PUSH2 0x10E6 DUP3 PUSH2 0x10A5 JUMP JUMPDEST PUSH1 0x20 DUP3 ADD SWAP1 POP SWAP2 SWAP1 POP JUMP JUMPDEST PUSH1 0x0 PUSH1 0x20 DUP3 ADD SWAP1 POP DUP2 DUP2 SUB PUSH1 0x0 DUP4 ADD MSTORE PUSH2 0x110A DUP2 PUSH2 0x10CE JUMP JUMPDEST SWAP1 POP SWAP2 SWAP1 POP JUMP JUMPDEST PUSH32 0x496E76616C69642073656E646572206164647265737300000000000000000000 PUSH1 0x0 DUP3 ADD MSTORE POP JUMP JUMPDEST PUSH1 0x0 PUSH2 0x1147 PUSH1 0x16 DUP4 PUSH2 0x1094 JUMP JUMPDEST SWAP2 POP PUSH2 0x1152 DUP3 PUSH2 0x1111 JUMP JUMPDEST PUSH1 0x20 DUP3 ADD SWAP1 POP SWAP2 SWAP1 POP JUMP JUMPDEST PUSH1 0x0 PUSH1 0x20 DUP3 ADD SWAP1 POP DUP2 DUP2 SUB PUSH1 0x0 DUP4 ADD MSTORE PUSH2 0x1176 DUP2 PUSH2 0x113A JUMP JUMPDEST SWAP1 POP SWAP2 SWAP1 POP JUMP JUMPDEST PUSH32 0x4E487B7100000000000000000000000000000000000000000000000000000000 PUSH1 0x0 MSTORE PUSH1 0x11 PUSH1 0x4 MSTORE PUSH1 0x24 PUSH1 0x0 REVERT JUMPDEST PUSH1 0x0 PUSH2 0x11B7 DUP3 PUSH2 0xF5D JUMP JUMPDEST SWAP2 POP PUSH2 0x11C2 DUP4 PUSH2 0xF5D JUMP JUMPDEST SWAP3 POP DUP3 DUP3 ADD SWAP1 POP DUP1 DUP3 GT ISZERO PUSH2 0x11DA JUMPI PUSH2 0x11D9 PUSH2 0x117D JUMP JUMPDEST JUMPDEST SWAP3 SWAP2 POP POP JUMP JUMPDEST PUSH2 0x11E9 DUP2 PUSH2 0xF5D JUMP JUMPDEST DUP3 MSTORE POP POP JUMP JUMPDEST PUSH1 0x0 PUSH1 0x20 DUP3 ADD SWAP1 POP PUSH2 0x1204 PUSH1 0x0 DUP4 ADD DUP5 PUSH2 0x11E0 JUMP JUMPDEST SWAP3 SWAP2 POP POP JUMP JUMPDEST PUSH1 0x0 PUSH2 0x1215 DUP3 PUSH2 0xF5D JUMP JUMPDEST SWAP2 POP PUSH2 0x1220 DUP4 PUSH2 0xF5D JUMP JUMPDEST SWAP3 POP DUP3 DUP3 SUB SWAP1 POP DUP2 DUP2 GT ISZERO PUSH2 0x1238 JUMPI PUSH2 0x1237 PUSH2 0x117D JUMP JUMPDEST JUMPDEST SWAP3 SWAP2 POP POP JUMP JUMPDEST PUSH32 0x4E6F7468696E6720746F20776974686472617700000000000000000000000000 PUSH1 0x0 DUP3 ADD MSTORE POP JUMP JUMPDEST PUSH1 0x0 PUSH2 0x1274 PUSH1 0x13 DUP4 PUSH2 0x1094 JUMP JUMPDEST SWAP2 POP PUSH2 0x127F DUP3 PUSH2 0x123E JUMP JUMPDEST PUSH1 0x20 DUP3 ADD SWAP1 POP SWAP2 SWAP1 POP JUMP JUMPDEST PUSH1 0x0 PUSH1 0x20 DUP3 ADD SWAP1 POP DUP2 DUP2 SUB PUSH1 0x0 DUP4 ADD MSTORE PUSH2 0x12A3 DUP2 PUSH2 0x1267 JUMP JUMPDEST SWAP1 POP SWAP2 SWAP1 POP JUMP JUMPDEST PUSH1 0x0 DUP2 SWAP1 POP SWAP3 SWAP2 POP POP JUMP JUMPDEST POP JUMP JUMPDEST PUSH1 0x0 PUSH2 0x12C5 PUSH1 0x0 DUP4 PUSH2 0x12AA JUMP JUMPDEST SWAP2 POP PUSH2 0x12D0 DUP3 PUSH2 0x12B5 JUMP JUMPDEST PUSH1 0x0 DUP3 ADD SWAP1 POP SWAP2 SWAP1 POP JUMP JUMPDEST PUSH1 0x0 PUSH2 0x12E6 DUP3 PUSH2 0x12B8 JUMP JUMPDEST SWAP2 POP DUP2 SWAP1 POP SWAP2 SWAP1 POP JUMP JUMPDEST PUSH32 0x5472616E73666572204661696C65640000000000000000000000000000000000 PUSH1 0x0 DUP3 ADD MSTORE POP JUMP JUMPDEST PUSH1 0x0 PUSH2 0x1326 PUSH1 0xF DUP4 PUSH2 0x1094 JUMP JUMPDEST SWAP2 POP PUSH2 0x1331 DUP3 PUSH2 0x12F0 JUMP JUMPDEST PUSH1 0x20 DUP3 ADD SWAP1 POP SWAP2 SWAP1 POP JUMP JUMPDEST PUSH1 0x0 PUSH1 0x20 DUP3 ADD SWAP1 POP DUP2 DUP2 SUB PUSH1 0x0 DUP4 ADD MSTORE PUSH2 0x1355 DUP2 PUSH2 0x1319 JUMP JUMPDEST SWAP1 POP SWAP2 SWAP1 POP JUMP JUMPDEST PUSH32 0x4F6E6C7920746865206F776E65722063616E2072756E20746869732066756E63 PUSH1 0x0 DUP3 ADD MSTORE PUSH32 0x74696F6E00000000000000000000000000000000000000000000000000000000 PUSH1 0x20 DUP3 ADD MSTORE POP JUMP JUMPDEST PUSH1 0x0 PUSH2 0x13B8 PUSH1 0x24 DUP4 PUSH2 0x1094 JUMP JUMPDEST SWAP2 POP PUSH2 0x13C3 DUP3 PUSH2 0x135C JUMP JUMPDEST PUSH1 0x40 DUP3 ADD SWAP1 POP SWAP2 SWAP1 POP JUMP JUMPDEST PUSH1 0x0 PUSH1 0x20 DUP3 ADD SWAP1 POP DUP2 DUP2 SUB PUSH1 0x0 DUP4 ADD MSTORE PUSH2 0x13E7 DUP2 PUSH2 0x13AB JUMP JUMPDEST SWAP1 POP SWAP2 SWAP1 POP JUMP JUMPDEST PUSH32 0x426964206E6F742066696E697368656420796574000000000000000000000000 PUSH1 0x0 DUP3 ADD MSTORE POP JUMP JUMPDEST PUSH1 0x0 PUSH2 0x1424 PUSH1 0x14 DUP4 PUSH2 0x1094 JUMP JUMPDEST SWAP2 POP PUSH2 0x142F DUP3 PUSH2 0x13EE JUMP JUMPDEST PUSH1 0x20 DUP3 ADD SWAP1 POP SWAP2 SWAP1 POP JUMP JUMPDEST PUSH1 0x0 PUSH1 0x20 DUP3 ADD SWAP1 POP DUP2 DUP2 SUB PUSH1 0x0 DUP4 ADD MSTORE PUSH2 0x1453 DUP2 PUSH2 0x1417 JUMP JUMPDEST SWAP1 POP SWAP2 SWAP1 POP JUMP JUMPDEST PUSH32 0x4E487B7100000000000000000000000000000000000000000000000000000000 PUSH1 0x0 MSTORE PUSH1 0x32 PUSH1 0x4 MSTORE PUSH1 0x24 PUSH1 0x0 REVERT JUMPDEST PUSH1 0x0 PUSH2 0x1494 DUP3 PUSH2 0xF5D JUMP JUMPDEST SWAP2 POP PUSH32 0xFFFFFFFFFFFFFFFFFFFFFFFFFFFFFFFFFFFFFFFFFFFFFFFFFFFFFFFFFFFFFFFF DUP3 SUB PUSH2 0x14C6 JUMPI PUSH2 0x14C5 PUSH2 0x117D JUMP JUMPDEST JUMPDEST PUSH1 0x1 DUP3 ADD SWAP1 POP SWAP2 SWAP1 POP JUMP JUMPDEST PUSH1 0x0 PUSH2 0x14DC DUP3 PUSH2 0xF5D JUMP JUMPDEST SWAP2 POP PUSH2 0x14E7 DUP4 PUSH2 0xF5D JUMP JUMPDEST SWAP3 POP DUP3 DUP3 MUL PUSH2 0x14F5 DUP2 PUSH2 0xF5D JUMP JUMPDEST SWAP2 POP DUP3 DUP3 DIV DUP5 EQ DUP4 ISZERO OR PUSH2 0x150C JUMPI PUSH2 0x150B PUSH2 0x117D JUMP JUMPDEST JUMPDEST POP SWAP3 SWAP2 POP POP JUMP JUMPDEST PUSH32 0x4E487B7100000000000000000000000000000000000000000000000000000000 PUSH1 0x0 MSTORE PUSH1 0x12 PUSH1 0x4 MSTORE PUSH1 0x24 PUSH1 0x0 REVERT JUMPDEST PUSH1 0x0 PUSH2 0x154D DUP3 PUSH2 0xF5D JUMP JUMPDEST SWAP2 POP PUSH2 0x1558 DUP4 PUSH2 0xF5D JUMP JUMPDEST SWAP3 POP DUP3 PUSH2 0x1568 JUMPI PUSH2 0x1567 PUSH2 0x1513 JUMP JUMPDEST JUMPDEST DUP3 DUP3 DIV SWAP1 POP SWAP3 SWAP2 POP POP JUMP INVALID LOG2 PUSH5 0x6970667358 0x22 SLT KECCAK256 0xD4 SWAP5 CALLVALUE 0xA7 DUP10 PUSH24 0xFBAC29ED82E530A66DDD75169AD74FDB72B68425C73022DE STATICCALL 0xCE PUSH5 0x736F6C6343 STOP ADDMOD SLT STOP CALLER "
				},
				"gasEstimates": {
					"creation": {
						"codeDepositCost": "1109000",
						"executionCost": "infinite",
						"totalCost": "infinite"
					},
					"external": {
						"bid()": "infinite",
						"partialRefund()": "infinite",
						"refund()": "infinite",
						"showOffers()": "infinite",
						"showWinner()": "5033"
					},
					"internal": {
						"_checkFee(uint256)": "infinite",
						"_checkOffer(uint256)": "infinite"
					}
				},
				"methodIdentifiers": {
					"bid()": "1998aeef",
					"partialRefund()": "1ce2bcf5",
					"refund()": "590e1ae3",
					"showOffers()": "534823bf",
					"showWinner()": "b7e03264"
				}
			},
			"storageLayout": {
				"storage": [
					{
						"astId": 10,
						"contract": "Auction.sol:Auction",
						"label": "winner",
						"offset": 0,
						"slot": "0",
						"type": "t_struct(Biders)7_storage"
					},
					{
						"astId": 14,
						"contract": "Auction.sol:Auction",
						"label": "biders",
						"offset": 0,
						"slot": "2",
						"type": "t_array(t_struct(Biders)7_storage)dyn_storage"
					},
					{
						"astId": 35,
						"contract": "Auction.sol:Auction",
						"label": "feeOwner",
						"offset": 0,
						"slot": "3",
						"type": "t_uint256"
					},
					{
						"astId": 37,
						"contract": "Auction.sol:Auction",
						"label": "endTime",
						"offset": 0,
						"slot": "4",
						"type": "t_uint256"
					},
					{
						"astId": 41,
						"contract": "Auction.sol:Auction",
						"label": "balance",
						"offset": 0,
						"slot": "5",
						"type": "t_mapping(t_address,t_uint256)"
					}
				],
				"types": {
					"t_address": {
						"encoding": "inplace",
						"label": "address",
						"numberOfBytes": "20"
					},
					"t_array(t_struct(Biders)7_storage)dyn_storage": {
						"base": "t_struct(Biders)7_storage",
						"encoding": "dynamic_array",
						"label": "struct Auction.Biders[]",
						"numberOfBytes": "32"
					},
					"t_mapping(t_address,t_uint256)": {
						"encoding": "mapping",
						"key": "t_address",
						"label": "mapping(address => uint256)",
						"numberOfBytes": "32",
						"value": "t_uint256"
					},
					"t_struct(Biders)7_storage": {
						"encoding": "inplace",
						"label": "struct Auction.Biders",
						"members": [
							{
								"astId": 4,
								"contract": "Auction.sol:Auction",
								"label": "bider",
								"offset": 0,
								"slot": "0",
								"type": "t_address"
							},
							{
								"astId": 6,
								"contract": "Auction.sol:Auction",
								"label": "value",
								"offset": 0,
								"slot": "1",
								"type": "t_uint256"
							}
						],
						"numberOfBytes": "64"
					},
					"t_uint256": {
						"encoding": "inplace",
						"label": "uint256",
						"numberOfBytes": "32"
					}
				}
			},
			"userdoc": {
				"kind": "user",
				"methods": {
					"bid()": {
						"notice": "Allows users to place a new bid that is at least 5% higher than the current winning bid."
					},
					"partialRefund()": {
						"notice": "Allows a bidder to withdraw part of their balance during the auction."
					},
					"refund()": {
						"notice": "Ends the auction, refunds losing bidders, and sends the fee to the owner."
					},
					"showOffers()": {
						"notice": "Returns all submitted bids."
					},
					"showWinner()": {
						"notice": "Returns the current highest bidder and their bid."
					}
				},
				"version": 1
			}
		}
	}
}