{
	"data": {
		"bytecode": {
			"linkReferences": {},
			"object": "60c06040523480156200001157600080fd5b503373ffffffffffffffffffffffffffffffffffffffff1660808173ffffffffffffffffffffffffffffffffffffffff16815250504260a0818152505062093a8060a051620000619190620000a6565b600481905550620000e1565b6000819050919050565b7f4e487b7100000000000000000000000000000000000000000000000000000000600052601160045260246000fd5b6000620000b3826200006d565b9150620000c0836200006d565b9250828201905080821115620000db57620000da62000077565b5b92915050565b60805160a0516115a96200010b600039600050506000818161079b0152610cbd01526115a96000f3fe60806040526004361061004a5760003560e01c80631998aeef1461004f5780631ce2bcf514610059578063534823bf14610070578063590e1ae31461009b578063b7e03264146100b2575b600080fd5b6100576100dd565b005b34801561006557600080fd5b5061006e6103c3565b005b34801561007c57600080fd5b506100856106c3565b6040516100929190611028565b60405180910390f35b3480156100a757600080fd5b506100b0610782565b005b3480156100be57600080fd5b506100c7610e02565b6040516100d49190611079565b60405180910390f35b6004544210610121576040517f08c379a0000000000000000000000000000000000000000000000000000000008152600401610118906110f1565b60405180910390fd5b600073ffffffffffffffffffffffffffffffffffffffff163373ffffffffffffffffffffffffffffffffffffffff1603610190576040517f08c379a00000000000000000000000000000000000000000000000000000000081526004016101879061115d565b60405180910390fd5b6000349050600033905060006101aa600060010154610e7c565b9050808311156103be5782600060010181905550816000800160006101000a81548173ffffffffffffffffffffffffffffffffffffffff021916908373ffffffffffffffffffffffffffffffffffffffff160217905550600260405180604001604052808473ffffffffffffffffffffffffffffffffffffffff16815260200185815250908060018154018082558091505060019003906000526020600020906002020160009091909190915060008201518160000160006101000a81548173ffffffffffffffffffffffffffffffffffffffff021916908373ffffffffffffffffffffffffffffffffffffffff16021790555060208201518160010155505082600560008473ffffffffffffffffffffffffffffffffffffffff1673ffffffffffffffffffffffffffffffffffffffff16815260200190815260200160002060008282546102f991906111ac565b925050819055508173ffffffffffffffffffffffffffffffffffffffff167fdeda60fb6e38f55d4ccab679f50f933d04b1dca8584775216dbdac46f251ca4a8460405161034691906111ef565b60405180910390a260004260045461035e919061120a565b905061025881116103bc57806004600082825461037b91906111ac565b925050819055507fc2b459809119087ca9d2bc10dea53a51b7d848b1a11075db037bdca58292c3e86004546040516103b391906111ef565b60405180910390a15b505b505050565b6004544210610407576040517f08c379a00000000000000000000000000000000000000000000000000000000081526004016103fe906110f1565b60405180910390fd5b6000600560003373ffffffffffffffffffffffffffffffffffffffff1673ffffffffffffffffffffffffffffffffffffffff1681526020019081526020016000205411610489576040517f08c379a00000000000000000000000000000000000000000000000000000000081526004016104809061128a565b60405180910390fd5b3373ffffffffffffffffffffffffffffffffffffffff166000800160009054906101000a900473ffffffffffffffffffffffffffffffffffffffff1673ffffffffffffffffffffffffffffffffffffffff160361053c57600060010154600560003373ffffffffffffffffffffffffffffffffffffffff1673ffffffffffffffffffffffffffffffffffffffff1681526020019081526020016000206000828254610534919061120a565b925050819055505b6000600560003373ffffffffffffffffffffffffffffffffffffffff1673ffffffffffffffffffffffffffffffffffffffff1681526020019081526020016000205490506000600560003373ffffffffffffffffffffffffffffffffffffffff1673ffffffffffffffffffffffffffffffffffffffff1681526020019081526020016000208190555060003373ffffffffffffffffffffffffffffffffffffffff16826040516105eb906112db565b60006040518083038185875af1925050503d8060008114610628576040519150601f19603f3d011682016040523d82523d6000602084013e61062d565b606091505b5050905080610671576040517f08c379a00000000000000000000000000000000000000000000000000000000081526004016106689061133c565b60405180910390fd5b3373ffffffffffffffffffffffffffffffffffffffff167fdce68997783ae47468b6fb0dd39cca315f9082d51d9ab3df8747c70512aa8ff2836040516106b791906111ef565b60405180910390a25050565b60606002805480602002602001604051908101604052809291908181526020016000905b8282101561077957838290600052602060002090600202016040518060400160405290816000820160009054906101000a900473ffffffffffffffffffffffffffffffffffffffff1673ffffffffffffffffffffffffffffffffffffffff1673ffffffffffffffffffffffffffffffffffffffff168152602001600182015481525050815260200190600101906106e7565b50505050905090565b3373ffffffffffffffffffffffffffffffffffffffff167f000000000000000000000000000000000000000000000000000000000000000073ffffffffffffffffffffffffffffffffffffffff1614610810576040517f08c379a0000000000000000000000000000000000000000000000000000000008152600401610807906113ce565b60405180910390fd5b6004544211610854576040517f08c379a000000000000000000000000000000000000000000000000000000000815260040161084b9061143a565b60405180910390fd5b6000600280549050905060005b81811015610cb8576000610899600283815481106108825761088161145a565b5b906000526020600020906002020160010154610e9e565b905080600360008282546108ad91906111ac565b92505081905550600282815481106108c8576108c761145a565b5b906000526020600020906002020160000160009054906101000a900473ffffffffffffffffffffffffffffffffffffffff1673ffffffffffffffffffffffffffffffffffffffff166000800160009054906101000a900473ffffffffffffffffffffffffffffffffffffffff1673ffffffffffffffffffffffffffffffffffffffff161480156109815750600282815481106109675761096661145a565b5b906000526020600020906002020160010154600060010154145b15610a1557600060056000600285815481106109a05761099f61145a565b5b906000526020600020906002020160000160009054906101000a900473ffffffffffffffffffffffffffffffffffffffff1673ffffffffffffffffffffffffffffffffffffffff1673ffffffffffffffffffffffffffffffffffffffff16815260200190815260200160002081905550610ca4565b60006005600060028581548110610a2f57610a2e61145a565b5b906000526020600020906002020160000160009054906101000a900473ffffffffffffffffffffffffffffffffffffffff1673ffffffffffffffffffffffffffffffffffffffff1673ffffffffffffffffffffffffffffffffffffffff168152602001908152602001600020541115610ca357600060028381548110610ab857610ab761145a565b5b906000526020600020906002020160000160009054906101000a900473ffffffffffffffffffffffffffffffffffffffff1673ffffffffffffffffffffffffffffffffffffffff166005600060028681548110610b1857610b1761145a565b5b906000526020600020906002020160000160009054906101000a900473ffffffffffffffffffffffffffffffffffffffff1673ffffffffffffffffffffffffffffffffffffffff1673ffffffffffffffffffffffffffffffffffffffff16815260200190815260200160002054604051610b91906112db565b60006040518083038185875af1925050503d8060008114610bce576040519150601f19603f3d011682016040523d82523d6000602084013e610bd3565b606091505b5050905080610c17576040517f08c379a0000000000000000000000000000000000000000000000000000000008152600401610c0e9061133c565b60405180910390fd5b60006005600060028681548110610c3157610c3061145a565b5b906000526020600020906002020160000160009054906101000a900473ffffffffffffffffffffffffffffffffffffffff1673ffffffffffffffffffffffffffffffffffffffff1673ffffffffffffffffffffffffffffffffffffffff16815260200190815260200160002081905550505b5b508080610cb090611489565b915050610861565b5060007f000000000000000000000000000000000000000000000000000000000000000073ffffffffffffffffffffffffffffffffffffffff16600354604051610d01906112db565b60006040518083038185875af1925050503d8060008114610d3e576040519150601f19603f3d011682016040523d82523d6000602084013e610d43565b606091505b5050905080610d87576040517f08c379a0000000000000000000000000000000000000000000000000000000008152600401610d7e9061133c565b60405180910390fd5b6000800160009054906101000a900473ffffffffffffffffffffffffffffffffffffffff1673ffffffffffffffffffffffffffffffffffffffff167f7a0ca0f54eafb83c8787175794658805fdf3cd42ef7b6d675aa3e3c06ae34758600060010154604051610df691906111ef565b60405180910390a25050565b610e0a610ec0565b60006040518060400160405290816000820160009054906101000a900473ffffffffffffffffffffffffffffffffffffffff1673ffffffffffffffffffffffffffffffffffffffff1673ffffffffffffffffffffffffffffffffffffffff168152602001600182015481525050905090565b60006064606983610e8d91906114d1565b610e979190611542565b9050919050565b60006064600283610eaf91906114d1565b610eb99190611542565b9050919050565b6040518060400160405280600073ffffffffffffffffffffffffffffffffffffffff168152602001600081525090565b600081519050919050565b600082825260208201905092915050565b6000819050602082019050919050565b600073ffffffffffffffffffffffffffffffffffffffff82169050919050565b6000610f4782610f1c565b9050919050565b610f5781610f3c565b82525050565b6000819050919050565b610f7081610f5d565b82525050565b604082016000820151610f8c6000850182610f4e565b506020820151610f9f6020850182610f67565b50505050565b6000610fb18383610f76565b60408301905092915050565b6000602082019050919050565b6000610fd582610ef0565b610fdf8185610efb565b9350610fea83610f0c565b8060005b8381101561101b5781516110028882610fa5565b975061100d83610fbd565b925050600181019050610fee565b5085935050505092915050565b600060208201905081810360008301526110428184610fca565b905092915050565b6040820160008201516110606000850182610f4e565b5060208201516110736020850182610f67565b50505050565b600060408201905061108e600083018461104a565b92915050565b600082825260208201905092915050565b7f4269642066696e69736865640000000000000000000000000000000000000000600082015250565b60006110db600c83611094565b91506110e6826110a5565b602082019050919050565b6000602082019050818103600083015261110a816110ce565b9050919050565b7f496e76616c69642073656e646572206164647265737300000000000000000000600082015250565b6000611147601683611094565b915061115282611111565b602082019050919050565b600060208201905081810360008301526111768161113a565b9050919050565b7f4e487b7100000000000000000000000000000000000000000000000000000000600052601160045260246000fd5b60006111b782610f5d565b91506111c283610f5d565b92508282019050808211156111da576111d961117d565b5b92915050565b6111e981610f5d565b82525050565b600060208201905061120460008301846111e0565b92915050565b600061121582610f5d565b915061122083610f5d565b92508282039050818111156112385761123761117d565b5b92915050565b7f4e6f7468696e6720746f20776974686472617700000000000000000000000000600082015250565b6000611274601383611094565b915061127f8261123e565b602082019050919050565b600060208201905081810360008301526112a381611267565b9050919050565b600081905092915050565b50565b60006112c56000836112aa565b91506112d0826112b5565b600082019050919050565b60006112e6826112b8565b9150819050919050565b7f5472616e73666572204661696c65640000000000000000000000000000000000600082015250565b6000611326600f83611094565b9150611331826112f0565b602082019050919050565b6000602082019050818103600083015261135581611319565b9050919050565b7f4f6e6c7920746865206f776e65722063616e2072756e20746869732066756e6360008201527f74696f6e00000000000000000000000000000000000000000000000000000000602082015250565b60006113b8602483611094565b91506113c38261135c565b604082019050919050565b600060208201905081810360008301526113e7816113ab565b9050919050565b7f426964206e6f742066696e697368656420796574000000000000000000000000600082015250565b6000611424601483611094565b915061142f826113ee565b602082019050919050565b6000602082019050818103600083015261145381611417565b9050919050565b7f4e487b7100000000000000000000000000000000000000000000000000000000600052603260045260246000fd5b600061149482610f5d565b91507fffffffffffffffffffffffffffffffffffffffffffffffffffffffffffffffff82036114c6576114c561117d565b5b600182019050919050565b60006114dc82610f5d565b91506114e783610f5d565b92508282026114f581610f5d565b9150828204841483151761150c5761150b61117d565b5b5092915050565b7f4e487b7100000000000000000000000000000000000000000000000000000000600052601260045260246000fd5b600061154d82610f5d565b915061155883610f5d565b92508261156857611567611513565b5b82820490509291505056fea2646970667358221220d49434a78977fbac29ed82e530a66ddd75169ad74fdb72b68425c73022deface64736f6c63430008120033",
			"opcodes": "PUSH1 0xC0 PUSH1 0x40 MSTORE CALLVALUE DUP1 ISZERO PUSH3 0x11 JUMPI PUSH1 0x0 DUP1 REVERT JUMPDEST POP CALLER PUSH20 0xFFFFFFFFFFFFFFFFFFFFFFFFFFFFFFFFFFFFFFFF AND PUSH1 0x80 DUP2 PUSH20 0xFFFFFFFFFFFFFFFFFFFFFFFFFFFFFFFFFFFFFFFF AND DUP2 MSTORE POP POP TIMESTAMP PUSH1 0xA0 DUP2 DUP2 MSTORE POP POP PUSH3 0x93A80 PUSH1 0xA0 MLOAD PUSH3 0x61 SWAP2 SWAP1 PUSH3 0xA6 JUMP JUMPDEST PUSH1 0x4 DUP2 SWAP1 SSTORE POP PUSH3 0xE1 JUMP JUMPDEST PUSH1 0x0 DUP2 SWAP1 POP SWAP2 SWAP1 POP JUMP JUMPDEST PUSH32 0x4E487B7100000000000000000000000000000000000000000000000000000000 PUSH1 0x0 MSTORE PUSH1 0x11 PUSH1 0x4 MSTORE PUSH1 0x24 PUSH1 0x0 REVERT JUMPDEST PUSH1 0x0 PUSH3 0xB3 DUP3 PUSH3 0x6D JUMP JUMPDEST SWAP2 POP PUSH3 0xC0 DUP4 PUSH3 0x6D JUMP JUMPDEST SWAP3 POP DUP3 DUP3 ADD SWAP1 POP DUP1 DUP3 GT ISZERO PUSH3 0xDB JUMPI PUSH3 0xDA PUSH3 0x77 JUMP JUMPDEST JUMPDEST SWAP3 SWAP2 POP POP JUMP JUMPDEST PUSH1 0x80 MLOAD PUSH1 0xA0 MLOAD PUSH2 0x15A9 PUSH3 0x10B PUSH1 0x0 CODECOPY PUSH1 0x0 POP POP PUSH1 0x0 DUP2 DUP2 PUSH2 0x79B ADD MSTORE PUSH2 0xCBD ADD MSTORE PUSH2 0x15A9 PUSH1 0x0 RETURN INVALID PUSH1 0x80 PUSH1 0x40 MSTORE PUSH1 0x4 CALLDATASIZE LT PUSH2 0x4A JUMPI PUSH1 0x0 CALLDATALOAD PUSH1 0xE0 SHR DUP1 PUSH4 0x1998AEEF EQ PUSH2 0x4F JUMPI DUP1 PUSH4 0x1CE2BCF5 EQ PUSH2 0x59 JUMPI DUP1 PUSH4 0x534823BF EQ PUSH2 0x70 JUMPI DUP1 PUSH4 0x590E1AE3 EQ PUSH2 0x9B JUMPI DUP1 PUSH4 0xB7E03264 EQ PUSH2 0xB2 JUMPI JUMPDEST PUSH1 0x0 DUP1 REVERT JUMPDEST PUSH2 0x57 PUSH2 0xDD JUMP JUMPDEST STOP JUMPDEST CALLVALUE DUP1 ISZERO PUSH2 0x65 JUMPI PUSH1 0x0 DUP1 REVERT JUMPDEST POP PUSH2 0x6E PUSH2 0x3C3 JUMP JUMPDEST STOP JUMPDEST CALLVALUE DUP1 ISZERO PUSH2 0x7C JUMPI PUSH1 0x0 DUP1 REVERT JUMPDEST POP PUSH2 0x85 PUSH2 0x6C3 JUMP JUMPDEST PUSH1 0x40 MLOAD PUSH2 0x92 SWAP2 SWAP1 PUSH2 0x1028 JUMP JUMPDEST PUSH1 0x40 MLOAD DUP1 SWAP2 SUB SWAP1 RETURN JUMPDEST CALLVALUE DUP1 ISZERO PUSH2 0xA7 JUMPI PUSH1 0x0 DUP1 REVERT JUMPDEST POP PUSH2 0xB0 PUSH2 0x782 JUMP JUMPDEST STOP JUMPDEST CALLVALUE DUP1 ISZERO PUSH2 0xBE JUMPI PUSH1 0x0 DUP1 REVERT JUMPDEST POP PUSH2 0xC7 PUSH2 0xE02 JUMP JUMPDEST PUSH1 0x40 MLOAD PUSH2 0xD4 SWAP2 SWAP1 PUSH2 0x1079 JUMP JUMPDEST PUSH1 0x40 MLOAD DUP1 SWAP2 SUB SWAP1 RETURN JUMPDEST PUSH1 0x4 SLOAD TIMESTAMP LT PUSH2 0x121 JUMPI PUSH1 0x40 MLOAD PUSH32 0x8C379A000000000000000000000000000000000000000000000000000000000 DUP2 MSTORE PUSH1 0x4 ADD PUSH2 0x118 SWAP1 PUSH2 0x10F1 JUMP JUMPDEST PUSH1 0x40 MLOAD DUP1 SWAP2 SUB SWAP1 REVERT JUMPDEST PUSH1 0x0 PUSH20 0xFFFFFFFFFFFFFFFFFFFFFFFFFFFFFFFFFFFFFFFF AND CALLER PUSH20 0xFFFFFFFFFFFFFFFFFFFFFFFFFFFFFFFFFFFFFFFF AND SUB PUSH2 0x190 JUMPI PUSH1 0x40 MLOAD PUSH32 0x8C379A000000000000000000000000000000000000000000000000000000000 DUP2 MSTORE PUSH1 0x4 ADD PUSH2 0x187 SWAP1 PUSH2 0x115D JUMP JUMPDEST PUSH1 0x40 MLOAD DUP1 SWAP2 SUB SWAP1 REVERT JUMPDEST PUSH1 0x0 CALLVALUE SWAP1 POP PUSH1 0x0 CALLER SWAP1 POP PUSH1 0x0 PUSH2 0x1AA PUSH1 0x0 PUSH1 0x1 ADD SLOAD PUSH2 0xE7C JUMP JUMPDEST SWAP1 POP DUP1 DUP4 GT ISZERO PUSH2 0x3BE JUMPI DUP3 PUSH1 0x0 PUSH1 0x1 ADD DUP2 SWAP1 SSTORE POP DUP2 PUSH1 0x0 DUP1 ADD PUSH1 0x0 PUSH2 0x100 EXP DUP2 SLOAD DUP2 PUSH20 0xFFFFFFFFFFFFFFFFFFFFFFFFFFFFFFFFFFFFFFFF MUL NOT AND SWAP1 DUP4 PUSH20 0xFFFFFFFFFFFFFFFFFFFFFFFFFFFFFFFFFFFFFFFF AND MUL OR SWAP1 SSTORE POP PUSH1 0x2 PUSH1 0x40 MLOAD DUP1 PUSH1 0x40 ADD PUSH1 0x40 MSTORE DUP1 DUP5 PUSH20 0xFFFFFFFFFFFFFFFFFFFFFFFFFFFFFFFFFFFFFFFF AND DUP2 MSTORE PUSH1 0x20 ADD DUP6 DUP2 MSTORE POP SWAP1 DUP1 PUSH1 0x1 DUP2 SLOAD ADD DUP1 DUP3 SSTORE DUP1 SWAP2 POP POP PUSH1 0x1 SWAP1 SUB SWAP1 PUSH1 0x0 MSTORE PUSH1 0x20 PUSH1 0x0 KECCAK256 SWAP1 PUSH1 0x2 MUL ADD PUSH1 0x0 SWAP1 SWAP2 SWAP1 SWAP2 SWAP1 SWAP2 POP PUSH1 0x0 DUP3 ADD MLOAD DUP2 PUSH1 0x0 ADD PUSH1 0x0 PUSH2 0x100 EXP DUP2 SLOAD DUP2 PUSH20 0xFFFFFFFFFFFFFFFFFFFFFFFFFFFFFFFFFFFFFFFF MUL NOT AND SWAP1 DUP4 PUSH20 0xFFFFFFFFFFFFFFFFFFFFFFFFFFFFFFFFFFFFFFFF AND MUL OR SWAP1 SSTORE POP PUSH1 0x20 DUP3 ADD MLOAD DUP2 PUSH1 0x1 ADD SSTORE POP POP DUP3 PUSH1 0x5 PUSH1 0x0 DUP5 PUSH20 0xFFFFFFFFFFFFFFFFFFFFFFFFFFFFFFFFFFFFFFFF AND PUSH20 0xFFFFFFFFFFFFFFFFFFFFFFFFFFFFFFFFFFFFFFFF AND DUP2 MSTORE PUSH1 0x20 ADD SWAP1 DUP2 MSTORE PUSH1 0x20 ADD PUSH1 0x0 KECCAK256 PUSH1 0x0 DUP3 DUP3 SLOAD PUSH2 0x2F9 SWAP2 SWAP1 PUSH2 0x11AC JUMP JUMPDEST SWAP3 POP POP DUP2 SWAP1 SSTORE POP DUP2 PUSH20 0xFFFFFFFFFFFFFFFFFFFFFFFFFFFFFFFFFFFFFFFF AND PUSH32 0xDEDA60FB6E38F55D4CCAB679F50F933D04B1DCA8584775216DBDAC46F251CA4A DUP5 PUSH1 0x40 MLOAD PUSH2 0x346 SWAP2 SWAP1 PUSH2 0x11EF JUMP JUMPDEST PUSH1 0x40 MLOAD DUP1 SWAP2 SUB SWAP1 LOG2 PUSH1 0x0 TIMESTAMP PUSH1 0x4 SLOAD PUSH2 0x35E SWAP2 SWAP1 PUSH2 0x120A JUMP JUMPDEST SWAP1 POP PUSH2 0x258 DUP2 GT PUSH2 0x3BC JUMPI DUP1 PUSH1 0x4 PUSH1 0x0 DUP3 DUP3 SLOAD PUSH2 0x37B SWAP2 SWAP1 PUSH2 0x11AC JUMP JUMPDEST SWAP3 POP POP DUP2 SWAP1 SSTORE POP PUSH32 0xC2B459809119087CA9D2BC10DEA53A51B7D848B1A11075DB037BDCA58292C3E8 PUSH1 0x4 SLOAD PUSH1 0x40 MLOAD PUSH2 0x3B3 SWAP2 SWAP1 PUSH2 0x11EF JUMP JUMPDEST PUSH1 0x40 MLOAD DUP1 SWAP2 SUB SWAP1 LOG1 JUMPDEST POP JUMPDEST POP POP POP JUMP JUMPDEST PUSH1 0x4 SLOAD TIMESTAMP LT PUSH2 0x407 JUMPI PUSH1 0x40 MLOAD PUSH32 0x8C379A000000000000000000000000000000000000000000000000000000000 DUP2 MSTORE PUSH1 0x4 ADD PUSH2 0x3FE SWAP1 PUSH2 0x10F1 JUMP JUMPDEST PUSH1 0x40 MLOAD DUP1 SWAP2 SUB SWAP1 REVERT JUMPDEST PUSH1 0x0 PUSH1 0x5 PUSH1 0x0 CALLER PUSH20 0xFFFFFFFFFFFFFFFFFFFFFFFFFFFFFFFFFFFFFFFF AND PUSH20 0xFFFFFFFFFFFFFFFFFFFFFFFFFFFFFFFFFFFFFFFF AND DUP2 MSTORE PUSH1 0x20 ADD SWAP1 DUP2 MSTORE PUSH1 0x20 ADD PUSH1 0x0 KECCAK256 SLOAD GT PUSH2 0x489 JUMPI PUSH1 0x40 MLOAD PUSH32 0x8C379A000000000000000000000000000000000000000000000000000000000 DUP2 MSTORE PUSH1 0x4 ADD PUSH2 0x480 SWAP1 PUSH2 0x128A JUMP JUMPDEST PUSH1 0x40 MLOAD DUP1 SWAP2 SUB SWAP1 REVERT JUMPDEST CALLER PUSH20 0xFFFFFFFFFFFFFFFFFFFFFFFFFFFFFFFFFFFFFFFF AND PUSH1 0x0 DUP1 ADD PUSH1 0x0 SWAP1 SLOAD SWAP1 PUSH2 0x100 EXP SWAP1 DIV PUSH20 0xFFFFFFFFFFFFFFFFFFFFFFFFFFFFFFFFFFFFFFFF AND PUSH20 0xFFFFFFFFFFFFFFFFFFFFFFFFFFFFFFFFFFFFFFFF AND SUB PUSH2 0x53C JUMPI PUSH1 0x0 PUSH1 0x1 ADD SLOAD PUSH1 0x5 PUSH1 0x0 CALLER PUSH20 0xFFFFFFFFFFFFFFFFFFFFFFFFFFFFFFFFFFFFFFFF AND PUSH20 0xFFFFFFFFFFFFFFFFFFFFFFFFFFFFFFFFFFFFFFFF AND DUP2 MSTORE PUSH1 0x20 ADD SWAP1 DUP2 MSTORE PUSH1 0x20 ADD PUSH1 0x0 KECCAK256 PUSH1 0x0 DUP3 DUP3 SLOAD PUSH2 0x534 SWAP2 SWAP1 PUSH2 0x120A JUMP JUMPDEST SWAP3 POP POP DUP2 SWAP1 SSTORE POP JUMPDEST PUSH1 0x0 PUSH1 0x5 PUSH1 0x0 CALLER PUSH20 0xFFFFFFFFFFFFFFFFFFFFFFFFFFFFFFFFFFFFFFFF AND PUSH20 0xFFFFFFFFFFFFFFFFFFFFFFFFFFFFFFFFFFFFFFFF AND DUP2 MSTORE PUSH1 0x20 ADD SWAP1 DUP2 MSTORE PUSH1 0x20 ADD PUSH1 0x0 KECCAK256 SLOAD SWAP1 POP PUSH1 0x0 PUSH1 0x5 PUSH1 0x0 CALLER PUSH20 0xFFFFFFFFFFFFFFFFFFFFFFFFFFFFFFFFFFFFFFFF AND PUSH20 0xFFFFFFFFFFFFFFFFFFFFFFFFFFFFFFFFFFFFFFFF AND DUP2 MSTORE PUSH1 0x20 ADD SWAP1 DUP2 MSTORE PUSH1 0x20 ADD PUSH1 0x0 KECCAK256 DUP2 SWAP1 SSTORE POP PUSH1 0x0 CALLER PUSH20 0xFFFFFFFFFFFFFFFFFFFFFFFFFFFFFFFFFFFFFFFF AND DUP3 PUSH1 0x40 MLOAD PUSH2 0x5EB SWAP1 PUSH2 0x12DB JUMP JUMPDEST PUSH1 0x0 PUSH1 0x40 MLOAD DUP1 DUP4 SUB DUP2 DUP6 DUP8 GAS CALL SWAP3 POP POP POP RETURNDATASIZE DUP1 PUSH1 0x0 DUP2 EQ PUSH2 0x628 JUMPI PUSH1 0x40 MLOAD SWAP2 POP PUSH1 0x1F NOT PUSH1 0x3F RETURNDATASIZE ADD AND DUP3 ADD PUSH1 0x40 MSTORE RETURNDATASIZE DUP3 MSTORE RETURNDATASIZE PUSH1 0x0 PUSH1 0x20 DUP5 ADD RETURNDATACOPY PUSH2 0x62D JUMP JUMPDEST PUSH1 0x60 SWAP2 POP JUMPDEST POP POP SWAP1 POP DUP1 PUSH2 0x671 JUMPI PUSH1 0x40 MLOAD PUSH32 0x8C379A000000000000000000000000000000000000000000000000000000000 DUP2 MSTORE PUSH1 0x4 ADD PUSH2 0x668 SWAP1 PUSH2 0x133C JUMP JUMPDEST PUSH1 0x40 MLOAD DUP1 SWAP2 SUB SWAP1 REVERT JUMPDEST CALLER PUSH20 0xFFFFFFFFFFFFFFFFFFFFFFFFFFFFFFFFFFFFFFFF AND PUSH32 0xDCE68997783AE47468B6FB0DD39CCA315F9082D51D9AB3DF8747C70512AA8FF2 DUP4 PUSH1 0x40 MLOAD PUSH2 0x6B7 SWAP2 SWAP1 PUSH2 0x11EF JUMP JUMPDEST PUSH1 0x40 MLOAD DUP1 SWAP2 SUB SWAP1 LOG2 POP POP JUMP JUMPDEST PUSH1 0x60 PUSH1 0x2 DUP1 SLOAD DUP1 PUSH1 0x20 MUL PUSH1 0x20 ADD PUSH1 0x40 MLOAD SWAP1 DUP2 ADD PUSH1 0x40 MSTORE DUP1 SWAP3 SWAP2 SWAP1 DUP2 DUP2 MSTORE PUSH1 0x20 ADD PUSH1 0x0 SWAP1 JUMPDEST DUP3 DUP3 LT ISZERO PUSH2 0x779 JUMPI DUP4 DUP3 SWAP1 PUSH1 0x0 MSTORE PUSH1 0x20 PUSH1 0x0 KECCAK256 SWAP1 PUSH1 0x2 MUL ADD PUSH1 0x40 MLOAD DUP1 PUSH1 0x40 ADD PUSH1 0x40 MSTORE SWAP1 DUP2 PUSH1 0x0 DUP3 ADD PUSH1 0x0 SWAP1 SLOAD SWAP1 PUSH2 0x100 EXP SWAP1 DIV PUSH20 0xFFFFFFFFFFFFFFFFFFFFFFFFFFFFFFFFFFFFFFFF AND PUSH20 0xFFFFFFFFFFFFFFFFFFFFFFFFFFFFFFFFFFFFFFFF AND PUSH20 0xFFFFFFFFFFFFFFFFFFFFFFFFFFFFFFFFFFFFFFFF AND DUP2 MSTORE PUSH1 0x20 ADD PUSH1 0x1 DUP3 ADD SLOAD DUP2 MSTORE POP POP DUP2 MSTORE PUSH1 0x20 ADD SWAP1 PUSH1 0x1 ADD SWAP1 PUSH2 0x6E7 JUMP JUMPDEST POP POP POP POP SWAP1 POP SWAP1 JUMP JUMPDEST CALLER PUSH20 0xFFFFFFFFFFFFFFFFFFFFFFFFFFFFFFFFFFFFFFFF AND PUSH32 0x0 PUSH20 0xFFFFFFFFFFFFFFFFFFFFFFFFFFFFFFFFFFFFFFFF AND EQ PUSH2 0x810 JUMPI PUSH1 0x40 MLOAD PUSH32 0x8C379A000000000000000000000000000000000000000000000000000000000 DUP2 MSTORE PUSH1 0x4 ADD PUSH2 0x807 SWAP1 PUSH2 0x13CE JUMP JUMPDEST PUSH1 0x40 MLOAD DUP1 SWAP2 SUB SWAP1 REVERT JUMPDEST PUSH1 0x4 SLOAD TIMESTAMP GT PUSH2 0x854 JUMPI PUSH1 0x40 MLOAD PUSH32 0x8C379A000000000000000000000000000000000000000000000000000000000 DUP2 MSTORE PUSH1 0x4 ADD PUSH2 0x84B SWAP1 PUSH2 0x143A JUMP JUMPDEST PUSH1 0x40 MLOAD DUP1 SWAP2 SUB SWAP1 REVERT JUMPDEST PUSH1 0x0 PUSH1 0x2 DUP1 SLOAD SWAP1 POP SWAP1 POP PUSH1 0x0 JUMPDEST DUP2 DUP2 LT ISZERO PUSH2 0xCB8 JUMPI PUSH1 0x0 PUSH2 0x899 PUSH1 0x2 DUP4 DUP2 SLOAD DUP2 LT PUSH2 0x882 JUMPI PUSH2 0x881 PUSH2 0x145A JUMP JUMPDEST JUMPDEST SWAP1 PUSH1 0x0 MSTORE PUSH1 0x20 PUSH1 0x0 KECCAK256 SWAP1 PUSH1 0x2 MUL ADD PUSH1 0x1 ADD SLOAD PUSH2 0xE9E JUMP JUMPDEST SWAP1 POP DUP1 PUSH1 0x3 PUSH1 0x0 DUP3 DUP3 SLOAD PUSH2 0x8AD SWAP2 SWAP1 PUSH2 0x11AC JUMP JUMPDEST SWAP3 POP POP DUP2 SWAP1 SSTORE POP PUSH1 0x2 DUP3 DUP2 SLOAD DUP2 LT PUSH2 0x8C8 JUMPI PUSH2 0x8C7 PUSH2 0x145A JUMP JUMPDEST JUMPDEST SWAP1 PUSH1 0x0 MSTORE PUSH1 0x20 PUSH1 0x0 KECCAK256 SWAP1 PUSH1 0x2 MUL ADD PUSH1 0x0 ADD PUSH1 0x0 SWAP1 SLOAD SWAP1 PUSH2 0x100 EXP SWAP1 DIV PUSH20 0xFFFFFFFFFFFFFFFFFFFFFFFFFFFFFFFFFFFFFFFF AND PUSH20 0xFFFFFFFFFFFFFFFFFFFFFFFFFFFFFFFFFFFFFFFF AND PUSH1 0x0 DUP1 ADD PUSH1 0x0 SWAP1 SLOAD SWAP1 PUSH2 0x100 EXP SWAP1 DIV PUSH20 0xFFFFFFFFFFFFFFFFFFFFFFFFFFFFFFFFFFFFFFFF AND PUSH20 0xFFFFFFFFFFFFFFFFFFFFFFFFFFFFFFFFFFFFFFFF AND EQ DUP1 ISZERO PUSH2 0x981 JUMPI POP PUSH1 0x2 DUP3 DUP2 SLOAD DUP2 LT PUSH2 0x967 JUMPI PUSH2 0x966 PUSH2 0x145A JUMP JUMPDEST JUMPDEST SWAP1 PUSH1 0x0 MSTORE PUSH1 0x20 PUSH1 0x0 KECCAK256 SWAP1 PUSH1 0x2 MUL ADD PUSH1 0x1 ADD SLOAD PUSH1 0x0 PUSH1 0x1 ADD SLOAD EQ JUMPDEST ISZERO PUSH2 0xA15 JUMPI PUSH1 0x0 PUSH1 0x5 PUSH1 0x0 PUSH1 0x2 DUP6 DUP2 SLOAD DUP2 LT PUSH2 0x9A0 JUMPI PUSH2 0x99F PUSH2 0x145A JUMP JUMPDEST JUMPDEST SWAP1 PUSH1 0x0 MSTORE PUSH1 0x20 PUSH1 0x0 KECCAK256 SWAP1 PUSH1 0x2 MUL ADD PUSH1 0x0 ADD PUSH1 0x0 SWAP1 SLOAD SWAP1 PUSH2 0x100 EXP SWAP1 DIV PUSH20 0xFFFFFFFFFFFFFFFFFFFFFFFFFFFFFFFFFFFFFFFF AND PUSH20 0xFFFFFFFFFFFFFFFFFFFFFFFFFFFFFFFFFFFFFFFF AND PUSH20 0xFFFFFFFFFFFFFFFFFFFFFFFFFFFFFFFFFFFFFFFF AND DUP2 MSTORE PUSH1 0x20 ADD SWAP1 DUP2 MSTORE PUSH1 0x20 ADD PUSH1 0x0 KECCAK256 DUP2 SWAP1 SSTORE POP PUSH2 0xCA4 JUMP JUMPDEST PUSH1 0x0 PUSH1 0x5 PUSH1 0x0 PUSH1 0x2 DUP6 DUP2 SLOAD DUP2 LT PUSH2 0xA2F JUMPI PUSH2 0xA2E PUSH2 0x145A JUMP JUMPDEST JUMPDEST SWAP1 PUSH1 0x0 MSTORE PUSH1 0x20 PUSH1 0x0 KECCAK256 SWAP1 PUSH1 0x2 MUL ADD PUSH1 0x0 ADD PUSH1 0x0 SWAP1 SLOAD SWAP1 PUSH2 0x100 EXP SWAP1 DIV PUSH20 0xFFFFFFFFFFFFFFFFFFFFFFFFFFFFFFFFFFFFFFFF AND PUSH20 0xFFFFFFFFFFFFFFFFFFFFFFFFFFFFFFFFFFFFFFFF AND PUSH20 0xFFFFFFFFFFFFFFFFFFFFFFFFFFFFFFFFFFFFFFFF AND DUP2 MSTORE PUSH1 0x20 ADD SWAP1 DUP2 MSTORE PUSH1 0x20 ADD PUSH1 0x0 KECCAK256 SLOAD GT ISZERO PUSH2 0xCA3 JUMPI PUSH1 0x0 PUSH1 0x2 DUP4 DUP2 SLOAD DUP2 LT PUSH2 0xAB8 JUMPI PUSH2 0xAB7 PUSH2 0x145A JUMP JUMPDEST JUMPDEST SWAP1 PUSH1 0x0 MSTORE PUSH1 0x20 PUSH1 0x0 KECCAK256 SWAP1 PUSH1 0x2 MUL ADD PUSH1 0x0 ADD PUSH1 0x0 SWAP1 SLOAD SWAP1 PUSH2 0x100 EXP SWAP1 DIV PUSH20 0xFFFFFFFFFFFFFFFFFFFFFFFFFFFFFFFFFFFFFFFF AND PUSH20 0xFFFFFFFFFFFFFFFFFFFFFFFFFFFFFFFFFFFFFFFF AND PUSH1 0x5 PUSH1 0x0 PUSH1 0x2 DUP7 DUP2 SLOAD DUP2 LT PUSH2 0xB18 JUMPI PUSH2 0xB17 PUSH2 0x145A JUMP JUMPDEST JUMPDEST SWAP1 PUSH1 0x0 MSTORE PUSH1 0x20 PUSH1 0x0 KECCAK256 SWAP1 PUSH1 0x2 MUL ADD PUSH1 0x0 ADD PUSH1 0x0 SWAP1 SLOAD SWAP1 PUSH2 0x100 EXP SWAP1 DIV PUSH20 0xFFFFFFFFFFFFFFFFFFFFFFFFFFFFFFFFFFFFFFFF AND PUSH20 0xFFFFFFFFFFFFFFFFFFFFFFFFFFFFFFFFFFFFFFFF AND PUSH20 0xFFFFFFFFFFFFFFFFFFFFFFFFFFFFFFFFFFFFFFFF AND DUP2 MSTORE PUSH1 0x20 ADD SWAP1 DUP2 MSTORE PUSH1 0x20 ADD PUSH1 0x0 KECCAK256 SLOAD PUSH1 0x40 MLOAD PUSH2 0xB91 SWAP1 PUSH2 0x12DB JUMP JUMPDEST PUSH1 0x0 PUSH1 0x40 MLOAD DUP1 DUP4 SUB DUP2 DUP6 DUP8 GAS CALL SWAP3 POP POP POP RETURNDATASIZE DUP1 PUSH1 0x0 DUP2 EQ PUSH2 0xBCE JUMPI PUSH1 0x40 MLOAD SWAP2 POP PUSH1 0x1F NOT PUSH1 0x3F RETURNDATASIZE ADD AND DUP3 ADD PUSH1 0x40 MSTORE RETURNDATASIZE DUP3 MSTORE RETURNDATASIZE PUSH1 0x0 PUSH1 0x20 DUP5 ADD RETURNDATACOPY PUSH2 0xBD3 JUMP JUMPDEST PUSH1 0x60 SWAP2 POP JUMPDEST POP POP SWAP1 POP DUP1 PUSH2 0xC17 JUMPI PUSH1 0x40 MLOAD PUSH32 0x8C379A000000000000000000000000000000000000000000000000000000000 DUP2 MSTORE PUSH1 0x4 ADD PUSH2 0xC0E SWAP1 PUSH2 0x133C JUMP JUMPDEST PUSH1 0x40 MLOAD DUP1 SWAP2 SUB SWAP1 REVERT JUMPDEST PUSH1 0x0 PUSH1 0x5 PUSH1 0x0 PUSH1 0x2 DUP7 DUP2 SLOAD DUP2 LT PUSH2 0xC31 JUMPI PUSH2 0xC30 PUSH2 0x145A JUMP JUMPDEST JUMPDEST SWAP1 PUSH1 0x0 MSTORE PUSH1 0x20 PUSH1 0x0 KECCAK256 SWAP1 PUSH1 0x2 MUL ADD PUSH1 0x0 ADD PUSH1 0x0 SWAP1 SLOAD SWAP1 PUSH2 0x100 EXP SWAP1 DIV PUSH20 0xFFFFFFFFFFFFFFFFFFFFFFFFFFFFFFFFFFFFFFFF AND PUSH20 0xFFFFFFFFFFFFFFFFFFFFFFFFFFFFFFFFFFFFFFFF AND PUSH20 0xFFFFFFFFFFFFFFFFFFFFFFFFFFFFFFFFFFFFFFFF AND DUP2 MSTORE PUSH1 0x20 ADD SWAP1 DUP2 MSTORE PUSH1 0x20 ADD PUSH1 0x0 KECCAK256 DUP2 SWAP1 SSTORE POP POP JUMPDEST JUMPDEST POP DUP1 DUP1 PUSH2 0xCB0 SWAP1 PUSH2 0x1489 JUMP JUMPDEST SWAP2 POP POP PUSH2 0x861 JUMP JUMPDEST POP PUSH1 0x0 PUSH32 0x0 PUSH20 0xFFFFFFFFFFFFFFFFFFFFFFFFFFFFFFFFFFFFFFFF AND PUSH1 0x3 SLOAD PUSH1 0x40 MLOAD PUSH2 0xD01 SWAP1 PUSH2 0x12DB JUMP JUMPDEST PUSH1 0x0 PUSH1 0x40 MLOAD DUP1 DUP4 SUB DUP2 DUP6 DUP8 GAS CALL SWAP3 POP POP POP RETURNDATASIZE DUP1 PUSH1 0x0 DUP2 EQ PUSH2 0xD3E JUMPI PUSH1 0x40 MLOAD SWAP2 POP PUSH1 0x1F NOT PUSH1 0x3F RETURNDATASIZE ADD AND DUP3 ADD PUSH1 0x40 MSTORE RETURNDATASIZE DUP3 MSTORE RETURNDATASIZE PUSH1 0x0 PUSH1 0x20 DUP5 ADD RETURNDATACOPY PUSH2 0xD43 JUMP JUMPDEST PUSH1 0x60 SWAP2 POP JUMPDEST POP POP SWAP1 POP DUP1 PUSH2 0xD87 JUMPI PUSH1 0x40 MLOAD PUSH32 0x8C379A000000000000000000000000000000000000000000000000000000000 DUP2 MSTORE PUSH1 0x4 ADD PUSH2 0xD7E SWAP1 PUSH2 0x133C JUMP JUMPDEST PUSH1 0x40 MLOAD DUP1 SWAP2 SUB SWAP1 REVERT JUMPDEST PUSH1 0x0 DUP1 ADD PUSH1 0x0 SWAP1 SLOAD SWAP1 PUSH2 0x100 EXP SWAP1 DIV PUSH20 0xFFFFFFFFFFFFFFFFFFFFFFFFFFFFFFFFFFFFFFFF AND PUSH20 0xFFFFFFFFFFFFFFFFFFFFFFFFFFFFFFFFFFFFFFFF AND PUSH32 0x7A0CA0F54EAFB83C8787175794658805FDF3CD42EF7B6D675AA3E3C06AE34758 PUSH1 0x0 PUSH1 0x1 ADD SLOAD PUSH1 0x40 MLOAD PUSH2 0xDF6 SWAP2 SWAP1 PUSH2 0x11EF JUMP JUMPDEST PUSH1 0x40 MLOAD DUP1 SWAP2 SUB SWAP1 LOG2 POP POP JUMP JUMPDEST PUSH2 0xE0A PUSH2 0xEC0 JUMP JUMPDEST PUSH1 0x0 PUSH1 0x40 MLOAD DUP1 PUSH1 0x40 ADD PUSH1 0x40 MSTORE SWAP1 DUP2 PUSH1 0x0 DUP3 ADD PUSH1 0x0 SWAP1 SLOAD SWAP1 PUSH2 0x100 EXP SWAP1 DIV PUSH20 0xFFFFFFFFFFFFFFFFFFFFFFFFFFFFFFFFFFFFFFFF AND PUSH20 0xFFFFFFFFFFFFFFFFFFFFFFFFFFFFFFFFFFFFFFFF AND PUSH20 0xFFFFFFFFFFFFFFFFFFFFFFFFFFFFFFFFFFFFFFFF AND DUP2 MSTORE PUSH1 0x20 ADD PUSH1 0x1 DUP3 ADD SLOAD DUP2 MSTORE POP POP SWAP1 POP SWAP1 JUMP JUMPDEST PUSH1 0x0 PUSH1 0x64 PUSH1 0x69 DUP4 PUSH2 0xE8D SWAP2 SWAP1 PUSH2 0x14D1 JUMP JUMPDEST PUSH2 0xE97 SWAP2 SWAP1 PUSH2 0x1542 JUMP JUMPDEST SWAP1 POP SWAP2 SWAP1 POP JUMP JUMPDEST PUSH1 0x0 PUSH1 0x64 PUSH1 0x2 DUP4 PUSH2 0xEAF SWAP2 SWAP1 PUSH2 0x14D1 JUMP JUMPDEST PUSH2 0xEB9 SWAP2 SWAP1 PUSH2 0x1542 JUMP JUMPDEST SWAP1 POP SWAP2 SWAP1 POP JUMP JUMPDEST PUSH1 0x40 MLOAD DUP1 PUSH1 0x40 ADD PUSH1 0x40 MSTORE DUP1 PUSH1 0x0 PUSH20 0xFFFFFFFFFFFFFFFFFFFFFFFFFFFFFFFFFFFFFFFF AND DUP2 MSTORE PUSH1 0x20 ADD PUSH1 0x0 DUP2 MSTORE POP SWAP1 JUMP JUMPDEST PUSH1 0x0 DUP2 MLOAD SWAP1 POP SWAP2 SWAP1 POP JUMP JUMPDEST PUSH1 0x0 DUP3 DUP3 MSTORE PUSH1 0x20 DUP3 ADD SWAP1 POP SWAP3 SWAP2 POP POP JUMP JUMPDEST PUSH1 0x0 DUP2 SWAP1 POP PUSH1 0x20 DUP3 ADD SWAP1 POP SWAP2 SWAP1 POP JUMP JUMPDEST PUSH1 0x0 PUSH20 0xFFFFFFFFFFFFFFFFFFFFFFFFFFFFFFFFFFFFFFFF DUP3 AND SWAP1 POP SWAP2 SWAP1 POP JUMP JUMPDEST PUSH1 0x0 PUSH2 0xF47 DUP3 PUSH2 0xF1C JUMP JUMPDEST SWAP1 POP SWAP2 SWAP1 POP JUMP JUMPDEST PUSH2 0xF57 DUP2 PUSH2 0xF3C JUMP JUMPDEST DUP3 MSTORE POP POP JUMP JUMPDEST PUSH1 0x0 DUP2 SWAP1 POP SWAP2 SWAP1 POP JUMP JUMPDEST PUSH2 0xF70 DUP2 PUSH2 0xF5D JUMP JUMPDEST DUP3 MSTORE POP POP JUMP JUMPDEST PUSH1 0x40 DUP3 ADD PUSH1 0x0 DUP3 ADD MLOAD PUSH2 0xF8C PUSH1 0x0 DUP6 ADD DUP3 PUSH2 0xF4E JUMP JUMPDEST POP PUSH1 0x20 DUP3 ADD MLOAD PUSH2 0xF9F PUSH1 0x20 DUP6 ADD DUP3 PUSH2 0xF67 JUMP JUMPDEST POP POP POP POP JUMP JUMPDEST PUSH1 0x0 PUSH2 0xFB1 DUP4 DUP4 PUSH2 0xF76 JUMP JUMPDEST PUSH1 0x40 DUP4 ADD SWAP1 POP SWAP3 SWAP2 POP POP JUMP JUMPDEST PUSH1 0x0 PUSH1 0x20 DUP3 ADD SWAP1 POP SWAP2 SWAP1 POP JUMP JUMPDEST PUSH1 0x0 PUSH2 0xFD5 DUP3 PUSH2 0xEF0 JUMP JUMPDEST PUSH2 0xFDF DUP2 DUP6 PUSH2 0xEFB JUMP JUMPDEST SWAP4 POP PUSH2 0xFEA DUP4 PUSH2 0xF0C JUMP JUMPDEST DUP1 PUSH1 0x0 JUMPDEST DUP4 DUP2 LT ISZERO PUSH2 0x101B JUMPI DUP2 MLOAD PUSH2 0x1002 DUP9 DUP3 PUSH2 0xFA5 JUMP JUMPDEST SWAP8 POP PUSH2 0x100D DUP4 PUSH2 0xFBD JUMP JUMPDEST SWAP3 POP POP PUSH1 0x1 DUP2 ADD SWAP1 POP PUSH2 0xFEE JUMP JUMPDEST POP DUP6 SWAP4 POP POP POP POP SWAP3 SWAP2 POP POP JUMP JUMPDEST PUSH1 0x0 PUSH1 0x20 DUP3 ADD SWAP1 POP DUP2 DUP2 SUB PUSH1 0x0 DUP4 ADD MSTORE PUSH2 0x1042 DUP2 DUP5 PUSH2 0xFCA JUMP JUMPDEST SWAP1 POP SWAP3 SWAP2 POP POP JUMP JUMPDEST PUSH1 0x40 DUP3 ADD PUSH1 0x0 DUP3 ADD MLOAD PUSH2 0x1060 PUSH1 0x0 DUP6 ADD DUP3 PUSH2 0xF4E JUMP JUMPDEST POP PUSH1 0x20 DUP3 ADD MLOAD PUSH2 0x1073 PUSH1 0x20 DUP6 ADD DUP3 PUSH2 0xF67 JUMP JUMPDEST POP POP POP POP JUMP JUMPDEST PUSH1 0x0 PUSH1 0x40 DUP3 ADD SWAP1 POP PUSH2 0x108E PUSH1 0x0 DUP4 ADD DUP5 PUSH2 0x104A JUMP JUMPDEST SWAP3 SWAP2 POP POP JUMP JUMPDEST PUSH1 0x0 DUP3 DUP3 MSTORE PUSH1 0x20 DUP3 ADD SWAP1 POP SWAP3 SWAP2 POP POP JUMP JUMPDEST PUSH32 0x4269642066696E69736865640000000000000000000000000000000000000000 PUSH1 0x0 DUP3 ADD MSTORE POP JUMP JUMPDEST PUSH1 0x0 PUSH2 0x10DB PUSH1 0xC DUP4 PUSH2 0x1094 JUMP JUMPDEST SWAP2 POP PUSH2 0x10E6 DUP3 PUSH2 0x10A5 JUMP JUMPDEST PUSH1 0x20 DUP3 ADD SWAP1 POP SWAP2 SWAP1 POP JUMP JUMPDEST PUSH1 0x0 PUSH1 0x20 DUP3 ADD SWAP1 POP DUP2 DUP2 SUB PUSH1 0x0 DUP4 ADD MSTORE PUSH2 0x110A DUP2 PUSH2 0x10CE JUMP JUMPDEST SWAP1 POP SWAP2 SWAP1 POP JUMP JUMPDEST PUSH32 0x496E76616C69642073656E646572206164647265737300000000000000000000 PUSH1 0x0 DUP3 ADD MSTORE POP JUMP JUMPDEST PUSH1 0x0 PUSH2 0x1147 PUSH1 0x16 DUP4 PUSH2 0x1094 JUMP JUMPDEST SWAP2 POP PUSH2 0x1152 DUP3 PUSH2 0x1111 JUMP JUMPDEST PUSH1 0x20 DUP3 ADD SWAP1 POP SWAP2 SWAP1 POP JUMP JUMPDEST PUSH1 0x0 PUSH1 0x20 DUP3 ADD SWAP1 POP DUP2 DUP2 SUB PUSH1 0x0 DUP4 ADD MSTORE PUSH2 0x1176 DUP2 PUSH2 0x113A JUMP JUMPDEST SWAP1 POP SWAP2 SWAP1 POP JUMP JUMPDEST PUSH32 0x4E487B7100000000000000000000000000000000000000000000000000000000 PUSH1 0x0 MSTORE PUSH1 0x11 PUSH1 0x4 MSTORE PUSH1 0x24 PUSH1 0x0 REVERT JUMPDEST PUSH1 0x0 PUSH2 0x11B7 DUP3 PUSH2 0xF5D JUMP JUMPDEST SWAP2 POP PUSH2 0x11C2 DUP4 PUSH2 0xF5D JUMP JUMPDEST SWAP3 POP DUP3 DUP3 ADD SWAP1 POP DUP1 DUP3 GT ISZERO PUSH2 0x11DA JUMPI PUSH2 0x11D9 PUSH2 0x117D JUMP JUMPDEST JUMPDEST SWAP3 SWAP2 POP POP JUMP JUMPDEST PUSH2 0x11E9 DUP2 PUSH2 0xF5D JUMP JUMPDEST DUP3 MSTORE POP POP JUMP JUMPDEST PUSH1 0x0 PUSH1 0x20 DUP3 ADD SWAP1 POP PUSH2 0x1204 PUSH1 0x0 DUP4 ADD DUP5 PUSH2 0x11E0 JUMP JUMPDEST SWAP3 SWAP2 POP POP JUMP JUMPDEST PUSH1 0x0 PUSH2 0x1215 DUP3 PUSH2 0xF5D JUMP JUMPDEST SWAP2 POP PUSH2 0x1220 DUP4 PUSH2 0xF5D JUMP JUMPDEST SWAP3 POP DUP3 DUP3 SUB SWAP1 POP DUP2 DUP2 GT ISZERO PUSH2 0x1238 JUMPI PUSH2 0x1237 PUSH2 0x117D JUMP JUMPDEST JUMPDEST SWAP3 SWAP2 POP POP JUMP JUMPDEST PUSH32 0x4E6F7468696E6720746F20776974686472617700000000000000000000000000 PUSH1 0x0 DUP3 ADD MSTORE POP JUMP JUMPDEST PUSH1 0x0 PUSH2 0x1274 PUSH1 0x13 DUP4 PUSH2 0x1094 JUMP JUMPDEST SWAP2 POP PUSH2 0x127F DUP3 PUSH2 0x123E JUMP JUMPDEST PUSH1 0x20 DUP3 ADD SWAP1 POP SWAP2 SWAP1 POP JUMP JUMPDEST PUSH1 0x0 PUSH1 0x20 DUP3 ADD SWAP1 POP DUP2 DUP2 SUB PUSH1 0x0 DUP4 ADD MSTORE PUSH2 0x12A3 DUP2 PUSH2 0x1267 JUMP JUMPDEST SWAP1 POP SWAP2 SWAP1 POP JUMP JUMPDEST PUSH1 0x0 DUP2 SWAP1 POP SWAP3 SWAP2 POP POP JUMP JUMPDEST POP JUMP JUMPDEST PUSH1 0x0 PUSH2 0x12C5 PUSH1 0x0 DUP4 PUSH2 0x12AA JUMP JUMPDEST SWAP2 POP PUSH2 0x12D0 DUP3 PUSH2 0x12B5 JUMP JUMPDEST PUSH1 0x0 DUP3 ADD SWAP1 POP SWAP2 SWAP1 POP JUMP JUMPDEST PUSH1 0x0 PUSH2 0x12E6 DUP3 PUSH2 0x12B8 JUMP JUMPDEST SWAP2 POP DUP2 SWAP1 POP SWAP2 SWAP1 POP JUMP JUMPDEST PUSH32 0x5472616E73666572204661696C65640000000000000000000000000000000000 PUSH1 0x0 DUP3 ADD MSTORE POP JUMP JUMPDEST PUSH1 0x0 PUSH2 0x1326 PUSH1 0xF DUP4 PUSH2 0x1094 JUMP JUMPDEST SWAP2 POP PUSH2 0x1331 DUP3 PUSH2 0x12F0 JUMP JUMPDEST PUSH1 0x20 DUP3 ADD SWAP1 POP SWAP2 SWAP1 POP JUMP JUMPDEST PUSH1 0x0 PUSH1 0x20 DUP3 ADD SWAP1 POP DUP2 DUP2 SUB PUSH1 0x0 DUP4 ADD MSTORE PUSH2 0x1355 DUP2 PUSH2 0x1319 JUMP JUMPDEST SWAP1 POP SWAP2 SWAP1 POP JUMP JUMPDEST PUSH32 0x4F6E6C7920746865206F776E65722063616E2072756E20746869732066756E63 PUSH1 0x0 DUP3 ADD MSTORE PUSH32 0x74696F6E00000000000000000000000000000000000000000000000000000000 PUSH1 0x20 DUP3 ADD MSTORE POP JUMP JUMPDEST PUSH1 0x0 PUSH2 0x13B8 PUSH1 0x24 DUP4 PUSH2 0x1094 JUMP JUMPDEST SWAP2 POP PUSH2 0x13C3 DUP3 PUSH2 0x135C JUMP JUMPDEST PUSH1 0x40 DUP3 ADD SWAP1 POP SWAP2 SWAP1 POP JUMP JUMPDEST PUSH1 0x0 PUSH1 0x20 DUP3 ADD SWAP1 POP DUP2 DUP2 SUB PUSH1 0x0 DUP4 ADD MSTORE PUSH2 0x13E7 DUP2 PUSH2 0x13AB JUMP JUMPDEST SWAP1 POP SWAP2 SWAP1 POP JUMP JUMPDEST PUSH32 0x426964206E6F742066696E697368656420796574000000000000000000000000 PUSH1 0x0 DUP3 ADD MSTORE POP JUMP JUMPDEST PUSH1 0x0 PUSH2 0x1424 PUSH1 0x14 DUP4 PUSH2 0x1094 JUMP JUMPDEST SWAP2 POP PUSH2 0x142F DUP3 PUSH2 0x13EE JUMP JUMPDEST PUSH1 0x20 DUP3 ADD SWAP1 POP SWAP2 SWAP1 POP JUMP JUMPDEST PUSH1 0x0 PUSH1 0x20 DUP3 ADD SWAP1 POP DUP2 DUP2 SUB PUSH1 0x0 DUP4 ADD MSTORE PUSH2 0x1453 DUP2 PUSH2 0x1417 JUMP JUMPDEST SWAP1 POP SWAP2 SWAP1 POP JUMP JUMPDEST PUSH32 0x4E487B7100000000000000000000000000000000000000000000000000000000 PUSH1 0x0 MSTORE PUSH1 0x32 PUSH1 0x4 MSTORE PUSH1 0x24 PUSH1 0x0 REVERT JUMPDEST PUSH1 0x0 PUSH2 0x1494 DUP3 PUSH2 0xF5D JUMP JUMPDEST SWAP2 POP PUSH32 0xFFFFFFFFFFFFFFFFFFFFFFFFFFFFFFFFFFFFFFFFFFFFFFFFFFFFFFFFFFFFFFFF DUP3 SUB PUSH2 0x14C6 JUMPI PUSH2 0x14C5 PUSH2 0x117D JUMP JUMPDEST JUMPDEST PUSH1 0x1 DUP3 ADD SWAP1 POP SWAP2 SWAP1 POP JUMP JUMPDEST PUSH1 0x0 PUSH2 0x14DC DUP3 PUSH2 0xF5D JUMP JUMPDEST SWAP2 POP PUSH2 0x14E7 DUP4 PUSH2 0xF5D JUMP JUMPDEST SWAP3 POP DUP3 DUP3 MUL PUSH2 0x14F5 DUP2 PUSH2 0xF5D JUMP JUMPDEST SWAP2 POP DUP3 DUP3 DIV DUP5 EQ DUP4 ISZERO OR PUSH2 0x150C JUMPI PUSH2 0x150B PUSH2 0x117D JUMP JUMPDEST JUMPDEST POP SWAP3 SWAP2 POP POP JUMP JUMPDEST PUSH32 0x4E487B7100000000000000000000000000000000000000000000000000000000 PUSH1 0x0 MSTORE PUSH1 0x12 PUSH1 0x4 MSTORE PUSH1 0x24 PUSH1 0x0 REVERT JUMPDEST PUSH1 0x0 PUSH2 0x154D DUP3 PUSH2 0xF5D JUMP JUMPDEST SWAP2 POP PUSH2 0x1558 DUP4 PUSH2 0xF5D JUMP JUMPDEST SWAP3 POP DUP3 PUSH2 0x1568 JUMPI PUSH2 0x1567 PUSH2 0x1513 JUMP JUMPDEST JUMPDEST DUP3 DUP3 DIV SWAP1 POP SWAP3 SWAP2 POP POP JUMP INVALID LOG2 PUSH5 0x6970667358 0x22 SLT KECCAK256 0xD4 SWAP5 CALLVALUE 0xA7 DUP10 PUSH24 0xFBAC29ED82E530A66DDD75169AD74FDB72B68425C73022DE STATICCALL 0xCE PUSH5 0x736F6C6343 STOP ADDMOD SLT STOP CALLER "
		},
		"gasEstimates": {
			"creation": {
				"codeDepositCost": "1109000",
				"executionCost": "infinite",
				"totalCost": "infinite"
			},
			"external": {
				"bid()": "infinite",
				"partialRefund()": "infinite",
				"refund()": "infinite",
				"showOffers()": "infinite",
				"showWinner()": "5033"
			},
			"internal": {
				"_checkFee(uint256)": "infinite",
				"_checkOffer(uint256)": "infinite"
			}
		},
		"methodIdentifiers": {
			"bid()": "1998aeef",
			"partialRefund()": "1ce2bcf5",
			"refund()": "590e1ae3",
			"showOffers()": "534823bf",
			"showWinner()": "b7e03264"
		}
	},
	"abi": [
		{
			"inputs": [],
			"stateMutability": "nonpayable",
			"type": "constructor"
		},
		{
			"anonymous": false,
			"inputs": [
				{
					"indexed": false,
					"internalType": "uint256",
					"name": "newEndTime",
					"type": "uint256"
				}
			],
			"name": "AuctionExtended",
			"type": "event"
		},
		{
			"anonymous": false,
			"inputs": [
				{
					"indexed": true,
					"internalType": "address",
					"name": "winner",
					"type": "address"
				},
				{
					"indexed": false,
					"internalType": "uint256",
					"name": "amount",
					"type": "uint256"
				}
			],
			"name": "FinalWinner",
			"type": "event"
		},
		{
			"anonymous": false,
			"inputs": [
				{
					"indexed": true,
					"internalType": "address",
					"name": "bidder",
					"type": "address"
				},
				{
					"indexed": false,
					"internalType": "uint256",
					"name": "amount",
					"type": "uint256"
				}
			],
			"name": "NewHighestBid",
			"type": "event"
		},
		{
			"anonymous": false,
			"inputs": [
				{
					"indexed": true,
					"internalType": "address",
					"name": "winner",
					"type": "address"
				},
				{
					"indexed": false,
					"internalType": "uint256",
					"name": "amount",
					"type": "uint256"
				}
			],
			"name": "PartialRefund",
			"type": "event"
		},
		{
			"inputs": [],
			"name": "bid",
			"outputs": [],
			"stateMutability": "payable",
			"type": "function"
		},
		{
			"inputs": [],
			"name": "partialRefund",
			"outputs": [],
			"stateMutability": "nonpayable",
			"type": "function"
		},
		{
			"inputs": [],
			"name": "refund",
			"outputs": [],
			"stateMutability": "nonpayable",
			"type": "function"
		},
		{
			"inputs": [],
			"name": "showOffers",
			"outputs": [
				{
					"components": [
						{
							"internalType": "address",
							"name": "bider",
							"type": "address"
						},
						{
							"internalType": "uint256",
							"name": "value",
							"type": "uint256"
						}
					],
					"internalType": "struct Auction.Biders[]",
					"name": "",
					"type": "tuple[]"
				}
			],
			"stateMutability": "view",
			"type": "function"
		},
		{
			"inputs": [],
			"name": "showWinner",
			"outputs": [
				{
					"components": [
						{
							"internalType": "address",
							"name": "bider",
							"type": "address"
						},
						{
							"internalType": "uint256",
							"name": "value",
							"type": "uint256"
						}
					],
					"internalType": "struct Auction.Biders",
					"name": "",
					"type": "tuple"
				}
			],
			"stateMutability": "view",
			"type": "function"
		}
	]
}